{
  "_format": "hh-sol-artifact-1",
  "contractName": "PythAdapter",
  "sourceName": "contracts/oracles/PythAdapter.sol",
  "abi": [
    {
      "inputs": [
        {
          "internalType": "address",
          "name": "_pyth",
          "type": "address"
        }
      ],
      "stateMutability": "nonpayable",
      "type": "constructor"
    },
    {
      "anonymous": false,
      "inputs": [],
      "name": "ContractSetOwnerless",
      "type": "event"
    },
    {
      "anonymous": false,
      "inputs": [
        {
          "indexed": true,
          "internalType": "address",
          "name": "token",
          "type": "address"
        }
      ],
      "name": "PriceIdRemoved",
      "type": "event"
    },
    {
      "anonymous": false,
      "inputs": [
        {
          "indexed": true,
          "internalType": "address",
          "name": "token",
          "type": "address"
        },
        {
          "indexed": true,
          "internalType": "bytes32",
          "name": "priceId",
          "type": "bytes32"
        }
      ],
      "name": "PriceIdSet",
      "type": "event"
    },
    {
      "inputs": [
        {
          "internalType": "address",
          "name": "token",
          "type": "address"
        }
      ],
      "name": "getPrice",
      "outputs": [
        {
          "internalType": "uint256",
          "name": "price",
          "type": "uint256"
        },
        {
          "internalType": "uint8",
          "name": "decimals",
          "type": "uint8"
        },
        {
          "internalType": "uint256",
          "name": "timestamp",
          "type": "uint256"
        }
      ],
      "stateMutability": "view",
      "type": "function"
    },
    {
      "inputs": [
        {
          "internalType": "address",
          "name": "token",
          "type": "address"
        }
      ],
      "name": "hasPriceFeed",
      "outputs": [
        {
          "internalType": "bool",
          "name": "exists",
          "type": "bool"
        }
      ],
      "stateMutability": "view",
      "type": "function"
    },
    {
      "inputs": [],
      "name": "owner",
      "outputs": [
        {
          "internalType": "address",
          "name": "",
          "type": "address"
        }
      ],
      "stateMutability": "view",
      "type": "function"
    },
    {
      "inputs": [
        {
          "internalType": "address",
          "name": "",
          "type": "address"
        }
      ],
      "name": "priceIds",
      "outputs": [
        {
          "internalType": "bytes32",
          "name": "",
          "type": "bytes32"
        }
      ],
      "stateMutability": "view",
      "type": "function"
    },
    {
      "inputs": [],
      "name": "pyth",
      "outputs": [
        {
          "internalType": "contract IPyth",
          "name": "",
          "type": "address"
        }
      ],
      "stateMutability": "view",
      "type": "function"
    },
    {
      "inputs": [
        {
          "internalType": "address",
          "name": "token",
          "type": "address"
        }
      ],
      "name": "removePriceId",
      "outputs": [],
      "stateMutability": "nonpayable",
      "type": "function"
    },
    {
      "inputs": [],
      "name": "setOwnerless",
      "outputs": [],
      "stateMutability": "nonpayable",
      "type": "function"
    },
    {
      "inputs": [
        {
          "internalType": "address",
          "name": "token",
          "type": "address"
        },
        {
          "internalType": "bytes32",
          "name": "priceId",
          "type": "bytes32"
        }
      ],
      "name": "setPriceId",
      "outputs": [],
      "stateMutability": "nonpayable",
      "type": "function"
    },
    {
      "inputs": [
        {
          "internalType": "address",
          "name": "newOwner",
          "type": "address"
        }
      ],
      "name": "transferOwnership",
      "outputs": [],
      "stateMutability": "nonpayable",
      "type": "function"
    }
  ],
  "bytecode": "0x608060405234801561001057600080fd5b50604051610a69380380610a6983398101604081905261002f916100b7565b6001600160a01b0381166100895760405162461bcd60e51b815260206004820152601460248201527f496e76616c696420507974682061646472657373000000000000000000000000604482015260640160405180910390fd5b600080546001600160a01b039092166001600160a01b031992831617905560028054909116331790556100e7565b6000602082840312156100c957600080fd5b81516001600160a01b03811681146100e057600080fd5b9392505050565b610973806100f66000396000f3fe608060405234801561001057600080fd5b50600436106100935760003560e01c80638da5cb5b116100665780638da5cb5b14610125578063db7a682814610150578063f1ee92c41461017e578063f2fde38b14610191578063f98d06f0146101a457600080fd5b80630b7983a2146100985780631aa7a3d9146100d857806341976e09146100e25780635ff6772b14610112575b600080fd5b6100c36100a636600461067e565b6001600160a01b0316600090815260016020526040902054151590565b60405190151581526020015b60405180910390f35b6100e06101b7565b005b6100f56100f036600461067e565b610225565b6040805193845260ff9092166020840152908201526060016100cf565b6100e06101203660046106a0565b610413565b600254610138906001600160a01b031681565b6040516001600160a01b0390911681526020016100cf565b61017061015e36600461067e565b60016020526000908152604090205481565b6040519081526020016100cf565b6100e061018c36600461067e565b61050a565b6100e061019f36600461067e565b6105d0565b600054610138906001600160a01b031681565b6002546001600160a01b031633146101ea5760405162461bcd60e51b81526004016101e1906106ca565b60405180910390fd5b6040517f2ba54d6a3cc9b09a35290d130bee17be374bd7785c0ed3299961362e1c3bddaf90600090a1600280546001600160a01b0319169055565b6001600160a01b03811660009081526001602052604081205481908190806102825760405162461bcd60e51b815260206004820152601060248201526f141c9a58d9481251081b9bdd081cd95d60821b60448201526064016101e1565b600080546040516396834ad360e01b8152600481018490526001600160a01b03909116906396834ad390602401608060405180830381865afa1580156102cc573d6000803e3d6000fd5b505050506040513d601f19601f820116820180604052508101906102f09190610718565b90506000816000015160070b136103395760405162461bcd60e51b815260206004820152600d60248201526c496e76616c696420707269636560981b60448201526064016101e1565b60008160600151116103835760405162461bcd60e51b8152602060048201526013602482015272141c9a58d9481b9bdd081c1d589b1a5cda1959606a1b60448201526064016101e1565b604081015160089060009061039890836107be565b90506000808260030b126103ce576103b182600a6108cf565b84516103c7919067ffffffffffffffff166108e1565b90506103fb565b6103d7826108f8565b6103e290600a6108cf565b84516103f8919067ffffffffffffffff1661091b565b90505b60609093015192986008985092965091945050505050565b6002546001600160a01b0316331461043d5760405162461bcd60e51b81526004016101e1906106ca565b6001600160a01b0382166104835760405162461bcd60e51b815260206004820152600d60248201526c24b73b30b634b2103a37b5b2b760991b60448201526064016101e1565b806104c35760405162461bcd60e51b815260206004820152601060248201526f125b9d985b1a59081c1c9a58d948125160821b60448201526064016101e1565b6001600160a01b038216600081815260016020526040808220849055518392917f6578c1a1051ae85e00f128678beada55e53d2f37f26bc83b4d79b2b77b51fef291a35050565b6002546001600160a01b031633146105345760405162461bcd60e51b81526004016101e1906106ca565b6001600160a01b03811660009081526001602052604090205461058c5760405162461bcd60e51b815260206004820152601060248201526f141c9a58d9481251081b9bdd081cd95d60821b60448201526064016101e1565b6001600160a01b038116600081815260016020526040808220829055517f51366f46ef069d0a7788dc60e3872493534200cdf4ac68063fead736e7eee4d29190a250565b6002546001600160a01b031633146105fa5760405162461bcd60e51b81526004016101e1906106ca565b6001600160a01b0381166106405760405162461bcd60e51b815260206004820152600d60248201526c24b73b30b634b21037bbb732b960991b60448201526064016101e1565b600280546001600160a01b0319166001600160a01b0392909216919091179055565b80356001600160a01b038116811461067957600080fd5b919050565b60006020828403121561069057600080fd5b61069982610662565b9392505050565b600080604083850312156106b357600080fd5b6106bc83610662565b946020939093013593505050565b6020808252600a908201526927b7363c9037bbb732b960b11b604082015260600190565b805167ffffffffffffffff8116811461067957600080fd5b8051600381900b811461067957600080fd5b60006080828403121561072a57600080fd5b6040516080810181811067ffffffffffffffff8211171561075b57634e487b7160e01b600052604160045260246000fd5b6040528251600781900b811461077057600080fd5b815261077e602084016106ee565b602082015261078f60408401610706565b6040820152606083015160608201528091505092915050565b634e487b7160e01b600052601160045260246000fd5b600381810b9083900b01637fffffff8113637fffffff19821217156107e5576107e56107a8565b92915050565b600181815b8085111561082657816000190482111561080c5761080c6107a8565b8085161561081957918102915b93841c93908002906107f0565b509250929050565b60008261083d575060016107e5565b8161084a575060006107e5565b8160018114610860576002811461086a57610886565b60019150506107e5565b60ff84111561087b5761087b6107a8565b50506001821b6107e5565b5060208310610133831016604e8410600b84101617156108a9575081810a6107e5565b6108b383836107eb565b80600019048211156108c7576108c76107a8565b029392505050565b600061069963ffffffff84168361082e565b80820281158282048414176107e5576107e56107a8565b60008160030b637fffffff198103610912576109126107a8565b60000392915050565b60008261093857634e487b7160e01b600052601260045260246000fd5b50049056fea2646970667358221220d2285e8edbaf219511ecb0dbefe502cbde60c4ae62bb29eb0e53d62f4383431864736f6c63430008140033",
  "linkReferences": {},
  "deployedLinkReferences": {}
}