{
  "_format": "hh-sol-artifact-1",
  "contractName": "Market",
  "sourceName": "contracts/market/Market.sol",
  "abi": [
    {
      "inputs": [
        {
          "internalType": "string",
          "name": "name",
          "type": "string"
        },
        {
          "internalType": "string",
          "name": "symbol",
          "type": "string"
        },
        {
          "internalType": "address",
          "name": "_treasury",
          "type": "address"
        },
        {
          "internalType": "address",
          "name": "_tokenGate",
          "type": "address"
        }
      ],
      "stateMutability": "nonpayable",
      "type": "constructor"
    },
    {
      "anonymous": false,
      "inputs": [
        {
          "indexed": true,
          "internalType": "address",
          "name": "owner",
          "type": "address"
        },
        {
          "indexed": true,
          "internalType": "address",
          "name": "spender",
          "type": "address"
        },
        {
          "indexed": false,
          "internalType": "uint256",
          "name": "value",
          "type": "uint256"
        }
      ],
      "name": "Approval",
      "type": "event"
    },
    {
      "anonymous": false,
      "inputs": [
        {
          "indexed": true,
          "internalType": "uint256",
          "name": "txId",
          "type": "uint256"
        },
        {
          "indexed": true,
          "internalType": "address",
          "name": "user",
          "type": "address"
        },
        {
          "indexed": false,
          "internalType": "uint256",
          "name": "amount",
          "type": "uint256"
        },
        {
          "indexed": false,
          "internalType": "address",
          "name": "paymentToken",
          "type": "address"
        },
        {
          "indexed": false,
          "internalType": "uint256",
          "name": "paidAmount",
          "type": "uint256"
        }
      ],
      "name": "Credit",
      "type": "event"
    },
    {
      "anonymous": false,
      "inputs": [
        {
          "indexed": true,
          "internalType": "uint256",
          "name": "txId",
          "type": "uint256"
        },
        {
          "indexed": true,
          "internalType": "address",
          "name": "client",
          "type": "address"
        },
        {
          "indexed": true,
          "internalType": "address",
          "name": "provider",
          "type": "address"
        },
        {
          "indexed": false,
          "internalType": "uint256",
          "name": "amount",
          "type": "uint256"
        },
        {
          "indexed": false,
          "internalType": "uint256",
          "name": "treasuryFee",
          "type": "uint256"
        },
        {
          "indexed": false,
          "internalType": "uint256",
          "name": "providerAmount",
          "type": "uint256"
        }
      ],
      "name": "Debit",
      "type": "event"
    },
    {
      "anonymous": false,
      "inputs": [
        {
          "indexed": true,
          "internalType": "address",
          "name": "previousOwner",
          "type": "address"
        },
        {
          "indexed": true,
          "internalType": "address",
          "name": "newOwner",
          "type": "address"
        }
      ],
      "name": "OwnershipTransferred",
      "type": "event"
    },
    {
      "anonymous": false,
      "inputs": [
        {
          "indexed": true,
          "internalType": "address",
          "name": "newTokenGate",
          "type": "address"
        }
      ],
      "name": "TokenGateUpdated",
      "type": "event"
    },
    {
      "anonymous": false,
      "inputs": [
        {
          "indexed": true,
          "internalType": "address",
          "name": "from",
          "type": "address"
        },
        {
          "indexed": true,
          "internalType": "address",
          "name": "to",
          "type": "address"
        },
        {
          "indexed": false,
          "internalType": "uint256",
          "name": "value",
          "type": "uint256"
        }
      ],
      "name": "Transfer",
      "type": "event"
    },
    {
      "anonymous": false,
      "inputs": [
        {
          "indexed": true,
          "internalType": "address",
          "name": "newTreasury",
          "type": "address"
        }
      ],
      "name": "TreasuryUpdated",
      "type": "event"
    },
    {
      "anonymous": false,
      "inputs": [
        {
          "indexed": true,
          "internalType": "uint256",
          "name": "txId",
          "type": "uint256"
        },
        {
          "indexed": true,
          "internalType": "address",
          "name": "user",
          "type": "address"
        },
        {
          "indexed": false,
          "internalType": "uint256",
          "name": "amount",
          "type": "uint256"
        },
        {
          "indexed": false,
          "internalType": "address",
          "name": "paymentToken",
          "type": "address"
        },
        {
          "indexed": false,
          "internalType": "uint256",
          "name": "receivedAmount",
          "type": "uint256"
        }
      ],
      "name": "Withdrawal",
      "type": "event"
    },
    {
      "inputs": [],
      "name": "TREASURY_FEE_PERCENT",
      "outputs": [
        {
          "internalType": "uint256",
          "name": "",
          "type": "uint256"
        }
      ],
      "stateMutability": "view",
      "type": "function"
    },
    {
      "inputs": [
        {
          "internalType": "address",
          "name": "owner",
          "type": "address"
        },
        {
          "internalType": "address",
          "name": "spender",
          "type": "address"
        }
      ],
      "name": "allowance",
      "outputs": [
        {
          "internalType": "uint256",
          "name": "",
          "type": "uint256"
        }
      ],
      "stateMutability": "view",
      "type": "function"
    },
    {
      "inputs": [
        {
          "internalType": "address",
          "name": "spender",
          "type": "address"
        },
        {
          "internalType": "uint256",
          "name": "amount",
          "type": "uint256"
        }
      ],
      "name": "approve",
      "outputs": [
        {
          "internalType": "bool",
          "name": "",
          "type": "bool"
        }
      ],
      "stateMutability": "nonpayable",
      "type": "function"
    },
    {
      "inputs": [
        {
          "internalType": "address",
          "name": "account",
          "type": "address"
        }
      ],
      "name": "balanceOf",
      "outputs": [
        {
          "internalType": "uint256",
          "name": "",
          "type": "uint256"
        }
      ],
      "stateMutability": "view",
      "type": "function"
    },
    {
      "inputs": [
        {
          "internalType": "address",
          "name": "paymentToken",
          "type": "address"
        },
        {
          "internalType": "uint256",
          "name": "stableAmount",
          "type": "uint256"
        }
      ],
      "name": "credit",
      "outputs": [
        {
          "internalType": "uint256",
          "name": "",
          "type": "uint256"
        }
      ],
      "stateMutability": "nonpayable",
      "type": "function"
    },
    {
      "inputs": [
        {
          "internalType": "address",
          "name": "client",
          "type": "address"
        },
        {
          "internalType": "address",
          "name": "provider",
          "type": "address"
        },
        {
          "internalType": "uint256",
          "name": "stableAmount",
          "type": "uint256"
        }
      ],
      "name": "debit",
      "outputs": [
        {
          "internalType": "uint256",
          "name": "",
          "type": "uint256"
        }
      ],
      "stateMutability": "nonpayable",
      "type": "function"
    },
    {
      "inputs": [],
      "name": "decimals",
      "outputs": [
        {
          "internalType": "uint8",
          "name": "",
          "type": "uint8"
        }
      ],
      "stateMutability": "pure",
      "type": "function"
    },
    {
      "inputs": [
        {
          "internalType": "address",
          "name": "spender",
          "type": "address"
        },
        {
          "internalType": "uint256",
          "name": "subtractedValue",
          "type": "uint256"
        }
      ],
      "name": "decreaseAllowance",
      "outputs": [
        {
          "internalType": "bool",
          "name": "",
          "type": "bool"
        }
      ],
      "stateMutability": "nonpayable",
      "type": "function"
    },
    {
      "inputs": [
        {
          "internalType": "address",
          "name": "user",
          "type": "address"
        }
      ],
      "name": "getBalance",
      "outputs": [
        {
          "internalType": "uint256",
          "name": "",
          "type": "uint256"
        }
      ],
      "stateMutability": "view",
      "type": "function"
    },
    {
      "inputs": [],
      "name": "getClaimedTreasuryFeesUSD",
      "outputs": [
        {
          "internalType": "uint256",
          "name": "",
          "type": "uint256"
        }
      ],
      "stateMutability": "view",
      "type": "function"
    },
    {
      "inputs": [
        {
          "internalType": "address",
          "name": "token",
          "type": "address"
        }
      ],
      "name": "getTokenPrice",
      "outputs": [
        {
          "internalType": "uint256",
          "name": "price",
          "type": "uint256"
        },
        {
          "internalType": "uint8",
          "name": "tokenDecimals",
          "type": "uint8"
        },
        {
          "internalType": "uint256",
          "name": "timestamp",
          "type": "uint256"
        }
      ],
      "stateMutability": "view",
      "type": "function"
    },
    {
      "inputs": [],
      "name": "getUnclaimedTreasuryFFeesUSD",
      "outputs": [
        {
          "internalType": "uint256",
          "name": "",
          "type": "uint256"
        }
      ],
      "stateMutability": "view",
      "type": "function"
    },
    {
      "inputs": [
        {
          "internalType": "address",
          "name": "spender",
          "type": "address"
        },
        {
          "internalType": "uint256",
          "name": "addedValue",
          "type": "uint256"
        }
      ],
      "name": "increaseAllowance",
      "outputs": [
        {
          "internalType": "bool",
          "name": "",
          "type": "bool"
        }
      ],
      "stateMutability": "nonpayable",
      "type": "function"
    },
    {
      "inputs": [
        {
          "internalType": "address",
          "name": "token",
          "type": "address"
        }
      ],
      "name": "isTokenWhitelisted",
      "outputs": [
        {
          "internalType": "bool",
          "name": "",
          "type": "bool"
        }
      ],
      "stateMutability": "view",
      "type": "function"
    },
    {
      "inputs": [],
      "name": "name",
      "outputs": [
        {
          "internalType": "string",
          "name": "",
          "type": "string"
        }
      ],
      "stateMutability": "view",
      "type": "function"
    },
    {
      "inputs": [],
      "name": "nextTransactionId",
      "outputs": [
        {
          "internalType": "uint256",
          "name": "",
          "type": "uint256"
        }
      ],
      "stateMutability": "view",
      "type": "function"
    },
    {
      "inputs": [],
      "name": "owner",
      "outputs": [
        {
          "internalType": "address",
          "name": "",
          "type": "address"
        }
      ],
      "stateMutability": "view",
      "type": "function"
    },
    {
      "inputs": [],
      "name": "renounceOwnership",
      "outputs": [],
      "stateMutability": "nonpayable",
      "type": "function"
    },
    {
      "inputs": [
        {
          "internalType": "address",
          "name": "_tokenGate",
          "type": "address"
        }
      ],
      "name": "setTokenGate",
      "outputs": [],
      "stateMutability": "nonpayable",
      "type": "function"
    },
    {
      "inputs": [
        {
          "internalType": "address",
          "name": "_treasury",
          "type": "address"
        }
      ],
      "name": "setTreasury",
      "outputs": [],
      "stateMutability": "nonpayable",
      "type": "function"
    },
    {
      "inputs": [],
      "name": "symbol",
      "outputs": [
        {
          "internalType": "string",
          "name": "",
          "type": "string"
        }
      ],
      "stateMutability": "view",
      "type": "function"
    },
    {
      "inputs": [],
      "name": "tokenGate",
      "outputs": [
        {
          "internalType": "contract TokenGate",
          "name": "",
          "type": "address"
        }
      ],
      "stateMutability": "view",
      "type": "function"
    },
    {
      "inputs": [],
      "name": "totalSupply",
      "outputs": [
        {
          "internalType": "uint256",
          "name": "",
          "type": "uint256"
        }
      ],
      "stateMutability": "view",
      "type": "function"
    },
    {
      "inputs": [],
      "name": "totalTreasuryFeesAccrued",
      "outputs": [
        {
          "internalType": "uint256",
          "name": "",
          "type": "uint256"
        }
      ],
      "stateMutability": "view",
      "type": "function"
    },
    {
      "inputs": [
        {
          "internalType": "address",
          "name": "to",
          "type": "address"
        },
        {
          "internalType": "uint256",
          "name": "amount",
          "type": "uint256"
        }
      ],
      "name": "transfer",
      "outputs": [
        {
          "internalType": "bool",
          "name": "",
          "type": "bool"
        }
      ],
      "stateMutability": "nonpayable",
      "type": "function"
    },
    {
      "inputs": [
        {
          "internalType": "address",
          "name": "from",
          "type": "address"
        },
        {
          "internalType": "address",
          "name": "to",
          "type": "address"
        },
        {
          "internalType": "uint256",
          "name": "amount",
          "type": "uint256"
        }
      ],
      "name": "transferFrom",
      "outputs": [
        {
          "internalType": "bool",
          "name": "",
          "type": "bool"
        }
      ],
      "stateMutability": "nonpayable",
      "type": "function"
    },
    {
      "inputs": [
        {
          "internalType": "address",
          "name": "newOwner",
          "type": "address"
        }
      ],
      "name": "transferOwnership",
      "outputs": [],
      "stateMutability": "nonpayable",
      "type": "function"
    },
    {
      "inputs": [],
      "name": "treasury",
      "outputs": [
        {
          "internalType": "address",
          "name": "",
          "type": "address"
        }
      ],
      "stateMutability": "view",
      "type": "function"
    },
    {
      "inputs": [
        {
          "internalType": "address",
          "name": "paymentToken",
          "type": "address"
        },
        {
          "internalType": "uint256",
          "name": "stableAmount",
          "type": "uint256"
        }
      ],
      "name": "withdraw",
      "outputs": [
        {
          "internalType": "uint256",
          "name": "",
          "type": "uint256"
        }
      ],
      "stateMutability": "nonpayable",
      "type": "function"
    }
  ],
  "bytecode": "0x608060405260016009553480156200001657600080fd5b506040516200229e3803806200229e83398101604081905262000039916200026f565b838360036200004983826200038d565b5060046200005882826200038d565b50506001600555506200006b336200013b565b6001600160a01b038216620000ba5760405162461bcd60e51b815260206004820152601060248201526f496e76616c696420747265617375727960801b60448201526064015b60405180910390fd5b6001600160a01b038116620001065760405162461bcd60e51b8152602060048201526011602482015270496e76616c696420746f6b656e6761746560781b6044820152606401620000b1565b600780546001600160a01b039384166001600160a01b0319918216179091556008805492909316911617905550620004599050565b600680546001600160a01b038381166001600160a01b0319831681179093556040519116919082907f8be0079c531659141344cd1fd0a4f28419497f9722a3daafe3b4186f6b6457e090600090a35050565b634e487b7160e01b600052604160045260246000fd5b600082601f830112620001b557600080fd5b81516001600160401b0380821115620001d257620001d26200018d565b604051601f8301601f19908116603f01168101908282118183101715620001fd57620001fd6200018d565b816040528381526020925086838588010111156200021a57600080fd5b600091505b838210156200023e57858201830151818301840152908201906200021f565b600093810190920192909252949350505050565b80516001600160a01b03811681146200026a57600080fd5b919050565b600080600080608085870312156200028657600080fd5b84516001600160401b03808211156200029e57600080fd5b620002ac88838901620001a3565b95506020870151915080821115620002c357600080fd5b50620002d287828801620001a3565b935050620002e36040860162000252565b9150620002f36060860162000252565b905092959194509250565b600181811c908216806200031357607f821691505b6020821081036200033457634e487b7160e01b600052602260045260246000fd5b50919050565b601f8211156200038857600081815260208120601f850160051c81016020861015620003635750805b601f850160051c820191505b8181101562000384578281556001016200036f565b5050505b505050565b81516001600160401b03811115620003a957620003a96200018d565b620003c181620003ba8454620002fe565b846200033a565b602080601f831160018114620003f95760008415620003e05750858301515b600019600386901b1c1916600185901b17855562000384565b600085815260208120601f198616915b828110156200042a5788860151825594840194600190910190840162000409565b5085821015620004495787850151600019600388901b60f8161c191681555b5050505050600190811b01905550565b611e3580620004696000396000f3fe608060405234801561001057600080fd5b50600436106101cf5760003560e01c80637e8e2a8f11610104578063d7ca38f3116100a2578063f0f4426011610071578063f0f44260146103dd578063f2fde38b146103f0578063f3fef3a314610403578063f8b2cb4f1461041657600080fd5b8063d7ca38f3146103a6578063dd62ed3e146103af578063e111703a146103c2578063ef6506db146103ca57600080fd5b8063a457c2d7116100de578063a457c2d71461033d578063a9059cbb14610350578063b5af090f14610363578063d02641a01461037657600080fd5b80637e8e2a8f146103045780638da5cb5b1461032457806395d89b411461033557600080fd5b80634c93368c1161017157806361d027b31161014b57806361d027b3146102ab57806370a08231146102be578063715018a6146102e757806374c4c8f7146102f157600080fd5b80634c93368c1461026f57806350008e4a14610278578063583ea040146102a357600080fd5b806323b872dd116101ad57806323b872dd14610227578063262709e61461023a578063313ce5671461024d578063395093511461025c57600080fd5b806306fdde03146101d4578063095ea7b3146101f257806318160ddd14610215575b600080fd5b6101dc610429565b6040516101e99190611a7d565b60405180910390f35b610205610200366004611acc565b6104bb565b60405190151581526020016101e9565b6002545b6040519081526020016101e9565b610205610235366004611af6565b6104d5565b610219610248366004611af6565b6104fb565b604051600881526020016101e9565b61020561026a366004611acc565b61071c565b610219600a5481565b60085461028b906001600160a01b031681565b6040516001600160a01b0390911681526020016101e9565b61021961073e565b60075461028b906001600160a01b031681565b6102196102cc366004611b32565b6001600160a01b031660009081526020819052604090205490565b6102ef61077d565b005b6102ef6102ff366004611b32565b610791565b6007546001600160a01b0316600090815260208190526040902054610219565b6006546001600160a01b031661028b565b6101dc61082d565b61020561034b366004611acc565b61083c565b61020561035e366004611acc565b6108c2565b610205610371366004611b32565b6108d0565b610389610384366004611b32565b61093f565b6040805193845260ff9092166020840152908201526060016101e9565b61021960095481565b6102196103bd366004611b4d565b6109c1565b610219600581565b6102196103d8366004611acc565b6109ec565b6102ef6103eb366004611b32565b610cce565b6102ef6103fe366004611b32565b610d69565b610219610411366004611acc565b610de2565b610219610424366004611b32565b611105565b60606003805461043890611b80565b80601f016020809104026020016040519081016040528092919081815260200182805461046490611b80565b80156104b15780601f10610486576101008083540402835291602001916104b1565b820191906000526020600020905b81548152906001019060200180831161049457829003601f168201915b5050505050905090565b6000336104c9818585611123565b60019150505b92915050565b6000336104e3858285611248565b6104ee8585856112c2565b60019150505b9392505050565b6000610505611466565b61050d6114c0565b600082116105365760405162461bcd60e51b815260040161052d90611bba565b60405180910390fd5b6001600160a01b03841661057d5760405162461bcd60e51b815260206004820152600e60248201526d125b9d985b1a590818db1a595b9d60921b604482015260640161052d565b6001600160a01b0383166105c65760405162461bcd60e51b815260206004820152601060248201526f24b73b30b634b210383937bb34b232b960811b604482015260640161052d565b816105e6856001600160a01b031660009081526020819052604090205490565b101561062b5760405162461bcd60e51b8152602060048201526014602482015273496e73756666696369656e742062616c616e636560601b604482015260640161052d565b6000606461063a600585611bf8565b6106449190611c0f565b905060006106528285611c31565b905061065e8685611519565b600754610674906001600160a01b031683611648565b81600a60008282546106869190611c44565b9091555061069690508582611648565b60098054600091826106a783611c57565b919050559050856001600160a01b0316876001600160a01b0316827ff6d1dcb5eb94cff8a8b4cade594cd05268ace826f29ce2c5008fc7a24f22b23c888787604051610706939291909283526020830191909152604082015260600190565b60405180910390a4925050506104f46001600555565b6000336104c981858561072f83836109c1565b6107399190611c44565b611123565b6007546001600160a01b031660009081526020819052604081205480600a5411610769576000610777565b80600a546107779190611c31565b91505090565b610785611466565b61078f6000611707565b565b610799611466565b6001600160a01b0381166107e35760405162461bcd60e51b8152602060048201526011602482015270496e76616c696420746f6b656e6761746560781b604482015260640161052d565b600880546001600160a01b0319166001600160a01b0383169081179091556040517f05e4bd11b1381b0095f63c1a86ac851fe00d45afb8ef1dffb6399f9b9ec202cd90600090a250565b60606004805461043890611b80565b6000338161084a82866109c1565b9050838110156108aa5760405162461bcd60e51b815260206004820152602560248201527f45524332303a2064656372656173656420616c6c6f77616e63652062656c6f77604482015264207a65726f60d81b606482015260840161052d565b6108b78286868403611123565b506001949350505050565b6000336104c98185856112c2565b60085460405163b5af090f60e01b81526001600160a01b038381166004830152600092169063b5af090f90602401602060405180830381865afa15801561091b573d6000803e3d6000fd5b505050506040513d601f19601f820116820180604052508101906104cf9190611c70565b600854604051630681320d60e51b81526001600160a01b038381166004830152600092839283929091169063d02641a090602401606060405180830381865afa158015610990573d6000803e3d6000fd5b505050506040513d601f19601f820116820180604052508101906109b49190611ca3565b9250925092509193909250565b6001600160a01b03918216600090815260016020908152604080832093909416825291909152205490565b60006109f66114c0565b60008211610a165760405162461bcd60e51b815260040161052d90611bba565b60085460405163b5af090f60e01b81526001600160a01b0385811660048301529091169063b5af090f90602401602060405180830381865afa158015610a60573d6000803e3d6000fd5b505050506040513d601f19601f82011682018060405250810190610a849190611c70565b610ac85760405162461bcd60e51b8152602060048201526015602482015274151bdad95b881b9bdd081dda1a5d195b1a5cdd1959605a1b604482015260640161052d565b600854604051630681320d60e51b81526001600160a01b038581166004830152600092839291169063d02641a090602401606060405180830381865afa158015610b16573d6000803e3d6000fd5b505050506040513d601f19601f82011682018060405250810190610b3a9190611ca3565b509150915060008211610b7f5760405162461bcd60e51b815260206004820152600d60248201526c496e76616c696420707269636560981b604482015260640161052d565b6000856001600160a01b031663313ce5676040518163ffffffff1660e01b8152600401602060405180830381865afa158015610bbf573d6000803e3d6000fd5b505050506040513d601f19601f82011682018060405250810190610be39190611cd8565b90506000610bf36008600a611dd7565b610bfd9085611bf8565b610c0b60ff8516600a611dd7565b610c1960ff8516600a611dd7565b610c239089611bf8565b610c2d9190611bf8565b610c379190611c0f565b9050610c4e6001600160a01b038816333084611759565b610c583387611648565b6009805460009182610c6983611c57565b90915550604080518981526001600160a01b038b166020820152908101849052909150339082907f6b8848211abfdea24dea39fa2745a4d9d15c188717ad27a231de29e47d27e1b0906060015b60405180910390a39450505050506104cf6001600555565b610cd6611466565b6001600160a01b038116610d1f5760405162461bcd60e51b815260206004820152601060248201526f496e76616c696420747265617375727960801b604482015260640161052d565b600780546001600160a01b0319166001600160a01b0383169081179091556040517f7dae230f18360d76a040c81f050aa14eb9d6dc7901b20fc5d855e2a20fe814d190600090a250565b610d71611466565b6001600160a01b038116610dd65760405162461bcd60e51b815260206004820152602660248201527f4f776e61626c653a206e6577206f776e657220697320746865207a65726f206160448201526564647265737360d01b606482015260840161052d565b610ddf81611707565b50565b6000610dec6114c0565b60008211610e0c5760405162461bcd60e51b815260040161052d90611bba565b33600090815260208190526040902054821115610e625760405162461bcd60e51b8152602060048201526014602482015273496e73756666696369656e742062616c616e636560601b604482015260640161052d565b60085460405163b5af090f60e01b81526001600160a01b0385811660048301529091169063b5af090f90602401602060405180830381865afa158015610eac573d6000803e3d6000fd5b505050506040513d601f19601f82011682018060405250810190610ed09190611c70565b610f145760405162461bcd60e51b8152602060048201526015602482015274151bdad95b881b9bdd081dda1a5d195b1a5cdd1959605a1b604482015260640161052d565b600854604051630681320d60e51b81526001600160a01b038581166004830152600092839291169063d02641a090602401606060405180830381865afa158015610f62573d6000803e3d6000fd5b505050506040513d601f19601f82011682018060405250810190610f869190611ca3565b509150915060008211610fcb5760405162461bcd60e51b815260206004820152600d60248201526c496e76616c696420707269636560981b604482015260640161052d565b6000856001600160a01b031663313ce5676040518163ffffffff1660e01b8152600401602060405180830381865afa15801561100b573d6000803e3d6000fd5b505050506040513d601f19601f8201168201806040525081019061102f9190611cd8565b9050600061103f6008600a611dd7565b6110499085611bf8565b61105760ff8516600a611dd7565b61106560ff8516600a611dd7565b61106f9089611bf8565b6110799190611bf8565b6110839190611c0f565b905061108f3387611519565b6110a36001600160a01b03881633836117c4565b60098054600091826110b483611c57565b90915550604080518981526001600160a01b038b166020820152908101849052909150339082907f051d3c25696883cb50c923d33f58a95aac78ca7cd60e62eecddbf4e5cf8bd2b890606001610cb6565b6001600160a01b0381166000908152602081905260408120546104cf565b6001600160a01b0383166111855760405162461bcd60e51b8152602060048201526024808201527f45524332303a20617070726f76652066726f6d20746865207a65726f206164646044820152637265737360e01b606482015260840161052d565b6001600160a01b0382166111e65760405162461bcd60e51b815260206004820152602260248201527f45524332303a20617070726f766520746f20746865207a65726f206164647265604482015261737360f01b606482015260840161052d565b6001600160a01b0383811660008181526001602090815260408083209487168084529482529182902085905590518481527f8c5be1e5ebec7d5bd14f71427d1e84f3dd0314c0f7b2291e5b200ac8c7c3b92591015b60405180910390a3505050565b600061125484846109c1565b905060001981146112bc57818110156112af5760405162461bcd60e51b815260206004820152601d60248201527f45524332303a20696e73756666696369656e7420616c6c6f77616e6365000000604482015260640161052d565b6112bc8484848403611123565b50505050565b6001600160a01b0383166113265760405162461bcd60e51b815260206004820152602560248201527f45524332303a207472616e736665722066726f6d20746865207a65726f206164604482015264647265737360d81b606482015260840161052d565b6001600160a01b0382166113885760405162461bcd60e51b815260206004820152602360248201527f45524332303a207472616e7366657220746f20746865207a65726f206164647260448201526265737360e81b606482015260840161052d565b6001600160a01b038316600090815260208190526040902054818110156114005760405162461bcd60e51b815260206004820152602660248201527f45524332303a207472616e7366657220616d6f756e7420657863656564732062604482015265616c616e636560d01b606482015260840161052d565b6001600160a01b03848116600081815260208181526040808320878703905593871680835291849020805487019055925185815290927fddf252ad1be2c89b69c2b068fc378daa952ba7f163c4a11628f55a4df523b3ef910160405180910390a36112bc565b6006546001600160a01b0316331461078f5760405162461bcd60e51b815260206004820181905260248201527f4f776e61626c653a2063616c6c6572206973206e6f7420746865206f776e6572604482015260640161052d565b6002600554036115125760405162461bcd60e51b815260206004820152601f60248201527f5265656e7472616e637947756172643a207265656e7472616e742063616c6c00604482015260640161052d565b6002600555565b6001600160a01b0382166115795760405162461bcd60e51b815260206004820152602160248201527f45524332303a206275726e2066726f6d20746865207a65726f206164647265736044820152607360f81b606482015260840161052d565b6001600160a01b038216600090815260208190526040902054818110156115ed5760405162461bcd60e51b815260206004820152602260248201527f45524332303a206275726e20616d6f756e7420657863656564732062616c616e604482015261636560f01b606482015260840161052d565b6001600160a01b0383166000818152602081815260408083208686039055600280548790039055518581529192917fddf252ad1be2c89b69c2b068fc378daa952ba7f163c4a11628f55a4df523b3ef910161123b565b505050565b6001600160a01b03821661169e5760405162461bcd60e51b815260206004820152601f60248201527f45524332303a206d696e7420746f20746865207a65726f206164647265737300604482015260640161052d565b80600260008282546116b09190611c44565b90915550506001600160a01b038216600081815260208181526040808320805486019055518481527fddf252ad1be2c89b69c2b068fc378daa952ba7f163c4a11628f55a4df523b3ef910160405180910390a35050565b600680546001600160a01b038381166001600160a01b0319831681179093556040519116919082907f8be0079c531659141344cd1fd0a4f28419497f9722a3daafe3b4186f6b6457e090600090a35050565b6040516001600160a01b03808516602483015283166044820152606481018290526112bc9085906323b872dd60e01b906084015b60408051601f198184030181529190526020810180516001600160e01b03166001600160e01b0319909316929092179091526117f4565b6040516001600160a01b03831660248201526044810182905261164390849063a9059cbb60e01b9060640161178d565b6000611849826040518060400160405280602081526020017f5361666545524332303a206c6f772d6c6576656c2063616c6c206661696c6564815250856001600160a01b03166118c99092919063ffffffff16565b905080516000148061186a57508080602001905181019061186a9190611c70565b6116435760405162461bcd60e51b815260206004820152602a60248201527f5361666545524332303a204552433230206f7065726174696f6e20646964206e6044820152691bdd081cdd58d8d9595960b21b606482015260840161052d565b60606118d884846000856118e0565b949350505050565b6060824710156119415760405162461bcd60e51b815260206004820152602660248201527f416464726573733a20696e73756666696369656e742062616c616e636520666f6044820152651c8818d85b1b60d21b606482015260840161052d565b600080866001600160a01b0316858760405161195d9190611de3565b60006040518083038185875af1925050503d806000811461199a576040519150601f19603f3d011682016040523d82523d6000602084013e61199f565b606091505b50915091506119b0878383876119bb565b979650505050505050565b60608315611a2a578251600003611a23576001600160a01b0385163b611a235760405162461bcd60e51b815260206004820152601d60248201527f416464726573733a2063616c6c20746f206e6f6e2d636f6e7472616374000000604482015260640161052d565b50816118d8565b6118d88383815115611a3f5781518083602001fd5b8060405162461bcd60e51b815260040161052d9190611a7d565b60005b83811015611a74578181015183820152602001611a5c565b50506000910152565b6020815260008251806020840152611a9c816040850160208701611a59565b601f01601f19169190910160400192915050565b80356001600160a01b0381168114611ac757600080fd5b919050565b60008060408385031215611adf57600080fd5b611ae883611ab0565b946020939093013593505050565b600080600060608486031215611b0b57600080fd5b611b1484611ab0565b9250611b2260208501611ab0565b9150604084013590509250925092565b600060208284031215611b4457600080fd5b6104f482611ab0565b60008060408385031215611b6057600080fd5b611b6983611ab0565b9150611b7760208401611ab0565b90509250929050565b600181811c90821680611b9457607f821691505b602082108103611bb457634e487b7160e01b600052602260045260246000fd5b50919050565b6020808252600e908201526d125b9d985b1a5908185b5bdd5b9d60921b604082015260600190565b634e487b7160e01b600052601160045260246000fd5b80820281158282048414176104cf576104cf611be2565b600082611c2c57634e487b7160e01b600052601260045260246000fd5b500490565b818103818111156104cf576104cf611be2565b808201808211156104cf576104cf611be2565b600060018201611c6957611c69611be2565b5060010190565b600060208284031215611c8257600080fd5b815180151581146104f457600080fd5b805160ff81168114611ac757600080fd5b600080600060608486031215611cb857600080fd5b83519250611cc860208501611c92565b9150604084015190509250925092565b600060208284031215611cea57600080fd5b6104f482611c92565b600181815b80851115611d2e578160001904821115611d1457611d14611be2565b80851615611d2157918102915b93841c9390800290611cf8565b509250929050565b600082611d45575060016104cf565b81611d52575060006104cf565b8160018114611d685760028114611d7257611d8e565b60019150506104cf565b60ff841115611d8357611d83611be2565b50506001821b6104cf565b5060208310610133831016604e8410600b8410161715611db1575081810a6104cf565b611dbb8383611cf3565b8060001904821115611dcf57611dcf611be2565b029392505050565b60006104f48383611d36565b60008251611df5818460208701611a59565b919091019291505056fea264697066735822122056df1f875807902435112e771d7c252b830ba313b405fe524d9950290ccd671264736f6c63430008140033",
  "linkReferences": {},
  "deployedLinkReferences": {}
}