{
  "_format": "hh-sol-artifact-1",
  "contractName": "Registry",
  "sourceName": "contracts/registry/Registry.sol",
  "abi": [
    {
      "anonymous": false,
      "inputs": [
        {
          "indexed": true,
          "internalType": "uint256",
          "name": "modId",
          "type": "uint256"
        },
        {
          "indexed": true,
          "internalType": "address",
          "name": "owner",
          "type": "address"
        },
        {
          "indexed": false,
          "internalType": "string",
          "name": "data",
          "type": "string"
        }
      ],
      "name": "ModRegistered",
      "type": "event"
    },
    {
      "anonymous": false,
      "inputs": [
        {
          "indexed": true,
          "internalType": "uint256",
          "name": "modId",
          "type": "uint256"
        },
        {
          "indexed": true,
          "internalType": "address",
          "name": "owner",
          "type": "address"
        }
      ],
      "name": "ModRemoved",
      "type": "event"
    },
    {
      "anonymous": false,
      "inputs": [
        {
          "indexed": true,
          "internalType": "uint256",
          "name": "modId",
          "type": "uint256"
        },
        {
          "indexed": false,
          "internalType": "string",
          "name": "data",
          "type": "string"
        }
      ],
      "name": "ModUpdated",
      "type": "event"
    },
    {
      "anonymous": false,
      "inputs": [
        {
          "indexed": true,
          "internalType": "uint256",
          "name": "modId",
          "type": "uint256"
        },
        {
          "indexed": true,
          "internalType": "address",
          "name": "previousOwner",
          "type": "address"
        },
        {
          "indexed": true,
          "internalType": "address",
          "name": "newOwner",
          "type": "address"
        }
      ],
      "name": "OwnershipTransferred",
      "type": "event"
    },
    {
      "inputs": [
        {
          "internalType": "uint256",
          "name": "id",
          "type": "uint256"
        }
      ],
      "name": "getMod",
      "outputs": [
        {
          "internalType": "address",
          "name": "owner",
          "type": "address"
        },
        {
          "internalType": "string",
          "name": "data",
          "type": "string"
        }
      ],
      "stateMutability": "view",
      "type": "function"
    },
    {
      "inputs": [
        {
          "internalType": "address",
          "name": "user",
          "type": "address"
        }
      ],
      "name": "getUserMods",
      "outputs": [
        {
          "internalType": "uint256[]",
          "name": "",
          "type": "uint256[]"
        }
      ],
      "stateMutability": "view",
      "type": "function"
    },
    {
      "inputs": [
        {
          "internalType": "uint256",
          "name": "",
          "type": "uint256"
        }
      ],
      "name": "mods",
      "outputs": [
        {
          "internalType": "address",
          "name": "owner",
          "type": "address"
        },
        {
          "internalType": "string",
          "name": "data",
          "type": "string"
        }
      ],
      "stateMutability": "view",
      "type": "function"
    },
    {
      "inputs": [],
      "name": "nextModId",
      "outputs": [
        {
          "internalType": "uint256",
          "name": "",
          "type": "uint256"
        }
      ],
      "stateMutability": "view",
      "type": "function"
    },
    {
      "inputs": [
        {
          "internalType": "string",
          "name": "data",
          "type": "string"
        }
      ],
      "name": "registerMod",
      "outputs": [
        {
          "internalType": "uint256",
          "name": "",
          "type": "uint256"
        }
      ],
      "stateMutability": "nonpayable",
      "type": "function"
    },
    {
      "inputs": [
        {
          "internalType": "uint256",
          "name": "modId",
          "type": "uint256"
        }
      ],
      "name": "removeMod",
      "outputs": [],
      "stateMutability": "nonpayable",
      "type": "function"
    },
    {
      "inputs": [
        {
          "internalType": "uint256",
          "name": "modId",
          "type": "uint256"
        },
        {
          "internalType": "address",
          "name": "newOwner",
          "type": "address"
        }
      ],
      "name": "transferOwnership",
      "outputs": [],
      "stateMutability": "nonpayable",
      "type": "function"
    },
    {
      "inputs": [
        {
          "internalType": "uint256",
          "name": "modId",
          "type": "uint256"
        },
        {
          "internalType": "string",
          "name": "data",
          "type": "string"
        }
      ],
      "name": "updateMod",
      "outputs": [],
      "stateMutability": "nonpayable",
      "type": "function"
    },
    {
      "inputs": [
        {
          "internalType": "address",
          "name": "",
          "type": "address"
        },
        {
          "internalType": "uint256",
          "name": "",
          "type": "uint256"
        }
      ],
      "name": "userMods",
      "outputs": [
        {
          "internalType": "uint256",
          "name": "",
          "type": "uint256"
        }
      ],
      "stateMutability": "view",
      "type": "function"
    }
  ],
  "bytecode": "0x6080604052600160005534801561001557600080fd5b50610e8d806100256000396000f3fe608060405234801561001057600080fd5b50600436106100935760003560e01c8063787983f211610066578063787983f21461010a578063c00af42c1461011d578063c0e0d83114610130578063f066e67d14610151578063f817290f1461015a57600080fd5b80630517f91b146100985780630c58a972146100c257806329507f73146100d7578063382fc2f1146100ea575b600080fd5b6100ab6100a63660046109b2565b61016d565b6040516100b9929190610a11565b60405180910390f35b6100d56100d03660046109b2565b610227565b005b6100d56100e5366004610a59565b6103e6565b6100fd6100f8366004610a85565b6105f6565b6040516100b99190610aa7565b6100d5610118366004610b8e565b610662565b6100ab61012b3660046109b2565b61076b565b61014361013e366004610bd5565b61081b565b6040519081526020016100b9565b61014360005481565b610143610168366004610c0a565b61092b565b60008181526001602081905260408220805491810180546060936001600160a01b03169190819061019d90610c34565b80601f01602080910402602001604051908101604052809291908181526020018280546101c990610c34565b80156102165780601f106101eb57610100808354040283529160200191610216565b820191906000526020600020905b8154815290600101906020018083116101f957829003601f168201915b505050505090509250925050915091565b60008181526001602052604090205481906001600160a01b031633146102685760405162461bcd60e51b815260040161025f90610c6e565b60405180910390fd5b60008281526001602052604090205482906001600160a01b031661029e5760405162461bcd60e51b815260040161025f90610c95565b6000838152600160209081526040808320546001600160a01b03168084526002909252822090915b815481101561037a57858282815481106102e2576102e2610cc1565b906000526020600020015403610368578154829061030290600190610ced565b8154811061031257610312610cc1565b906000526020600020015482828154811061032f5761032f610cc1565b90600052602060002001819055508180548061034d5761034d610d06565b6001900381819060005260206000200160009055905561037a565b8061037281610d1c565b9150506102c6565b506000858152600160208190526040822080546001600160a01b031916815591906103a79083018261095c565b50506040516001600160a01b0383169086907f22b37d947c8d3d68737b9b66c123f35a16b91249e859c87d562113e75f9139e190600090a35050505050565b60008281526001602052604090205482906001600160a01b0316331461041e5760405162461bcd60e51b815260040161025f90610c6e565b60008381526001602052604090205483906001600160a01b03166104545760405162461bcd60e51b815260040161025f90610c95565b6001600160a01b03831661049e5760405162461bcd60e51b815260206004820152601160248201527024b73b30b634b2103732bb9037bbb732b960791b604482015260640161025f565b6000848152600160209081526040808320546001600160a01b03168084526002909252822090915b815481101561057a57868282815481106104e2576104e2610cc1565b906000526020600020015403610568578154829061050290600190610ced565b8154811061051257610512610cc1565b906000526020600020015482828154811061052f5761052f610cc1565b90600052602060002001819055508180548061054d5761054d610d06565b6001900381819060005260206000200160009055905561057a565b8061057281610d1c565b9150506104c6565b506001600160a01b038086166000818152600260209081526040808320805460018181018355918552838520018c90558b845290915280822080546001600160a01b0319168417905551919285169189917f16b85f49bf01212961345d3016c9a531894accf62eb7680f2045d79185cc0ec091a4505050505050565b6001600160a01b03811660009081526002602090815260409182902080548351818402810184019094528084526060939283018282801561065657602002820191906000526020600020905b815481526020019060010190808311610642575b50505050509050919050565b60008281526001602052604090205482906001600160a01b0316331461069a5760405162461bcd60e51b815260040161025f90610c6e565b60008381526001602052604090205483906001600160a01b03166106d05760405162461bcd60e51b815260040161025f90610c95565b60008351116107105760405162461bcd60e51b815260206004820152600c60248201526b496e76616c6964206461746160a01b604482015260640161025f565b60008481526001602081905260409091200161072c8482610d84565b50837fff3c8530cfbe75a2a91a1d439eb73991bcaed776a409de2ea62444fd716bfced8460405161075d9190610e44565b60405180910390a250505050565b6001602081905260009182526040909120805491810180546001600160a01b039093169261079890610c34565b80601f01602080910402602001604051908101604052809291908181526020018280546107c490610c34565b80156108115780601f106107e657610100808354040283529160200191610811565b820191906000526020600020905b8154815290600101906020018083116107f457829003601f168201915b5050505050905082565b60008082511161085c5760405162461bcd60e51b815260206004820152600c60248201526b496e76616c6964206461746160a01b604482015260640161025f565b60008054818061086b83610d1c565b909155506040805180820182523381526020808201878152600085815260019283905293909320825181546001600160a01b0319166001600160a01b0390911617815592519394509092908201906108c39082610d84565b5050336000818152600260209081526040808320805460018101825590845291909220018490555190915082907f75cef31339e0e59c4f966083805fbc88dfa5d923cde5173f1a2c41732fea2acf9061091d908790610e44565b60405180910390a392915050565b6002602052816000526040600020818154811061094757600080fd5b90600052602060002001600091509150505481565b50805461096890610c34565b6000825580601f10610978575050565b601f0160209004906000526020600020908101906109969190610999565b50565b5b808211156109ae576000815560010161099a565b5090565b6000602082840312156109c457600080fd5b5035919050565b6000815180845260005b818110156109f1576020818501810151868301820152016109d5565b506000602082860101526020601f19601f83011685010191505092915050565b6001600160a01b0383168152604060208201819052600090610a35908301846109cb565b949350505050565b80356001600160a01b0381168114610a5457600080fd5b919050565b60008060408385031215610a6c57600080fd5b82359150610a7c60208401610a3d565b90509250929050565b600060208284031215610a9757600080fd5b610aa082610a3d565b9392505050565b6020808252825182820181905260009190848201906040850190845b81811015610adf57835183529284019291840191600101610ac3565b50909695505050505050565b634e487b7160e01b600052604160045260246000fd5b600082601f830112610b1257600080fd5b813567ffffffffffffffff80821115610b2d57610b2d610aeb565b604051601f8301601f19908116603f01168101908282118183101715610b5557610b55610aeb565b81604052838152866020858801011115610b6e57600080fd5b836020870160208301376000602085830101528094505050505092915050565b60008060408385031215610ba157600080fd5b82359150602083013567ffffffffffffffff811115610bbf57600080fd5b610bcb85828601610b01565b9150509250929050565b600060208284031215610be757600080fd5b813567ffffffffffffffff811115610bfe57600080fd5b610a3584828501610b01565b60008060408385031215610c1d57600080fd5b610c2683610a3d565b946020939093013593505050565b600181811c90821680610c4857607f821691505b602082108103610c6857634e487b7160e01b600052602260045260246000fd5b50919050565b6020808252600d908201526c2737ba1036b7b21037bbb732b960991b604082015260600190565b602080825260129082015271135bd908191bd95cc81b9bdd08195e1a5cdd60721b604082015260600190565b634e487b7160e01b600052603260045260246000fd5b634e487b7160e01b600052601160045260246000fd5b81810381811115610d0057610d00610cd7565b92915050565b634e487b7160e01b600052603160045260246000fd5b600060018201610d2e57610d2e610cd7565b5060010190565b601f821115610d7f57600081815260208120601f850160051c81016020861015610d5c5750805b601f850160051c820191505b81811015610d7b57828155600101610d68565b5050505b505050565b815167ffffffffffffffff811115610d9e57610d9e610aeb565b610db281610dac8454610c34565b84610d35565b602080601f831160018114610de75760008415610dcf5750858301515b600019600386901b1c1916600185901b178555610d7b565b600085815260208120601f198616915b82811015610e1657888601518255948401946001909101908401610df7565b5085821015610e345787850151600019600388901b60f8161c191681555b5050505050600190811b01905550565b602081526000610aa060208301846109cb56fea2646970667358221220f65e2cf5929ceba8a0d09b243520403a554d804354f8d53142464b34c7cb2a0264736f6c63430008140033",
  "linkReferences": {},
  "deployedLinkReferences": {}
}