{
  "_format": "hh-sol-artifact-1",
  "contractName": "ChainlinkAdapter",
  "sourceName": "contracts/oracles/ChainlinkAdapter.sol",
  "abi": [
    {
      "inputs": [],
      "stateMutability": "nonpayable",
      "type": "constructor"
    },
    {
      "anonymous": false,
      "inputs": [
        {
          "indexed": true,
          "internalType": "address",
          "name": "token",
          "type": "address"
        }
      ],
      "name": "PriceFeedRemoved",
      "type": "event"
    },
    {
      "anonymous": false,
      "inputs": [
        {
          "indexed": true,
          "internalType": "address",
          "name": "token",
          "type": "address"
        },
        {
          "indexed": true,
          "internalType": "address",
          "name": "priceFeed",
          "type": "address"
        }
      ],
      "name": "PriceFeedSet",
      "type": "event"
    },
    {
      "inputs": [
        {
          "internalType": "address",
          "name": "token",
          "type": "address"
        }
      ],
      "name": "getPrice",
      "outputs": [
        {
          "internalType": "uint256",
          "name": "price",
          "type": "uint256"
        },
        {
          "internalType": "uint8",
          "name": "decimals",
          "type": "uint8"
        },
        {
          "internalType": "uint256",
          "name": "timestamp",
          "type": "uint256"
        }
      ],
      "stateMutability": "view",
      "type": "function"
    },
    {
      "inputs": [
        {
          "internalType": "address",
          "name": "token",
          "type": "address"
        }
      ],
      "name": "hasPriceFeed",
      "outputs": [
        {
          "internalType": "bool",
          "name": "exists",
          "type": "bool"
        }
      ],
      "stateMutability": "view",
      "type": "function"
    },
    {
      "inputs": [],
      "name": "owner",
      "outputs": [
        {
          "internalType": "address",
          "name": "",
          "type": "address"
        }
      ],
      "stateMutability": "view",
      "type": "function"
    },
    {
      "inputs": [
        {
          "internalType": "address",
          "name": "",
          "type": "address"
        }
      ],
      "name": "priceFeeds",
      "outputs": [
        {
          "internalType": "address",
          "name": "",
          "type": "address"
        }
      ],
      "stateMutability": "view",
      "type": "function"
    },
    {
      "inputs": [
        {
          "internalType": "address",
          "name": "token",
          "type": "address"
        }
      ],
      "name": "removePriceFeed",
      "outputs": [],
      "stateMutability": "nonpayable",
      "type": "function"
    },
    {
      "inputs": [
        {
          "internalType": "address",
          "name": "token",
          "type": "address"
        },
        {
          "internalType": "address",
          "name": "priceFeed",
          "type": "address"
        }
      ],
      "name": "setPriceFeed",
      "outputs": [],
      "stateMutability": "nonpayable",
      "type": "function"
    },
    {
      "inputs": [
        {
          "internalType": "address",
          "name": "newOwner",
          "type": "address"
        }
      ],
      "name": "transferOwnership",
      "outputs": [],
      "stateMutability": "nonpayable",
      "type": "function"
    }
  ],
  "bytecode": "0x608060405234801561001057600080fd5b50600180546001600160a01b03191633179055610725806100326000396000f3fe608060405234801561001057600080fd5b506004361061007d5760003560e01c80638da5cb5b1161005b5780638da5cb5b1461010a5780639dcb511a14610135578063f2fde38b1461015e578063fceb00241461017157600080fd5b80630b7983a21461008257806341976e09146100c557806376e11286146100f5575b600080fd5b6100b06100903660046105e9565b6001600160a01b0390811660009081526020819052604090205416151590565b60405190151581526020015b60405180910390f35b6100d86100d33660046105e9565b610184565b6040805193845260ff9092166020840152908201526060016100bc565b61010861010336600461060b565b610354565b005b60015461011d906001600160a01b031681565b6040516001600160a01b0390911681526020016100bc565b61011d6101433660046105e9565b6000602081905290815260409020546001600160a01b031681565b61010861016c3660046105e9565b610466565b61010861017f3660046105e9565b6104f8565b6001600160a01b0380821660009081526020819052604081205490918291829116806101ec5760405162461bcd60e51b8152602060048201526012602482015271141c9a58d94819995959081b9bdd081cd95d60721b60448201526064015b60405180910390fd5b6000819050600080826001600160a01b031663feaf968c6040518163ffffffff1660e01b815260040160a060405180830381865afa158015610232573d6000803e3d6000fd5b505050506040513d601f19601f820116820180604052508101906102569190610658565b509350509250506000821361029d5760405162461bcd60e51b815260206004820152600d60248201526c496e76616c696420707269636560981b60448201526064016101e3565b600081116102e15760405162461bcd60e51b8152602060048201526011602482015270141c9a58d9481b9bdd081d5c19185d1959607a1b60448201526064016101e3565b81836001600160a01b031663313ce5676040518163ffffffff1660e01b8152600401602060405180830381865afa158015610320573d6000803e3d6000fd5b505050506040513d601f19601f8201168201806040525081019061034491906106a8565b9099909850909650945050505050565b6001546001600160a01b0316331461037e5760405162461bcd60e51b81526004016101e3906106cb565b6001600160a01b0382166103c45760405162461bcd60e51b815260206004820152600d60248201526c24b73b30b634b2103a37b5b2b760991b60448201526064016101e3565b6001600160a01b03811661040f5760405162461bcd60e51b8152602060048201526012602482015271125b9d985b1a59081c1c9a58d9481999595960721b60448201526064016101e3565b6001600160a01b0382811660008181526020819052604080822080546001600160a01b0319169486169485179055517fd2d8394cf7549a5ddbc2ba3dd7b2de8d53c891472d1f2907008ed6a10045fdae9190a35050565b6001546001600160a01b031633146104905760405162461bcd60e51b81526004016101e3906106cb565b6001600160a01b0381166104d65760405162461bcd60e51b815260206004820152600d60248201526c24b73b30b634b21037bbb732b960991b60448201526064016101e3565b600180546001600160a01b0319166001600160a01b0392909216919091179055565b6001546001600160a01b031633146105225760405162461bcd60e51b81526004016101e3906106cb565b6001600160a01b038181166000908152602081905260409020541661057e5760405162461bcd60e51b8152602060048201526012602482015271141c9a58d94819995959081b9bdd081cd95d60721b60448201526064016101e3565b6001600160a01b03811660008181526020819052604080822080546001600160a01b0319169055517ffd58461c4683df397133c7e91fe2aa71559919b405f9e09c9c3af7e875f54e3b9190a250565b80356001600160a01b03811681146105e457600080fd5b919050565b6000602082840312156105fb57600080fd5b610604826105cd565b9392505050565b6000806040838503121561061e57600080fd5b610627836105cd565b9150610635602084016105cd565b90509250929050565b805169ffffffffffffffffffff811681146105e457600080fd5b600080600080600060a0868803121561067057600080fd5b6106798661063e565b945060208601519350604086015192506060860151915061069c6080870161063e565b90509295509295909350565b6000602082840312156106ba57600080fd5b815160ff8116811461060457600080fd5b6020808252600a908201526927b7363c9037bbb732b960b11b60408201526060019056fea26469706673582212200e56164fe368766aa6101bbc0da87574f90c52f1cf0538476d6d11551400376364736f6c63430008140033",
  "linkReferences": {},
  "deployedLinkReferences": {}
}