{
  "_format": "hh-sol-artifact-1",
  "contractName": "ChainlinkAdapter",
  "sourceName": "contracts/oracles/ChainlinkAdapter.sol",
  "abi": [
    {
      "inputs": [],
      "stateMutability": "nonpayable",
      "type": "constructor"
    },
    {
      "anonymous": false,
      "inputs": [],
      "name": "ContractSetOwnerless",
      "type": "event"
    },
    {
      "anonymous": false,
      "inputs": [
        {
          "indexed": true,
          "internalType": "address",
          "name": "token",
          "type": "address"
        }
      ],
      "name": "PriceFeedRemoved",
      "type": "event"
    },
    {
      "anonymous": false,
      "inputs": [
        {
          "indexed": true,
          "internalType": "address",
          "name": "token",
          "type": "address"
        },
        {
          "indexed": true,
          "internalType": "address",
          "name": "priceFeed",
          "type": "address"
        }
      ],
      "name": "PriceFeedSet",
      "type": "event"
    },
    {
      "inputs": [
        {
          "internalType": "address",
          "name": "token",
          "type": "address"
        }
      ],
      "name": "getPrice",
      "outputs": [
        {
          "internalType": "uint256",
          "name": "price",
          "type": "uint256"
        },
        {
          "internalType": "uint8",
          "name": "decimals",
          "type": "uint8"
        },
        {
          "internalType": "uint256",
          "name": "timestamp",
          "type": "uint256"
        }
      ],
      "stateMutability": "view",
      "type": "function"
    },
    {
      "inputs": [
        {
          "internalType": "address",
          "name": "token",
          "type": "address"
        }
      ],
      "name": "hasPriceFeed",
      "outputs": [
        {
          "internalType": "bool",
          "name": "exists",
          "type": "bool"
        }
      ],
      "stateMutability": "view",
      "type": "function"
    },
    {
      "inputs": [],
      "name": "owner",
      "outputs": [
        {
          "internalType": "address",
          "name": "",
          "type": "address"
        }
      ],
      "stateMutability": "view",
      "type": "function"
    },
    {
      "inputs": [
        {
          "internalType": "address",
          "name": "",
          "type": "address"
        }
      ],
      "name": "priceFeeds",
      "outputs": [
        {
          "internalType": "address",
          "name": "",
          "type": "address"
        }
      ],
      "stateMutability": "view",
      "type": "function"
    },
    {
      "inputs": [
        {
          "internalType": "address",
          "name": "token",
          "type": "address"
        }
      ],
      "name": "removePriceFeed",
      "outputs": [],
      "stateMutability": "nonpayable",
      "type": "function"
    },
    {
      "inputs": [],
      "name": "setOwnerless",
      "outputs": [],
      "stateMutability": "nonpayable",
      "type": "function"
    },
    {
      "inputs": [
        {
          "internalType": "address",
          "name": "token",
          "type": "address"
        },
        {
          "internalType": "address",
          "name": "priceFeed",
          "type": "address"
        }
      ],
      "name": "setPriceFeed",
      "outputs": [],
      "stateMutability": "nonpayable",
      "type": "function"
    },
    {
      "inputs": [
        {
          "internalType": "address",
          "name": "newOwner",
          "type": "address"
        }
      ],
      "name": "transferOwnership",
      "outputs": [],
      "stateMutability": "nonpayable",
      "type": "function"
    }
  ],
  "bytecode": "0x608060405234801561001057600080fd5b50600180546001600160a01b031916331790556107a1806100326000396000f3fe608060405234801561001057600080fd5b50600436106100885760003560e01c80638da5cb5b1161005b5780638da5cb5b1461011d5780639dcb511a14610148578063f2fde38b14610171578063fceb00241461018457600080fd5b80630b7983a21461008d5780631aa7a3d9146100d057806341976e09146100da57806376e112861461010a575b600080fd5b6100bb61009b366004610665565b6001600160a01b0390811660009081526020819052604090205416151590565b60405190151581526020015b60405180910390f35b6100d8610197565b005b6100ed6100e8366004610665565b610205565b6040805193845260ff9092166020840152908201526060016100c7565b6100d8610118366004610687565b6103d0565b600154610130906001600160a01b031681565b6040516001600160a01b0390911681526020016100c7565b610130610156366004610665565b6000602081905290815260409020546001600160a01b031681565b6100d861017f366004610665565b6104e2565b6100d8610192366004610665565b610574565b6001546001600160a01b031633146101ca5760405162461bcd60e51b81526004016101c1906106ba565b60405180910390fd5b6040517f2ba54d6a3cc9b09a35290d130bee17be374bd7785c0ed3299961362e1c3bddaf90600090a1600180546001600160a01b0319169055565b6001600160a01b0380821660009081526020819052604081205490918291829116806102685760405162461bcd60e51b8152602060048201526012602482015271141c9a58d94819995959081b9bdd081cd95d60721b60448201526064016101c1565b6000819050600080826001600160a01b031663feaf968c6040518163ffffffff1660e01b815260040160a060405180830381865afa1580156102ae573d6000803e3d6000fd5b505050506040513d601f19601f820116820180604052508101906102d291906106f8565b50935050925050600082136103195760405162461bcd60e51b815260206004820152600d60248201526c496e76616c696420707269636560981b60448201526064016101c1565b6000811161035d5760405162461bcd60e51b8152602060048201526011602482015270141c9a58d9481b9bdd081d5c19185d1959607a1b60448201526064016101c1565b81836001600160a01b031663313ce5676040518163ffffffff1660e01b8152600401602060405180830381865afa15801561039c573d6000803e3d6000fd5b505050506040513d601f19601f820116820180604052508101906103c09190610748565b9099909850909650945050505050565b6001546001600160a01b031633146103fa5760405162461bcd60e51b81526004016101c1906106ba565b6001600160a01b0382166104405760405162461bcd60e51b815260206004820152600d60248201526c24b73b30b634b2103a37b5b2b760991b60448201526064016101c1565b6001600160a01b03811661048b5760405162461bcd60e51b8152602060048201526012602482015271125b9d985b1a59081c1c9a58d9481999595960721b60448201526064016101c1565b6001600160a01b0382811660008181526020819052604080822080546001600160a01b0319169486169485179055517fd2d8394cf7549a5ddbc2ba3dd7b2de8d53c891472d1f2907008ed6a10045fdae9190a35050565b6001546001600160a01b0316331461050c5760405162461bcd60e51b81526004016101c1906106ba565b6001600160a01b0381166105525760405162461bcd60e51b815260206004820152600d60248201526c24b73b30b634b21037bbb732b960991b60448201526064016101c1565b600180546001600160a01b0319166001600160a01b0392909216919091179055565b6001546001600160a01b0316331461059e5760405162461bcd60e51b81526004016101c1906106ba565b6001600160a01b03818116600090815260208190526040902054166105fa5760405162461bcd60e51b8152602060048201526012602482015271141c9a58d94819995959081b9bdd081cd95d60721b60448201526064016101c1565b6001600160a01b03811660008181526020819052604080822080546001600160a01b0319169055517ffd58461c4683df397133c7e91fe2aa71559919b405f9e09c9c3af7e875f54e3b9190a250565b80356001600160a01b038116811461066057600080fd5b919050565b60006020828403121561067757600080fd5b61068082610649565b9392505050565b6000806040838503121561069a57600080fd5b6106a383610649565b91506106b160208401610649565b90509250929050565b6020808252600a908201526927b7363c9037bbb732b960b11b604082015260600190565b805169ffffffffffffffffffff8116811461066057600080fd5b600080600080600060a0868803121561071057600080fd5b610719866106de565b945060208601519350604086015192506060860151915061073c608087016106de565b90509295509295909350565b60006020828403121561075a57600080fd5b815160ff8116811461068057600080fdfea2646970667358221220d3b616342f2e54679aaca3b4f5a4995b60febd2cf4ad2876119eb782a36a525764736f6c63430008140033",
  "linkReferences": {},
  "deployedLinkReferences": {}
}