{
  "_format": "hh-sol-artifact-1",
  "contractName": "TokenGate",
  "sourceName": "contracts/tokengate/TokenGate.sol",
  "abi": [
    {
      "inputs": [
        {
          "internalType": "address",
          "name": "_defaultOracle",
          "type": "address"
        }
      ],
      "stateMutability": "nonpayable",
      "type": "constructor"
    },
    {
      "anonymous": false,
      "inputs": [],
      "name": "ContractSetOwnerless",
      "type": "event"
    },
    {
      "anonymous": false,
      "inputs": [
        {
          "indexed": true,
          "internalType": "address",
          "name": "newOracle",
          "type": "address"
        }
      ],
      "name": "DefaultOracleUpdated",
      "type": "event"
    },
    {
      "anonymous": false,
      "inputs": [
        {
          "indexed": true,
          "internalType": "address",
          "name": "previousOwner",
          "type": "address"
        },
        {
          "indexed": true,
          "internalType": "address",
          "name": "newOwner",
          "type": "address"
        }
      ],
      "name": "OwnershipTransferred",
      "type": "event"
    },
    {
      "anonymous": false,
      "inputs": [
        {
          "indexed": true,
          "internalType": "address",
          "name": "token",
          "type": "address"
        }
      ],
      "name": "TokenDelisted",
      "type": "event"
    },
    {
      "anonymous": false,
      "inputs": [
        {
          "indexed": true,
          "internalType": "address",
          "name": "token",
          "type": "address"
        },
        {
          "indexed": true,
          "internalType": "address",
          "name": "oracle",
          "type": "address"
        }
      ],
      "name": "TokenOracleRegistered",
      "type": "event"
    },
    {
      "anonymous": false,
      "inputs": [
        {
          "indexed": true,
          "internalType": "address",
          "name": "token",
          "type": "address"
        }
      ],
      "name": "TokenOracleRemoved",
      "type": "event"
    },
    {
      "anonymous": false,
      "inputs": [
        {
          "indexed": true,
          "internalType": "address",
          "name": "token",
          "type": "address"
        }
      ],
      "name": "TokenWhitelisted",
      "type": "event"
    },
    {
      "inputs": [
        {
          "internalType": "address[]",
          "name": "tokens",
          "type": "address[]"
        }
      ],
      "name": "batchWhitelistTokens",
      "outputs": [],
      "stateMutability": "nonpayable",
      "type": "function"
    },
    {
      "inputs": [],
      "name": "defaultOracle",
      "outputs": [
        {
          "internalType": "contract IOracleAdapter",
          "name": "",
          "type": "address"
        }
      ],
      "stateMutability": "view",
      "type": "function"
    },
    {
      "inputs": [
        {
          "internalType": "address",
          "name": "token",
          "type": "address"
        }
      ],
      "name": "delistToken",
      "outputs": [],
      "stateMutability": "nonpayable",
      "type": "function"
    },
    {
      "inputs": [
        {
          "internalType": "address",
          "name": "token",
          "type": "address"
        }
      ],
      "name": "getOracleForToken",
      "outputs": [
        {
          "internalType": "contract IOracleAdapter",
          "name": "",
          "type": "address"
        }
      ],
      "stateMutability": "view",
      "type": "function"
    },
    {
      "inputs": [],
      "name": "getTokenList",
      "outputs": [
        {
          "internalType": "address[]",
          "name": "",
          "type": "address[]"
        }
      ],
      "stateMutability": "view",
      "type": "function"
    },
    {
      "inputs": [
        {
          "internalType": "address",
          "name": "token",
          "type": "address"
        }
      ],
      "name": "getTokenPrice",
      "outputs": [
        {
          "internalType": "uint256",
          "name": "price",
          "type": "uint256"
        },
        {
          "internalType": "uint8",
          "name": "decimals",
          "type": "uint8"
        },
        {
          "internalType": "uint256",
          "name": "timestamp",
          "type": "uint256"
        }
      ],
      "stateMutability": "view",
      "type": "function"
    },
    {
      "inputs": [
        {
          "internalType": "address",
          "name": "token",
          "type": "address"
        }
      ],
      "name": "isTokenWhitelisted",
      "outputs": [
        {
          "internalType": "bool",
          "name": "",
          "type": "bool"
        }
      ],
      "stateMutability": "view",
      "type": "function"
    },
    {
      "inputs": [],
      "name": "owner",
      "outputs": [
        {
          "internalType": "address",
          "name": "",
          "type": "address"
        }
      ],
      "stateMutability": "view",
      "type": "function"
    },
    {
      "inputs": [
        {
          "internalType": "address",
          "name": "token",
          "type": "address"
        },
        {
          "internalType": "address",
          "name": "oracle",
          "type": "address"
        }
      ],
      "name": "registerTokenOracle",
      "outputs": [],
      "stateMutability": "nonpayable",
      "type": "function"
    },
    {
      "inputs": [
        {
          "internalType": "address",
          "name": "token",
          "type": "address"
        }
      ],
      "name": "removeTokenOracle",
      "outputs": [],
      "stateMutability": "nonpayable",
      "type": "function"
    },
    {
      "inputs": [],
      "name": "renounceOwnership",
      "outputs": [],
      "stateMutability": "nonpayable",
      "type": "function"
    },
    {
      "inputs": [
        {
          "internalType": "address",
          "name": "_oracle",
          "type": "address"
        }
      ],
      "name": "setDefaultOracle",
      "outputs": [],
      "stateMutability": "nonpayable",
      "type": "function"
    },
    {
      "inputs": [],
      "name": "setOwnerless",
      "outputs": [],
      "stateMutability": "nonpayable",
      "type": "function"
    },
    {
      "inputs": [
        {
          "internalType": "address",
          "name": "newOwner",
          "type": "address"
        }
      ],
      "name": "transferOwnership",
      "outputs": [],
      "stateMutability": "nonpayable",
      "type": "function"
    },
    {
      "inputs": [
        {
          "internalType": "address",
          "name": "token",
          "type": "address"
        }
      ],
      "name": "whitelistToken",
      "outputs": [],
      "stateMutability": "nonpayable",
      "type": "function"
    }
  ],
  "bytecode": "0x608060405234801561001057600080fd5b5060405161121138038061121183398101604081905261002f916100f8565b610038336100a8565b6001600160a01b0381166100835760405162461bcd60e51b815260206004820152600e60248201526d496e76616c6964206f7261636c6560901b604482015260640160405180910390fd5b600180546001600160a01b0319166001600160a01b0392909216919091179055610128565b600080546001600160a01b038381166001600160a01b0319831681178455604051919092169283917f8be0079c531659141344cd1fd0a4f28419497f9722a3daafe3b4186f6b6457e09190a35050565b60006020828403121561010a57600080fd5b81516001600160a01b038116811461012157600080fd5b9392505050565b6110da806101376000396000f3fe608060405234801561001057600080fd5b50600436106100f55760003560e01c80639a48ba1011610097578063c44014d211610066578063c44014d214610201578063cd8e19c514610214578063d02641a014610227578063f2fde38b1461025757600080fd5b80639a48ba101461018c578063abffc9ac1461019f578063b2b3c009146101b2578063b5af090f146101c557600080fd5b8063715018a6116100d3578063715018a61461013557806380dce1691461013d57806388e32fc2146101685780638da5cb5b1461017b57600080fd5b80631aa7a3d9146100fa578063273cbaa0146101045780636247f6f214610122575b600080fd5b61010261026a565b005b61010c6102a5565b6040516101199190610e7c565b60405180910390f35b610102610130366004610ee5565b610307565b6101026104f5565b600154610150906001600160a01b031681565b6040516001600160a01b039091168152602001610119565b610102610176366004610ee5565b610507565b6000546001600160a01b0316610150565b61010261019a366004610f00565b6105bb565b6101026101ad366004610ee5565b6108e8565b6101506101c0366004610ee5565b610acd565b6101f16101d3366004610ee5565b6001600160a01b031660009081526003602052604090205460ff1690565b6040519015158152602001610119565b61010261020f366004610ee5565b610b09565b610102610222366004610f75565b610ba2565b61023a610235366004610ee5565b610c6e565b6040805193845260ff909216602084015290820152606001610119565b610102610265366004610ee5565b610d59565b610272610dd2565b6040517f2ba54d6a3cc9b09a35290d130bee17be374bd7785c0ed3299961362e1c3bddaf90600090a16102a36104f5565b565b606060048054806020026020016040519081016040528092919081815260200182805480156102fd57602002820191906000526020600020905b81546001600160a01b031681526001909101906020018083116102df575b5050505050905090565b61030f610dd2565b6001600160a01b03811661033e5760405162461bcd60e51b815260040161033590610fa8565b60405180910390fd5b6001600160a01b03811660009081526003602052604090205460ff161561039d5760405162461bcd60e51b8152602060048201526013602482015272105b1c9958591e481dda1a5d195b1a5cdd1959606a1b6044820152606401610335565b60006103a882610acd565b6040516305bcc1d160e11b81526001600160a01b03848116600483015291925090821690630b7983a290602401602060405180830381865afa1580156103f2573d6000803e3d6000fd5b505050506040513d601f19601f820116820180604052508101906104169190610fcf565b6104595760405162461bcd60e51b8152602060048201526014602482015273139bc81bdc9858db19481c1c9a58d9481999595960621b6044820152606401610335565b6001600160a01b0382166000818152600360209081526040808320805460ff19166001908117909155600480546005909452828520849055908301815583527f8a35acfbc15ff81a39ae7d344fd709f28e8600b4aa8c65c6b64bfe7fe36bd19b90910180546001600160a01b03191684179055517f6a65f90b1a644d2faac467a21e07e50e3f8fa5846e26231d30ae79a417d3d2629190a25050565b6104fd610dd2565b6102a36000610e2c565b61050f610dd2565b6001600160a01b038181166000908152600260205260409020541661056c5760405162461bcd60e51b8152602060048201526013602482015272139bc81d1bdad95b881bdc9858db19481cd95d606a1b6044820152606401610335565b6001600160a01b03811660008181526002602052604080822080546001600160a01b0319169055517fc481e129bafcd65f0043ed760b1b18558c537690c09d170213c64d52606d9fc09190a250565b6105c3610dd2565b60005b818110156108e35760008383838181106105e2576105e2610ff1565b90506020020160208101906105f79190610ee5565b6001600160a01b03160361061d5760405162461bcd60e51b815260040161033590610fa8565b6003600084848481811061063357610633610ff1565b90506020020160208101906106489190610ee5565b6001600160a01b0316815260208101919091526040016000205460ff166108d157600061069584848481811061068057610680610ff1565b90506020020160208101906101c09190610ee5565b9050806001600160a01b0316630b7983a28585858181106106b8576106b8610ff1565b90506020020160208101906106cd9190610ee5565b6040516001600160e01b031960e084901b1681526001600160a01b039091166004820152602401602060405180830381865afa158015610711573d6000803e3d6000fd5b505050506040513d601f19601f820116820180604052508101906107359190610fcf565b6107785760405162461bcd60e51b8152602060048201526014602482015273139bc81bdc9858db19481c1c9a58d9481999595960621b6044820152606401610335565b60016003600086868681811061079057610790610ff1565b90506020020160208101906107a59190610ee5565b6001600160a01b0316815260208101919091526040016000908120805460ff191692151592909217909155600454906005908686868181106107e9576107e9610ff1565b90506020020160208101906107fe9190610ee5565b6001600160a01b03168152602081019190915260400160002055600484848481811061082c5761082c610ff1565b90506020020160208101906108419190610ee5565b81546001810183556000928352602090922090910180546001600160a01b0319166001600160a01b0390921691909117905583838381811061088557610885610ff1565b905060200201602081019061089a9190610ee5565b6001600160a01b03167f6a65f90b1a644d2faac467a21e07e50e3f8fa5846e26231d30ae79a417d3d26260405160405180910390a2505b806108db8161101d565b9150506105c6565b505050565b6108f0610dd2565b6001600160a01b03811660009081526003602052604090205460ff1661094a5760405162461bcd60e51b815260206004820152600f60248201526e139bdd081dda1a5d195b1a5cdd1959608a1b6044820152606401610335565b6001600160a01b0381166000908152600360209081526040808320805460ff19169055600590915281205460045490919061098790600190611036565b9050808214610a0f576000600482815481106109a5576109a5610ff1565b600091825260209091200154600480546001600160a01b0390921692508291859081106109d4576109d4610ff1565b600091825260208083209190910180546001600160a01b0319166001600160a01b039485161790559290911681526005909152604090208290555b6004805480610a2057610a2061104f565b60008281526020808220830160001990810180546001600160a01b03191690559092019092556001600160a01b03858116835260058252604080842084905560029092529120541615610a94576001600160a01b038316600090815260026020526040902080546001600160a01b03191690555b6040516001600160a01b038416907f6621c4efc5efa31320394260425b7d14cbb9d7e3754b2c98c04af66b1cbf315b90600090a2505050565b6001600160a01b0380821660009081526002602052604081205490911680610b00576001546001600160a01b0316610b02565b805b9392505050565b610b11610dd2565b6001600160a01b038116610b585760405162461bcd60e51b815260206004820152600e60248201526d496e76616c6964206f7261636c6560901b6044820152606401610335565b600180546001600160a01b0319166001600160a01b0383169081179091556040517f1bc296d82f6c12b9613275344793ebdb1c8ed5dca91d1699898b5c9adf1e997890600090a250565b610baa610dd2565b6001600160a01b038216610bd05760405162461bcd60e51b815260040161033590610fa8565b6001600160a01b038116610c175760405162461bcd60e51b815260206004820152600e60248201526d496e76616c6964206f7261636c6560901b6044820152606401610335565b6001600160a01b0382811660008181526002602052604080822080546001600160a01b0319169486169485179055517f9d1e3ce0fd26cf2587668c1912223834577f94dc7d2a3febd50ff03273b8c4e59190a35050565b6001600160a01b0381166000908152600360205260408120548190819060ff16610cd25760405162461bcd60e51b8152602060048201526015602482015274151bdad95b881b9bdd081dda1a5d195b1a5cdd1959605a1b6044820152606401610335565b6000610cdd85610acd565b6040516341976e0960e01b81526001600160a01b038781166004830152919250908216906341976e0990602401606060405180830381865afa158015610d27573d6000803e3d6000fd5b505050506040513d601f19601f82011682018060405250810190610d4b9190611065565b935093509350509193909250565b610d61610dd2565b6001600160a01b038116610dc65760405162461bcd60e51b815260206004820152602660248201527f4f776e61626c653a206e6577206f776e657220697320746865207a65726f206160448201526564647265737360d01b6064820152608401610335565b610dcf81610e2c565b50565b6000546001600160a01b031633146102a35760405162461bcd60e51b815260206004820181905260248201527f4f776e61626c653a2063616c6c6572206973206e6f7420746865206f776e65726044820152606401610335565b600080546001600160a01b038381166001600160a01b0319831681178455604051919092169283917f8be0079c531659141344cd1fd0a4f28419497f9722a3daafe3b4186f6b6457e09190a35050565b6020808252825182820181905260009190848201906040850190845b81811015610ebd5783516001600160a01b031683529284019291840191600101610e98565b50909695505050505050565b80356001600160a01b0381168114610ee057600080fd5b919050565b600060208284031215610ef757600080fd5b610b0282610ec9565b60008060208385031215610f1357600080fd5b823567ffffffffffffffff80821115610f2b57600080fd5b818501915085601f830112610f3f57600080fd5b813581811115610f4e57600080fd5b8660208260051b8501011115610f6357600080fd5b60209290920196919550909350505050565b60008060408385031215610f8857600080fd5b610f9183610ec9565b9150610f9f60208401610ec9565b90509250929050565b6020808252600d908201526c24b73b30b634b2103a37b5b2b760991b604082015260600190565b600060208284031215610fe157600080fd5b81518015158114610b0257600080fd5b634e487b7160e01b600052603260045260246000fd5b634e487b7160e01b600052601160045260246000fd5b60006001820161102f5761102f611007565b5060010190565b8181038181111561104957611049611007565b92915050565b634e487b7160e01b600052603160045260246000fd5b60008060006060848603121561107a57600080fd5b83519250602084015160ff8116811461109257600080fd5b8092505060408401519050925092509256fea2646970667358221220f672cacdb95d63a2dd5d4e92208fb72df41bb0e0132d128f942379e3e174388a64736f6c63430008140033",
  "linkReferences": {},
  "deployedLinkReferences": {}
}