{
  "_format": "hh-sol-artifact-1",
  "contractName": "Market",
  "sourceName": "contracts/market/Market.sol",
  "abi": [
    {
      "inputs": [
        {
          "internalType": "string",
          "name": "name",
          "type": "string"
        },
        {
          "internalType": "string",
          "name": "symbol",
          "type": "string"
        },
        {
          "internalType": "address",
          "name": "_treasury",
          "type": "address"
        },
        {
          "internalType": "address",
          "name": "_tokenGate",
          "type": "address"
        },
        {
          "internalType": "uint256",
          "name": "_maxOracleAge",
          "type": "uint256"
        }
      ],
      "stateMutability": "nonpayable",
      "type": "constructor"
    },
    {
      "anonymous": false,
      "inputs": [
        {
          "indexed": true,
          "internalType": "address",
          "name": "owner",
          "type": "address"
        },
        {
          "indexed": true,
          "internalType": "address",
          "name": "spender",
          "type": "address"
        },
        {
          "indexed": false,
          "internalType": "uint256",
          "name": "value",
          "type": "uint256"
        }
      ],
      "name": "Approval",
      "type": "event"
    },
    {
      "anonymous": false,
      "inputs": [
        {
          "indexed": true,
          "internalType": "uint256",
          "name": "txId",
          "type": "uint256"
        },
        {
          "indexed": true,
          "internalType": "address",
          "name": "user",
          "type": "address"
        },
        {
          "indexed": false,
          "internalType": "uint256",
          "name": "amount",
          "type": "uint256"
        },
        {
          "indexed": false,
          "internalType": "address",
          "name": "paymentToken",
          "type": "address"
        },
        {
          "indexed": false,
          "internalType": "uint256",
          "name": "paidAmount",
          "type": "uint256"
        }
      ],
      "name": "Credit",
      "type": "event"
    },
    {
      "anonymous": false,
      "inputs": [
        {
          "indexed": true,
          "internalType": "uint256",
          "name": "txId",
          "type": "uint256"
        },
        {
          "indexed": true,
          "internalType": "address",
          "name": "client",
          "type": "address"
        },
        {
          "indexed": true,
          "internalType": "address",
          "name": "provider",
          "type": "address"
        },
        {
          "indexed": false,
          "internalType": "uint256",
          "name": "amount",
          "type": "uint256"
        }
      ],
      "name": "Debit",
      "type": "event"
    },
    {
      "anonymous": false,
      "inputs": [
        {
          "indexed": true,
          "internalType": "address",
          "name": "newDebitContract",
          "type": "address"
        }
      ],
      "name": "DebitContractUpdated",
      "type": "event"
    },
    {
      "anonymous": false,
      "inputs": [
        {
          "indexed": false,
          "internalType": "uint256",
          "name": "newMaxAge",
          "type": "uint256"
        }
      ],
      "name": "MaxOracleAgeUpdated",
      "type": "event"
    },
    {
      "anonymous": false,
      "inputs": [
        {
          "indexed": true,
          "internalType": "address",
          "name": "previousOwner",
          "type": "address"
        },
        {
          "indexed": true,
          "internalType": "address",
          "name": "newOwner",
          "type": "address"
        }
      ],
      "name": "OwnershipTransferred",
      "type": "event"
    },
    {
      "anonymous": false,
      "inputs": [
        {
          "indexed": false,
          "internalType": "address",
          "name": "account",
          "type": "address"
        }
      ],
      "name": "Paused",
      "type": "event"
    },
    {
      "anonymous": false,
      "inputs": [
        {
          "indexed": true,
          "internalType": "address",
          "name": "newTokenGate",
          "type": "address"
        }
      ],
      "name": "TokenGateUpdated",
      "type": "event"
    },
    {
      "anonymous": false,
      "inputs": [
        {
          "indexed": true,
          "internalType": "address",
          "name": "from",
          "type": "address"
        },
        {
          "indexed": true,
          "internalType": "address",
          "name": "to",
          "type": "address"
        },
        {
          "indexed": false,
          "internalType": "uint256",
          "name": "value",
          "type": "uint256"
        }
      ],
      "name": "Transfer",
      "type": "event"
    },
    {
      "anonymous": false,
      "inputs": [
        {
          "indexed": true,
          "internalType": "address",
          "name": "newTreasury",
          "type": "address"
        }
      ],
      "name": "TreasuryUpdated",
      "type": "event"
    },
    {
      "anonymous": false,
      "inputs": [
        {
          "indexed": false,
          "internalType": "address",
          "name": "account",
          "type": "address"
        }
      ],
      "name": "Unpaused",
      "type": "event"
    },
    {
      "anonymous": false,
      "inputs": [
        {
          "indexed": true,
          "internalType": "uint256",
          "name": "txId",
          "type": "uint256"
        },
        {
          "indexed": true,
          "internalType": "address",
          "name": "user",
          "type": "address"
        },
        {
          "indexed": false,
          "internalType": "uint256",
          "name": "amount",
          "type": "uint256"
        },
        {
          "indexed": false,
          "internalType": "address",
          "name": "paymentToken",
          "type": "address"
        },
        {
          "indexed": false,
          "internalType": "uint256",
          "name": "receivedAmount",
          "type": "uint256"
        }
      ],
      "name": "Withdrawal",
      "type": "event"
    },
    {
      "inputs": [],
      "name": "TREASURY_FEE_PERCENT",
      "outputs": [
        {
          "internalType": "uint256",
          "name": "",
          "type": "uint256"
        }
      ],
      "stateMutability": "view",
      "type": "function"
    },
    {
      "inputs": [
        {
          "internalType": "uint256",
          "name": "amount",
          "type": "uint256"
        }
      ],
      "name": "addTreasuryFees",
      "outputs": [],
      "stateMutability": "nonpayable",
      "type": "function"
    },
    {
      "inputs": [
        {
          "internalType": "address",
          "name": "owner",
          "type": "address"
        },
        {
          "internalType": "address",
          "name": "spender",
          "type": "address"
        }
      ],
      "name": "allowance",
      "outputs": [
        {
          "internalType": "uint256",
          "name": "",
          "type": "uint256"
        }
      ],
      "stateMutability": "view",
      "type": "function"
    },
    {
      "inputs": [
        {
          "internalType": "address",
          "name": "spender",
          "type": "address"
        },
        {
          "internalType": "uint256",
          "name": "amount",
          "type": "uint256"
        }
      ],
      "name": "approve",
      "outputs": [
        {
          "internalType": "bool",
          "name": "",
          "type": "bool"
        }
      ],
      "stateMutability": "nonpayable",
      "type": "function"
    },
    {
      "inputs": [
        {
          "internalType": "address",
          "name": "account",
          "type": "address"
        }
      ],
      "name": "balanceOf",
      "outputs": [
        {
          "internalType": "uint256",
          "name": "",
          "type": "uint256"
        }
      ],
      "stateMutability": "view",
      "type": "function"
    },
    {
      "inputs": [
        {
          "internalType": "address",
          "name": "paymentToken",
          "type": "address"
        },
        {
          "internalType": "uint256",
          "name": "stableAmount",
          "type": "uint256"
        },
        {
          "internalType": "uint256",
          "name": "maxPaymentAmount",
          "type": "uint256"
        }
      ],
      "name": "credit",
      "outputs": [
        {
          "internalType": "uint256",
          "name": "",
          "type": "uint256"
        }
      ],
      "stateMutability": "nonpayable",
      "type": "function"
    },
    {
      "inputs": [
        {
          "internalType": "address",
          "name": "client",
          "type": "address"
        },
        {
          "internalType": "address",
          "name": "provider",
          "type": "address"
        },
        {
          "internalType": "uint256",
          "name": "stableAmount",
          "type": "uint256"
        },
        {
          "internalType": "uint256",
          "name": "deadline",
          "type": "uint256"
        },
        {
          "internalType": "bytes",
          "name": "signature",
          "type": "bytes"
        }
      ],
      "name": "debit",
      "outputs": [
        {
          "internalType": "uint256",
          "name": "",
          "type": "uint256"
        }
      ],
      "stateMutability": "nonpayable",
      "type": "function"
    },
    {
      "inputs": [
        {
          "internalType": "address",
          "name": "from",
          "type": "address"
        },
        {
          "internalType": "uint256",
          "name": "amount",
          "type": "uint256"
        }
      ],
      "name": "debitBurn",
      "outputs": [],
      "stateMutability": "nonpayable",
      "type": "function"
    },
    {
      "inputs": [],
      "name": "debitContract",
      "outputs": [
        {
          "internalType": "address",
          "name": "",
          "type": "address"
        }
      ],
      "stateMutability": "view",
      "type": "function"
    },
    {
      "inputs": [
        {
          "internalType": "address",
          "name": "to",
          "type": "address"
        },
        {
          "internalType": "uint256",
          "name": "amount",
          "type": "uint256"
        }
      ],
      "name": "debitMint",
      "outputs": [],
      "stateMutability": "nonpayable",
      "type": "function"
    },
    {
      "inputs": [],
      "name": "decimals",
      "outputs": [
        {
          "internalType": "uint8",
          "name": "",
          "type": "uint8"
        }
      ],
      "stateMutability": "pure",
      "type": "function"
    },
    {
      "inputs": [
        {
          "internalType": "address",
          "name": "spender",
          "type": "address"
        },
        {
          "internalType": "uint256",
          "name": "subtractedValue",
          "type": "uint256"
        }
      ],
      "name": "decreaseAllowance",
      "outputs": [
        {
          "internalType": "bool",
          "name": "",
          "type": "bool"
        }
      ],
      "stateMutability": "nonpayable",
      "type": "function"
    },
    {
      "inputs": [
        {
          "internalType": "address",
          "name": "user",
          "type": "address"
        }
      ],
      "name": "getBalance",
      "outputs": [
        {
          "internalType": "uint256",
          "name": "",
          "type": "uint256"
        }
      ],
      "stateMutability": "view",
      "type": "function"
    },
    {
      "inputs": [],
      "name": "getClaimedTreasuryFeesUSD",
      "outputs": [
        {
          "internalType": "uint256",
          "name": "",
          "type": "uint256"
        }
      ],
      "stateMutability": "view",
      "type": "function"
    },
    {
      "inputs": [
        {
          "internalType": "address",
          "name": "token",
          "type": "address"
        }
      ],
      "name": "getTokenPrice",
      "outputs": [
        {
          "internalType": "uint256",
          "name": "price",
          "type": "uint256"
        },
        {
          "internalType": "uint8",
          "name": "tokenDecimals",
          "type": "uint8"
        },
        {
          "internalType": "uint256",
          "name": "timestamp",
          "type": "uint256"
        }
      ],
      "stateMutability": "view",
      "type": "function"
    },
    {
      "inputs": [],
      "name": "getUnclaimedTreasuryFeesUSD",
      "outputs": [
        {
          "internalType": "uint256",
          "name": "",
          "type": "uint256"
        }
      ],
      "stateMutability": "view",
      "type": "function"
    },
    {
      "inputs": [
        {
          "internalType": "address",
          "name": "spender",
          "type": "address"
        },
        {
          "internalType": "uint256",
          "name": "addedValue",
          "type": "uint256"
        }
      ],
      "name": "increaseAllowance",
      "outputs": [
        {
          "internalType": "bool",
          "name": "",
          "type": "bool"
        }
      ],
      "stateMutability": "nonpayable",
      "type": "function"
    },
    {
      "inputs": [
        {
          "internalType": "address",
          "name": "token",
          "type": "address"
        }
      ],
      "name": "isTokenWhitelisted",
      "outputs": [
        {
          "internalType": "bool",
          "name": "",
          "type": "bool"
        }
      ],
      "stateMutability": "view",
      "type": "function"
    },
    {
      "inputs": [],
      "name": "maxOracleAge",
      "outputs": [
        {
          "internalType": "uint256",
          "name": "",
          "type": "uint256"
        }
      ],
      "stateMutability": "view",
      "type": "function"
    },
    {
      "inputs": [],
      "name": "name",
      "outputs": [
        {
          "internalType": "string",
          "name": "",
          "type": "string"
        }
      ],
      "stateMutability": "view",
      "type": "function"
    },
    {
      "inputs": [],
      "name": "nextTransactionId",
      "outputs": [
        {
          "internalType": "uint256",
          "name": "",
          "type": "uint256"
        }
      ],
      "stateMutability": "view",
      "type": "function"
    },
    {
      "inputs": [],
      "name": "owner",
      "outputs": [
        {
          "internalType": "address",
          "name": "",
          "type": "address"
        }
      ],
      "stateMutability": "view",
      "type": "function"
    },
    {
      "inputs": [],
      "name": "pause",
      "outputs": [],
      "stateMutability": "nonpayable",
      "type": "function"
    },
    {
      "inputs": [],
      "name": "paused",
      "outputs": [
        {
          "internalType": "bool",
          "name": "",
          "type": "bool"
        }
      ],
      "stateMutability": "view",
      "type": "function"
    },
    {
      "inputs": [],
      "name": "renounceOwnership",
      "outputs": [],
      "stateMutability": "nonpayable",
      "type": "function"
    },
    {
      "inputs": [
        {
          "internalType": "address",
          "name": "_debitContract",
          "type": "address"
        }
      ],
      "name": "setDebitContract",
      "outputs": [],
      "stateMutability": "nonpayable",
      "type": "function"
    },
    {
      "inputs": [
        {
          "internalType": "uint256",
          "name": "_maxOracleAge",
          "type": "uint256"
        }
      ],
      "name": "setMaxOracleAge",
      "outputs": [],
      "stateMutability": "nonpayable",
      "type": "function"
    },
    {
      "inputs": [
        {
          "internalType": "address",
          "name": "_tokenGate",
          "type": "address"
        }
      ],
      "name": "setTokenGate",
      "outputs": [],
      "stateMutability": "nonpayable",
      "type": "function"
    },
    {
      "inputs": [
        {
          "internalType": "address",
          "name": "_treasury",
          "type": "address"
        }
      ],
      "name": "setTreasury",
      "outputs": [],
      "stateMutability": "nonpayable",
      "type": "function"
    },
    {
      "inputs": [],
      "name": "symbol",
      "outputs": [
        {
          "internalType": "string",
          "name": "",
          "type": "string"
        }
      ],
      "stateMutability": "view",
      "type": "function"
    },
    {
      "inputs": [],
      "name": "tokenGate",
      "outputs": [
        {
          "internalType": "contract TokenGate",
          "name": "",
          "type": "address"
        }
      ],
      "stateMutability": "view",
      "type": "function"
    },
    {
      "inputs": [],
      "name": "totalSupply",
      "outputs": [
        {
          "internalType": "uint256",
          "name": "",
          "type": "uint256"
        }
      ],
      "stateMutability": "view",
      "type": "function"
    },
    {
      "inputs": [],
      "name": "totalTreasuryFeesAccrued",
      "outputs": [
        {
          "internalType": "uint256",
          "name": "",
          "type": "uint256"
        }
      ],
      "stateMutability": "view",
      "type": "function"
    },
    {
      "inputs": [
        {
          "internalType": "address",
          "name": "to",
          "type": "address"
        },
        {
          "internalType": "uint256",
          "name": "amount",
          "type": "uint256"
        }
      ],
      "name": "transfer",
      "outputs": [
        {
          "internalType": "bool",
          "name": "",
          "type": "bool"
        }
      ],
      "stateMutability": "nonpayable",
      "type": "function"
    },
    {
      "inputs": [
        {
          "internalType": "address",
          "name": "from",
          "type": "address"
        },
        {
          "internalType": "address",
          "name": "to",
          "type": "address"
        },
        {
          "internalType": "uint256",
          "name": "amount",
          "type": "uint256"
        }
      ],
      "name": "transferFrom",
      "outputs": [
        {
          "internalType": "bool",
          "name": "",
          "type": "bool"
        }
      ],
      "stateMutability": "nonpayable",
      "type": "function"
    },
    {
      "inputs": [
        {
          "internalType": "address",
          "name": "newOwner",
          "type": "address"
        }
      ],
      "name": "transferOwnership",
      "outputs": [],
      "stateMutability": "nonpayable",
      "type": "function"
    },
    {
      "inputs": [],
      "name": "treasury",
      "outputs": [
        {
          "internalType": "address",
          "name": "",
          "type": "address"
        }
      ],
      "stateMutability": "view",
      "type": "function"
    },
    {
      "inputs": [],
      "name": "unpause",
      "outputs": [],
      "stateMutability": "nonpayable",
      "type": "function"
    },
    {
      "inputs": [
        {
          "internalType": "address",
          "name": "paymentToken",
          "type": "address"
        },
        {
          "internalType": "uint256",
          "name": "stableAmount",
          "type": "uint256"
        },
        {
          "internalType": "uint256",
          "name": "minReceiveAmount",
          "type": "uint256"
        }
      ],
      "name": "withdraw",
      "outputs": [
        {
          "internalType": "uint256",
          "name": "",
          "type": "uint256"
        }
      ],
      "stateMutability": "nonpayable",
      "type": "function"
    }
  ],
  "bytecode": "0x60806040526001600a553480156200001657600080fd5b5060405162002aa238038062002aa28339810160408190526200003991620002da565b8484600362000049838262000402565b50600462000058828262000402565b50506001600555506006805460ff1916905562000075336200019e565b6001600160a01b038316620000c45760405162461bcd60e51b815260206004820152601060248201526f496e76616c696420747265617375727960801b60448201526064015b60405180910390fd5b6001600160a01b038216620001105760405162461bcd60e51b8152602060048201526011602482015270496e76616c696420746f6b656e6761746560781b6044820152606401620000bb565b60008111620001625760405162461bcd60e51b815260206004820152601660248201527f496e76616c6964206d6178206f7261636c6520616765000000000000000000006044820152606401620000bb565b600780546001600160a01b039485166001600160a01b0319918216179091556008805493909416921691909117909155600b5550620004ce9050565b600680546001600160a01b03838116610100818102610100600160a81b031985161790945560405193909204169182907f8be0079c531659141344cd1fd0a4f28419497f9722a3daafe3b4186f6b6457e090600090a35050565b634e487b7160e01b600052604160045260246000fd5b600082601f8301126200022057600080fd5b81516001600160401b03808211156200023d576200023d620001f8565b604051601f8301601f19908116603f01168101908282118183101715620002685762000268620001f8565b816040528381526020925086838588010111156200028557600080fd5b600091505b83821015620002a957858201830151818301840152908201906200028a565b600093810190920192909252949350505050565b80516001600160a01b0381168114620002d557600080fd5b919050565b600080600080600060a08688031215620002f357600080fd5b85516001600160401b03808211156200030b57600080fd5b6200031989838a016200020e565b965060208801519150808211156200033057600080fd5b506200033f888289016200020e565b9450506200035060408701620002bd565b92506200036060608701620002bd565b9150608086015190509295509295909350565b600181811c908216806200038857607f821691505b602082108103620003a957634e487b7160e01b600052602260045260246000fd5b50919050565b601f821115620003fd57600081815260208120601f850160051c81016020861015620003d85750805b601f850160051c820191505b81811015620003f957828155600101620003e4565b5050505b505050565b81516001600160401b038111156200041e576200041e620001f8565b62000436816200042f845462000373565b84620003af565b602080601f8311600181146200046e5760008415620004555750858301515b600019600386901b1c1916600185901b178555620003f9565b600085815260208120601f198616915b828110156200049f578886015182559484019460019091019084016200047e565b5085821015620004be5787850151600019600388901b60f8161c191681555b5050505050600190811b01905550565b6125c480620004de6000396000f3fe608060405234801561001057600080fd5b506004361061023d5760003560e01c80638456cb591161013b578063d4335c39116100b8578063e111703a1161007c578063e111703a146104de578063f0f44260146104e6578063f2fde38b146104f9578063f835c9d01461050c578063f8b2cb4f1461051f57600080fd5b8063d4335c3914610489578063d7ca38f31461049c578063dd62ed3e146104a5578063ddb1bdc8146104b8578063dead9e5e146104cb57600080fd5b8063a9059cbb116100ff578063a9059cbb14610418578063b5af090f1461042b578063b5c5f6721461043e578063c6318b4e14610451578063d02641a01461045957600080fd5b80638456cb59146103cc5780638da5cb5b146103d4578063940c6ffb146103ea57806395d89b41146103fd578063a457c2d71461040557600080fd5b80634c93368c116101c957806370a082311161018d57806370a082311461035f578063715018a61461038857806374c4c8f7146103905780637c87a993146103a35780637e8e2a8f146103ac57600080fd5b80634c93368c1461031257806350008e4a1461031b5780635c975abb1461032e57806361d027b3146103395780636919b8c71461034c57600080fd5b80632931bdd8116102105780632931bdd8146102a8578063313ce567146102d357806339509351146102e257806339bb80c9146102f55780633f4ba83a1461030857600080fd5b806306fdde0314610242578063095ea7b31461026057806318160ddd1461028357806323b872dd14610295575b600080fd5b61024a610532565b604051610257919061208c565b60405180910390f35b61027361026e3660046120bb565b6105c4565b6040519015158152602001610257565b6002545b604051908152602001610257565b6102736102a33660046120e5565b6105de565b6009546102bb906001600160a01b031681565b6040516001600160a01b039091168152602001610257565b60405160088152602001610257565b6102736102f03660046120bb565b610604565b610287610303366004612137565b610626565b6103106107ed565b005b610287600c5481565b6008546102bb906001600160a01b031681565b60065460ff16610273565b6007546102bb906001600160a01b031681565b61031061035a36600461221d565b6107ff565b61028761036d36600461221d565b6001600160a01b031660009081526020819052604090205490565b6103106108a0565b61031061039e36600461221d565b6108b2565b610287600b5481565b6007546001600160a01b0316600090815260208190526040902054610287565b61031061094e565b60065461010090046001600160a01b03166102bb565b6103106103f83660046120bb565b61095e565b61024a610996565b6102736104133660046120bb565b6109a5565b6102736104263660046120bb565b610a2b565b61027361043936600461221d565b610a39565b61028761044c366004612238565b610aa8565b610287610ee4565b61046c61046736600461221d565b610f23565b6040805193845260ff909216602084015290820152606001610257565b6103106104973660046120bb565b610fa5565b610287600a5481565b6102876104b336600461226b565b610fd9565b6102876104c6366004612238565b611004565b6103106104d936600461229e565b6113d8565b610287600581565b6103106104f436600461221d565b61141c565b61031061050736600461221d565b6114b7565b61031061051a36600461229e565b611530565b61028761052d36600461221d565b6115bc565b606060038054610541906122b7565b80601f016020809104026020016040519081016040528092919081815260200182805461056d906122b7565b80156105ba5780601f1061058f576101008083540402835291602001916105ba565b820191906000526020600020905b81548152906001019060200180831161059d57829003601f168201915b5050505050905090565b6000336105d28185856115da565b60019150505b92915050565b6000336105ec8582856116ff565b6105f7858585611779565b60019150505b9392505050565b6000336105d28185856106178383610fd9565b6106219190612307565b6115da565b600061063061191d565b6009546001600160a01b03166106865760405162461bcd60e51b81526020600482015260166024820152751119589a5d0818dbdb9d1c9858dd081b9bdd081cd95d60521b60448201526064015b60405180910390fd5b6000825160000361071757600954604051632174727d60e21b81526001600160a01b038981166004830152888116602483015260448201889052909116906385d1c9f4906064016020604051808303816000875af11580156106ec573d6000803e3d6000fd5b505050506040513d601f19601f82011682018060405250810190610710919061231a565b9050610795565b600954604051636218f59360e01b81526001600160a01b0390911690636218f5939061074f908a908a908a908a908a90600401612333565b6020604051808303816000875af115801561076e573d6000803e3d6000fd5b505050506040513d601f19601f82011682018060405250810190610792919061231a565b90505b856001600160a01b0316876001600160a01b0316827fa754adf5d975b46c396155a50ac01f4c0a08bd7f91ea46faf5c447d507724817886040516107db91815260200190565b60405180910390a49695505050505050565b6107f561191d565b6107fd61197d565b565b61080761191d565b6001600160a01b0381166108565760405162461bcd60e51b8152602060048201526016602482015275125b9d985b1a59081919589a5d0818dbdb9d1c9858dd60521b604482015260640161067d565b600980546001600160a01b0319166001600160a01b0383169081179091556040517f114fe624c22dc3de6e5b396b1def36c2b791dbcee83810458befa11d6c2d00e090600090a250565b6108a861191d565b6107fd60006119cf565b6108ba61191d565b6001600160a01b0381166109045760405162461bcd60e51b8152602060048201526011602482015270496e76616c696420746f6b656e6761746560781b604482015260640161067d565b600880546001600160a01b0319166001600160a01b0383169081179091556040517f05e4bd11b1381b0095f63c1a86ac851fe00d45afb8ef1dffb6399f9b9ec202cd90600090a250565b61095661191d565b6107fd611a29565b6009546001600160a01b031633146109885760405162461bcd60e51b815260040161067d9061236d565b6109928282611a66565b5050565b606060048054610541906122b7565b600033816109b38286610fd9565b905083811015610a135760405162461bcd60e51b815260206004820152602560248201527f45524332303a2064656372656173656420616c6c6f77616e63652062656c6f77604482015264207a65726f60d81b606482015260840161067d565b610a2082868684036115da565b506001949350505050565b6000336105d2818585611779565b60085460405163b5af090f60e01b81526001600160a01b038381166004830152600092169063b5af090f90602401602060405180830381865afa158015610a84573d6000803e3d6000fd5b505050506040513d601f19601f820116820180604052508101906105d8919061239a565b6000610ab2611b25565b610aba611b7e565b60008311610afb5760405162461bcd60e51b815260206004820152600e60248201526d125b9d985b1a5908185b5bdd5b9d60921b604482015260640161067d565b33600090815260208190526040902054831115610b515760405162461bcd60e51b8152602060048201526014602482015273496e73756666696369656e742062616c616e636560601b604482015260640161067d565b60085460405163b5af090f60e01b81526001600160a01b0386811660048301529091169063b5af090f90602401602060405180830381865afa158015610b9b573d6000803e3d6000fd5b505050506040513d601f19601f82011682018060405250810190610bbf919061239a565b610c035760405162461bcd60e51b8152602060048201526015602482015274151bdad95b881b9bdd081dda1a5d195b1a5cdd1959605a1b604482015260640161067d565b600854604051630681320d60e51b81526001600160a01b038681166004830152600092839283929091169063d02641a090602401606060405180830381865afa158015610c54573d6000803e3d6000fd5b505050506040513d601f19601f82011682018060405250810190610c7891906123cd565b92509250925060008311610cbe5760405162461bcd60e51b815260206004820152600d60248201526c496e76616c696420707269636560981b604482015260640161067d565b600b54610ccb8242612402565b1115610d0e5760405162461bcd60e51b81526020600482015260126024820152715374616c65206f7261636c6520707269636560701b604482015260640161067d565b6000876001600160a01b031663313ce5676040518163ffffffff1660e01b8152600401602060405180830381865afa158015610d4e573d6000803e3d6000fd5b505050506040513d601f19601f82011682018060405250810190610d729190612415565b90506000610d826008600a612514565b610d8c9086612520565b610d9a60ff8616600a612514565b610da860ff8516600a612514565b610db2908b612520565b610dbc9190612520565b610dc69190612537565b905060008111610e0b5760405162461bcd60e51b815260206004820152601060248201526f105b5bdd5b9d081d1bdbc81cdb585b1b60821b604482015260640161067d565b86811015610e4f5760405162461bcd60e51b815260206004820152601160248201527042656c6f77206d696e207265636569766560781b604482015260640161067d565b610e593389611bc4565b610e6d6001600160a01b038a163383611cf3565b600a805460009182610e7e83612559565b90915550604080518b81526001600160a01b038d166020820152908101849052909150339082907f051d3c25696883cb50c923d33f58a95aac78ca7cd60e62eecddbf4e5cf8bd2b8906060015b60405180910390a3955050505050506105fd6001600555565b6007546001600160a01b031660009081526020819052604081205480600c5411610f0f576000610f1d565b80600c54610f1d9190612402565b91505090565b600854604051630681320d60e51b81526001600160a01b038381166004830152600092839283929091169063d02641a090602401606060405180830381865afa158015610f74573d6000803e3d6000fd5b505050506040513d601f19601f82011682018060405250810190610f9891906123cd565b9250925092509193909250565b6009546001600160a01b03163314610fcf5760405162461bcd60e51b815260040161067d9061236d565b6109928282611bc4565b6001600160a01b03918216600090815260016020908152604080832093909416825291909152205490565b600061100e611b25565b611016611b7e565b600083116110575760405162461bcd60e51b815260206004820152600e60248201526d125b9d985b1a5908185b5bdd5b9d60921b604482015260640161067d565b60085460405163b5af090f60e01b81526001600160a01b0386811660048301529091169063b5af090f90602401602060405180830381865afa1580156110a1573d6000803e3d6000fd5b505050506040513d601f19601f820116820180604052508101906110c5919061239a565b6111095760405162461bcd60e51b8152602060048201526015602482015274151bdad95b881b9bdd081dda1a5d195b1a5cdd1959605a1b604482015260640161067d565b600854604051630681320d60e51b81526001600160a01b038681166004830152600092839283929091169063d02641a090602401606060405180830381865afa15801561115a573d6000803e3d6000fd5b505050506040513d601f19601f8201168201806040525081019061117e91906123cd565b925092509250600083116111c45760405162461bcd60e51b815260206004820152600d60248201526c496e76616c696420707269636560981b604482015260640161067d565b600b546111d18242612402565b11156112145760405162461bcd60e51b81526020600482015260126024820152715374616c65206f7261636c6520707269636560701b604482015260640161067d565b6000876001600160a01b031663313ce5676040518163ffffffff1660e01b8152600401602060405180830381865afa158015611254573d6000803e3d6000fd5b505050506040513d601f19601f820116820180604052508101906112789190612415565b905060006112886008600a612514565b6112929086612520565b6112a060ff8616600a612514565b6112ae60ff8516600a612514565b6112b8908b612520565b6112c29190612520565b6112cc9190612537565b9050600081116113115760405162461bcd60e51b815260206004820152601060248201526f105b5bdd5b9d081d1bdbc81cdb585b1b60821b604482015260640161067d565b868111156113575760405162461bcd60e51b8152602060048201526013602482015272115e18d959591cc81b585e081c185e5b595b9d606a1b604482015260640161067d565b61136c6001600160a01b038a16333084611d56565b6113763389611a66565b600a80546000918261138783612559565b90915550604080518b81526001600160a01b038d166020820152908101849052909150339082907f6b8848211abfdea24dea39fa2745a4d9d15c188717ad27a231de29e47d27e1b090606001610ecb565b6009546001600160a01b031633146114025760405162461bcd60e51b815260040161067d9061236d565b80600c60008282546114149190612307565b909155505050565b61142461191d565b6001600160a01b03811661146d5760405162461bcd60e51b815260206004820152601060248201526f496e76616c696420747265617375727960801b604482015260640161067d565b600780546001600160a01b0319166001600160a01b0383169081179091556040517f7dae230f18360d76a040c81f050aa14eb9d6dc7901b20fc5d855e2a20fe814d190600090a250565b6114bf61191d565b6001600160a01b0381166115245760405162461bcd60e51b815260206004820152602660248201527f4f776e61626c653a206e6577206f776e657220697320746865207a65726f206160448201526564647265737360d01b606482015260840161067d565b61152d816119cf565b50565b61153861191d565b600081116115815760405162461bcd60e51b8152602060048201526016602482015275496e76616c6964206d6178206f7261636c652061676560501b604482015260640161067d565b600b8190556040518181527f2e518a42e598e15835b159c68ca02c76dabda2b56c7358b7af3871889463d3bb9060200160405180910390a150565b6001600160a01b0381166000908152602081905260408120546105d8565b6001600160a01b03831661163c5760405162461bcd60e51b8152602060048201526024808201527f45524332303a20617070726f76652066726f6d20746865207a65726f206164646044820152637265737360e01b606482015260840161067d565b6001600160a01b03821661169d5760405162461bcd60e51b815260206004820152602260248201527f45524332303a20617070726f766520746f20746865207a65726f206164647265604482015261737360f01b606482015260840161067d565b6001600160a01b0383811660008181526001602090815260408083209487168084529482529182902085905590518481527f8c5be1e5ebec7d5bd14f71427d1e84f3dd0314c0f7b2291e5b200ac8c7c3b92591015b60405180910390a3505050565b600061170b8484610fd9565b9050600019811461177357818110156117665760405162461bcd60e51b815260206004820152601d60248201527f45524332303a20696e73756666696369656e7420616c6c6f77616e6365000000604482015260640161067d565b61177384848484036115da565b50505050565b6001600160a01b0383166117dd5760405162461bcd60e51b815260206004820152602560248201527f45524332303a207472616e736665722066726f6d20746865207a65726f206164604482015264647265737360d81b606482015260840161067d565b6001600160a01b03821661183f5760405162461bcd60e51b815260206004820152602360248201527f45524332303a207472616e7366657220746f20746865207a65726f206164647260448201526265737360e81b606482015260840161067d565b6001600160a01b038316600090815260208190526040902054818110156118b75760405162461bcd60e51b815260206004820152602660248201527f45524332303a207472616e7366657220616d6f756e7420657863656564732062604482015265616c616e636560d01b606482015260840161067d565b6001600160a01b03848116600081815260208181526040808320878703905593871680835291849020805487019055925185815290927fddf252ad1be2c89b69c2b068fc378daa952ba7f163c4a11628f55a4df523b3ef910160405180910390a3611773565b6006546001600160a01b036101009091041633146107fd5760405162461bcd60e51b815260206004820181905260248201527f4f776e61626c653a2063616c6c6572206973206e6f7420746865206f776e6572604482015260640161067d565b611985611d8e565b6006805460ff191690557f5db9ee0a495bf2e6ff9c91a7834c1ba4fdd244a5e8aa4e537bd38aeae4b073aa335b6040516001600160a01b03909116815260200160405180910390a1565b600680546001600160a01b03838116610100818102610100600160a81b031985161790945560405193909204169182907f8be0079c531659141344cd1fd0a4f28419497f9722a3daafe3b4186f6b6457e090600090a35050565b611a31611b7e565b6006805460ff191660011790557f62e78cea01bee320cd4e420270b5ea74000d11b0c9f74754ebdbfc544b05a2586119b23390565b6001600160a01b038216611abc5760405162461bcd60e51b815260206004820152601f60248201527f45524332303a206d696e7420746f20746865207a65726f206164647265737300604482015260640161067d565b8060026000828254611ace9190612307565b90915550506001600160a01b038216600081815260208181526040808320805486019055518481527fddf252ad1be2c89b69c2b068fc378daa952ba7f163c4a11628f55a4df523b3ef910160405180910390a35050565b600260055403611b775760405162461bcd60e51b815260206004820152601f60248201527f5265656e7472616e637947756172643a207265656e7472616e742063616c6c00604482015260640161067d565b6002600555565b60065460ff16156107fd5760405162461bcd60e51b815260206004820152601060248201526f14185d5cd8589b194e881c185d5cd95960821b604482015260640161067d565b6001600160a01b038216611c245760405162461bcd60e51b815260206004820152602160248201527f45524332303a206275726e2066726f6d20746865207a65726f206164647265736044820152607360f81b606482015260840161067d565b6001600160a01b03821660009081526020819052604090205481811015611c985760405162461bcd60e51b815260206004820152602260248201527f45524332303a206275726e20616d6f756e7420657863656564732062616c616e604482015261636560f01b606482015260840161067d565b6001600160a01b0383166000818152602081815260408083208686039055600280548790039055518581529192917fddf252ad1be2c89b69c2b068fc378daa952ba7f163c4a11628f55a4df523b3ef91016116f2565b505050565b6040516001600160a01b038316602482015260448101829052611cee90849063a9059cbb60e01b906064015b60408051601f198184030181529190526020810180516001600160e01b03166001600160e01b031990931692909217909152611dd7565b6040516001600160a01b03808516602483015283166044820152606481018290526117739085906323b872dd60e01b90608401611d1f565b60065460ff166107fd5760405162461bcd60e51b815260206004820152601460248201527314185d5cd8589b194e881b9bdd081c185d5cd95960621b604482015260640161067d565b6000611e2c826040518060400160405280602081526020017f5361666545524332303a206c6f772d6c6576656c2063616c6c206661696c6564815250856001600160a01b0316611eac9092919063ffffffff16565b9050805160001480611e4d575080806020019051810190611e4d919061239a565b611cee5760405162461bcd60e51b815260206004820152602a60248201527f5361666545524332303a204552433230206f7065726174696f6e20646964206e6044820152691bdd081cdd58d8d9595960b21b606482015260840161067d565b6060611ebb8484600085611ec3565b949350505050565b606082471015611f245760405162461bcd60e51b815260206004820152602660248201527f416464726573733a20696e73756666696369656e742062616c616e636520666f6044820152651c8818d85b1b60d21b606482015260840161067d565b600080866001600160a01b03168587604051611f409190612572565b60006040518083038185875af1925050503d8060008114611f7d576040519150601f19603f3d011682016040523d82523d6000602084013e611f82565b606091505b5091509150611f9387838387611f9e565b979650505050505050565b6060831561200d578251600003612006576001600160a01b0385163b6120065760405162461bcd60e51b815260206004820152601d60248201527f416464726573733a2063616c6c20746f206e6f6e2d636f6e7472616374000000604482015260640161067d565b5081611ebb565b611ebb83838151156120225781518083602001fd5b8060405162461bcd60e51b815260040161067d919061208c565b60005b8381101561205757818101518382015260200161203f565b50506000910152565b6000815180845261207881602086016020860161203c565b601f01601f19169290920160200192915050565b6020815260006105fd6020830184612060565b80356001600160a01b03811681146120b657600080fd5b919050565b600080604083850312156120ce57600080fd5b6120d78361209f565b946020939093013593505050565b6000806000606084860312156120fa57600080fd5b6121038461209f565b92506121116020850161209f565b9150604084013590509250925092565b634e487b7160e01b600052604160045260246000fd5b600080600080600060a0868803121561214f57600080fd5b6121588661209f565b94506121666020870161209f565b93506040860135925060608601359150608086013567ffffffffffffffff8082111561219157600080fd5b818801915088601f8301126121a557600080fd5b8135818111156121b7576121b7612121565b604051601f8201601f19908116603f011681019083821181831017156121df576121df612121565b816040528281528b60208487010111156121f857600080fd5b8260208601602083013760006020848301015280955050505050509295509295909350565b60006020828403121561222f57600080fd5b6105fd8261209f565b60008060006060848603121561224d57600080fd5b6122568461209f565b95602085013595506040909401359392505050565b6000806040838503121561227e57600080fd5b6122878361209f565b91506122956020840161209f565b90509250929050565b6000602082840312156122b057600080fd5b5035919050565b600181811c908216806122cb57607f821691505b6020821081036122eb57634e487b7160e01b600052602260045260246000fd5b50919050565b634e487b7160e01b600052601160045260246000fd5b808201808211156105d8576105d86122f1565b60006020828403121561232c57600080fd5b5051919050565b6001600160a01b03868116825285166020820152604081018490526060810183905260a060808201819052600090611f9390830184612060565b60208082526013908201527213db9b1e481919589a5d0818dbdb9d1c9858dd606a1b604082015260600190565b6000602082840312156123ac57600080fd5b815180151581146105fd57600080fd5b805160ff811681146120b657600080fd5b6000806000606084860312156123e257600080fd5b835192506123f2602085016123bc565b9150604084015190509250925092565b818103818111156105d8576105d86122f1565b60006020828403121561242757600080fd5b6105fd826123bc565b600181815b8085111561246b578160001904821115612451576124516122f1565b8085161561245e57918102915b93841c9390800290612435565b509250929050565b600082612482575060016105d8565b8161248f575060006105d8565b81600181146124a557600281146124af576124cb565b60019150506105d8565b60ff8411156124c0576124c06122f1565b50506001821b6105d8565b5060208310610133831016604e8410600b84101617156124ee575081810a6105d8565b6124f88383612430565b806000190482111561250c5761250c6122f1565b029392505050565b60006105fd8383612473565b80820281158282048414176105d8576105d86122f1565b60008261255457634e487b7160e01b600052601260045260246000fd5b500490565b60006001820161256b5761256b6122f1565b5060010190565b6000825161258481846020870161203c565b919091019291505056fea264697066735822122007efc3a2afdfb9e3c580e6dbf0207ace235e721a4ffe74b93b9726168e5cef3f64736f6c63430008140033",
  "linkReferences": {},
  "deployedLinkReferences": {}
}