{
  "_format": "hh-sol-artifact-1",
  "contractName": "Market",
  "sourceName": "contracts/market/Market.sol",
  "abi": [
    {
      "inputs": [
        {
          "internalType": "string",
          "name": "name",
          "type": "string"
        },
        {
          "internalType": "string",
          "name": "symbol",
          "type": "string"
        },
        {
          "internalType": "address",
          "name": "_treasury",
          "type": "address"
        },
        {
          "internalType": "address",
          "name": "_tokenGate",
          "type": "address"
        }
      ],
      "stateMutability": "nonpayable",
      "type": "constructor"
    },
    {
      "anonymous": false,
      "inputs": [
        {
          "indexed": true,
          "internalType": "address",
          "name": "owner",
          "type": "address"
        },
        {
          "indexed": true,
          "internalType": "address",
          "name": "spender",
          "type": "address"
        },
        {
          "indexed": false,
          "internalType": "uint256",
          "name": "value",
          "type": "uint256"
        }
      ],
      "name": "Approval",
      "type": "event"
    },
    {
      "anonymous": false,
      "inputs": [
        {
          "indexed": true,
          "internalType": "uint256",
          "name": "txId",
          "type": "uint256"
        },
        {
          "indexed": true,
          "internalType": "address",
          "name": "user",
          "type": "address"
        },
        {
          "indexed": false,
          "internalType": "uint256",
          "name": "amount",
          "type": "uint256"
        },
        {
          "indexed": false,
          "internalType": "address",
          "name": "paymentToken",
          "type": "address"
        },
        {
          "indexed": false,
          "internalType": "uint256",
          "name": "paidAmount",
          "type": "uint256"
        }
      ],
      "name": "Credit",
      "type": "event"
    },
    {
      "anonymous": false,
      "inputs": [
        {
          "indexed": true,
          "internalType": "uint256",
          "name": "txId",
          "type": "uint256"
        },
        {
          "indexed": true,
          "internalType": "address",
          "name": "client",
          "type": "address"
        },
        {
          "indexed": true,
          "internalType": "address",
          "name": "provider",
          "type": "address"
        },
        {
          "indexed": false,
          "internalType": "uint256",
          "name": "amount",
          "type": "uint256"
        }
      ],
      "name": "Debit",
      "type": "event"
    },
    {
      "anonymous": false,
      "inputs": [
        {
          "indexed": true,
          "internalType": "address",
          "name": "newDebitContract",
          "type": "address"
        }
      ],
      "name": "DebitContractUpdated",
      "type": "event"
    },
    {
      "anonymous": false,
      "inputs": [
        {
          "indexed": true,
          "internalType": "address",
          "name": "previousOwner",
          "type": "address"
        },
        {
          "indexed": true,
          "internalType": "address",
          "name": "newOwner",
          "type": "address"
        }
      ],
      "name": "OwnershipTransferred",
      "type": "event"
    },
    {
      "anonymous": false,
      "inputs": [
        {
          "indexed": false,
          "internalType": "address",
          "name": "account",
          "type": "address"
        }
      ],
      "name": "Paused",
      "type": "event"
    },
    {
      "anonymous": false,
      "inputs": [
        {
          "indexed": true,
          "internalType": "address",
          "name": "newTokenGate",
          "type": "address"
        }
      ],
      "name": "TokenGateUpdated",
      "type": "event"
    },
    {
      "anonymous": false,
      "inputs": [
        {
          "indexed": true,
          "internalType": "address",
          "name": "from",
          "type": "address"
        },
        {
          "indexed": true,
          "internalType": "address",
          "name": "to",
          "type": "address"
        },
        {
          "indexed": false,
          "internalType": "uint256",
          "name": "value",
          "type": "uint256"
        }
      ],
      "name": "Transfer",
      "type": "event"
    },
    {
      "anonymous": false,
      "inputs": [
        {
          "indexed": true,
          "internalType": "address",
          "name": "newTreasury",
          "type": "address"
        }
      ],
      "name": "TreasuryUpdated",
      "type": "event"
    },
    {
      "anonymous": false,
      "inputs": [
        {
          "indexed": false,
          "internalType": "address",
          "name": "account",
          "type": "address"
        }
      ],
      "name": "Unpaused",
      "type": "event"
    },
    {
      "anonymous": false,
      "inputs": [
        {
          "indexed": true,
          "internalType": "uint256",
          "name": "txId",
          "type": "uint256"
        },
        {
          "indexed": true,
          "internalType": "address",
          "name": "user",
          "type": "address"
        },
        {
          "indexed": false,
          "internalType": "uint256",
          "name": "amount",
          "type": "uint256"
        },
        {
          "indexed": false,
          "internalType": "address",
          "name": "paymentToken",
          "type": "address"
        },
        {
          "indexed": false,
          "internalType": "uint256",
          "name": "receivedAmount",
          "type": "uint256"
        }
      ],
      "name": "Withdrawal",
      "type": "event"
    },
    {
      "inputs": [],
      "name": "TREASURY_FEE_PERCENT",
      "outputs": [
        {
          "internalType": "uint256",
          "name": "",
          "type": "uint256"
        }
      ],
      "stateMutability": "view",
      "type": "function"
    },
    {
      "inputs": [
        {
          "internalType": "uint256",
          "name": "amount",
          "type": "uint256"
        }
      ],
      "name": "addTreasuryFees",
      "outputs": [],
      "stateMutability": "nonpayable",
      "type": "function"
    },
    {
      "inputs": [
        {
          "internalType": "address",
          "name": "owner",
          "type": "address"
        },
        {
          "internalType": "address",
          "name": "spender",
          "type": "address"
        }
      ],
      "name": "allowance",
      "outputs": [
        {
          "internalType": "uint256",
          "name": "",
          "type": "uint256"
        }
      ],
      "stateMutability": "view",
      "type": "function"
    },
    {
      "inputs": [
        {
          "internalType": "address",
          "name": "spender",
          "type": "address"
        },
        {
          "internalType": "uint256",
          "name": "amount",
          "type": "uint256"
        }
      ],
      "name": "approve",
      "outputs": [
        {
          "internalType": "bool",
          "name": "",
          "type": "bool"
        }
      ],
      "stateMutability": "nonpayable",
      "type": "function"
    },
    {
      "inputs": [
        {
          "internalType": "address",
          "name": "account",
          "type": "address"
        }
      ],
      "name": "balanceOf",
      "outputs": [
        {
          "internalType": "uint256",
          "name": "",
          "type": "uint256"
        }
      ],
      "stateMutability": "view",
      "type": "function"
    },
    {
      "inputs": [
        {
          "internalType": "address",
          "name": "paymentToken",
          "type": "address"
        },
        {
          "internalType": "uint256",
          "name": "stableAmount",
          "type": "uint256"
        },
        {
          "internalType": "uint256",
          "name": "maxPaymentAmount",
          "type": "uint256"
        }
      ],
      "name": "credit",
      "outputs": [
        {
          "internalType": "uint256",
          "name": "",
          "type": "uint256"
        }
      ],
      "stateMutability": "nonpayable",
      "type": "function"
    },
    {
      "inputs": [
        {
          "internalType": "address",
          "name": "client",
          "type": "address"
        },
        {
          "internalType": "address",
          "name": "provider",
          "type": "address"
        },
        {
          "internalType": "uint256",
          "name": "stableAmount",
          "type": "uint256"
        },
        {
          "internalType": "uint256",
          "name": "deadline",
          "type": "uint256"
        },
        {
          "internalType": "bytes",
          "name": "signature",
          "type": "bytes"
        }
      ],
      "name": "debit",
      "outputs": [
        {
          "internalType": "uint256",
          "name": "",
          "type": "uint256"
        }
      ],
      "stateMutability": "nonpayable",
      "type": "function"
    },
    {
      "inputs": [
        {
          "internalType": "address",
          "name": "from",
          "type": "address"
        },
        {
          "internalType": "uint256",
          "name": "amount",
          "type": "uint256"
        }
      ],
      "name": "debitBurn",
      "outputs": [],
      "stateMutability": "nonpayable",
      "type": "function"
    },
    {
      "inputs": [],
      "name": "debitContract",
      "outputs": [
        {
          "internalType": "address",
          "name": "",
          "type": "address"
        }
      ],
      "stateMutability": "view",
      "type": "function"
    },
    {
      "inputs": [
        {
          "internalType": "address",
          "name": "to",
          "type": "address"
        },
        {
          "internalType": "uint256",
          "name": "amount",
          "type": "uint256"
        }
      ],
      "name": "debitMint",
      "outputs": [],
      "stateMutability": "nonpayable",
      "type": "function"
    },
    {
      "inputs": [],
      "name": "decimals",
      "outputs": [
        {
          "internalType": "uint8",
          "name": "",
          "type": "uint8"
        }
      ],
      "stateMutability": "pure",
      "type": "function"
    },
    {
      "inputs": [
        {
          "internalType": "address",
          "name": "spender",
          "type": "address"
        },
        {
          "internalType": "uint256",
          "name": "subtractedValue",
          "type": "uint256"
        }
      ],
      "name": "decreaseAllowance",
      "outputs": [
        {
          "internalType": "bool",
          "name": "",
          "type": "bool"
        }
      ],
      "stateMutability": "nonpayable",
      "type": "function"
    },
    {
      "inputs": [
        {
          "internalType": "address",
          "name": "user",
          "type": "address"
        }
      ],
      "name": "getBalance",
      "outputs": [
        {
          "internalType": "uint256",
          "name": "",
          "type": "uint256"
        }
      ],
      "stateMutability": "view",
      "type": "function"
    },
    {
      "inputs": [],
      "name": "getClaimedTreasuryFeesUSD",
      "outputs": [
        {
          "internalType": "uint256",
          "name": "",
          "type": "uint256"
        }
      ],
      "stateMutability": "view",
      "type": "function"
    },
    {
      "inputs": [
        {
          "internalType": "address",
          "name": "token",
          "type": "address"
        }
      ],
      "name": "getTokenPrice",
      "outputs": [
        {
          "internalType": "uint256",
          "name": "price",
          "type": "uint256"
        },
        {
          "internalType": "uint8",
          "name": "tokenDecimals",
          "type": "uint8"
        },
        {
          "internalType": "uint256",
          "name": "timestamp",
          "type": "uint256"
        }
      ],
      "stateMutability": "view",
      "type": "function"
    },
    {
      "inputs": [],
      "name": "getUnclaimedTreasuryFeesUSD",
      "outputs": [
        {
          "internalType": "uint256",
          "name": "",
          "type": "uint256"
        }
      ],
      "stateMutability": "view",
      "type": "function"
    },
    {
      "inputs": [
        {
          "internalType": "address",
          "name": "spender",
          "type": "address"
        },
        {
          "internalType": "uint256",
          "name": "addedValue",
          "type": "uint256"
        }
      ],
      "name": "increaseAllowance",
      "outputs": [
        {
          "internalType": "bool",
          "name": "",
          "type": "bool"
        }
      ],
      "stateMutability": "nonpayable",
      "type": "function"
    },
    {
      "inputs": [
        {
          "internalType": "address",
          "name": "token",
          "type": "address"
        }
      ],
      "name": "isTokenWhitelisted",
      "outputs": [
        {
          "internalType": "bool",
          "name": "",
          "type": "bool"
        }
      ],
      "stateMutability": "view",
      "type": "function"
    },
    {
      "inputs": [],
      "name": "name",
      "outputs": [
        {
          "internalType": "string",
          "name": "",
          "type": "string"
        }
      ],
      "stateMutability": "view",
      "type": "function"
    },
    {
      "inputs": [],
      "name": "nextTransactionId",
      "outputs": [
        {
          "internalType": "uint256",
          "name": "",
          "type": "uint256"
        }
      ],
      "stateMutability": "view",
      "type": "function"
    },
    {
      "inputs": [],
      "name": "owner",
      "outputs": [
        {
          "internalType": "address",
          "name": "",
          "type": "address"
        }
      ],
      "stateMutability": "view",
      "type": "function"
    },
    {
      "inputs": [],
      "name": "pause",
      "outputs": [],
      "stateMutability": "nonpayable",
      "type": "function"
    },
    {
      "inputs": [],
      "name": "paused",
      "outputs": [
        {
          "internalType": "bool",
          "name": "",
          "type": "bool"
        }
      ],
      "stateMutability": "view",
      "type": "function"
    },
    {
      "inputs": [],
      "name": "renounceOwnership",
      "outputs": [],
      "stateMutability": "nonpayable",
      "type": "function"
    },
    {
      "inputs": [
        {
          "internalType": "address",
          "name": "_debitContract",
          "type": "address"
        }
      ],
      "name": "setDebitContract",
      "outputs": [],
      "stateMutability": "nonpayable",
      "type": "function"
    },
    {
      "inputs": [
        {
          "internalType": "address",
          "name": "_tokenGate",
          "type": "address"
        }
      ],
      "name": "setTokenGate",
      "outputs": [],
      "stateMutability": "nonpayable",
      "type": "function"
    },
    {
      "inputs": [
        {
          "internalType": "address",
          "name": "_treasury",
          "type": "address"
        }
      ],
      "name": "setTreasury",
      "outputs": [],
      "stateMutability": "nonpayable",
      "type": "function"
    },
    {
      "inputs": [],
      "name": "symbol",
      "outputs": [
        {
          "internalType": "string",
          "name": "",
          "type": "string"
        }
      ],
      "stateMutability": "view",
      "type": "function"
    },
    {
      "inputs": [],
      "name": "tokenGate",
      "outputs": [
        {
          "internalType": "contract TokenGate",
          "name": "",
          "type": "address"
        }
      ],
      "stateMutability": "view",
      "type": "function"
    },
    {
      "inputs": [],
      "name": "totalSupply",
      "outputs": [
        {
          "internalType": "uint256",
          "name": "",
          "type": "uint256"
        }
      ],
      "stateMutability": "view",
      "type": "function"
    },
    {
      "inputs": [],
      "name": "totalTreasuryFeesAccrued",
      "outputs": [
        {
          "internalType": "uint256",
          "name": "",
          "type": "uint256"
        }
      ],
      "stateMutability": "view",
      "type": "function"
    },
    {
      "inputs": [
        {
          "internalType": "address",
          "name": "to",
          "type": "address"
        },
        {
          "internalType": "uint256",
          "name": "amount",
          "type": "uint256"
        }
      ],
      "name": "transfer",
      "outputs": [
        {
          "internalType": "bool",
          "name": "",
          "type": "bool"
        }
      ],
      "stateMutability": "nonpayable",
      "type": "function"
    },
    {
      "inputs": [
        {
          "internalType": "address",
          "name": "from",
          "type": "address"
        },
        {
          "internalType": "address",
          "name": "to",
          "type": "address"
        },
        {
          "internalType": "uint256",
          "name": "amount",
          "type": "uint256"
        }
      ],
      "name": "transferFrom",
      "outputs": [
        {
          "internalType": "bool",
          "name": "",
          "type": "bool"
        }
      ],
      "stateMutability": "nonpayable",
      "type": "function"
    },
    {
      "inputs": [
        {
          "internalType": "address",
          "name": "newOwner",
          "type": "address"
        }
      ],
      "name": "transferOwnership",
      "outputs": [],
      "stateMutability": "nonpayable",
      "type": "function"
    },
    {
      "inputs": [],
      "name": "treasury",
      "outputs": [
        {
          "internalType": "address",
          "name": "",
          "type": "address"
        }
      ],
      "stateMutability": "view",
      "type": "function"
    },
    {
      "inputs": [],
      "name": "unpause",
      "outputs": [],
      "stateMutability": "nonpayable",
      "type": "function"
    },
    {
      "inputs": [
        {
          "internalType": "address",
          "name": "paymentToken",
          "type": "address"
        },
        {
          "internalType": "uint256",
          "name": "stableAmount",
          "type": "uint256"
        },
        {
          "internalType": "uint256",
          "name": "minReceiveAmount",
          "type": "uint256"
        }
      ],
      "name": "withdraw",
      "outputs": [
        {
          "internalType": "uint256",
          "name": "",
          "type": "uint256"
        }
      ],
      "stateMutability": "nonpayable",
      "type": "function"
    }
  ],
  "bytecode": "0x60806040526001600a553480156200001657600080fd5b50604051620028d8380380620028d8833981016040819052620000399162000281565b838360036200004983826200039f565b5060046200005882826200039f565b50506001600555506006805460ff19169055620000753362000145565b6001600160a01b038216620000c45760405162461bcd60e51b815260206004820152601060248201526f496e76616c696420747265617375727960801b60448201526064015b60405180910390fd5b6001600160a01b038116620001105760405162461bcd60e51b8152602060048201526011602482015270496e76616c696420746f6b656e6761746560781b6044820152606401620000bb565b600780546001600160a01b039384166001600160a01b03199182161790915560088054929093169116179055506200046b9050565b600680546001600160a01b03838116610100818102610100600160a81b031985161790945560405193909204169182907f8be0079c531659141344cd1fd0a4f28419497f9722a3daafe3b4186f6b6457e090600090a35050565b634e487b7160e01b600052604160045260246000fd5b600082601f830112620001c757600080fd5b81516001600160401b0380821115620001e457620001e46200019f565b604051601f8301601f19908116603f011681019082821181831017156200020f576200020f6200019f565b816040528381526020925086838588010111156200022c57600080fd5b600091505b8382101562000250578582018301518183018401529082019062000231565b600093810190920192909252949350505050565b80516001600160a01b03811681146200027c57600080fd5b919050565b600080600080608085870312156200029857600080fd5b84516001600160401b0380821115620002b057600080fd5b620002be88838901620001b5565b95506020870151915080821115620002d557600080fd5b50620002e487828801620001b5565b935050620002f56040860162000264565b9150620003056060860162000264565b905092959194509250565b600181811c908216806200032557607f821691505b6020821081036200034657634e487b7160e01b600052602260045260246000fd5b50919050565b601f8211156200039a57600081815260208120601f850160051c81016020861015620003755750805b601f850160051c820191505b81811015620003965782815560010162000381565b5050505b505050565b81516001600160401b03811115620003bb57620003bb6200019f565b620003d381620003cc845462000310565b846200034c565b602080601f8311600181146200040b5760008415620003f25750858301515b600019600386901b1c1916600185901b17855562000396565b600085815260208120601f198616915b828110156200043c578886015182559484019460019091019084016200041b565b50858210156200045b5787850151600019600388901b60f8161c191681555b5050505050600190811b01905550565b61245d806200047b6000396000f3fe608060405234801561001057600080fd5b50600436106102275760003560e01c80638456cb5911610130578063d02641a0116100b8578063dead9e5e1161007c578063dead9e5e146104ac578063e111703a146104bf578063f0f44260146104c7578063f2fde38b146104da578063f8b2cb4f146104ed57600080fd5b8063d02641a01461043a578063d4335c391461046a578063d7ca38f31461047d578063dd62ed3e14610486578063ddb1bdc81461049957600080fd5b8063a457c2d7116100ff578063a457c2d7146103e6578063a9059cbb146103f9578063b5af090f1461040c578063b5c5f6721461041f578063c6318b4e1461043257600080fd5b80638456cb59146103ad5780638da5cb5b146103b5578063940c6ffb146103cb57806395d89b41146103de57600080fd5b80634c93368c116101b35780636919b8c7116101825780636919b8c71461033657806370a0823114610349578063715018a61461037257806374c4c8f71461037a5780637e8e2a8f1461038d57600080fd5b80634c93368c146102fc57806350008e4a146103055780635c975abb1461031857806361d027b31461032357600080fd5b80632931bdd8116101fa5780632931bdd814610292578063313ce567146102bd57806339509351146102cc57806339bb80c9146102df5780633f4ba83a146102f257600080fd5b806306fdde031461022c578063095ea7b31461024a57806318160ddd1461026d57806323b872dd1461027f575b600080fd5b610234610500565b6040516102419190611f25565b60405180910390f35b61025d610258366004611f54565b610592565b6040519015158152602001610241565b6002545b604051908152602001610241565b61025d61028d366004611f7e565b6105ac565b6009546102a5906001600160a01b031681565b6040516001600160a01b039091168152602001610241565b60405160088152602001610241565b61025d6102da366004611f54565b6105d2565b6102716102ed366004611fd0565b6105f4565b6102fa6107bb565b005b610271600b5481565b6008546102a5906001600160a01b031681565b60065460ff1661025d565b6007546102a5906001600160a01b031681565b6102fa6103443660046120b6565b6107cd565b6102716103573660046120b6565b6001600160a01b031660009081526020819052604090205490565b6102fa61086e565b6102fa6103883660046120b6565b610880565b6007546001600160a01b0316600090815260208190526040902054610271565b6102fa61091c565b60065461010090046001600160a01b03166102a5565b6102fa6103d9366004611f54565b61092c565b610234610964565b61025d6103f4366004611f54565b610973565b61025d610407366004611f54565b6109f9565b61025d61041a3660046120b6565b610a07565b61027161042d3660046120d1565b610a76565b610271610e5d565b61044d6104483660046120b6565b610e9c565b6040805193845260ff909216602084015290820152606001610241565b6102fa610478366004611f54565b610f1e565b610271600a5481565b610271610494366004612104565b610f52565b6102716104a73660046120d1565b610f7d565b6102fa6104ba366004612137565b6112fd565b610271600581565b6102fa6104d53660046120b6565b611341565b6102fa6104e83660046120b6565b6113dc565b6102716104fb3660046120b6565b611455565b60606003805461050f90612150565b80601f016020809104026020016040519081016040528092919081815260200182805461053b90612150565b80156105885780601f1061055d57610100808354040283529160200191610588565b820191906000526020600020905b81548152906001019060200180831161056b57829003601f168201915b5050505050905090565b6000336105a0818585611473565b60019150505b92915050565b6000336105ba858285611598565b6105c5858585611612565b60019150505b9392505050565b6000336105a08185856105e58383610f52565b6105ef91906121a0565b611473565b60006105fe6117b6565b6009546001600160a01b03166106545760405162461bcd60e51b81526020600482015260166024820152751119589a5d0818dbdb9d1c9858dd081b9bdd081cd95d60521b60448201526064015b60405180910390fd5b600082516000036106e557600954604051632174727d60e21b81526001600160a01b038981166004830152888116602483015260448201889052909116906385d1c9f4906064016020604051808303816000875af11580156106ba573d6000803e3d6000fd5b505050506040513d601f19601f820116820180604052508101906106de91906121b3565b9050610763565b600954604051636218f59360e01b81526001600160a01b0390911690636218f5939061071d908a908a908a908a908a906004016121cc565b6020604051808303816000875af115801561073c573d6000803e3d6000fd5b505050506040513d601f19601f8201168201806040525081019061076091906121b3565b90505b856001600160a01b0316876001600160a01b0316827fa754adf5d975b46c396155a50ac01f4c0a08bd7f91ea46faf5c447d507724817886040516107a991815260200190565b60405180910390a49695505050505050565b6107c36117b6565b6107cb611816565b565b6107d56117b6565b6001600160a01b0381166108245760405162461bcd60e51b8152602060048201526016602482015275125b9d985b1a59081919589a5d0818dbdb9d1c9858dd60521b604482015260640161064b565b600980546001600160a01b0319166001600160a01b0383169081179091556040517f114fe624c22dc3de6e5b396b1def36c2b791dbcee83810458befa11d6c2d00e090600090a250565b6108766117b6565b6107cb6000611868565b6108886117b6565b6001600160a01b0381166108d25760405162461bcd60e51b8152602060048201526011602482015270496e76616c696420746f6b656e6761746560781b604482015260640161064b565b600880546001600160a01b0319166001600160a01b0383169081179091556040517f05e4bd11b1381b0095f63c1a86ac851fe00d45afb8ef1dffb6399f9b9ec202cd90600090a250565b6109246117b6565b6107cb6118c2565b6009546001600160a01b031633146109565760405162461bcd60e51b815260040161064b90612206565b61096082826118ff565b5050565b60606004805461050f90612150565b600033816109818286610f52565b9050838110156109e15760405162461bcd60e51b815260206004820152602560248201527f45524332303a2064656372656173656420616c6c6f77616e63652062656c6f77604482015264207a65726f60d81b606482015260840161064b565b6109ee8286868403611473565b506001949350505050565b6000336105a0818585611612565b60085460405163b5af090f60e01b81526001600160a01b038381166004830152600092169063b5af090f90602401602060405180830381865afa158015610a52573d6000803e3d6000fd5b505050506040513d601f19601f820116820180604052508101906105a69190612233565b6000610a806119be565b610a88611a17565b60008311610ac95760405162461bcd60e51b815260206004820152600e60248201526d125b9d985b1a5908185b5bdd5b9d60921b604482015260640161064b565b33600090815260208190526040902054831115610b1f5760405162461bcd60e51b8152602060048201526014602482015273496e73756666696369656e742062616c616e636560601b604482015260640161064b565b60085460405163b5af090f60e01b81526001600160a01b0386811660048301529091169063b5af090f90602401602060405180830381865afa158015610b69573d6000803e3d6000fd5b505050506040513d601f19601f82011682018060405250810190610b8d9190612233565b610bd15760405162461bcd60e51b8152602060048201526015602482015274151bdad95b881b9bdd081dda1a5d195b1a5cdd1959605a1b604482015260640161064b565b600854604051630681320d60e51b81526001600160a01b038681166004830152600092839291169063d02641a090602401606060405180830381865afa158015610c1f573d6000803e3d6000fd5b505050506040513d601f19601f82011682018060405250810190610c439190612266565b509150915060008211610c885760405162461bcd60e51b815260206004820152600d60248201526c496e76616c696420707269636560981b604482015260640161064b565b6000866001600160a01b031663313ce5676040518163ffffffff1660e01b8152600401602060405180830381865afa158015610cc8573d6000803e3d6000fd5b505050506040513d601f19601f82011682018060405250810190610cec919061229b565b90506000610cfc6008600a61239a565b610d0690856123a6565b610d1460ff8516600a61239a565b610d2260ff8516600a61239a565b610d2c908a6123a6565b610d3691906123a6565b610d4091906123bd565b905060008111610d855760405162461bcd60e51b815260206004820152601060248201526f105b5bdd5b9d081d1bdbc81cdb585b1b60821b604482015260640161064b565b85811015610dc95760405162461bcd60e51b815260206004820152601160248201527042656c6f77206d696e207265636569766560781b604482015260640161064b565b610dd33388611a5d565b610de76001600160a01b0389163383611b8c565b600a805460009182610df8836123df565b90915550604080518a81526001600160a01b038c166020820152908101849052909150339082907f051d3c25696883cb50c923d33f58a95aac78ca7cd60e62eecddbf4e5cf8bd2b8906060015b60405180910390a39450505050506105cb6001600555565b6007546001600160a01b031660009081526020819052604081205480600b5411610e88576000610e96565b80600b54610e9691906123f8565b91505090565b600854604051630681320d60e51b81526001600160a01b038381166004830152600092839283929091169063d02641a090602401606060405180830381865afa158015610eed573d6000803e3d6000fd5b505050506040513d601f19601f82011682018060405250810190610f119190612266565b9250925092509193909250565b6009546001600160a01b03163314610f485760405162461bcd60e51b815260040161064b90612206565b6109608282611a5d565b6001600160a01b03918216600090815260016020908152604080832093909416825291909152205490565b6000610f876119be565b610f8f611a17565b60008311610fd05760405162461bcd60e51b815260206004820152600e60248201526d125b9d985b1a5908185b5bdd5b9d60921b604482015260640161064b565b60085460405163b5af090f60e01b81526001600160a01b0386811660048301529091169063b5af090f90602401602060405180830381865afa15801561101a573d6000803e3d6000fd5b505050506040513d601f19601f8201168201806040525081019061103e9190612233565b6110825760405162461bcd60e51b8152602060048201526015602482015274151bdad95b881b9bdd081dda1a5d195b1a5cdd1959605a1b604482015260640161064b565b600854604051630681320d60e51b81526001600160a01b038681166004830152600092839291169063d02641a090602401606060405180830381865afa1580156110d0573d6000803e3d6000fd5b505050506040513d601f19601f820116820180604052508101906110f49190612266565b5091509150600082116111395760405162461bcd60e51b815260206004820152600d60248201526c496e76616c696420707269636560981b604482015260640161064b565b6000866001600160a01b031663313ce5676040518163ffffffff1660e01b8152600401602060405180830381865afa158015611179573d6000803e3d6000fd5b505050506040513d601f19601f8201168201806040525081019061119d919061229b565b905060006111ad6008600a61239a565b6111b790856123a6565b6111c560ff8516600a61239a565b6111d360ff8516600a61239a565b6111dd908a6123a6565b6111e791906123a6565b6111f191906123bd565b9050600081116112365760405162461bcd60e51b815260206004820152601060248201526f105b5bdd5b9d081d1bdbc81cdb585b1b60821b604482015260640161064b565b8581111561127c5760405162461bcd60e51b8152602060048201526013602482015272115e18d959591cc81b585e081c185e5b595b9d606a1b604482015260640161064b565b6112916001600160a01b038916333084611bef565b61129b33886118ff565b600a8054600091826112ac836123df565b90915550604080518a81526001600160a01b038c166020820152908101849052909150339082907f6b8848211abfdea24dea39fa2745a4d9d15c188717ad27a231de29e47d27e1b090606001610e45565b6009546001600160a01b031633146113275760405162461bcd60e51b815260040161064b90612206565b80600b600082825461133991906121a0565b909155505050565b6113496117b6565b6001600160a01b0381166113925760405162461bcd60e51b815260206004820152601060248201526f496e76616c696420747265617375727960801b604482015260640161064b565b600780546001600160a01b0319166001600160a01b0383169081179091556040517f7dae230f18360d76a040c81f050aa14eb9d6dc7901b20fc5d855e2a20fe814d190600090a250565b6113e46117b6565b6001600160a01b0381166114495760405162461bcd60e51b815260206004820152602660248201527f4f776e61626c653a206e6577206f776e657220697320746865207a65726f206160448201526564647265737360d01b606482015260840161064b565b61145281611868565b50565b6001600160a01b0381166000908152602081905260408120546105a6565b6001600160a01b0383166114d55760405162461bcd60e51b8152602060048201526024808201527f45524332303a20617070726f76652066726f6d20746865207a65726f206164646044820152637265737360e01b606482015260840161064b565b6001600160a01b0382166115365760405162461bcd60e51b815260206004820152602260248201527f45524332303a20617070726f766520746f20746865207a65726f206164647265604482015261737360f01b606482015260840161064b565b6001600160a01b0383811660008181526001602090815260408083209487168084529482529182902085905590518481527f8c5be1e5ebec7d5bd14f71427d1e84f3dd0314c0f7b2291e5b200ac8c7c3b92591015b60405180910390a3505050565b60006115a48484610f52565b9050600019811461160c57818110156115ff5760405162461bcd60e51b815260206004820152601d60248201527f45524332303a20696e73756666696369656e7420616c6c6f77616e6365000000604482015260640161064b565b61160c8484848403611473565b50505050565b6001600160a01b0383166116765760405162461bcd60e51b815260206004820152602560248201527f45524332303a207472616e736665722066726f6d20746865207a65726f206164604482015264647265737360d81b606482015260840161064b565b6001600160a01b0382166116d85760405162461bcd60e51b815260206004820152602360248201527f45524332303a207472616e7366657220746f20746865207a65726f206164647260448201526265737360e81b606482015260840161064b565b6001600160a01b038316600090815260208190526040902054818110156117505760405162461bcd60e51b815260206004820152602660248201527f45524332303a207472616e7366657220616d6f756e7420657863656564732062604482015265616c616e636560d01b606482015260840161064b565b6001600160a01b03848116600081815260208181526040808320878703905593871680835291849020805487019055925185815290927fddf252ad1be2c89b69c2b068fc378daa952ba7f163c4a11628f55a4df523b3ef910160405180910390a361160c565b6006546001600160a01b036101009091041633146107cb5760405162461bcd60e51b815260206004820181905260248201527f4f776e61626c653a2063616c6c6572206973206e6f7420746865206f776e6572604482015260640161064b565b61181e611c27565b6006805460ff191690557f5db9ee0a495bf2e6ff9c91a7834c1ba4fdd244a5e8aa4e537bd38aeae4b073aa335b6040516001600160a01b03909116815260200160405180910390a1565b600680546001600160a01b03838116610100818102610100600160a81b031985161790945560405193909204169182907f8be0079c531659141344cd1fd0a4f28419497f9722a3daafe3b4186f6b6457e090600090a35050565b6118ca611a17565b6006805460ff191660011790557f62e78cea01bee320cd4e420270b5ea74000d11b0c9f74754ebdbfc544b05a25861184b3390565b6001600160a01b0382166119555760405162461bcd60e51b815260206004820152601f60248201527f45524332303a206d696e7420746f20746865207a65726f206164647265737300604482015260640161064b565b806002600082825461196791906121a0565b90915550506001600160a01b038216600081815260208181526040808320805486019055518481527fddf252ad1be2c89b69c2b068fc378daa952ba7f163c4a11628f55a4df523b3ef910160405180910390a35050565b600260055403611a105760405162461bcd60e51b815260206004820152601f60248201527f5265656e7472616e637947756172643a207265656e7472616e742063616c6c00604482015260640161064b565b6002600555565b60065460ff16156107cb5760405162461bcd60e51b815260206004820152601060248201526f14185d5cd8589b194e881c185d5cd95960821b604482015260640161064b565b6001600160a01b038216611abd5760405162461bcd60e51b815260206004820152602160248201527f45524332303a206275726e2066726f6d20746865207a65726f206164647265736044820152607360f81b606482015260840161064b565b6001600160a01b03821660009081526020819052604090205481811015611b315760405162461bcd60e51b815260206004820152602260248201527f45524332303a206275726e20616d6f756e7420657863656564732062616c616e604482015261636560f01b606482015260840161064b565b6001600160a01b0383166000818152602081815260408083208686039055600280548790039055518581529192917fddf252ad1be2c89b69c2b068fc378daa952ba7f163c4a11628f55a4df523b3ef910161158b565b505050565b6040516001600160a01b038316602482015260448101829052611b8790849063a9059cbb60e01b906064015b60408051601f198184030181529190526020810180516001600160e01b03166001600160e01b031990931692909217909152611c70565b6040516001600160a01b038085166024830152831660448201526064810182905261160c9085906323b872dd60e01b90608401611bb8565b60065460ff166107cb5760405162461bcd60e51b815260206004820152601460248201527314185d5cd8589b194e881b9bdd081c185d5cd95960621b604482015260640161064b565b6000611cc5826040518060400160405280602081526020017f5361666545524332303a206c6f772d6c6576656c2063616c6c206661696c6564815250856001600160a01b0316611d459092919063ffffffff16565b9050805160001480611ce6575080806020019051810190611ce69190612233565b611b875760405162461bcd60e51b815260206004820152602a60248201527f5361666545524332303a204552433230206f7065726174696f6e20646964206e6044820152691bdd081cdd58d8d9595960b21b606482015260840161064b565b6060611d548484600085611d5c565b949350505050565b606082471015611dbd5760405162461bcd60e51b815260206004820152602660248201527f416464726573733a20696e73756666696369656e742062616c616e636520666f6044820152651c8818d85b1b60d21b606482015260840161064b565b600080866001600160a01b03168587604051611dd9919061240b565b60006040518083038185875af1925050503d8060008114611e16576040519150601f19603f3d011682016040523d82523d6000602084013e611e1b565b606091505b5091509150611e2c87838387611e37565b979650505050505050565b60608315611ea6578251600003611e9f576001600160a01b0385163b611e9f5760405162461bcd60e51b815260206004820152601d60248201527f416464726573733a2063616c6c20746f206e6f6e2d636f6e7472616374000000604482015260640161064b565b5081611d54565b611d548383815115611ebb5781518083602001fd5b8060405162461bcd60e51b815260040161064b9190611f25565b60005b83811015611ef0578181015183820152602001611ed8565b50506000910152565b60008151808452611f11816020860160208601611ed5565b601f01601f19169290920160200192915050565b6020815260006105cb6020830184611ef9565b80356001600160a01b0381168114611f4f57600080fd5b919050565b60008060408385031215611f6757600080fd5b611f7083611f38565b946020939093013593505050565b600080600060608486031215611f9357600080fd5b611f9c84611f38565b9250611faa60208501611f38565b9150604084013590509250925092565b634e487b7160e01b600052604160045260246000fd5b600080600080600060a08688031215611fe857600080fd5b611ff186611f38565b9450611fff60208701611f38565b93506040860135925060608601359150608086013567ffffffffffffffff8082111561202a57600080fd5b818801915088601f83011261203e57600080fd5b81358181111561205057612050611fba565b604051601f8201601f19908116603f0116810190838211818310171561207857612078611fba565b816040528281528b602084870101111561209157600080fd5b8260208601602083013760006020848301015280955050505050509295509295909350565b6000602082840312156120c857600080fd5b6105cb82611f38565b6000806000606084860312156120e657600080fd5b6120ef84611f38565b95602085013595506040909401359392505050565b6000806040838503121561211757600080fd5b61212083611f38565b915061212e60208401611f38565b90509250929050565b60006020828403121561214957600080fd5b5035919050565b600181811c9082168061216457607f821691505b60208210810361218457634e487b7160e01b600052602260045260246000fd5b50919050565b634e487b7160e01b600052601160045260246000fd5b808201808211156105a6576105a661218a565b6000602082840312156121c557600080fd5b5051919050565b6001600160a01b03868116825285166020820152604081018490526060810183905260a060808201819052600090611e2c90830184611ef9565b60208082526013908201527213db9b1e481919589a5d0818dbdb9d1c9858dd606a1b604082015260600190565b60006020828403121561224557600080fd5b815180151581146105cb57600080fd5b805160ff81168114611f4f57600080fd5b60008060006060848603121561227b57600080fd5b8351925061228b60208501612255565b9150604084015190509250925092565b6000602082840312156122ad57600080fd5b6105cb82612255565b600181815b808511156122f15781600019048211156122d7576122d761218a565b808516156122e457918102915b93841c93908002906122bb565b509250929050565b600082612308575060016105a6565b81612315575060006105a6565b816001811461232b576002811461233557612351565b60019150506105a6565b60ff8411156123465761234661218a565b50506001821b6105a6565b5060208310610133831016604e8410600b8410161715612374575081810a6105a6565b61237e83836122b6565b80600019048211156123925761239261218a565b029392505050565b60006105cb83836122f9565b80820281158282048414176105a6576105a661218a565b6000826123da57634e487b7160e01b600052601260045260246000fd5b500490565b6000600182016123f1576123f161218a565b5060010190565b818103818111156105a6576105a661218a565b6000825161241d818460208701611ed5565b919091019291505056fea2646970667358221220ab66fb3ad023cc4247dd13b0ea0c957e46511d95444a27f8eaf2e491e9c5033764736f6c63430008140033",
  "linkReferences": {},
  "deployedLinkReferences": {}
}