{
  "_format": "hh-sol-artifact-1",
  "contractName": "Market",
  "sourceName": "contracts/market/Market.sol",
  "abi": [
    {
      "inputs": [
        {
          "internalType": "string",
          "name": "name",
          "type": "string"
        },
        {
          "internalType": "string",
          "name": "symbol",
          "type": "string"
        },
        {
          "internalType": "address",
          "name": "_treasury",
          "type": "address"
        },
        {
          "internalType": "address",
          "name": "_tokenGate",
          "type": "address"
        }
      ],
      "stateMutability": "nonpayable",
      "type": "constructor"
    },
    {
      "anonymous": false,
      "inputs": [
        {
          "indexed": true,
          "internalType": "address",
          "name": "owner",
          "type": "address"
        },
        {
          "indexed": true,
          "internalType": "address",
          "name": "spender",
          "type": "address"
        },
        {
          "indexed": false,
          "internalType": "uint256",
          "name": "value",
          "type": "uint256"
        }
      ],
      "name": "Approval",
      "type": "event"
    },
    {
      "anonymous": false,
      "inputs": [
        {
          "indexed": true,
          "internalType": "uint256",
          "name": "txId",
          "type": "uint256"
        },
        {
          "indexed": true,
          "internalType": "address",
          "name": "user",
          "type": "address"
        },
        {
          "indexed": false,
          "internalType": "uint256",
          "name": "amount",
          "type": "uint256"
        },
        {
          "indexed": false,
          "internalType": "address",
          "name": "paymentToken",
          "type": "address"
        },
        {
          "indexed": false,
          "internalType": "uint256",
          "name": "paidAmount",
          "type": "uint256"
        }
      ],
      "name": "Credit",
      "type": "event"
    },
    {
      "anonymous": false,
      "inputs": [
        {
          "indexed": true,
          "internalType": "uint256",
          "name": "txId",
          "type": "uint256"
        },
        {
          "indexed": true,
          "internalType": "address",
          "name": "user",
          "type": "address"
        },
        {
          "indexed": false,
          "internalType": "uint256",
          "name": "amount",
          "type": "uint256"
        }
      ],
      "name": "Debit",
      "type": "event"
    },
    {
      "anonymous": false,
      "inputs": [
        {
          "indexed": true,
          "internalType": "address",
          "name": "previousOwner",
          "type": "address"
        },
        {
          "indexed": true,
          "internalType": "address",
          "name": "newOwner",
          "type": "address"
        }
      ],
      "name": "OwnershipTransferred",
      "type": "event"
    },
    {
      "anonymous": false,
      "inputs": [
        {
          "indexed": true,
          "internalType": "address",
          "name": "newTokenGate",
          "type": "address"
        }
      ],
      "name": "TokenGateUpdated",
      "type": "event"
    },
    {
      "anonymous": false,
      "inputs": [
        {
          "indexed": true,
          "internalType": "address",
          "name": "from",
          "type": "address"
        },
        {
          "indexed": true,
          "internalType": "address",
          "name": "to",
          "type": "address"
        },
        {
          "indexed": false,
          "internalType": "uint256",
          "name": "value",
          "type": "uint256"
        }
      ],
      "name": "Transfer",
      "type": "event"
    },
    {
      "anonymous": false,
      "inputs": [
        {
          "indexed": true,
          "internalType": "address",
          "name": "newTreasury",
          "type": "address"
        }
      ],
      "name": "TreasuryUpdated",
      "type": "event"
    },
    {
      "inputs": [
        {
          "internalType": "address",
          "name": "owner",
          "type": "address"
        },
        {
          "internalType": "address",
          "name": "spender",
          "type": "address"
        }
      ],
      "name": "allowance",
      "outputs": [
        {
          "internalType": "uint256",
          "name": "",
          "type": "uint256"
        }
      ],
      "stateMutability": "view",
      "type": "function"
    },
    {
      "inputs": [
        {
          "internalType": "address",
          "name": "spender",
          "type": "address"
        },
        {
          "internalType": "uint256",
          "name": "amount",
          "type": "uint256"
        }
      ],
      "name": "approve",
      "outputs": [
        {
          "internalType": "bool",
          "name": "",
          "type": "bool"
        }
      ],
      "stateMutability": "nonpayable",
      "type": "function"
    },
    {
      "inputs": [
        {
          "internalType": "address",
          "name": "account",
          "type": "address"
        }
      ],
      "name": "balanceOf",
      "outputs": [
        {
          "internalType": "uint256",
          "name": "",
          "type": "uint256"
        }
      ],
      "stateMutability": "view",
      "type": "function"
    },
    {
      "inputs": [
        {
          "internalType": "address",
          "name": "paymentToken",
          "type": "address"
        },
        {
          "internalType": "uint256",
          "name": "stableAmount",
          "type": "uint256"
        }
      ],
      "name": "credit",
      "outputs": [
        {
          "internalType": "uint256",
          "name": "",
          "type": "uint256"
        }
      ],
      "stateMutability": "nonpayable",
      "type": "function"
    },
    {
      "inputs": [
        {
          "internalType": "address",
          "name": "user",
          "type": "address"
        },
        {
          "internalType": "uint256",
          "name": "stableAmount",
          "type": "uint256"
        }
      ],
      "name": "debit",
      "outputs": [
        {
          "internalType": "uint256",
          "name": "",
          "type": "uint256"
        }
      ],
      "stateMutability": "nonpayable",
      "type": "function"
    },
    {
      "inputs": [],
      "name": "decimals",
      "outputs": [
        {
          "internalType": "uint8",
          "name": "",
          "type": "uint8"
        }
      ],
      "stateMutability": "pure",
      "type": "function"
    },
    {
      "inputs": [
        {
          "internalType": "address",
          "name": "spender",
          "type": "address"
        },
        {
          "internalType": "uint256",
          "name": "subtractedValue",
          "type": "uint256"
        }
      ],
      "name": "decreaseAllowance",
      "outputs": [
        {
          "internalType": "bool",
          "name": "",
          "type": "bool"
        }
      ],
      "stateMutability": "nonpayable",
      "type": "function"
    },
    {
      "inputs": [
        {
          "internalType": "address",
          "name": "user",
          "type": "address"
        }
      ],
      "name": "getBalance",
      "outputs": [
        {
          "internalType": "uint256",
          "name": "",
          "type": "uint256"
        }
      ],
      "stateMutability": "view",
      "type": "function"
    },
    {
      "inputs": [
        {
          "internalType": "address",
          "name": "token",
          "type": "address"
        }
      ],
      "name": "getTokenPrice",
      "outputs": [
        {
          "internalType": "uint256",
          "name": "price",
          "type": "uint256"
        },
        {
          "internalType": "uint8",
          "name": "decimals",
          "type": "uint8"
        },
        {
          "internalType": "uint256",
          "name": "timestamp",
          "type": "uint256"
        }
      ],
      "stateMutability": "view",
      "type": "function"
    },
    {
      "inputs": [
        {
          "internalType": "address",
          "name": "spender",
          "type": "address"
        },
        {
          "internalType": "uint256",
          "name": "addedValue",
          "type": "uint256"
        }
      ],
      "name": "increaseAllowance",
      "outputs": [
        {
          "internalType": "bool",
          "name": "",
          "type": "bool"
        }
      ],
      "stateMutability": "nonpayable",
      "type": "function"
    },
    {
      "inputs": [
        {
          "internalType": "address",
          "name": "token",
          "type": "address"
        }
      ],
      "name": "isTokenWhitelisted",
      "outputs": [
        {
          "internalType": "bool",
          "name": "",
          "type": "bool"
        }
      ],
      "stateMutability": "view",
      "type": "function"
    },
    {
      "inputs": [],
      "name": "name",
      "outputs": [
        {
          "internalType": "string",
          "name": "",
          "type": "string"
        }
      ],
      "stateMutability": "view",
      "type": "function"
    },
    {
      "inputs": [],
      "name": "nextTransactionId",
      "outputs": [
        {
          "internalType": "uint256",
          "name": "",
          "type": "uint256"
        }
      ],
      "stateMutability": "view",
      "type": "function"
    },
    {
      "inputs": [],
      "name": "owner",
      "outputs": [
        {
          "internalType": "address",
          "name": "",
          "type": "address"
        }
      ],
      "stateMutability": "view",
      "type": "function"
    },
    {
      "inputs": [],
      "name": "renounceOwnership",
      "outputs": [],
      "stateMutability": "nonpayable",
      "type": "function"
    },
    {
      "inputs": [
        {
          "internalType": "address",
          "name": "_tokenGate",
          "type": "address"
        }
      ],
      "name": "setTokenGate",
      "outputs": [],
      "stateMutability": "nonpayable",
      "type": "function"
    },
    {
      "inputs": [
        {
          "internalType": "address",
          "name": "_treasury",
          "type": "address"
        }
      ],
      "name": "setTreasury",
      "outputs": [],
      "stateMutability": "nonpayable",
      "type": "function"
    },
    {
      "inputs": [],
      "name": "symbol",
      "outputs": [
        {
          "internalType": "string",
          "name": "",
          "type": "string"
        }
      ],
      "stateMutability": "view",
      "type": "function"
    },
    {
      "inputs": [],
      "name": "tokenGate",
      "outputs": [
        {
          "internalType": "contract TokenGate",
          "name": "",
          "type": "address"
        }
      ],
      "stateMutability": "view",
      "type": "function"
    },
    {
      "inputs": [],
      "name": "totalSupply",
      "outputs": [
        {
          "internalType": "uint256",
          "name": "",
          "type": "uint256"
        }
      ],
      "stateMutability": "view",
      "type": "function"
    },
    {
      "inputs": [
        {
          "internalType": "address",
          "name": "to",
          "type": "address"
        },
        {
          "internalType": "uint256",
          "name": "amount",
          "type": "uint256"
        }
      ],
      "name": "transfer",
      "outputs": [
        {
          "internalType": "bool",
          "name": "",
          "type": "bool"
        }
      ],
      "stateMutability": "nonpayable",
      "type": "function"
    },
    {
      "inputs": [
        {
          "internalType": "address",
          "name": "from",
          "type": "address"
        },
        {
          "internalType": "address",
          "name": "to",
          "type": "address"
        },
        {
          "internalType": "uint256",
          "name": "amount",
          "type": "uint256"
        }
      ],
      "name": "transferFrom",
      "outputs": [
        {
          "internalType": "bool",
          "name": "",
          "type": "bool"
        }
      ],
      "stateMutability": "nonpayable",
      "type": "function"
    },
    {
      "inputs": [
        {
          "internalType": "address",
          "name": "newOwner",
          "type": "address"
        }
      ],
      "name": "transferOwnership",
      "outputs": [],
      "stateMutability": "nonpayable",
      "type": "function"
    },
    {
      "inputs": [],
      "name": "treasury",
      "outputs": [
        {
          "internalType": "address",
          "name": "",
          "type": "address"
        }
      ],
      "stateMutability": "view",
      "type": "function"
    }
  ],
  "bytecode": "0x608060405260016009553480156200001657600080fd5b5060405162001ccc38038062001ccc83398101604081905262000039916200026f565b838360036200004983826200038d565b5060046200005882826200038d565b50506001600555506200006b336200013b565b6001600160a01b038216620000ba5760405162461bcd60e51b815260206004820152601060248201526f496e76616c696420747265617375727960801b60448201526064015b60405180910390fd5b6001600160a01b038116620001065760405162461bcd60e51b8152602060048201526011602482015270496e76616c696420746f6b656e6761746560781b6044820152606401620000b1565b600780546001600160a01b039384166001600160a01b0319918216179091556008805492909316911617905550620004599050565b600680546001600160a01b038381166001600160a01b0319831681179093556040519116919082907f8be0079c531659141344cd1fd0a4f28419497f9722a3daafe3b4186f6b6457e090600090a35050565b634e487b7160e01b600052604160045260246000fd5b600082601f830112620001b557600080fd5b81516001600160401b0380821115620001d257620001d26200018d565b604051601f8301601f19908116603f01168101908282118183101715620001fd57620001fd6200018d565b816040528381526020925086838588010111156200021a57600080fd5b600091505b838210156200023e57858201830151818301840152908201906200021f565b600093810190920192909252949350505050565b80516001600160a01b03811681146200026a57600080fd5b919050565b600080600080608085870312156200028657600080fd5b84516001600160401b03808211156200029e57600080fd5b620002ac88838901620001a3565b95506020870151915080821115620002c357600080fd5b50620002d287828801620001a3565b935050620002e36040860162000252565b9150620002f36060860162000252565b905092959194509250565b600181811c908216806200031357607f821691505b6020821081036200033457634e487b7160e01b600052602260045260246000fd5b50919050565b601f8211156200038857600081815260208120601f850160051c81016020861015620003635750805b601f850160051c820191505b8181101562000384578281556001016200036f565b5050505b505050565b81516001600160401b03811115620003a957620003a96200018d565b620003c181620003ba8454620002fe565b846200033a565b602080601f831160018114620003f95760008415620003e05750858301515b600019600386901b1c1916600185901b17855562000384565b600085815260208120601f198616915b828110156200042a5788860151825594840194600190910190840162000409565b5085821015620004495787850151600019600388901b60f8161c191681555b5050505050600190811b01905550565b61186380620004696000396000f3fe608060405234801561001057600080fd5b50600436106101585760003560e01c80638da5cb5b116100c3578063d7ca38f31161007c578063d7ca38f3146102fe578063dd62ed3e14610307578063ef6506db1461031a578063f0f442601461032d578063f2fde38b14610340578063f8b2cb4f1461035357600080fd5b80638da5cb5b1461027c57806395d89b411461028d578063a457c2d714610295578063a9059cbb146102a8578063b5af090f146102bb578063d02641a0146102ce57600080fd5b806350008e4a1161011557806350008e4a146101e557806361d027b314610210578063636be27a1461022357806370a0823114610236578063715018a61461025f57806374c4c8f71461026957600080fd5b806306fdde031461015d578063095ea7b31461017b57806318160ddd1461019e57806323b872dd146101b0578063313ce567146101c357806339509351146101d2575b600080fd5b610165610366565b60405161017291906114fe565b60405180910390f35b61018e61018936600461154d565b6103f8565b6040519015158152602001610172565b6002545b604051908152602001610172565b61018e6101be366004611577565b610412565b60405160088152602001610172565b61018e6101e036600461154d565b610436565b6008546101f8906001600160a01b031681565b6040516001600160a01b039091168152602001610172565b6007546101f8906001600160a01b031681565b6101a261023136600461154d565b610458565b6101a26102443660046115b3565b6001600160a01b031660009081526020819052604090205490565b6102676105dc565b005b6102676102773660046115b3565b6105f0565b6006546001600160a01b03166101f8565b61016561068c565b61018e6102a336600461154d565b61069b565b61018e6102b636600461154d565b610716565b61018e6102c93660046115b3565b610724565b6102e16102dc3660046115b3565b610793565b6040805193845260ff909216602084015290820152606001610172565b6101a260095481565b6101a26103153660046115d5565b610815565b6101a261032836600461154d565b610840565b61026761033b3660046115b3565b610ab3565b61026761034e3660046115b3565b610b4e565b6101a26103613660046115b3565b610bc7565b60606003805461037590611608565b80601f01602080910402602001604051908101604052809291908181526020018280546103a190611608565b80156103ee5780601f106103c3576101008083540402835291602001916103ee565b820191906000526020600020905b8154815290600101906020018083116103d157829003601f168201915b5050505050905090565b600033610406818585610be5565b60019150505b92915050565b600033610420858285610d0a565b61042b858585610d84565b506001949350505050565b6000336104068185856104498383610815565b6104539190611658565b610be5565b6000610462610f28565b600082116104a85760405162461bcd60e51b815260206004820152600e60248201526d125b9d985b1a5908185b5bdd5b9d60921b60448201526064015b60405180910390fd5b6006546001600160a01b03163314806104c95750336001600160a01b038416145b6105065760405162461bcd60e51b815260206004820152600e60248201526d139bdd08185d5d1a1bdc9a5e995960921b604482015260640161049f565b81610526846001600160a01b031660009081526020819052604090205490565b101561056b5760405162461bcd60e51b8152602060048201526014602482015273496e73756666696369656e742062616c616e636560601b604482015260640161049f565b6105758383610f81565b60098054600091826105868361166b565b919050559050836001600160a01b0316817f0a17ce0783029df7feec84b694efa20c282a8191fbfb12b56627341afffe5967856040516105c891815260200190565b60405180910390a3905061040c6001600555565b6105e46110b0565b6105ee600061110a565b565b6105f86110b0565b6001600160a01b0381166106425760405162461bcd60e51b8152602060048201526011602482015270496e76616c696420746f6b656e6761746560781b604482015260640161049f565b600880546001600160a01b0319166001600160a01b0383169081179091556040517f05e4bd11b1381b0095f63c1a86ac851fe00d45afb8ef1dffb6399f9b9ec202cd90600090a250565b60606004805461037590611608565b600033816106a98286610815565b9050838110156107095760405162461bcd60e51b815260206004820152602560248201527f45524332303a2064656372656173656420616c6c6f77616e63652062656c6f77604482015264207a65726f60d81b606482015260840161049f565b61042b8286868403610be5565b600033610406818585610d84565b60085460405163b5af090f60e01b81526001600160a01b038381166004830152600092169063b5af090f90602401602060405180830381865afa15801561076f573d6000803e3d6000fd5b505050506040513d601f19601f8201168201806040525081019061040c9190611684565b600854604051630681320d60e51b81526001600160a01b038381166004830152600092839283929091169063d02641a090602401606060405180830381865afa1580156107e4573d6000803e3d6000fd5b505050506040513d601f19601f8201168201806040525081019061080891906116a6565b9250925092509193909250565b6001600160a01b03918216600090815260016020908152604080832093909416825291909152205490565b600061084a610f28565b6000821161088b5760405162461bcd60e51b815260206004820152600e60248201526d125b9d985b1a5908185b5bdd5b9d60921b604482015260640161049f565b60085460405163b5af090f60e01b81526001600160a01b0385811660048301529091169063b5af090f90602401602060405180830381865afa1580156108d5573d6000803e3d6000fd5b505050506040513d601f19601f820116820180604052508101906108f99190611684565b61093d5760405162461bcd60e51b8152602060048201526015602482015274151bdad95b881b9bdd081dda1a5d195b1a5cdd1959605a1b604482015260640161049f565b600854604051630681320d60e51b81526001600160a01b038581166004830152600092839291169063d02641a090602401606060405180830381865afa15801561098b573d6000803e3d6000fd5b505050506040513d601f19601f820116820180604052508101906109af91906116a6565b5091509150600082116109f45760405162461bcd60e51b815260206004820152600d60248201526c496e76616c696420707269636560981b604482015260640161049f565b600082610a0283600a6117c9565b610a0c90876117d8565b610a1691906117ef565b600754909150610a35906001600160a01b03888116913391168461115c565b610a3f33866111b6565b6009805460009182610a508361166b565b90915550604080518881526001600160a01b038a166020820152908101849052909150339082907f6b8848211abfdea24dea39fa2745a4d9d15c188717ad27a231de29e47d27e1b09060600160405180910390a3935050505061040c6001600555565b610abb6110b0565b6001600160a01b038116610b045760405162461bcd60e51b815260206004820152601060248201526f496e76616c696420747265617375727960801b604482015260640161049f565b600780546001600160a01b0319166001600160a01b0383169081179091556040517f7dae230f18360d76a040c81f050aa14eb9d6dc7901b20fc5d855e2a20fe814d190600090a250565b610b566110b0565b6001600160a01b038116610bbb5760405162461bcd60e51b815260206004820152602660248201527f4f776e61626c653a206e6577206f776e657220697320746865207a65726f206160448201526564647265737360d01b606482015260840161049f565b610bc48161110a565b50565b6001600160a01b03811660009081526020819052604081205461040c565b6001600160a01b038316610c475760405162461bcd60e51b8152602060048201526024808201527f45524332303a20617070726f76652066726f6d20746865207a65726f206164646044820152637265737360e01b606482015260840161049f565b6001600160a01b038216610ca85760405162461bcd60e51b815260206004820152602260248201527f45524332303a20617070726f766520746f20746865207a65726f206164647265604482015261737360f01b606482015260840161049f565b6001600160a01b0383811660008181526001602090815260408083209487168084529482529182902085905590518481527f8c5be1e5ebec7d5bd14f71427d1e84f3dd0314c0f7b2291e5b200ac8c7c3b92591015b60405180910390a3505050565b6000610d168484610815565b90506000198114610d7e5781811015610d715760405162461bcd60e51b815260206004820152601d60248201527f45524332303a20696e73756666696369656e7420616c6c6f77616e6365000000604482015260640161049f565b610d7e8484848403610be5565b50505050565b6001600160a01b038316610de85760405162461bcd60e51b815260206004820152602560248201527f45524332303a207472616e736665722066726f6d20746865207a65726f206164604482015264647265737360d81b606482015260840161049f565b6001600160a01b038216610e4a5760405162461bcd60e51b815260206004820152602360248201527f45524332303a207472616e7366657220746f20746865207a65726f206164647260448201526265737360e81b606482015260840161049f565b6001600160a01b03831660009081526020819052604090205481811015610ec25760405162461bcd60e51b815260206004820152602660248201527f45524332303a207472616e7366657220616d6f756e7420657863656564732062604482015265616c616e636560d01b606482015260840161049f565b6001600160a01b03848116600081815260208181526040808320878703905593871680835291849020805487019055925185815290927fddf252ad1be2c89b69c2b068fc378daa952ba7f163c4a11628f55a4df523b3ef910160405180910390a3610d7e565b600260055403610f7a5760405162461bcd60e51b815260206004820152601f60248201527f5265656e7472616e637947756172643a207265656e7472616e742063616c6c00604482015260640161049f565b6002600555565b6001600160a01b038216610fe15760405162461bcd60e51b815260206004820152602160248201527f45524332303a206275726e2066726f6d20746865207a65726f206164647265736044820152607360f81b606482015260840161049f565b6001600160a01b038216600090815260208190526040902054818110156110555760405162461bcd60e51b815260206004820152602260248201527f45524332303a206275726e20616d6f756e7420657863656564732062616c616e604482015261636560f01b606482015260840161049f565b6001600160a01b0383166000818152602081815260408083208686039055600280548790039055518581529192917fddf252ad1be2c89b69c2b068fc378daa952ba7f163c4a11628f55a4df523b3ef9101610cfd565b505050565b6006546001600160a01b031633146105ee5760405162461bcd60e51b815260206004820181905260248201527f4f776e61626c653a2063616c6c6572206973206e6f7420746865206f776e6572604482015260640161049f565b600680546001600160a01b038381166001600160a01b0319831681179093556040519116919082907f8be0079c531659141344cd1fd0a4f28419497f9722a3daafe3b4186f6b6457e090600090a35050565b604080516001600160a01b0385811660248301528416604482015260648082018490528251808303909101815260849091019091526020810180516001600160e01b03166323b872dd60e01b179052610d7e908590611275565b6001600160a01b03821661120c5760405162461bcd60e51b815260206004820152601f60248201527f45524332303a206d696e7420746f20746865207a65726f206164647265737300604482015260640161049f565b806002600082825461121e9190611658565b90915550506001600160a01b038216600081815260208181526040808320805486019055518481527fddf252ad1be2c89b69c2b068fc378daa952ba7f163c4a11628f55a4df523b3ef910160405180910390a35050565b60006112ca826040518060400160405280602081526020017f5361666545524332303a206c6f772d6c6576656c2063616c6c206661696c6564815250856001600160a01b031661134a9092919063ffffffff16565b90508051600014806112eb5750808060200190518101906112eb9190611684565b6110ab5760405162461bcd60e51b815260206004820152602a60248201527f5361666545524332303a204552433230206f7065726174696f6e20646964206e6044820152691bdd081cdd58d8d9595960b21b606482015260840161049f565b60606113598484600085611361565b949350505050565b6060824710156113c25760405162461bcd60e51b815260206004820152602660248201527f416464726573733a20696e73756666696369656e742062616c616e636520666f6044820152651c8818d85b1b60d21b606482015260840161049f565b600080866001600160a01b031685876040516113de9190611811565b60006040518083038185875af1925050503d806000811461141b576040519150601f19603f3d011682016040523d82523d6000602084013e611420565b606091505b50915091506114318783838761143c565b979650505050505050565b606083156114ab5782516000036114a4576001600160a01b0385163b6114a45760405162461bcd60e51b815260206004820152601d60248201527f416464726573733a2063616c6c20746f206e6f6e2d636f6e7472616374000000604482015260640161049f565b5081611359565b61135983838151156114c05781518083602001fd5b8060405162461bcd60e51b815260040161049f91906114fe565b60005b838110156114f55781810151838201526020016114dd565b50506000910152565b602081526000825180602084015261151d8160408501602087016114da565b601f01601f19169190910160400192915050565b80356001600160a01b038116811461154857600080fd5b919050565b6000806040838503121561156057600080fd5b61156983611531565b946020939093013593505050565b60008060006060848603121561158c57600080fd5b61159584611531565b92506115a360208501611531565b9150604084013590509250925092565b6000602082840312156115c557600080fd5b6115ce82611531565b9392505050565b600080604083850312156115e857600080fd5b6115f183611531565b91506115ff60208401611531565b90509250929050565b600181811c9082168061161c57607f821691505b60208210810361163c57634e487b7160e01b600052602260045260246000fd5b50919050565b634e487b7160e01b600052601160045260246000fd5b8082018082111561040c5761040c611642565b60006001820161167d5761167d611642565b5060010190565b60006020828403121561169657600080fd5b815180151581146115ce57600080fd5b6000806000606084860312156116bb57600080fd5b83519250602084015160ff811681146116d357600080fd5b80925050604084015190509250925092565b600181815b8085111561172057816000190482111561170657611706611642565b8085161561171357918102915b93841c93908002906116ea565b509250929050565b6000826117375750600161040c565b816117445750600061040c565b816001811461175a576002811461176457611780565b600191505061040c565b60ff84111561177557611775611642565b50506001821b61040c565b5060208310610133831016604e8410600b84101617156117a3575081810a61040c565b6117ad83836116e5565b80600019048211156117c1576117c1611642565b029392505050565b60006115ce60ff841683611728565b808202811582820484141761040c5761040c611642565b60008261180c57634e487b7160e01b600052601260045260246000fd5b500490565b600082516118238184602087016114da565b919091019291505056fea264697066735822122071cbe3ee46cb655e9b7f16e64fd63b372fc67efaf0b37ee69af0f2bdd8efe8d364736f6c63430008140033",
  "linkReferences": {},
  "deployedLinkReferences": {}
}