{
  "_format": "hh-sol-artifact-1",
  "contractName": "Market",
  "sourceName": "contracts/market/Market.sol",
  "abi": [
    {
      "inputs": [
        {
          "internalType": "string",
          "name": "name",
          "type": "string"
        },
        {
          "internalType": "string",
          "name": "symbol",
          "type": "string"
        },
        {
          "internalType": "address",
          "name": "_treasury",
          "type": "address"
        },
        {
          "internalType": "address",
          "name": "_tokenGate",
          "type": "address"
        }
      ],
      "stateMutability": "nonpayable",
      "type": "constructor"
    },
    {
      "anonymous": false,
      "inputs": [
        {
          "indexed": true,
          "internalType": "address",
          "name": "owner",
          "type": "address"
        },
        {
          "indexed": true,
          "internalType": "address",
          "name": "spender",
          "type": "address"
        },
        {
          "indexed": false,
          "internalType": "uint256",
          "name": "value",
          "type": "uint256"
        }
      ],
      "name": "Approval",
      "type": "event"
    },
    {
      "anonymous": false,
      "inputs": [],
      "name": "ContractSetOwnerless",
      "type": "event"
    },
    {
      "anonymous": false,
      "inputs": [
        {
          "indexed": true,
          "internalType": "uint256",
          "name": "txId",
          "type": "uint256"
        },
        {
          "indexed": true,
          "internalType": "address",
          "name": "user",
          "type": "address"
        },
        {
          "indexed": false,
          "internalType": "uint256",
          "name": "amount",
          "type": "uint256"
        },
        {
          "indexed": false,
          "internalType": "address",
          "name": "paymentToken",
          "type": "address"
        },
        {
          "indexed": false,
          "internalType": "uint256",
          "name": "paidAmount",
          "type": "uint256"
        }
      ],
      "name": "Credit",
      "type": "event"
    },
    {
      "anonymous": false,
      "inputs": [
        {
          "indexed": false,
          "internalType": "uint256",
          "name": "newFeeBps",
          "type": "uint256"
        }
      ],
      "name": "CreditFeeUpdated",
      "type": "event"
    },
    {
      "anonymous": false,
      "inputs": [
        {
          "indexed": true,
          "internalType": "uint256",
          "name": "txId",
          "type": "uint256"
        },
        {
          "indexed": true,
          "internalType": "address",
          "name": "client",
          "type": "address"
        },
        {
          "indexed": true,
          "internalType": "address",
          "name": "provider",
          "type": "address"
        },
        {
          "indexed": false,
          "internalType": "uint256",
          "name": "amount",
          "type": "uint256"
        }
      ],
      "name": "Debit",
      "type": "event"
    },
    {
      "anonymous": false,
      "inputs": [
        {
          "indexed": true,
          "internalType": "address",
          "name": "newDebitContract",
          "type": "address"
        }
      ],
      "name": "DebitContractUpdated",
      "type": "event"
    },
    {
      "anonymous": false,
      "inputs": [
        {
          "indexed": true,
          "internalType": "address",
          "name": "previousOwner",
          "type": "address"
        },
        {
          "indexed": true,
          "internalType": "address",
          "name": "newOwner",
          "type": "address"
        }
      ],
      "name": "OwnershipTransferred",
      "type": "event"
    },
    {
      "anonymous": false,
      "inputs": [
        {
          "indexed": false,
          "internalType": "address",
          "name": "account",
          "type": "address"
        }
      ],
      "name": "Paused",
      "type": "event"
    },
    {
      "anonymous": false,
      "inputs": [
        {
          "indexed": true,
          "internalType": "address",
          "name": "newTokenGate",
          "type": "address"
        }
      ],
      "name": "TokenGateUpdated",
      "type": "event"
    },
    {
      "anonymous": false,
      "inputs": [
        {
          "indexed": true,
          "internalType": "address",
          "name": "from",
          "type": "address"
        },
        {
          "indexed": true,
          "internalType": "address",
          "name": "to",
          "type": "address"
        },
        {
          "indexed": false,
          "internalType": "uint256",
          "name": "value",
          "type": "uint256"
        }
      ],
      "name": "Transfer",
      "type": "event"
    },
    {
      "anonymous": false,
      "inputs": [
        {
          "indexed": true,
          "internalType": "address",
          "name": "newTreasury",
          "type": "address"
        }
      ],
      "name": "TreasuryUpdated",
      "type": "event"
    },
    {
      "anonymous": false,
      "inputs": [
        {
          "indexed": false,
          "internalType": "address",
          "name": "account",
          "type": "address"
        }
      ],
      "name": "Unpaused",
      "type": "event"
    },
    {
      "anonymous": false,
      "inputs": [
        {
          "indexed": true,
          "internalType": "uint256",
          "name": "txId",
          "type": "uint256"
        },
        {
          "indexed": true,
          "internalType": "address",
          "name": "user",
          "type": "address"
        },
        {
          "indexed": false,
          "internalType": "uint256",
          "name": "amount",
          "type": "uint256"
        },
        {
          "indexed": false,
          "internalType": "address",
          "name": "paymentToken",
          "type": "address"
        },
        {
          "indexed": false,
          "internalType": "uint256",
          "name": "receivedAmount",
          "type": "uint256"
        }
      ],
      "name": "Withdrawal",
      "type": "event"
    },
    {
      "inputs": [],
      "name": "TREASURY_FEE_PERCENT",
      "outputs": [
        {
          "internalType": "uint256",
          "name": "",
          "type": "uint256"
        }
      ],
      "stateMutability": "view",
      "type": "function"
    },
    {
      "inputs": [
        {
          "internalType": "uint256",
          "name": "amount",
          "type": "uint256"
        }
      ],
      "name": "addTreasuryFees",
      "outputs": [],
      "stateMutability": "nonpayable",
      "type": "function"
    },
    {
      "inputs": [
        {
          "internalType": "address",
          "name": "owner",
          "type": "address"
        },
        {
          "internalType": "address",
          "name": "spender",
          "type": "address"
        }
      ],
      "name": "allowance",
      "outputs": [
        {
          "internalType": "uint256",
          "name": "",
          "type": "uint256"
        }
      ],
      "stateMutability": "view",
      "type": "function"
    },
    {
      "inputs": [
        {
          "internalType": "address",
          "name": "spender",
          "type": "address"
        },
        {
          "internalType": "uint256",
          "name": "amount",
          "type": "uint256"
        }
      ],
      "name": "approve",
      "outputs": [
        {
          "internalType": "bool",
          "name": "",
          "type": "bool"
        }
      ],
      "stateMutability": "nonpayable",
      "type": "function"
    },
    {
      "inputs": [
        {
          "internalType": "address",
          "name": "account",
          "type": "address"
        }
      ],
      "name": "balanceOf",
      "outputs": [
        {
          "internalType": "uint256",
          "name": "",
          "type": "uint256"
        }
      ],
      "stateMutability": "view",
      "type": "function"
    },
    {
      "inputs": [
        {
          "internalType": "address",
          "name": "paymentToken",
          "type": "address"
        },
        {
          "internalType": "uint256",
          "name": "stableAmount",
          "type": "uint256"
        },
        {
          "internalType": "uint256",
          "name": "maxPaymentAmount",
          "type": "uint256"
        }
      ],
      "name": "credit",
      "outputs": [
        {
          "internalType": "uint256",
          "name": "",
          "type": "uint256"
        }
      ],
      "stateMutability": "nonpayable",
      "type": "function"
    },
    {
      "inputs": [],
      "name": "creditFeeBps",
      "outputs": [
        {
          "internalType": "uint256",
          "name": "",
          "type": "uint256"
        }
      ],
      "stateMutability": "view",
      "type": "function"
    },
    {
      "inputs": [
        {
          "internalType": "address",
          "name": "client",
          "type": "address"
        },
        {
          "internalType": "address",
          "name": "provider",
          "type": "address"
        },
        {
          "internalType": "uint256",
          "name": "stableAmount",
          "type": "uint256"
        },
        {
          "internalType": "uint256",
          "name": "deadline",
          "type": "uint256"
        },
        {
          "internalType": "bytes",
          "name": "signature",
          "type": "bytes"
        }
      ],
      "name": "debit",
      "outputs": [
        {
          "internalType": "uint256",
          "name": "",
          "type": "uint256"
        }
      ],
      "stateMutability": "nonpayable",
      "type": "function"
    },
    {
      "inputs": [
        {
          "internalType": "address",
          "name": "from",
          "type": "address"
        },
        {
          "internalType": "uint256",
          "name": "amount",
          "type": "uint256"
        }
      ],
      "name": "debitBurn",
      "outputs": [],
      "stateMutability": "nonpayable",
      "type": "function"
    },
    {
      "inputs": [],
      "name": "debitContract",
      "outputs": [
        {
          "internalType": "address",
          "name": "",
          "type": "address"
        }
      ],
      "stateMutability": "view",
      "type": "function"
    },
    {
      "inputs": [
        {
          "internalType": "address",
          "name": "to",
          "type": "address"
        },
        {
          "internalType": "uint256",
          "name": "amount",
          "type": "uint256"
        }
      ],
      "name": "debitMint",
      "outputs": [],
      "stateMutability": "nonpayable",
      "type": "function"
    },
    {
      "inputs": [],
      "name": "decimals",
      "outputs": [
        {
          "internalType": "uint8",
          "name": "",
          "type": "uint8"
        }
      ],
      "stateMutability": "pure",
      "type": "function"
    },
    {
      "inputs": [
        {
          "internalType": "address",
          "name": "spender",
          "type": "address"
        },
        {
          "internalType": "uint256",
          "name": "subtractedValue",
          "type": "uint256"
        }
      ],
      "name": "decreaseAllowance",
      "outputs": [
        {
          "internalType": "bool",
          "name": "",
          "type": "bool"
        }
      ],
      "stateMutability": "nonpayable",
      "type": "function"
    },
    {
      "inputs": [
        {
          "internalType": "address",
          "name": "user",
          "type": "address"
        }
      ],
      "name": "getBalance",
      "outputs": [
        {
          "internalType": "uint256",
          "name": "",
          "type": "uint256"
        }
      ],
      "stateMutability": "view",
      "type": "function"
    },
    {
      "inputs": [],
      "name": "getClaimedTreasuryFeesUSD",
      "outputs": [
        {
          "internalType": "uint256",
          "name": "",
          "type": "uint256"
        }
      ],
      "stateMutability": "view",
      "type": "function"
    },
    {
      "inputs": [
        {
          "internalType": "address",
          "name": "token",
          "type": "address"
        }
      ],
      "name": "getTokenPrice",
      "outputs": [
        {
          "internalType": "uint256",
          "name": "price",
          "type": "uint256"
        },
        {
          "internalType": "uint8",
          "name": "tokenDecimals",
          "type": "uint8"
        },
        {
          "internalType": "uint256",
          "name": "timestamp",
          "type": "uint256"
        }
      ],
      "stateMutability": "view",
      "type": "function"
    },
    {
      "inputs": [],
      "name": "getUnclaimedTreasuryFeesUSD",
      "outputs": [
        {
          "internalType": "uint256",
          "name": "",
          "type": "uint256"
        }
      ],
      "stateMutability": "view",
      "type": "function"
    },
    {
      "inputs": [
        {
          "internalType": "address",
          "name": "spender",
          "type": "address"
        },
        {
          "internalType": "uint256",
          "name": "addedValue",
          "type": "uint256"
        }
      ],
      "name": "increaseAllowance",
      "outputs": [
        {
          "internalType": "bool",
          "name": "",
          "type": "bool"
        }
      ],
      "stateMutability": "nonpayable",
      "type": "function"
    },
    {
      "inputs": [
        {
          "internalType": "address",
          "name": "token",
          "type": "address"
        }
      ],
      "name": "isTokenWhitelisted",
      "outputs": [
        {
          "internalType": "bool",
          "name": "",
          "type": "bool"
        }
      ],
      "stateMutability": "view",
      "type": "function"
    },
    {
      "inputs": [],
      "name": "name",
      "outputs": [
        {
          "internalType": "string",
          "name": "",
          "type": "string"
        }
      ],
      "stateMutability": "view",
      "type": "function"
    },
    {
      "inputs": [],
      "name": "nextTransactionId",
      "outputs": [
        {
          "internalType": "uint256",
          "name": "",
          "type": "uint256"
        }
      ],
      "stateMutability": "view",
      "type": "function"
    },
    {
      "inputs": [],
      "name": "owner",
      "outputs": [
        {
          "internalType": "address",
          "name": "",
          "type": "address"
        }
      ],
      "stateMutability": "view",
      "type": "function"
    },
    {
      "inputs": [],
      "name": "pause",
      "outputs": [],
      "stateMutability": "nonpayable",
      "type": "function"
    },
    {
      "inputs": [],
      "name": "paused",
      "outputs": [
        {
          "internalType": "bool",
          "name": "",
          "type": "bool"
        }
      ],
      "stateMutability": "view",
      "type": "function"
    },
    {
      "inputs": [],
      "name": "renounceOwnership",
      "outputs": [],
      "stateMutability": "nonpayable",
      "type": "function"
    },
    {
      "inputs": [
        {
          "internalType": "uint256",
          "name": "_creditFeeBps",
          "type": "uint256"
        }
      ],
      "name": "setCreditFee",
      "outputs": [],
      "stateMutability": "nonpayable",
      "type": "function"
    },
    {
      "inputs": [
        {
          "internalType": "address",
          "name": "_debitContract",
          "type": "address"
        }
      ],
      "name": "setDebitContract",
      "outputs": [],
      "stateMutability": "nonpayable",
      "type": "function"
    },
    {
      "inputs": [],
      "name": "setOwnerless",
      "outputs": [],
      "stateMutability": "nonpayable",
      "type": "function"
    },
    {
      "inputs": [
        {
          "internalType": "address",
          "name": "_tokenGate",
          "type": "address"
        }
      ],
      "name": "setTokenGate",
      "outputs": [],
      "stateMutability": "nonpayable",
      "type": "function"
    },
    {
      "inputs": [
        {
          "internalType": "address",
          "name": "_treasury",
          "type": "address"
        }
      ],
      "name": "setTreasury",
      "outputs": [],
      "stateMutability": "nonpayable",
      "type": "function"
    },
    {
      "inputs": [],
      "name": "symbol",
      "outputs": [
        {
          "internalType": "string",
          "name": "",
          "type": "string"
        }
      ],
      "stateMutability": "view",
      "type": "function"
    },
    {
      "inputs": [],
      "name": "tokenGate",
      "outputs": [
        {
          "internalType": "contract TokenGate",
          "name": "",
          "type": "address"
        }
      ],
      "stateMutability": "view",
      "type": "function"
    },
    {
      "inputs": [],
      "name": "totalSupply",
      "outputs": [
        {
          "internalType": "uint256",
          "name": "",
          "type": "uint256"
        }
      ],
      "stateMutability": "view",
      "type": "function"
    },
    {
      "inputs": [],
      "name": "totalTreasuryFeesAccrued",
      "outputs": [
        {
          "internalType": "uint256",
          "name": "",
          "type": "uint256"
        }
      ],
      "stateMutability": "view",
      "type": "function"
    },
    {
      "inputs": [
        {
          "internalType": "address",
          "name": "to",
          "type": "address"
        },
        {
          "internalType": "uint256",
          "name": "amount",
          "type": "uint256"
        }
      ],
      "name": "transfer",
      "outputs": [
        {
          "internalType": "bool",
          "name": "",
          "type": "bool"
        }
      ],
      "stateMutability": "nonpayable",
      "type": "function"
    },
    {
      "inputs": [
        {
          "internalType": "address",
          "name": "from",
          "type": "address"
        },
        {
          "internalType": "address",
          "name": "to",
          "type": "address"
        },
        {
          "internalType": "uint256",
          "name": "amount",
          "type": "uint256"
        }
      ],
      "name": "transferFrom",
      "outputs": [
        {
          "internalType": "bool",
          "name": "",
          "type": "bool"
        }
      ],
      "stateMutability": "nonpayable",
      "type": "function"
    },
    {
      "inputs": [
        {
          "internalType": "address",
          "name": "newOwner",
          "type": "address"
        }
      ],
      "name": "transferOwnership",
      "outputs": [],
      "stateMutability": "nonpayable",
      "type": "function"
    },
    {
      "inputs": [],
      "name": "treasury",
      "outputs": [
        {
          "internalType": "address",
          "name": "",
          "type": "address"
        }
      ],
      "stateMutability": "view",
      "type": "function"
    },
    {
      "inputs": [],
      "name": "unpause",
      "outputs": [],
      "stateMutability": "nonpayable",
      "type": "function"
    },
    {
      "inputs": [
        {
          "internalType": "address",
          "name": "paymentToken",
          "type": "address"
        },
        {
          "internalType": "uint256",
          "name": "stableAmount",
          "type": "uint256"
        },
        {
          "internalType": "uint256",
          "name": "minReceiveAmount",
          "type": "uint256"
        }
      ],
      "name": "withdraw",
      "outputs": [
        {
          "internalType": "uint256",
          "name": "",
          "type": "uint256"
        }
      ],
      "stateMutability": "nonpayable",
      "type": "function"
    }
  ],
  "bytecode": "0x60806040526001600a556064600b553480156200001b57600080fd5b5060405162002a6538038062002a658339810160408190526200003e9162000286565b838360036200004e8382620003a4565b5060046200005d8282620003a4565b50506001600555506006805460ff191690556200007a336200014a565b6001600160a01b038216620000c95760405162461bcd60e51b815260206004820152601060248201526f496e76616c696420747265617375727960801b60448201526064015b60405180910390fd5b6001600160a01b038116620001155760405162461bcd60e51b8152602060048201526011602482015270496e76616c696420746f6b656e6761746560781b6044820152606401620000c0565b600780546001600160a01b039384166001600160a01b0319918216179091556008805492909316911617905550620004709050565b600680546001600160a01b03838116610100818102610100600160a81b031985161790945560405193909204169182907f8be0079c531659141344cd1fd0a4f28419497f9722a3daafe3b4186f6b6457e090600090a35050565b634e487b7160e01b600052604160045260246000fd5b600082601f830112620001cc57600080fd5b81516001600160401b0380821115620001e957620001e9620001a4565b604051601f8301601f19908116603f01168101908282118183101715620002145762000214620001a4565b816040528381526020925086838588010111156200023157600080fd5b600091505b8382101562000255578582018301518183018401529082019062000236565b600093810190920192909252949350505050565b80516001600160a01b03811681146200028157600080fd5b919050565b600080600080608085870312156200029d57600080fd5b84516001600160401b0380821115620002b557600080fd5b620002c388838901620001ba565b95506020870151915080821115620002da57600080fd5b50620002e987828801620001ba565b935050620002fa6040860162000269565b91506200030a6060860162000269565b905092959194509250565b600181811c908216806200032a57607f821691505b6020821081036200034b57634e487b7160e01b600052602260045260246000fd5b50919050565b601f8211156200039f57600081815260208120601f850160051c810160208610156200037a5750805b601f850160051c820191505b818110156200039b5782815560010162000386565b5050505b505050565b81516001600160401b03811115620003c057620003c0620001a4565b620003d881620003d1845462000315565b8462000351565b602080601f831160018114620004105760008415620003f75750858301515b600019600386901b1c1916600185901b1785556200039b565b600085815260208120601f198616915b82811015620004415788860151825594840194600190910190840162000420565b5085821015620004605787850151600019600388901b60f8161c191681555b5050505050600190811b01905550565b6125e580620004806000396000f3fe608060405234801561001057600080fd5b50600436106102485760003560e01c80637e8e2a8f1161013b578063d02641a0116100b8578063dead9e5e1161007c578063dead9e5e146104f1578063e111703a14610504578063f0f442601461050c578063f2fde38b1461051f578063f8b2cb4f1461053257600080fd5b8063d02641a01461047f578063d4335c39146104af578063d7ca38f3146104c2578063dd62ed3e146104cb578063ddb1bdc8146104de57600080fd5b8063a457c2d7116100ff578063a457c2d71461042b578063a9059cbb1461043e578063b5af090f14610451578063b5c5f67214610464578063c6318b4e1461047757600080fd5b80637e8e2a8f146103d25780638456cb59146103f25780638da5cb5b146103fa578063940c6ffb1461041057806395d89b411461042357600080fd5b80634c93368c116101c95780636919b8c71161018d5780636919b8c71461036857806370a082311461037b578063715018a6146103a457806374c4c8f7146103ac5780637dfd414f146103bf57600080fd5b80634c93368c1461032557806350008e4a1461032e5780635c975abb1461034157806361d027b31461034c57806364e342681461035f57600080fd5b80632931bdd8116102105780632931bdd8146102bd578063313ce567146102e857806339509351146102f757806339bb80c91461030a5780633f4ba83a1461031d57600080fd5b806306fdde031461024d578063095ea7b31461026b57806318160ddd1461028e5780631aa7a3d9146102a057806323b872dd146102aa575b600080fd5b610255610545565b60405161026291906120ad565b60405180910390f35b61027e6102793660046120dc565b6105d7565b6040519015158152602001610262565b6002545b604051908152602001610262565b6102a86105f1565b005b61027e6102b8366004612106565b61062c565b6009546102d0906001600160a01b031681565b6040516001600160a01b039091168152602001610262565b60405160088152602001610262565b61027e6103053660046120dc565b610652565b610292610318366004612158565b610674565b6102a861083b565b610292600c5481565b6008546102d0906001600160a01b031681565b60065460ff1661027e565b6007546102d0906001600160a01b031681565b610292600b5481565b6102a861037636600461223e565b61084b565b61029261038936600461223e565b6001600160a01b031660009081526020819052604090205490565b6102a86108ec565b6102a86103ba36600461223e565b6108fe565b6102a86103cd366004612259565b61099a565b6007546001600160a01b0316600090815260208190526040902054610292565b6102a8610a1a565b60065461010090046001600160a01b03166102d0565b6102a861041e3660046120dc565b610a2a565b610255610a62565b61027e6104393660046120dc565b610a71565b61027e61044c3660046120dc565b610af7565b61027e61045f36600461223e565b610b05565b610292610472366004612272565b610b74565b610292610f5a565b61049261048d36600461223e565b610f99565b6040805193845260ff909216602084015290820152606001610262565b6102a86104bd3660046120dc565b61101b565b610292600a5481565b6102926104d93660046122a5565b61104f565b6102926104ec366004612272565b61107a565b6102a86104ff366004612259565b611485565b610292600581565b6102a861051a36600461223e565b6114c9565b6102a861052d36600461223e565b611564565b61029261054036600461223e565b6115dd565b606060038054610554906122d8565b80601f0160208091040260200160405190810160405280929190818152602001828054610580906122d8565b80156105cd5780601f106105a2576101008083540402835291602001916105cd565b820191906000526020600020905b8154815290600101906020018083116105b057829003601f168201915b5050505050905090565b6000336105e58185856115fb565b60019150505b92915050565b6105f9611720565b6040517f2ba54d6a3cc9b09a35290d130bee17be374bd7785c0ed3299961362e1c3bddaf90600090a161062a6108ec565b565b60003361063a858285611780565b6106458585856117fa565b60019150505b9392505050565b6000336105e5818585610665838361104f565b61066f9190612328565b6115fb565b600061067e611720565b6009546001600160a01b03166106d45760405162461bcd60e51b81526020600482015260166024820152751119589a5d0818dbdb9d1c9858dd081b9bdd081cd95d60521b60448201526064015b60405180910390fd5b6000825160000361076557600954604051632174727d60e21b81526001600160a01b038981166004830152888116602483015260448201889052909116906385d1c9f4906064016020604051808303816000875af115801561073a573d6000803e3d6000fd5b505050506040513d601f19601f8201168201806040525081019061075e919061233b565b90506107e3565b600954604051636218f59360e01b81526001600160a01b0390911690636218f5939061079d908a908a908a908a908a90600401612354565b6020604051808303816000875af11580156107bc573d6000803e3d6000fd5b505050506040513d601f19601f820116820180604052508101906107e0919061233b565b90505b856001600160a01b0316876001600160a01b0316827fa754adf5d975b46c396155a50ac01f4c0a08bd7f91ea46faf5c447d5077248178860405161082991815260200190565b60405180910390a49695505050505050565b610843611720565b61062a61199e565b610853611720565b6001600160a01b0381166108a25760405162461bcd60e51b8152602060048201526016602482015275125b9d985b1a59081919589a5d0818dbdb9d1c9858dd60521b60448201526064016106cb565b600980546001600160a01b0319166001600160a01b0383169081179091556040517f114fe624c22dc3de6e5b396b1def36c2b791dbcee83810458befa11d6c2d00e090600090a250565b6108f4611720565b61062a60006119f0565b610906611720565b6001600160a01b0381166109505760405162461bcd60e51b8152602060048201526011602482015270496e76616c696420746f6b656e6761746560781b60448201526064016106cb565b600880546001600160a01b0319166001600160a01b0383169081179091556040517f05e4bd11b1381b0095f63c1a86ac851fe00d45afb8ef1dffb6399f9b9ec202cd90600090a250565b6109a2611720565b6127108111156109df5760405162461bcd60e51b81526020600482015260086024820152674d6178203130302560c01b60448201526064016106cb565b600b8190556040518181527f52e1616936b9b52ccea73943680012c70cdf00c69556dfab1fb9a36965bfb8ca9060200160405180910390a150565b610a22611720565b61062a611a4a565b6009546001600160a01b03163314610a545760405162461bcd60e51b81526004016106cb9061238e565b610a5e8282611a87565b5050565b606060048054610554906122d8565b60003381610a7f828661104f565b905083811015610adf5760405162461bcd60e51b815260206004820152602560248201527f45524332303a2064656372656173656420616c6c6f77616e63652062656c6f77604482015264207a65726f60d81b60648201526084016106cb565b610aec82868684036115fb565b506001949350505050565b6000336105e58185856117fa565b60085460405163b5af090f60e01b81526001600160a01b038381166004830152600092169063b5af090f90602401602060405180830381865afa158015610b50573d6000803e3d6000fd5b505050506040513d601f19601f820116820180604052508101906105eb91906123bb565b6000610b7e611b46565b610b86611b9f565b60008311610bc75760405162461bcd60e51b815260206004820152600e60248201526d125b9d985b1a5908185b5bdd5b9d60921b60448201526064016106cb565b33600090815260208190526040902054831115610c1d5760405162461bcd60e51b8152602060048201526014602482015273496e73756666696369656e742062616c616e636560601b60448201526064016106cb565b60085460405163b5af090f60e01b81526001600160a01b0386811660048301529091169063b5af090f90602401602060405180830381865afa158015610c67573d6000803e3d6000fd5b505050506040513d601f19601f82011682018060405250810190610c8b91906123bb565b610ccf5760405162461bcd60e51b8152602060048201526015602482015274151bdad95b881b9bdd081dda1a5d195b1a5cdd1959605a1b60448201526064016106cb565b600854604051630681320d60e51b81526001600160a01b038681166004830152600092839291169063d02641a090602401606060405180830381865afa158015610d1d573d6000803e3d6000fd5b505050506040513d601f19601f82011682018060405250810190610d4191906123ee565b509150915060008211610d865760405162461bcd60e51b815260206004820152600d60248201526c496e76616c696420707269636560981b60448201526064016106cb565b6000866001600160a01b031663313ce5676040518163ffffffff1660e01b8152600401602060405180830381865afa158015610dc6573d6000803e3d6000fd5b505050506040513d601f19601f82011682018060405250810190610dea9190612423565b90506000610dfa6008600a612522565b610e04908561252e565b610e1260ff8516600a612522565b610e2060ff8516600a612522565b610e2a908a61252e565b610e34919061252e565b610e3e9190612545565b905060008111610e835760405162461bcd60e51b815260206004820152601060248201526f105b5bdd5b9d081d1bdbc81cdb585b1b60821b60448201526064016106cb565b85811015610ec75760405162461bcd60e51b815260206004820152601160248201527042656c6f77206d696e207265636569766560781b60448201526064016106cb565b610ed13388611be5565b610ee56001600160a01b0389163383611d14565b600a805460009182610ef683612567565b90915550604080518a81526001600160a01b038c166020820152908101849052909150339082907f051d3c25696883cb50c923d33f58a95aac78ca7cd60e62eecddbf4e5cf8bd2b89060600160405180910390a394505050505061064b6001600555565b6007546001600160a01b031660009081526020819052604081205480600c5411610f85576000610f93565b80600c54610f939190612580565b91505090565b600854604051630681320d60e51b81526001600160a01b038381166004830152600092839283929091169063d02641a090602401606060405180830381865afa158015610fea573d6000803e3d6000fd5b505050506040513d601f19601f8201168201806040525081019061100e91906123ee565b9250925092509193909250565b6009546001600160a01b031633146110455760405162461bcd60e51b81526004016106cb9061238e565b610a5e8282611be5565b6001600160a01b03918216600090815260016020908152604080832093909416825291909152205490565b6000611084611b46565b61108c611b9f565b600083116110cd5760405162461bcd60e51b815260206004820152600e60248201526d125b9d985b1a5908185b5bdd5b9d60921b60448201526064016106cb565b60085460405163b5af090f60e01b81526001600160a01b0386811660048301529091169063b5af090f90602401602060405180830381865afa158015611117573d6000803e3d6000fd5b505050506040513d601f19601f8201168201806040525081019061113b91906123bb565b61117f5760405162461bcd60e51b8152602060048201526015602482015274151bdad95b881b9bdd081dda1a5d195b1a5cdd1959605a1b60448201526064016106cb565b600854604051630681320d60e51b81526001600160a01b038681166004830152600092839291169063d02641a090602401606060405180830381865afa1580156111cd573d6000803e3d6000fd5b505050506040513d601f19601f820116820180604052508101906111f191906123ee565b5091509150600082116112365760405162461bcd60e51b815260206004820152600d60248201526c496e76616c696420707269636560981b60448201526064016106cb565b6000866001600160a01b031663313ce5676040518163ffffffff1660e01b8152600401602060405180830381865afa158015611276573d6000803e3d6000fd5b505050506040513d601f19601f8201168201806040525081019061129a9190612423565b905060006112aa6008600a612522565b6112b4908561252e565b6112c260ff8516600a612522565b6112d060ff8516600a612522565b6112da908a61252e565b6112e4919061252e565b6112ee9190612545565b9050600081116113335760405162461bcd60e51b815260206004820152601060248201526f105b5bdd5b9d081d1bdbc81cdb585b1b60821b60448201526064016106cb565b858111156113795760405162461bcd60e51b8152602060048201526013602482015272115e18d959591cc81b585e081c185e5b595b9d606a1b60448201526064016106cb565b6000612710600b548361138c919061252e565b6113969190612545565b90506000612710600b548a6113ab919061252e565b6113b59190612545565b6113bf908a612580565b90506113e233306113d08587612580565b6001600160a01b038e16929190611d77565b811561140457600754611404906001600160a01b038c81169133911685611d77565b61140e3382611a87565b600a80546000918261141f83612567565b90915550604080518c81526001600160a01b038e166020820152908101869052909150339082907f6b8848211abfdea24dea39fa2745a4d9d15c188717ad27a231de29e47d27e1b09060600160405180910390a3965050505050505061064b6001600555565b6009546001600160a01b031633146114af5760405162461bcd60e51b81526004016106cb9061238e565b80600c60008282546114c19190612328565b909155505050565b6114d1611720565b6001600160a01b03811661151a5760405162461bcd60e51b815260206004820152601060248201526f496e76616c696420747265617375727960801b60448201526064016106cb565b600780546001600160a01b0319166001600160a01b0383169081179091556040517f7dae230f18360d76a040c81f050aa14eb9d6dc7901b20fc5d855e2a20fe814d190600090a250565b61156c611720565b6001600160a01b0381166115d15760405162461bcd60e51b815260206004820152602660248201527f4f776e61626c653a206e6577206f776e657220697320746865207a65726f206160448201526564647265737360d01b60648201526084016106cb565b6115da816119f0565b50565b6001600160a01b0381166000908152602081905260408120546105eb565b6001600160a01b03831661165d5760405162461bcd60e51b8152602060048201526024808201527f45524332303a20617070726f76652066726f6d20746865207a65726f206164646044820152637265737360e01b60648201526084016106cb565b6001600160a01b0382166116be5760405162461bcd60e51b815260206004820152602260248201527f45524332303a20617070726f766520746f20746865207a65726f206164647265604482015261737360f01b60648201526084016106cb565b6001600160a01b0383811660008181526001602090815260408083209487168084529482529182902085905590518481527f8c5be1e5ebec7d5bd14f71427d1e84f3dd0314c0f7b2291e5b200ac8c7c3b92591015b60405180910390a3505050565b6006546001600160a01b0361010090910416331461062a5760405162461bcd60e51b815260206004820181905260248201527f4f776e61626c653a2063616c6c6572206973206e6f7420746865206f776e657260448201526064016106cb565b600061178c848461104f565b905060001981146117f457818110156117e75760405162461bcd60e51b815260206004820152601d60248201527f45524332303a20696e73756666696369656e7420616c6c6f77616e636500000060448201526064016106cb565b6117f484848484036115fb565b50505050565b6001600160a01b03831661185e5760405162461bcd60e51b815260206004820152602560248201527f45524332303a207472616e736665722066726f6d20746865207a65726f206164604482015264647265737360d81b60648201526084016106cb565b6001600160a01b0382166118c05760405162461bcd60e51b815260206004820152602360248201527f45524332303a207472616e7366657220746f20746865207a65726f206164647260448201526265737360e81b60648201526084016106cb565b6001600160a01b038316600090815260208190526040902054818110156119385760405162461bcd60e51b815260206004820152602660248201527f45524332303a207472616e7366657220616d6f756e7420657863656564732062604482015265616c616e636560d01b60648201526084016106cb565b6001600160a01b03848116600081815260208181526040808320878703905593871680835291849020805487019055925185815290927fddf252ad1be2c89b69c2b068fc378daa952ba7f163c4a11628f55a4df523b3ef910160405180910390a36117f4565b6119a6611daf565b6006805460ff191690557f5db9ee0a495bf2e6ff9c91a7834c1ba4fdd244a5e8aa4e537bd38aeae4b073aa335b6040516001600160a01b03909116815260200160405180910390a1565b600680546001600160a01b03838116610100818102610100600160a81b031985161790945560405193909204169182907f8be0079c531659141344cd1fd0a4f28419497f9722a3daafe3b4186f6b6457e090600090a35050565b611a52611b9f565b6006805460ff191660011790557f62e78cea01bee320cd4e420270b5ea74000d11b0c9f74754ebdbfc544b05a2586119d33390565b6001600160a01b038216611add5760405162461bcd60e51b815260206004820152601f60248201527f45524332303a206d696e7420746f20746865207a65726f20616464726573730060448201526064016106cb565b8060026000828254611aef9190612328565b90915550506001600160a01b038216600081815260208181526040808320805486019055518481527fddf252ad1be2c89b69c2b068fc378daa952ba7f163c4a11628f55a4df523b3ef910160405180910390a35050565b600260055403611b985760405162461bcd60e51b815260206004820152601f60248201527f5265656e7472616e637947756172643a207265656e7472616e742063616c6c0060448201526064016106cb565b6002600555565b60065460ff161561062a5760405162461bcd60e51b815260206004820152601060248201526f14185d5cd8589b194e881c185d5cd95960821b60448201526064016106cb565b6001600160a01b038216611c455760405162461bcd60e51b815260206004820152602160248201527f45524332303a206275726e2066726f6d20746865207a65726f206164647265736044820152607360f81b60648201526084016106cb565b6001600160a01b03821660009081526020819052604090205481811015611cb95760405162461bcd60e51b815260206004820152602260248201527f45524332303a206275726e20616d6f756e7420657863656564732062616c616e604482015261636560f01b60648201526084016106cb565b6001600160a01b0383166000818152602081815260408083208686039055600280548790039055518581529192917fddf252ad1be2c89b69c2b068fc378daa952ba7f163c4a11628f55a4df523b3ef9101611713565b505050565b6040516001600160a01b038316602482015260448101829052611d0f90849063a9059cbb60e01b906064015b60408051601f198184030181529190526020810180516001600160e01b03166001600160e01b031990931692909217909152611df8565b6040516001600160a01b03808516602483015283166044820152606481018290526117f49085906323b872dd60e01b90608401611d40565b60065460ff1661062a5760405162461bcd60e51b815260206004820152601460248201527314185d5cd8589b194e881b9bdd081c185d5cd95960621b60448201526064016106cb565b6000611e4d826040518060400160405280602081526020017f5361666545524332303a206c6f772d6c6576656c2063616c6c206661696c6564815250856001600160a01b0316611ecd9092919063ffffffff16565b9050805160001480611e6e575080806020019051810190611e6e91906123bb565b611d0f5760405162461bcd60e51b815260206004820152602a60248201527f5361666545524332303a204552433230206f7065726174696f6e20646964206e6044820152691bdd081cdd58d8d9595960b21b60648201526084016106cb565b6060611edc8484600085611ee4565b949350505050565b606082471015611f455760405162461bcd60e51b815260206004820152602660248201527f416464726573733a20696e73756666696369656e742062616c616e636520666f6044820152651c8818d85b1b60d21b60648201526084016106cb565b600080866001600160a01b03168587604051611f619190612593565b60006040518083038185875af1925050503d8060008114611f9e576040519150601f19603f3d011682016040523d82523d6000602084013e611fa3565b606091505b5091509150611fb487838387611fbf565b979650505050505050565b6060831561202e578251600003612027576001600160a01b0385163b6120275760405162461bcd60e51b815260206004820152601d60248201527f416464726573733a2063616c6c20746f206e6f6e2d636f6e747261637400000060448201526064016106cb565b5081611edc565b611edc83838151156120435781518083602001fd5b8060405162461bcd60e51b81526004016106cb91906120ad565b60005b83811015612078578181015183820152602001612060565b50506000910152565b6000815180845261209981602086016020860161205d565b601f01601f19169290920160200192915050565b60208152600061064b6020830184612081565b80356001600160a01b03811681146120d757600080fd5b919050565b600080604083850312156120ef57600080fd5b6120f8836120c0565b946020939093013593505050565b60008060006060848603121561211b57600080fd5b612124846120c0565b9250612132602085016120c0565b9150604084013590509250925092565b634e487b7160e01b600052604160045260246000fd5b600080600080600060a0868803121561217057600080fd5b612179866120c0565b9450612187602087016120c0565b93506040860135925060608601359150608086013567ffffffffffffffff808211156121b257600080fd5b818801915088601f8301126121c657600080fd5b8135818111156121d8576121d8612142565b604051601f8201601f19908116603f0116810190838211818310171561220057612200612142565b816040528281528b602084870101111561221957600080fd5b8260208601602083013760006020848301015280955050505050509295509295909350565b60006020828403121561225057600080fd5b61064b826120c0565b60006020828403121561226b57600080fd5b5035919050565b60008060006060848603121561228757600080fd5b612290846120c0565b95602085013595506040909401359392505050565b600080604083850312156122b857600080fd5b6122c1836120c0565b91506122cf602084016120c0565b90509250929050565b600181811c908216806122ec57607f821691505b60208210810361230c57634e487b7160e01b600052602260045260246000fd5b50919050565b634e487b7160e01b600052601160045260246000fd5b808201808211156105eb576105eb612312565b60006020828403121561234d57600080fd5b5051919050565b6001600160a01b03868116825285166020820152604081018490526060810183905260a060808201819052600090611fb490830184612081565b60208082526013908201527213db9b1e481919589a5d0818dbdb9d1c9858dd606a1b604082015260600190565b6000602082840312156123cd57600080fd5b8151801515811461064b57600080fd5b805160ff811681146120d757600080fd5b60008060006060848603121561240357600080fd5b83519250612413602085016123dd565b9150604084015190509250925092565b60006020828403121561243557600080fd5b61064b826123dd565b600181815b8085111561247957816000190482111561245f5761245f612312565b8085161561246c57918102915b93841c9390800290612443565b509250929050565b600082612490575060016105eb565b8161249d575060006105eb565b81600181146124b357600281146124bd576124d9565b60019150506105eb565b60ff8411156124ce576124ce612312565b50506001821b6105eb565b5060208310610133831016604e8410600b84101617156124fc575081810a6105eb565b612506838361243e565b806000190482111561251a5761251a612312565b029392505050565b600061064b8383612481565b80820281158282048414176105eb576105eb612312565b60008261256257634e487b7160e01b600052601260045260246000fd5b500490565b60006001820161257957612579612312565b5060010190565b818103818111156105eb576105eb612312565b600082516125a581846020870161205d565b919091019291505056fea2646970667358221220b89e46412dd463ed0b596297a2870e31bad90c97649f22619c299997c0db2df964736f6c63430008140033",
  "linkReferences": {},
  "deployedLinkReferences": {}
}