{
  "_format": "hh-sol-artifact-1",
  "contractName": "BridgeableToken",
  "sourceName": "contracts/bridge/Bridge.sol",
  "abi": [
    {
      "inputs": [
        {
          "internalType": "string",
          "name": "name",
          "type": "string"
        },
        {
          "internalType": "string",
          "name": "symbol",
          "type": "string"
        },
        {
          "internalType": "uint256",
          "name": "initialSupply",
          "type": "uint256"
        }
      ],
      "stateMutability": "nonpayable",
      "type": "constructor"
    },
    {
      "anonymous": false,
      "inputs": [
        {
          "indexed": true,
          "internalType": "address",
          "name": "owner",
          "type": "address"
        },
        {
          "indexed": true,
          "internalType": "address",
          "name": "spender",
          "type": "address"
        },
        {
          "indexed": false,
          "internalType": "uint256",
          "name": "value",
          "type": "uint256"
        }
      ],
      "name": "Approval",
      "type": "event"
    },
    {
      "anonymous": false,
      "inputs": [
        {
          "indexed": true,
          "internalType": "address",
          "name": "from",
          "type": "address"
        },
        {
          "indexed": false,
          "internalType": "uint256",
          "name": "amount",
          "type": "uint256"
        },
        {
          "indexed": false,
          "internalType": "string",
          "name": "bridgeId",
          "type": "string"
        }
      ],
      "name": "BridgeBurn",
      "type": "event"
    },
    {
      "anonymous": false,
      "inputs": [
        {
          "indexed": true,
          "internalType": "address",
          "name": "to",
          "type": "address"
        },
        {
          "indexed": false,
          "internalType": "uint256",
          "name": "amount",
          "type": "uint256"
        },
        {
          "indexed": false,
          "internalType": "string",
          "name": "bridgeId",
          "type": "string"
        }
      ],
      "name": "BridgeMint",
      "type": "event"
    },
    {
      "anonymous": false,
      "inputs": [],
      "name": "ContractSetOwnerless",
      "type": "event"
    },
    {
      "anonymous": false,
      "inputs": [
        {
          "indexed": true,
          "internalType": "address",
          "name": "previousOwner",
          "type": "address"
        },
        {
          "indexed": true,
          "internalType": "address",
          "name": "newOwner",
          "type": "address"
        }
      ],
      "name": "OwnershipTransferred",
      "type": "event"
    },
    {
      "anonymous": false,
      "inputs": [
        {
          "indexed": true,
          "internalType": "address",
          "name": "from",
          "type": "address"
        },
        {
          "indexed": true,
          "internalType": "address",
          "name": "to",
          "type": "address"
        },
        {
          "indexed": false,
          "internalType": "uint256",
          "name": "value",
          "type": "uint256"
        }
      ],
      "name": "Transfer",
      "type": "event"
    },
    {
      "inputs": [
        {
          "internalType": "address",
          "name": "owner",
          "type": "address"
        },
        {
          "internalType": "address",
          "name": "spender",
          "type": "address"
        }
      ],
      "name": "allowance",
      "outputs": [
        {
          "internalType": "uint256",
          "name": "",
          "type": "uint256"
        }
      ],
      "stateMutability": "view",
      "type": "function"
    },
    {
      "inputs": [
        {
          "internalType": "address",
          "name": "spender",
          "type": "address"
        },
        {
          "internalType": "uint256",
          "name": "amount",
          "type": "uint256"
        }
      ],
      "name": "approve",
      "outputs": [
        {
          "internalType": "bool",
          "name": "",
          "type": "bool"
        }
      ],
      "stateMutability": "nonpayable",
      "type": "function"
    },
    {
      "inputs": [
        {
          "internalType": "address",
          "name": "account",
          "type": "address"
        }
      ],
      "name": "balanceOf",
      "outputs": [
        {
          "internalType": "uint256",
          "name": "",
          "type": "uint256"
        }
      ],
      "stateMutability": "view",
      "type": "function"
    },
    {
      "inputs": [
        {
          "internalType": "address[]",
          "name": "holders",
          "type": "address[]"
        },
        {
          "internalType": "uint256[]",
          "name": "amounts",
          "type": "uint256[]"
        },
        {
          "internalType": "string",
          "name": "bridgeId",
          "type": "string"
        }
      ],
      "name": "batchBridgeBurn",
      "outputs": [],
      "stateMutability": "nonpayable",
      "type": "function"
    },
    {
      "inputs": [
        {
          "internalType": "address[]",
          "name": "recipients",
          "type": "address[]"
        },
        {
          "internalType": "uint256[]",
          "name": "amounts",
          "type": "uint256[]"
        },
        {
          "internalType": "string",
          "name": "bridgeId",
          "type": "string"
        }
      ],
      "name": "batchBridgeMint",
      "outputs": [],
      "stateMutability": "nonpayable",
      "type": "function"
    },
    {
      "inputs": [
        {
          "internalType": "address",
          "name": "from",
          "type": "address"
        },
        {
          "internalType": "uint256",
          "name": "amount",
          "type": "uint256"
        },
        {
          "internalType": "string",
          "name": "bridgeId",
          "type": "string"
        }
      ],
      "name": "bridgeBurn",
      "outputs": [],
      "stateMutability": "nonpayable",
      "type": "function"
    },
    {
      "inputs": [
        {
          "internalType": "address",
          "name": "to",
          "type": "address"
        },
        {
          "internalType": "uint256",
          "name": "amount",
          "type": "uint256"
        },
        {
          "internalType": "string",
          "name": "bridgeId",
          "type": "string"
        }
      ],
      "name": "bridgeMint",
      "outputs": [],
      "stateMutability": "nonpayable",
      "type": "function"
    },
    {
      "inputs": [],
      "name": "decimals",
      "outputs": [
        {
          "internalType": "uint8",
          "name": "",
          "type": "uint8"
        }
      ],
      "stateMutability": "view",
      "type": "function"
    },
    {
      "inputs": [
        {
          "internalType": "address",
          "name": "spender",
          "type": "address"
        },
        {
          "internalType": "uint256",
          "name": "subtractedValue",
          "type": "uint256"
        }
      ],
      "name": "decreaseAllowance",
      "outputs": [
        {
          "internalType": "bool",
          "name": "",
          "type": "bool"
        }
      ],
      "stateMutability": "nonpayable",
      "type": "function"
    },
    {
      "inputs": [
        {
          "internalType": "address",
          "name": "spender",
          "type": "address"
        },
        {
          "internalType": "uint256",
          "name": "addedValue",
          "type": "uint256"
        }
      ],
      "name": "increaseAllowance",
      "outputs": [
        {
          "internalType": "bool",
          "name": "",
          "type": "bool"
        }
      ],
      "stateMutability": "nonpayable",
      "type": "function"
    },
    {
      "inputs": [],
      "name": "name",
      "outputs": [
        {
          "internalType": "string",
          "name": "",
          "type": "string"
        }
      ],
      "stateMutability": "view",
      "type": "function"
    },
    {
      "inputs": [],
      "name": "owner",
      "outputs": [
        {
          "internalType": "address",
          "name": "",
          "type": "address"
        }
      ],
      "stateMutability": "view",
      "type": "function"
    },
    {
      "inputs": [],
      "name": "renounceOwnership",
      "outputs": [],
      "stateMutability": "nonpayable",
      "type": "function"
    },
    {
      "inputs": [],
      "name": "setOwnerless",
      "outputs": [],
      "stateMutability": "nonpayable",
      "type": "function"
    },
    {
      "inputs": [],
      "name": "symbol",
      "outputs": [
        {
          "internalType": "string",
          "name": "",
          "type": "string"
        }
      ],
      "stateMutability": "view",
      "type": "function"
    },
    {
      "inputs": [],
      "name": "totalSupply",
      "outputs": [
        {
          "internalType": "uint256",
          "name": "",
          "type": "uint256"
        }
      ],
      "stateMutability": "view",
      "type": "function"
    },
    {
      "inputs": [
        {
          "internalType": "address",
          "name": "to",
          "type": "address"
        },
        {
          "internalType": "uint256",
          "name": "amount",
          "type": "uint256"
        }
      ],
      "name": "transfer",
      "outputs": [
        {
          "internalType": "bool",
          "name": "",
          "type": "bool"
        }
      ],
      "stateMutability": "nonpayable",
      "type": "function"
    },
    {
      "inputs": [
        {
          "internalType": "address",
          "name": "from",
          "type": "address"
        },
        {
          "internalType": "address",
          "name": "to",
          "type": "address"
        },
        {
          "internalType": "uint256",
          "name": "amount",
          "type": "uint256"
        }
      ],
      "name": "transferFrom",
      "outputs": [
        {
          "internalType": "bool",
          "name": "",
          "type": "bool"
        }
      ],
      "stateMutability": "nonpayable",
      "type": "function"
    },
    {
      "inputs": [
        {
          "internalType": "address",
          "name": "newOwner",
          "type": "address"
        }
      ],
      "name": "transferOwnership",
      "outputs": [],
      "stateMutability": "nonpayable",
      "type": "function"
    }
  ],
  "bytecode": "0x60806040523480156200001157600080fd5b5060405162001b0538038062001b05833981016040819052620000349162000272565b8282600362000044838262000373565b50600462000053828262000373565b505050620000706200006a6200008c60201b60201c565b62000090565b80156200008357620000833382620000e2565b50505062000467565b3390565b600580546001600160a01b038381166001600160a01b0319831681179093556040519116919082907f8be0079c531659141344cd1fd0a4f28419497f9722a3daafe3b4186f6b6457e090600090a35050565b6001600160a01b0382166200013d5760405162461bcd60e51b815260206004820152601f60248201527f45524332303a206d696e7420746f20746865207a65726f206164647265737300604482015260640160405180910390fd5b80600260008282546200015191906200043f565b90915550506001600160a01b038216600081815260208181526040808320805486019055518481527fddf252ad1be2c89b69c2b068fc378daa952ba7f163c4a11628f55a4df523b3ef910160405180910390a35050565b505050565b634e487b7160e01b600052604160045260246000fd5b600082601f830112620001d557600080fd5b81516001600160401b0380821115620001f257620001f2620001ad565b604051601f8301601f19908116603f011681019082821181831017156200021d576200021d620001ad565b816040528381526020925086838588010111156200023a57600080fd5b600091505b838210156200025e57858201830151818301840152908201906200023f565b600093810190920192909252949350505050565b6000806000606084860312156200028857600080fd5b83516001600160401b0380821115620002a057600080fd5b620002ae87838801620001c3565b94506020860151915080821115620002c557600080fd5b50620002d486828701620001c3565b925050604084015190509250925092565b600181811c90821680620002fa57607f821691505b6020821081036200031b57634e487b7160e01b600052602260045260246000fd5b50919050565b601f821115620001a857600081815260208120601f850160051c810160208610156200034a5750805b601f850160051c820191505b818110156200036b5782815560010162000356565b505050505050565b81516001600160401b038111156200038f576200038f620001ad565b620003a781620003a08454620002e5565b8462000321565b602080601f831160018114620003df5760008415620003c65750858301515b600019600386901b1c1916600185901b1785556200036b565b600085815260208120601f198616915b828110156200041057888601518255948401946001909101908401620003ef565b50858210156200042f5787850151600019600388901b60f8161c191681555b5050505050600190811b01905550565b808201808211156200046157634e487b7160e01b600052601160045260246000fd5b92915050565b61168e80620004776000396000f3fe608060405234801561001057600080fd5b50600436106101215760003560e01c806370a08231116100ad578063a55bc37e11610071578063a55bc37e14610245578063a9059cbb14610258578063dd62ed3e1461026b578063e8b9d93c1461027e578063f2fde38b1461029157600080fd5b806370a08231146101de578063715018a6146102075780638da5cb5b1461020f57806395d89b411461022a578063a457c2d71461023257600080fd5b806323b872dd116100f457806323b872dd14610183578063313ce56714610196578063344aed5f146101a557806339509351146101b857806367d74de2146101cb57600080fd5b806306fdde0314610126578063095ea7b31461014457806318160ddd146101675780631aa7a3d914610179575b600080fd5b61012e6102a4565b60405161013b919061120d565b60405180910390f35b610157610152366004611243565b610336565b604051901515815260200161013b565b6002545b60405190815260200161013b565b610181610350565b005b61015761019136600461126d565b61038b565b6040516012815260200161013b565b6101816101b33660046113ef565b6103af565b6101576101c6366004611243565b6105cf565b6101816101d93660046114d3565b6105f1565b61016b6101ec366004611520565b6001600160a01b031660009081526020819052604090205490565b6101816106c1565b6005546040516001600160a01b03909116815260200161013b565b61012e6106d3565b610157610240366004611243565b6106e2565b6101816102533660046113ef565b61075d565b610157610266366004611243565b610a12565b61016b61027936600461153b565b610a20565b61018161028c3660046114d3565b610a4b565b61018161029f366004611520565b610b7c565b6060600380546102b39061156e565b80601f01602080910402602001604051908101604052809291908181526020018280546102df9061156e565b801561032c5780601f106103015761010080835404028352916020019161032c565b820191906000526020600020905b81548152906001019060200180831161030f57829003601f168201915b5050505050905090565b600033610344818585610bf5565b60019150505b92915050565b610358610d1a565b6040517f2ba54d6a3cc9b09a35290d130bee17be374bd7785c0ed3299961362e1c3bddaf90600090a16103896106c1565b565b600033610399858285610d74565b6103a4858585610de8565b506001949350505050565b6103b7610d1a565b81518351146104065760405162461bcd60e51b8152602060048201526016602482015275082e4e4c2f2e640d8cadccee8d040dad2e6dac2e8c6d60531b60448201526064015b60405180910390fd5b60008351116104465760405162461bcd60e51b815260206004820152600c60248201526b456d7074792061727261797360a01b60448201526064016103fd565b60005b83518110156105c95760006001600160a01b031684828151811061046f5761046f6115a8565b60200260200101516001600160a01b0316036104cd5760405162461bcd60e51b815260206004820152601b60248201527f43616e6e6f74206d696e7420746f207a65726f2061646472657373000000000060448201526064016103fd565b60008382815181106104e1576104e16115a8565b6020026020010151116105065760405162461bcd60e51b81526004016103fd906115be565b61054284828151811061051b5761051b6115a8565b6020026020010151848381518110610535576105356115a8565b6020026020010151610f8c565b838181518110610554576105546115a8565b60200260200101516001600160a01b03167f53f34adc5274839ae8004dad53bf3b47baa078f68e80266e142092775593f3df848381518110610598576105986115a8565b6020026020010151846040516105af9291906115f5565b60405180910390a2806105c18161162c565b915050610449565b50505050565b6000336103448185856105e28383610a20565b6105ec9190611645565b610bf5565b6105f9610d1a565b6001600160a01b03831661064f5760405162461bcd60e51b815260206004820152601b60248201527f43616e6e6f74206d696e7420746f207a65726f2061646472657373000000000060448201526064016103fd565b6000821161066f5760405162461bcd60e51b81526004016103fd906115be565b6106798383610f8c565b826001600160a01b03167f53f34adc5274839ae8004dad53bf3b47baa078f68e80266e142092775593f3df83836040516106b49291906115f5565b60405180910390a2505050565b6106c9610d1a565b610389600061104b565b6060600480546102b39061156e565b600033816106f08286610a20565b9050838110156107505760405162461bcd60e51b815260206004820152602560248201527f45524332303a2064656372656173656420616c6c6f77616e63652062656c6f77604482015264207a65726f60d81b60648201526084016103fd565b6103a48286868403610bf5565b610765610d1a565b81518351146107af5760405162461bcd60e51b8152602060048201526016602482015275082e4e4c2f2e640d8cadccee8d040dad2e6dac2e8c6d60531b60448201526064016103fd565b60008351116107ef5760405162461bcd60e51b815260206004820152600c60248201526b456d7074792061727261797360a01b60448201526064016103fd565b60005b83518110156105c95760006001600160a01b0316848281518110610818576108186115a8565b60200260200101516001600160a01b0316036108765760405162461bcd60e51b815260206004820152601d60248201527f43616e6e6f74206275726e2066726f6d207a65726f206164647265737300000060448201526064016103fd565b600083828151811061088a5761088a6115a8565b6020026020010151116108af5760405162461bcd60e51b81526004016103fd906115be565b8281815181106108c1576108c16115a8565b60200260200101516109018583815181106108de576108de6115a8565b60200260200101516001600160a01b031660009081526020819052604090205490565b101561094f5760405162461bcd60e51b815260206004820152601c60248201527f496e73756666696369656e742062616c616e636520746f206275726e0000000060448201526064016103fd565b61098b848281518110610964576109646115a8565b602002602001015184838151811061097e5761097e6115a8565b602002602001015161109d565b83818151811061099d5761099d6115a8565b60200260200101516001600160a01b03167f35e2167161db5b6e560d143c51984d248beb108dc517fb4b51c4808cc44988118483815181106109e1576109e16115a8565b6020026020010151846040516109f89291906115f5565b60405180910390a280610a0a8161162c565b9150506107f2565b600033610344818585610de8565b6001600160a01b03918216600090815260016020908152604080832093909416825291909152205490565b610a53610d1a565b6001600160a01b038316610aa95760405162461bcd60e51b815260206004820152601d60248201527f43616e6e6f74206275726e2066726f6d207a65726f206164647265737300000060448201526064016103fd565b60008211610ac95760405162461bcd60e51b81526004016103fd906115be565b81610ae9846001600160a01b031660009081526020819052604090205490565b1015610b375760405162461bcd60e51b815260206004820152601c60248201527f496e73756666696369656e742062616c616e636520746f206275726e0000000060448201526064016103fd565b610b41838361109d565b826001600160a01b03167f35e2167161db5b6e560d143c51984d248beb108dc517fb4b51c4808cc449881183836040516106b49291906115f5565b610b84610d1a565b6001600160a01b038116610be95760405162461bcd60e51b815260206004820152602660248201527f4f776e61626c653a206e6577206f776e657220697320746865207a65726f206160448201526564647265737360d01b60648201526084016103fd565b610bf28161104b565b50565b6001600160a01b038316610c575760405162461bcd60e51b8152602060048201526024808201527f45524332303a20617070726f76652066726f6d20746865207a65726f206164646044820152637265737360e01b60648201526084016103fd565b6001600160a01b038216610cb85760405162461bcd60e51b815260206004820152602260248201527f45524332303a20617070726f766520746f20746865207a65726f206164647265604482015261737360f01b60648201526084016103fd565b6001600160a01b0383811660008181526001602090815260408083209487168084529482529182902085905590518481527f8c5be1e5ebec7d5bd14f71427d1e84f3dd0314c0f7b2291e5b200ac8c7c3b92591015b60405180910390a3505050565b6005546001600160a01b031633146103895760405162461bcd60e51b815260206004820181905260248201527f4f776e61626c653a2063616c6c6572206973206e6f7420746865206f776e657260448201526064016103fd565b6000610d808484610a20565b905060001981146105c95781811015610ddb5760405162461bcd60e51b815260206004820152601d60248201527f45524332303a20696e73756666696369656e7420616c6c6f77616e636500000060448201526064016103fd565b6105c98484848403610bf5565b6001600160a01b038316610e4c5760405162461bcd60e51b815260206004820152602560248201527f45524332303a207472616e736665722066726f6d20746865207a65726f206164604482015264647265737360d81b60648201526084016103fd565b6001600160a01b038216610eae5760405162461bcd60e51b815260206004820152602360248201527f45524332303a207472616e7366657220746f20746865207a65726f206164647260448201526265737360e81b60648201526084016103fd565b6001600160a01b03831660009081526020819052604090205481811015610f265760405162461bcd60e51b815260206004820152602660248201527f45524332303a207472616e7366657220616d6f756e7420657863656564732062604482015265616c616e636560d01b60648201526084016103fd565b6001600160a01b03848116600081815260208181526040808320878703905593871680835291849020805487019055925185815290927fddf252ad1be2c89b69c2b068fc378daa952ba7f163c4a11628f55a4df523b3ef910160405180910390a36105c9565b6001600160a01b038216610fe25760405162461bcd60e51b815260206004820152601f60248201527f45524332303a206d696e7420746f20746865207a65726f20616464726573730060448201526064016103fd565b8060026000828254610ff49190611645565b90915550506001600160a01b038216600081815260208181526040808320805486019055518481527fddf252ad1be2c89b69c2b068fc378daa952ba7f163c4a11628f55a4df523b3ef910160405180910390a35050565b600580546001600160a01b038381166001600160a01b0319831681179093556040519116919082907f8be0079c531659141344cd1fd0a4f28419497f9722a3daafe3b4186f6b6457e090600090a35050565b6001600160a01b0382166110fd5760405162461bcd60e51b815260206004820152602160248201527f45524332303a206275726e2066726f6d20746865207a65726f206164647265736044820152607360f81b60648201526084016103fd565b6001600160a01b038216600090815260208190526040902054818110156111715760405162461bcd60e51b815260206004820152602260248201527f45524332303a206275726e20616d6f756e7420657863656564732062616c616e604482015261636560f01b60648201526084016103fd565b6001600160a01b0383166000818152602081815260408083208686039055600280548790039055518581529192917fddf252ad1be2c89b69c2b068fc378daa952ba7f163c4a11628f55a4df523b3ef9101610d0d565b6000815180845260005b818110156111ed576020818501810151868301820152016111d1565b506000602082860101526020601f19601f83011685010191505092915050565b60208152600061122060208301846111c7565b9392505050565b80356001600160a01b038116811461123e57600080fd5b919050565b6000806040838503121561125657600080fd5b61125f83611227565b946020939093013593505050565b60008060006060848603121561128257600080fd5b61128b84611227565b925061129960208501611227565b9150604084013590509250925092565b634e487b7160e01b600052604160045260246000fd5b604051601f8201601f1916810167ffffffffffffffff811182821017156112e8576112e86112a9565b604052919050565b600067ffffffffffffffff82111561130a5761130a6112a9565b5060051b60200190565b600082601f83011261132557600080fd5b8135602061133a611335836112f0565b6112bf565b82815260059290921b8401810191818101908684111561135957600080fd5b8286015b84811015611374578035835291830191830161135d565b509695505050505050565b600082601f83011261139057600080fd5b813567ffffffffffffffff8111156113aa576113aa6112a9565b6113bd601f8201601f19166020016112bf565b8181528460208386010111156113d257600080fd5b816020850160208301376000918101602001919091529392505050565b60008060006060848603121561140457600080fd5b833567ffffffffffffffff8082111561141c57600080fd5b818601915086601f83011261143057600080fd5b81356020611440611335836112f0565b82815260059290921b8401810191818101908a84111561145f57600080fd5b948201945b838610156114845761147586611227565b82529482019490820190611464565b9750508701359250508082111561149a57600080fd5b6114a687838801611314565b935060408601359150808211156114bc57600080fd5b506114c98682870161137f565b9150509250925092565b6000806000606084860312156114e857600080fd5b6114f184611227565b925060208401359150604084013567ffffffffffffffff81111561151457600080fd5b6114c98682870161137f565b60006020828403121561153257600080fd5b61122082611227565b6000806040838503121561154e57600080fd5b61155783611227565b915061156560208401611227565b90509250929050565b600181811c9082168061158257607f821691505b6020821081036115a257634e487b7160e01b600052602260045260246000fd5b50919050565b634e487b7160e01b600052603260045260246000fd5b6020808252601d908201527f416d6f756e74206d7573742062652067726561746572207468616e2030000000604082015260600190565b82815260406020820152600061160e60408301846111c7565b949350505050565b634e487b7160e01b600052601160045260246000fd5b60006001820161163e5761163e611616565b5060010190565b8082018082111561034a5761034a61161656fea264697066735822122054bd40281264f6eb8e31352de27865076dace086d8dc63880127eab1fbe24c7a64736f6c63430008140033",
  "linkReferences": {},
  "deployedLinkReferences": {}
}