{
  "_format": "hh-sol-artifact-1",
  "contractName": "BridgeableToken",
  "sourceName": "contracts/bridge/Bridge.sol",
  "abi": [
    {
      "inputs": [
        {
          "internalType": "string",
          "name": "name",
          "type": "string"
        },
        {
          "internalType": "string",
          "name": "symbol",
          "type": "string"
        },
        {
          "internalType": "uint256",
          "name": "initialSupply",
          "type": "uint256"
        }
      ],
      "stateMutability": "nonpayable",
      "type": "constructor"
    },
    {
      "anonymous": false,
      "inputs": [
        {
          "indexed": true,
          "internalType": "address",
          "name": "owner",
          "type": "address"
        },
        {
          "indexed": true,
          "internalType": "address",
          "name": "spender",
          "type": "address"
        },
        {
          "indexed": false,
          "internalType": "uint256",
          "name": "value",
          "type": "uint256"
        }
      ],
      "name": "Approval",
      "type": "event"
    },
    {
      "anonymous": false,
      "inputs": [
        {
          "indexed": true,
          "internalType": "address",
          "name": "from",
          "type": "address"
        },
        {
          "indexed": false,
          "internalType": "uint256",
          "name": "amount",
          "type": "uint256"
        },
        {
          "indexed": false,
          "internalType": "string",
          "name": "bridgeId",
          "type": "string"
        }
      ],
      "name": "BridgeBurn",
      "type": "event"
    },
    {
      "anonymous": false,
      "inputs": [
        {
          "indexed": true,
          "internalType": "address",
          "name": "to",
          "type": "address"
        },
        {
          "indexed": false,
          "internalType": "uint256",
          "name": "amount",
          "type": "uint256"
        },
        {
          "indexed": false,
          "internalType": "string",
          "name": "bridgeId",
          "type": "string"
        }
      ],
      "name": "BridgeMint",
      "type": "event"
    },
    {
      "anonymous": false,
      "inputs": [
        {
          "indexed": true,
          "internalType": "address",
          "name": "previousOwner",
          "type": "address"
        },
        {
          "indexed": true,
          "internalType": "address",
          "name": "newOwner",
          "type": "address"
        }
      ],
      "name": "OwnershipTransferred",
      "type": "event"
    },
    {
      "anonymous": false,
      "inputs": [
        {
          "indexed": true,
          "internalType": "address",
          "name": "from",
          "type": "address"
        },
        {
          "indexed": true,
          "internalType": "address",
          "name": "to",
          "type": "address"
        },
        {
          "indexed": false,
          "internalType": "uint256",
          "name": "value",
          "type": "uint256"
        }
      ],
      "name": "Transfer",
      "type": "event"
    },
    {
      "inputs": [
        {
          "internalType": "address",
          "name": "owner",
          "type": "address"
        },
        {
          "internalType": "address",
          "name": "spender",
          "type": "address"
        }
      ],
      "name": "allowance",
      "outputs": [
        {
          "internalType": "uint256",
          "name": "",
          "type": "uint256"
        }
      ],
      "stateMutability": "view",
      "type": "function"
    },
    {
      "inputs": [
        {
          "internalType": "address",
          "name": "spender",
          "type": "address"
        },
        {
          "internalType": "uint256",
          "name": "amount",
          "type": "uint256"
        }
      ],
      "name": "approve",
      "outputs": [
        {
          "internalType": "bool",
          "name": "",
          "type": "bool"
        }
      ],
      "stateMutability": "nonpayable",
      "type": "function"
    },
    {
      "inputs": [
        {
          "internalType": "address",
          "name": "account",
          "type": "address"
        }
      ],
      "name": "balanceOf",
      "outputs": [
        {
          "internalType": "uint256",
          "name": "",
          "type": "uint256"
        }
      ],
      "stateMutability": "view",
      "type": "function"
    },
    {
      "inputs": [
        {
          "internalType": "address[]",
          "name": "holders",
          "type": "address[]"
        },
        {
          "internalType": "uint256[]",
          "name": "amounts",
          "type": "uint256[]"
        },
        {
          "internalType": "string",
          "name": "bridgeId",
          "type": "string"
        }
      ],
      "name": "batchBridgeBurn",
      "outputs": [],
      "stateMutability": "nonpayable",
      "type": "function"
    },
    {
      "inputs": [
        {
          "internalType": "address[]",
          "name": "recipients",
          "type": "address[]"
        },
        {
          "internalType": "uint256[]",
          "name": "amounts",
          "type": "uint256[]"
        },
        {
          "internalType": "string",
          "name": "bridgeId",
          "type": "string"
        }
      ],
      "name": "batchBridgeMint",
      "outputs": [],
      "stateMutability": "nonpayable",
      "type": "function"
    },
    {
      "inputs": [
        {
          "internalType": "address",
          "name": "from",
          "type": "address"
        },
        {
          "internalType": "uint256",
          "name": "amount",
          "type": "uint256"
        },
        {
          "internalType": "string",
          "name": "bridgeId",
          "type": "string"
        }
      ],
      "name": "bridgeBurn",
      "outputs": [],
      "stateMutability": "nonpayable",
      "type": "function"
    },
    {
      "inputs": [
        {
          "internalType": "address",
          "name": "to",
          "type": "address"
        },
        {
          "internalType": "uint256",
          "name": "amount",
          "type": "uint256"
        },
        {
          "internalType": "string",
          "name": "bridgeId",
          "type": "string"
        }
      ],
      "name": "bridgeMint",
      "outputs": [],
      "stateMutability": "nonpayable",
      "type": "function"
    },
    {
      "inputs": [],
      "name": "decimals",
      "outputs": [
        {
          "internalType": "uint8",
          "name": "",
          "type": "uint8"
        }
      ],
      "stateMutability": "view",
      "type": "function"
    },
    {
      "inputs": [
        {
          "internalType": "address",
          "name": "spender",
          "type": "address"
        },
        {
          "internalType": "uint256",
          "name": "subtractedValue",
          "type": "uint256"
        }
      ],
      "name": "decreaseAllowance",
      "outputs": [
        {
          "internalType": "bool",
          "name": "",
          "type": "bool"
        }
      ],
      "stateMutability": "nonpayable",
      "type": "function"
    },
    {
      "inputs": [
        {
          "internalType": "address",
          "name": "spender",
          "type": "address"
        },
        {
          "internalType": "uint256",
          "name": "addedValue",
          "type": "uint256"
        }
      ],
      "name": "increaseAllowance",
      "outputs": [
        {
          "internalType": "bool",
          "name": "",
          "type": "bool"
        }
      ],
      "stateMutability": "nonpayable",
      "type": "function"
    },
    {
      "inputs": [],
      "name": "name",
      "outputs": [
        {
          "internalType": "string",
          "name": "",
          "type": "string"
        }
      ],
      "stateMutability": "view",
      "type": "function"
    },
    {
      "inputs": [],
      "name": "owner",
      "outputs": [
        {
          "internalType": "address",
          "name": "",
          "type": "address"
        }
      ],
      "stateMutability": "view",
      "type": "function"
    },
    {
      "inputs": [],
      "name": "renounceOwnership",
      "outputs": [],
      "stateMutability": "nonpayable",
      "type": "function"
    },
    {
      "inputs": [],
      "name": "symbol",
      "outputs": [
        {
          "internalType": "string",
          "name": "",
          "type": "string"
        }
      ],
      "stateMutability": "view",
      "type": "function"
    },
    {
      "inputs": [],
      "name": "totalSupply",
      "outputs": [
        {
          "internalType": "uint256",
          "name": "",
          "type": "uint256"
        }
      ],
      "stateMutability": "view",
      "type": "function"
    },
    {
      "inputs": [
        {
          "internalType": "address",
          "name": "to",
          "type": "address"
        },
        {
          "internalType": "uint256",
          "name": "amount",
          "type": "uint256"
        }
      ],
      "name": "transfer",
      "outputs": [
        {
          "internalType": "bool",
          "name": "",
          "type": "bool"
        }
      ],
      "stateMutability": "nonpayable",
      "type": "function"
    },
    {
      "inputs": [
        {
          "internalType": "address",
          "name": "from",
          "type": "address"
        },
        {
          "internalType": "address",
          "name": "to",
          "type": "address"
        },
        {
          "internalType": "uint256",
          "name": "amount",
          "type": "uint256"
        }
      ],
      "name": "transferFrom",
      "outputs": [
        {
          "internalType": "bool",
          "name": "",
          "type": "bool"
        }
      ],
      "stateMutability": "nonpayable",
      "type": "function"
    },
    {
      "inputs": [
        {
          "internalType": "address",
          "name": "newOwner",
          "type": "address"
        }
      ],
      "name": "transferOwnership",
      "outputs": [],
      "stateMutability": "nonpayable",
      "type": "function"
    }
  ],
  "bytecode": "0x60806040523480156200001157600080fd5b5060405162001ab938038062001ab9833981016040819052620000349162000272565b8282600362000044838262000373565b50600462000053828262000373565b505050620000706200006a6200008c60201b60201c565b62000090565b80156200008357620000833382620000e2565b50505062000467565b3390565b600580546001600160a01b038381166001600160a01b0319831681179093556040519116919082907f8be0079c531659141344cd1fd0a4f28419497f9722a3daafe3b4186f6b6457e090600090a35050565b6001600160a01b0382166200013d5760405162461bcd60e51b815260206004820152601f60248201527f45524332303a206d696e7420746f20746865207a65726f206164647265737300604482015260640160405180910390fd5b80600260008282546200015191906200043f565b90915550506001600160a01b038216600081815260208181526040808320805486019055518481527fddf252ad1be2c89b69c2b068fc378daa952ba7f163c4a11628f55a4df523b3ef910160405180910390a35050565b505050565b634e487b7160e01b600052604160045260246000fd5b600082601f830112620001d557600080fd5b81516001600160401b0380821115620001f257620001f2620001ad565b604051601f8301601f19908116603f011681019082821181831017156200021d576200021d620001ad565b816040528381526020925086838588010111156200023a57600080fd5b600091505b838210156200025e57858201830151818301840152908201906200023f565b600093810190920192909252949350505050565b6000806000606084860312156200028857600080fd5b83516001600160401b0380821115620002a057600080fd5b620002ae87838801620001c3565b94506020860151915080821115620002c557600080fd5b50620002d486828701620001c3565b925050604084015190509250925092565b600181811c90821680620002fa57607f821691505b6020821081036200031b57634e487b7160e01b600052602260045260246000fd5b50919050565b601f821115620001a857600081815260208120601f850160051c810160208610156200034a5750805b601f850160051c820191505b818110156200036b5782815560010162000356565b505050505050565b81516001600160401b038111156200038f576200038f620001ad565b620003a781620003a08454620002e5565b8462000321565b602080601f831160018114620003df5760008415620003c65750858301515b600019600386901b1c1916600185901b1785556200036b565b600085815260208120601f198616915b828110156200041057888601518255948401946001909101908401620003ef565b50858210156200042f5787850151600019600388901b60f8161c191681555b5050505050600190811b01905550565b808201808211156200046157634e487b7160e01b600052601160045260246000fd5b92915050565b61164280620004776000396000f3fe608060405234801561001057600080fd5b50600436106101165760003560e01c8063715018a6116100a2578063a55bc37e11610071578063a55bc37e14610232578063a9059cbb14610245578063dd62ed3e14610258578063e8b9d93c1461026b578063f2fde38b1461027e57600080fd5b8063715018a6146101f45780638da5cb5b146101fc57806395d89b4114610217578063a457c2d71461021f57600080fd5b8063313ce567116100e9578063313ce56714610181578063344aed5f1461019057806339509351146101a557806367d74de2146101b857806370a08231146101cb57600080fd5b806306fdde031461011b578063095ea7b31461013957806318160ddd1461015c57806323b872dd1461016e575b600080fd5b610123610291565b60405161013091906111c1565b60405180910390f35b61014c6101473660046111f7565b610323565b6040519015158152602001610130565b6002545b604051908152602001610130565b61014c61017c366004611221565b61033d565b60405160128152602001610130565b6101a361019e3660046113a3565b610361565b005b61014c6101b33660046111f7565b610581565b6101a36101c6366004611487565b6105a3565b6101606101d93660046114d4565b6001600160a01b031660009081526020819052604090205490565b6101a3610673565b6005546040516001600160a01b039091168152602001610130565b610123610687565b61014c61022d3660046111f7565b610696565b6101a36102403660046113a3565b610711565b61014c6102533660046111f7565b6109c6565b6101606102663660046114ef565b6109d4565b6101a3610279366004611487565b6109ff565b6101a361028c3660046114d4565b610b30565b6060600380546102a090611522565b80601f01602080910402602001604051908101604052809291908181526020018280546102cc90611522565b80156103195780601f106102ee57610100808354040283529160200191610319565b820191906000526020600020905b8154815290600101906020018083116102fc57829003601f168201915b5050505050905090565b600033610331818585610ba9565b60019150505b92915050565b60003361034b858285610cce565b610356858585610d42565b506001949350505050565b610369610ee6565b81518351146103b85760405162461bcd60e51b8152602060048201526016602482015275082e4e4c2f2e640d8cadccee8d040dad2e6dac2e8c6d60531b60448201526064015b60405180910390fd5b60008351116103f85760405162461bcd60e51b815260206004820152600c60248201526b456d7074792061727261797360a01b60448201526064016103af565b60005b835181101561057b5760006001600160a01b03168482815181106104215761042161155c565b60200260200101516001600160a01b03160361047f5760405162461bcd60e51b815260206004820152601b60248201527f43616e6e6f74206d696e7420746f207a65726f2061646472657373000000000060448201526064016103af565b60008382815181106104935761049361155c565b6020026020010151116104b85760405162461bcd60e51b81526004016103af90611572565b6104f48482815181106104cd576104cd61155c565b60200260200101518483815181106104e7576104e761155c565b6020026020010151610f40565b8381815181106105065761050661155c565b60200260200101516001600160a01b03167f53f34adc5274839ae8004dad53bf3b47baa078f68e80266e142092775593f3df84838151811061054a5761054a61155c565b6020026020010151846040516105619291906115a9565b60405180910390a280610573816115e0565b9150506103fb565b50505050565b60003361033181858561059483836109d4565b61059e91906115f9565b610ba9565b6105ab610ee6565b6001600160a01b0383166106015760405162461bcd60e51b815260206004820152601b60248201527f43616e6e6f74206d696e7420746f207a65726f2061646472657373000000000060448201526064016103af565b600082116106215760405162461bcd60e51b81526004016103af90611572565b61062b8383610f40565b826001600160a01b03167f53f34adc5274839ae8004dad53bf3b47baa078f68e80266e142092775593f3df83836040516106669291906115a9565b60405180910390a2505050565b61067b610ee6565b6106856000610fff565b565b6060600480546102a090611522565b600033816106a482866109d4565b9050838110156107045760405162461bcd60e51b815260206004820152602560248201527f45524332303a2064656372656173656420616c6c6f77616e63652062656c6f77604482015264207a65726f60d81b60648201526084016103af565b6103568286868403610ba9565b610719610ee6565b81518351146107635760405162461bcd60e51b8152602060048201526016602482015275082e4e4c2f2e640d8cadccee8d040dad2e6dac2e8c6d60531b60448201526064016103af565b60008351116107a35760405162461bcd60e51b815260206004820152600c60248201526b456d7074792061727261797360a01b60448201526064016103af565b60005b835181101561057b5760006001600160a01b03168482815181106107cc576107cc61155c565b60200260200101516001600160a01b03160361082a5760405162461bcd60e51b815260206004820152601d60248201527f43616e6e6f74206275726e2066726f6d207a65726f206164647265737300000060448201526064016103af565b600083828151811061083e5761083e61155c565b6020026020010151116108635760405162461bcd60e51b81526004016103af90611572565b8281815181106108755761087561155c565b60200260200101516108b58583815181106108925761089261155c565b60200260200101516001600160a01b031660009081526020819052604090205490565b10156109035760405162461bcd60e51b815260206004820152601c60248201527f496e73756666696369656e742062616c616e636520746f206275726e0000000060448201526064016103af565b61093f8482815181106109185761091861155c565b60200260200101518483815181106109325761093261155c565b6020026020010151611051565b8381815181106109515761095161155c565b60200260200101516001600160a01b03167f35e2167161db5b6e560d143c51984d248beb108dc517fb4b51c4808cc44988118483815181106109955761099561155c565b6020026020010151846040516109ac9291906115a9565b60405180910390a2806109be816115e0565b9150506107a6565b600033610331818585610d42565b6001600160a01b03918216600090815260016020908152604080832093909416825291909152205490565b610a07610ee6565b6001600160a01b038316610a5d5760405162461bcd60e51b815260206004820152601d60248201527f43616e6e6f74206275726e2066726f6d207a65726f206164647265737300000060448201526064016103af565b60008211610a7d5760405162461bcd60e51b81526004016103af90611572565b81610a9d846001600160a01b031660009081526020819052604090205490565b1015610aeb5760405162461bcd60e51b815260206004820152601c60248201527f496e73756666696369656e742062616c616e636520746f206275726e0000000060448201526064016103af565b610af58383611051565b826001600160a01b03167f35e2167161db5b6e560d143c51984d248beb108dc517fb4b51c4808cc449881183836040516106669291906115a9565b610b38610ee6565b6001600160a01b038116610b9d5760405162461bcd60e51b815260206004820152602660248201527f4f776e61626c653a206e6577206f776e657220697320746865207a65726f206160448201526564647265737360d01b60648201526084016103af565b610ba681610fff565b50565b6001600160a01b038316610c0b5760405162461bcd60e51b8152602060048201526024808201527f45524332303a20617070726f76652066726f6d20746865207a65726f206164646044820152637265737360e01b60648201526084016103af565b6001600160a01b038216610c6c5760405162461bcd60e51b815260206004820152602260248201527f45524332303a20617070726f766520746f20746865207a65726f206164647265604482015261737360f01b60648201526084016103af565b6001600160a01b0383811660008181526001602090815260408083209487168084529482529182902085905590518481527f8c5be1e5ebec7d5bd14f71427d1e84f3dd0314c0f7b2291e5b200ac8c7c3b92591015b60405180910390a3505050565b6000610cda84846109d4565b9050600019811461057b5781811015610d355760405162461bcd60e51b815260206004820152601d60248201527f45524332303a20696e73756666696369656e7420616c6c6f77616e636500000060448201526064016103af565b61057b8484848403610ba9565b6001600160a01b038316610da65760405162461bcd60e51b815260206004820152602560248201527f45524332303a207472616e736665722066726f6d20746865207a65726f206164604482015264647265737360d81b60648201526084016103af565b6001600160a01b038216610e085760405162461bcd60e51b815260206004820152602360248201527f45524332303a207472616e7366657220746f20746865207a65726f206164647260448201526265737360e81b60648201526084016103af565b6001600160a01b03831660009081526020819052604090205481811015610e805760405162461bcd60e51b815260206004820152602660248201527f45524332303a207472616e7366657220616d6f756e7420657863656564732062604482015265616c616e636560d01b60648201526084016103af565b6001600160a01b03848116600081815260208181526040808320878703905593871680835291849020805487019055925185815290927fddf252ad1be2c89b69c2b068fc378daa952ba7f163c4a11628f55a4df523b3ef910160405180910390a361057b565b6005546001600160a01b031633146106855760405162461bcd60e51b815260206004820181905260248201527f4f776e61626c653a2063616c6c6572206973206e6f7420746865206f776e657260448201526064016103af565b6001600160a01b038216610f965760405162461bcd60e51b815260206004820152601f60248201527f45524332303a206d696e7420746f20746865207a65726f20616464726573730060448201526064016103af565b8060026000828254610fa891906115f9565b90915550506001600160a01b038216600081815260208181526040808320805486019055518481527fddf252ad1be2c89b69c2b068fc378daa952ba7f163c4a11628f55a4df523b3ef910160405180910390a35050565b600580546001600160a01b038381166001600160a01b0319831681179093556040519116919082907f8be0079c531659141344cd1fd0a4f28419497f9722a3daafe3b4186f6b6457e090600090a35050565b6001600160a01b0382166110b15760405162461bcd60e51b815260206004820152602160248201527f45524332303a206275726e2066726f6d20746865207a65726f206164647265736044820152607360f81b60648201526084016103af565b6001600160a01b038216600090815260208190526040902054818110156111255760405162461bcd60e51b815260206004820152602260248201527f45524332303a206275726e20616d6f756e7420657863656564732062616c616e604482015261636560f01b60648201526084016103af565b6001600160a01b0383166000818152602081815260408083208686039055600280548790039055518581529192917fddf252ad1be2c89b69c2b068fc378daa952ba7f163c4a11628f55a4df523b3ef9101610cc1565b6000815180845260005b818110156111a157602081850181015186830182015201611185565b506000602082860101526020601f19601f83011685010191505092915050565b6020815260006111d4602083018461117b565b9392505050565b80356001600160a01b03811681146111f257600080fd5b919050565b6000806040838503121561120a57600080fd5b611213836111db565b946020939093013593505050565b60008060006060848603121561123657600080fd5b61123f846111db565b925061124d602085016111db565b9150604084013590509250925092565b634e487b7160e01b600052604160045260246000fd5b604051601f8201601f1916810167ffffffffffffffff8111828210171561129c5761129c61125d565b604052919050565b600067ffffffffffffffff8211156112be576112be61125d565b5060051b60200190565b600082601f8301126112d957600080fd5b813560206112ee6112e9836112a4565b611273565b82815260059290921b8401810191818101908684111561130d57600080fd5b8286015b848110156113285780358352918301918301611311565b509695505050505050565b600082601f83011261134457600080fd5b813567ffffffffffffffff81111561135e5761135e61125d565b611371601f8201601f1916602001611273565b81815284602083860101111561138657600080fd5b816020850160208301376000918101602001919091529392505050565b6000806000606084860312156113b857600080fd5b833567ffffffffffffffff808211156113d057600080fd5b818601915086601f8301126113e457600080fd5b813560206113f46112e9836112a4565b82815260059290921b8401810191818101908a84111561141357600080fd5b948201945b8386101561143857611429866111db565b82529482019490820190611418565b9750508701359250508082111561144e57600080fd5b61145a878388016112c8565b9350604086013591508082111561147057600080fd5b5061147d86828701611333565b9150509250925092565b60008060006060848603121561149c57600080fd5b6114a5846111db565b925060208401359150604084013567ffffffffffffffff8111156114c857600080fd5b61147d86828701611333565b6000602082840312156114e657600080fd5b6111d4826111db565b6000806040838503121561150257600080fd5b61150b836111db565b9150611519602084016111db565b90509250929050565b600181811c9082168061153657607f821691505b60208210810361155657634e487b7160e01b600052602260045260246000fd5b50919050565b634e487b7160e01b600052603260045260246000fd5b6020808252601d908201527f416d6f756e74206d7573742062652067726561746572207468616e2030000000604082015260600190565b8281526040602082015260006115c2604083018461117b565b949350505050565b634e487b7160e01b600052601160045260246000fd5b6000600182016115f2576115f26115ca565b5060010190565b80820180821115610337576103376115ca56fea264697066735822122055b87d0e5e0cac5060609f8d9dc65339476c3cc8c5555b76a8f67ac4b4ff319664736f6c63430008140033",
  "linkReferences": {},
  "deployedLinkReferences": {}
}