{
  "_format": "hh-sol-artifact-1",
  "contractName": "Registry",
  "sourceName": "contracts/registry/Registry.sol",
  "abi": [
    {
      "anonymous": false,
      "inputs": [
        {
          "indexed": true,
          "internalType": "uint256",
          "name": "modId",
          "type": "uint256"
        },
        {
          "indexed": true,
          "internalType": "address",
          "name": "owner",
          "type": "address"
        },
        {
          "indexed": false,
          "internalType": "string",
          "name": "name",
          "type": "string"
        },
        {
          "indexed": false,
          "internalType": "string",
          "name": "data",
          "type": "string"
        }
      ],
      "name": "ModRegistered",
      "type": "event"
    },
    {
      "anonymous": false,
      "inputs": [
        {
          "indexed": true,
          "internalType": "uint256",
          "name": "modId",
          "type": "uint256"
        },
        {
          "indexed": true,
          "internalType": "address",
          "name": "owner",
          "type": "address"
        }
      ],
      "name": "ModRemoved",
      "type": "event"
    },
    {
      "anonymous": false,
      "inputs": [
        {
          "indexed": true,
          "internalType": "uint256",
          "name": "modId",
          "type": "uint256"
        },
        {
          "indexed": false,
          "internalType": "string",
          "name": "data",
          "type": "string"
        }
      ],
      "name": "ModUpdated",
      "type": "event"
    },
    {
      "anonymous": false,
      "inputs": [
        {
          "indexed": true,
          "internalType": "uint256",
          "name": "modId",
          "type": "uint256"
        },
        {
          "indexed": true,
          "internalType": "address",
          "name": "previousOwner",
          "type": "address"
        },
        {
          "indexed": true,
          "internalType": "address",
          "name": "newOwner",
          "type": "address"
        }
      ],
      "name": "OwnershipTransferred",
      "type": "event"
    },
    {
      "inputs": [
        {
          "internalType": "address",
          "name": "",
          "type": "address"
        },
        {
          "internalType": "string",
          "name": "",
          "type": "string"
        }
      ],
      "name": "creatorNameExists",
      "outputs": [
        {
          "internalType": "bool",
          "name": "",
          "type": "bool"
        }
      ],
      "stateMutability": "view",
      "type": "function"
    },
    {
      "inputs": [
        {
          "internalType": "uint256",
          "name": "id",
          "type": "uint256"
        }
      ],
      "name": "getMod",
      "outputs": [
        {
          "internalType": "address",
          "name": "owner",
          "type": "address"
        },
        {
          "internalType": "string",
          "name": "name",
          "type": "string"
        },
        {
          "internalType": "string",
          "name": "data",
          "type": "string"
        }
      ],
      "stateMutability": "view",
      "type": "function"
    },
    {
      "inputs": [
        {
          "internalType": "address",
          "name": "user",
          "type": "address"
        }
      ],
      "name": "getUserMods",
      "outputs": [
        {
          "internalType": "uint256[]",
          "name": "",
          "type": "uint256[]"
        }
      ],
      "stateMutability": "view",
      "type": "function"
    },
    {
      "inputs": [
        {
          "internalType": "address",
          "name": "creator",
          "type": "address"
        },
        {
          "internalType": "string",
          "name": "name",
          "type": "string"
        }
      ],
      "name": "isNameTaken",
      "outputs": [
        {
          "internalType": "bool",
          "name": "",
          "type": "bool"
        }
      ],
      "stateMutability": "view",
      "type": "function"
    },
    {
      "inputs": [
        {
          "internalType": "uint256",
          "name": "",
          "type": "uint256"
        }
      ],
      "name": "mods",
      "outputs": [
        {
          "internalType": "address",
          "name": "owner",
          "type": "address"
        },
        {
          "internalType": "string",
          "name": "name",
          "type": "string"
        },
        {
          "internalType": "string",
          "name": "data",
          "type": "string"
        }
      ],
      "stateMutability": "view",
      "type": "function"
    },
    {
      "inputs": [],
      "name": "nextModId",
      "outputs": [
        {
          "internalType": "uint256",
          "name": "",
          "type": "uint256"
        }
      ],
      "stateMutability": "view",
      "type": "function"
    },
    {
      "inputs": [
        {
          "internalType": "string",
          "name": "name",
          "type": "string"
        },
        {
          "internalType": "string",
          "name": "data",
          "type": "string"
        }
      ],
      "name": "registerMod",
      "outputs": [
        {
          "internalType": "uint256",
          "name": "",
          "type": "uint256"
        }
      ],
      "stateMutability": "nonpayable",
      "type": "function"
    },
    {
      "inputs": [
        {
          "internalType": "uint256",
          "name": "modId",
          "type": "uint256"
        }
      ],
      "name": "removeMod",
      "outputs": [],
      "stateMutability": "nonpayable",
      "type": "function"
    },
    {
      "inputs": [
        {
          "internalType": "uint256",
          "name": "modId",
          "type": "uint256"
        },
        {
          "internalType": "address",
          "name": "newOwner",
          "type": "address"
        }
      ],
      "name": "transferOwnership",
      "outputs": [],
      "stateMutability": "nonpayable",
      "type": "function"
    },
    {
      "inputs": [
        {
          "internalType": "uint256",
          "name": "modId",
          "type": "uint256"
        },
        {
          "internalType": "string",
          "name": "data",
          "type": "string"
        }
      ],
      "name": "updateMod",
      "outputs": [],
      "stateMutability": "nonpayable",
      "type": "function"
    },
    {
      "inputs": [
        {
          "internalType": "address",
          "name": "",
          "type": "address"
        },
        {
          "internalType": "uint256",
          "name": "",
          "type": "uint256"
        }
      ],
      "name": "userMods",
      "outputs": [
        {
          "internalType": "uint256",
          "name": "",
          "type": "uint256"
        }
      ],
      "stateMutability": "view",
      "type": "function"
    }
  ],
  "bytecode": "0x6080604052600160005534801561001557600080fd5b506114f9806100256000396000f3fe608060405234801561001057600080fd5b50600436106100a95760003560e01c80634a4da90a116100715780634a4da90a1461013e578063787983f21461018d578063c00af42c146101a0578063f066e67d146101b3578063f817290f146101bc578063fa03b4f0146101cf57600080fd5b806305037798146100ae5780630517f91b146100d45780630c58a972146100f657806329507f731461010b578063382fc2f11461011e575b600080fd5b6100c16100bc366004611002565b6101e2565b6040519081526020015b60405180910390f35b6100e76100e2366004611066565b61041f565b6040516100cb939291906110cf565b610109610104366004611066565b610572565b005b61010961011936600461112b565b61081b565b61013161012c366004611157565b610be5565b6040516100cb9190611179565b61017d61014c3660046111bd565b6003602090815260009283526040909220815180830184018051928152908401929093019190912091525460ff1681565b60405190151581526020016100cb565b61010961019b366004611201565b610c51565b6100e76101ae366004611066565b610d59565b6100c160005481565b6100c16101ca366004611232565b610e97565b61017d6101dd3660046111bd565b610ec8565b6000808351116102285760405162461bcd60e51b815260206004820152600c60248201526b496e76616c6964206e616d6560a01b60448201526064015b60405180910390fd5b60008251116102685760405162461bcd60e51b815260206004820152600c60248201526b496e76616c6964206461746160a01b604482015260640161021f565b3360009081526003602052604090819020905161028690859061125c565b9081526040519081900360200190205460ff16156102f25760405162461bcd60e51b8152602060048201526024808201527f4e616d6520616c72656164792065786973747320666f7220746869732063726560448201526330ba37b960e11b606482015260840161021f565b6000805481806103018361128e565b90915550604080516060810182523381526020808201888152828401889052600085815260019283905293909320825181546001600160a01b0319166001600160a01b0390911617815592519394509092908201906103609082611330565b50604082015160028201906103759082611330565b5050336000908152600360205260409081902090516001925061039990879061125c565b9081526040805160209281900383018120805460ff191694151594909417909355336000818152600284529182208054600181018255908352929091209091018390559082907ff63a870be48bfd1996f1fe5752ee6068c0ac890848f3a2b065a8677d62faec619061040e90889088906113f0565b60405180910390a390505b92915050565b60008181526001602081905260408220805491810180546060938493926001600160a01b039091169160028401908290610458906112a7565b80601f0160208091040260200160405190810160405280929190818152602001828054610484906112a7565b80156104d15780601f106104a6576101008083540402835291602001916104d1565b820191906000526020600020905b8154815290600101906020018083116104b457829003601f168201915b505050505091508080546104e4906112a7565b80601f0160208091040260200160405190810160405280929190818152602001828054610510906112a7565b801561055d5780601f106105325761010080835404028352916020019161055d565b820191906000526020600020905b81548152906001019060200180831161054057829003601f168201915b50505050509050935093509350509193909250565b60008181526001602052604090205481906001600160a01b031633146105aa5760405162461bcd60e51b815260040161021f9061141e565b60008281526001602052604090205482906001600160a01b03166105e05760405162461bcd60e51b815260040161021f90611445565b600083815260016020819052604082208054910180546001600160a01b03909216929161060c906112a7565b80601f0160208091040260200160405190810160405280929190818152602001828054610638906112a7565b80156106855780601f1061065a57610100808354040283529160200191610685565b820191906000526020600020905b81548152906001019060200180831161066857829003601f168201915b5050506001600160a01b03851660009081526002602052604081209394509150505b815481101561075b57868282815481106106c3576106c3611471565b90600052602060002001540361074957815482906106e390600190611487565b815481106106f3576106f3611471565b906000526020600020015482828154811061071057610710611471565b90600052602060002001819055508180548061072e5761072e61149a565b6001900381819060005260206000200160009055905561075b565b806107538161128e565b9150506106a7565b506001600160a01b038316600090815260036020526040808220905161078290859061125c565b9081526040805160209281900383019020805460ff191693151593909317909255600088815260019182905291822080546001600160a01b031916815591906107cd90830182610f09565b6107db600283016000610f09565b50506040516001600160a01b0384169087907f22b37d947c8d3d68737b9b66c123f35a16b91249e859c87d562113e75f9139e190600090a3505050505050565b60008281526001602052604090205482906001600160a01b031633146108535760405162461bcd60e51b815260040161021f9061141e565b60008381526001602052604090205483906001600160a01b03166108895760405162461bcd60e51b815260040161021f90611445565b6001600160a01b0383166108d35760405162461bcd60e51b815260206004820152601160248201527024b73b30b634b2103732bb9037bbb732b960791b604482015260640161021f565b600084815260016020819052604082208054910180546001600160a01b0390921692916108ff906112a7565b80601f016020809104026020016040519081016040528092919081815260200182805461092b906112a7565b80156109785780601f1061094d57610100808354040283529160200191610978565b820191906000526020600020905b81548152906001019060200180831161095b57829003601f168201915b5050506001600160a01b038816600090815260036020526040908190209051939450926109a8925084915061125c565b9081526040519081900360200190205460ff1615610a125760405162461bcd60e51b815260206004820152602160248201527f4e616d6520616c72656164792065786973747320666f72206e6577206f776e656044820152603960f91b606482015260840161021f565b6001600160a01b0382166000908152600260205260408120905b8154811015610ae05787828281548110610a4857610a48611471565b906000526020600020015403610ace5781548290610a6890600190611487565b81548110610a7857610a78611471565b9060005260206000200154828281548110610a9557610a95611471565b906000526020600020018190555081805480610ab357610ab361149a565b60019003818190600052602060002001600090559055610ae0565b80610ad88161128e565b915050610a2c565b506001600160a01b0383166000908152600360205260408082209051610b0790859061125c565b9081526040805160209281900383018120805460ff1916941515949094179093556001600160a01b038916600090815260039092529020600191610b4c90859061125c565b9081526040805160209281900383018120805460ff1916941515949094179093556001600160a01b03898116600081815260028552838120805460018181018355918352868320018e90558d825290945291832080546001600160a01b031916831790559092908616918a917f16b85f49bf01212961345d3016c9a531894accf62eb7680f2045d79185cc0ec09190a450505050505050565b6001600160a01b038116600090815260026020908152604091829020805483518184028101840190945280845260609392830182828015610c4557602002820191906000526020600020905b815481526020019060010190808311610c31575b50505050509050919050565b60008281526001602052604090205482906001600160a01b03163314610c895760405162461bcd60e51b815260040161021f9061141e565b60008381526001602052604090205483906001600160a01b0316610cbf5760405162461bcd60e51b815260040161021f90611445565b6000835111610cff5760405162461bcd60e51b815260206004820152600c60248201526b496e76616c6964206461746160a01b604482015260640161021f565b6000848152600160205260409020600201610d1a8482611330565b50837fff3c8530cfbe75a2a91a1d439eb73991bcaed776a409de2ea62444fd716bfced84604051610d4b91906114b0565b60405180910390a250505050565b6001602081905260009182526040909120805491810180546001600160a01b0390931692610d86906112a7565b80601f0160208091040260200160405190810160405280929190818152602001828054610db2906112a7565b8015610dff5780601f10610dd457610100808354040283529160200191610dff565b820191906000526020600020905b815481529060010190602001808311610de257829003601f168201915b505050505090806002018054610e14906112a7565b80601f0160208091040260200160405190810160405280929190818152602001828054610e40906112a7565b8015610e8d5780601f10610e6257610100808354040283529160200191610e8d565b820191906000526020600020905b815481529060010190602001808311610e7057829003601f168201915b5050505050905083565b60026020528160005260406000208181548110610eb357600080fd5b90600052602060002001600091509150505481565b6001600160a01b0382166000908152600360205260408082209051610eee90849061125c565b9081526040519081900360200190205460ff16905092915050565b508054610f15906112a7565b6000825580601f10610f25575050565b601f016020900490600052602060002090810190610f439190610f46565b50565b5b80821115610f5b5760008155600101610f47565b5090565b634e487b7160e01b600052604160045260246000fd5b600082601f830112610f8657600080fd5b813567ffffffffffffffff80821115610fa157610fa1610f5f565b604051601f8301601f19908116603f01168101908282118183101715610fc957610fc9610f5f565b81604052838152866020858801011115610fe257600080fd5b836020870160208301376000602085830101528094505050505092915050565b6000806040838503121561101557600080fd5b823567ffffffffffffffff8082111561102d57600080fd5b61103986838701610f75565b9350602085013591508082111561104f57600080fd5b5061105c85828601610f75565b9150509250929050565b60006020828403121561107857600080fd5b5035919050565b60005b8381101561109a578181015183820152602001611082565b50506000910152565b600081518084526110bb81602086016020860161107f565b601f01601f19169290920160200192915050565b6001600160a01b03841681526060602082018190526000906110f3908301856110a3565b828103604084015261110581856110a3565b9695505050505050565b80356001600160a01b038116811461112657600080fd5b919050565b6000806040838503121561113e57600080fd5b8235915061114e6020840161110f565b90509250929050565b60006020828403121561116957600080fd5b6111728261110f565b9392505050565b6020808252825182820181905260009190848201906040850190845b818110156111b157835183529284019291840191600101611195565b50909695505050505050565b600080604083850312156111d057600080fd5b6111d98361110f565b9150602083013567ffffffffffffffff8111156111f557600080fd5b61105c85828601610f75565b6000806040838503121561121457600080fd5b82359150602083013567ffffffffffffffff8111156111f557600080fd5b6000806040838503121561124557600080fd5b61124e8361110f565b946020939093013593505050565b6000825161126e81846020870161107f565b9190910192915050565b634e487b7160e01b600052601160045260246000fd5b6000600182016112a0576112a0611278565b5060010190565b600181811c908216806112bb57607f821691505b6020821081036112db57634e487b7160e01b600052602260045260246000fd5b50919050565b601f82111561132b57600081815260208120601f850160051c810160208610156113085750805b601f850160051c820191505b8181101561132757828155600101611314565b5050505b505050565b815167ffffffffffffffff81111561134a5761134a610f5f565b61135e8161135884546112a7565b846112e1565b602080601f831160018114611393576000841561137b5750858301515b600019600386901b1c1916600185901b178555611327565b600085815260208120601f198616915b828110156113c2578886015182559484019460019091019084016113a3565b50858210156113e05787850151600019600388901b60f8161c191681555b5050505050600190811b01905550565b60408152600061140360408301856110a3565b828103602084015261141581856110a3565b95945050505050565b6020808252600d908201526c2737ba1036b7b21037bbb732b960991b604082015260600190565b602080825260129082015271135bd908191bd95cc81b9bdd08195e1a5cdd60721b604082015260600190565b634e487b7160e01b600052603260045260246000fd5b8181038181111561041957610419611278565b634e487b7160e01b600052603160045260246000fd5b60208152600061117260208301846110a356fea2646970667358221220d1310fc33ff4d573364926cb936386f5f29c5bfac3f95b5264475a46c7a1c9cd64736f6c63430008140033",
  "linkReferences": {},
  "deployedLinkReferences": {}
}