{
  "_format": "hh-sol-artifact-1",
  "contractName": "Treasury",
  "sourceName": "contracts/treasury/Treasury.sol",
  "abi": [
    {
      "inputs": [
        {
          "internalType": "uint256",
          "name": "_ownerPercentage",
          "type": "uint256"
        },
        {
          "internalType": "address",
          "name": "_tokenGate",
          "type": "address"
        }
      ],
      "stateMutability": "nonpayable",
      "type": "constructor"
    },
    {
      "anonymous": false,
      "inputs": [],
      "name": "ContractSetOwnerless",
      "type": "event"
    },
    {
      "anonymous": false,
      "inputs": [
        {
          "indexed": true,
          "internalType": "address",
          "name": "token",
          "type": "address"
        }
      ],
      "name": "GovernanceTokenSet",
      "type": "event"
    },
    {
      "anonymous": false,
      "inputs": [
        {
          "indexed": false,
          "internalType": "uint256",
          "name": "newPercentage",
          "type": "uint256"
        }
      ],
      "name": "OwnerPercentageUpdated",
      "type": "event"
    },
    {
      "anonymous": false,
      "inputs": [
        {
          "indexed": true,
          "internalType": "address",
          "name": "token",
          "type": "address"
        },
        {
          "indexed": false,
          "internalType": "uint256",
          "name": "amount",
          "type": "uint256"
        }
      ],
      "name": "OwnerWithdrawn",
      "type": "event"
    },
    {
      "anonymous": false,
      "inputs": [
        {
          "indexed": true,
          "internalType": "address",
          "name": "previousOwner",
          "type": "address"
        },
        {
          "indexed": true,
          "internalType": "address",
          "name": "newOwner",
          "type": "address"
        }
      ],
      "name": "OwnershipTransferred",
      "type": "event"
    },
    {
      "anonymous": false,
      "inputs": [
        {
          "indexed": true,
          "internalType": "address",
          "name": "tokenGate",
          "type": "address"
        }
      ],
      "name": "TokenGateSet",
      "type": "event"
    },
    {
      "anonymous": false,
      "inputs": [
        {
          "indexed": true,
          "internalType": "address",
          "name": "funder",
          "type": "address"
        },
        {
          "indexed": true,
          "internalType": "address",
          "name": "token",
          "type": "address"
        },
        {
          "indexed": false,
          "internalType": "uint256",
          "name": "amount",
          "type": "uint256"
        }
      ],
      "name": "TreasuryFunded",
      "type": "event"
    },
    {
      "anonymous": false,
      "inputs": [
        {
          "indexed": true,
          "internalType": "address",
          "name": "holder",
          "type": "address"
        },
        {
          "indexed": true,
          "internalType": "address",
          "name": "token",
          "type": "address"
        },
        {
          "indexed": false,
          "internalType": "uint256",
          "name": "amount",
          "type": "uint256"
        },
        {
          "indexed": false,
          "internalType": "uint256",
          "name": "ownership",
          "type": "uint256"
        }
      ],
      "name": "Withdrawn",
      "type": "event"
    },
    {
      "inputs": [
        {
          "internalType": "address",
          "name": "",
          "type": "address"
        },
        {
          "internalType": "address",
          "name": "",
          "type": "address"
        }
      ],
      "name": "claimed",
      "outputs": [
        {
          "internalType": "uint256",
          "name": "",
          "type": "uint256"
        }
      ],
      "stateMutability": "view",
      "type": "function"
    },
    {
      "inputs": [
        {
          "internalType": "address",
          "name": "token",
          "type": "address"
        },
        {
          "internalType": "uint256",
          "name": "amount",
          "type": "uint256"
        }
      ],
      "name": "emergencyWithdraw",
      "outputs": [],
      "stateMutability": "nonpayable",
      "type": "function"
    },
    {
      "inputs": [
        {
          "internalType": "address",
          "name": "token",
          "type": "address"
        },
        {
          "internalType": "uint256",
          "name": "amount",
          "type": "uint256"
        }
      ],
      "name": "fundTreasury",
      "outputs": [],
      "stateMutability": "nonpayable",
      "type": "function"
    },
    {
      "inputs": [
        {
          "internalType": "address",
          "name": "holder",
          "type": "address"
        }
      ],
      "name": "getAllClaimableAmounts",
      "outputs": [
        {
          "internalType": "address[]",
          "name": "tokens",
          "type": "address[]"
        },
        {
          "internalType": "uint256[]",
          "name": "amounts",
          "type": "uint256[]"
        }
      ],
      "stateMutability": "view",
      "type": "function"
    },
    {
      "inputs": [
        {
          "internalType": "address",
          "name": "holder",
          "type": "address"
        },
        {
          "internalType": "address",
          "name": "token",
          "type": "address"
        }
      ],
      "name": "getClaimableAmount",
      "outputs": [
        {
          "internalType": "uint256",
          "name": "",
          "type": "uint256"
        }
      ],
      "stateMutability": "view",
      "type": "function"
    },
    {
      "inputs": [
        {
          "internalType": "address",
          "name": "holder",
          "type": "address"
        }
      ],
      "name": "getHolderInfo",
      "outputs": [
        {
          "internalType": "uint256",
          "name": "governanceBalance",
          "type": "uint256"
        },
        {
          "internalType": "uint256",
          "name": "ownershipPercentage",
          "type": "uint256"
        },
        {
          "internalType": "address[]",
          "name": "tokens",
          "type": "address[]"
        },
        {
          "internalType": "uint256[]",
          "name": "claimedAmounts",
          "type": "uint256[]"
        },
        {
          "internalType": "uint256[]",
          "name": "claimableAmounts",
          "type": "uint256[]"
        }
      ],
      "stateMutability": "view",
      "type": "function"
    },
    {
      "inputs": [
        {
          "internalType": "address",
          "name": "token",
          "type": "address"
        }
      ],
      "name": "getOwnerClaimableAmount",
      "outputs": [
        {
          "internalType": "uint256",
          "name": "",
          "type": "uint256"
        }
      ],
      "stateMutability": "view",
      "type": "function"
    },
    {
      "inputs": [],
      "name": "getTreasuryInfo",
      "outputs": [
        {
          "internalType": "address",
          "name": "govToken",
          "type": "address"
        },
        {
          "internalType": "address[]",
          "name": "tokens",
          "type": "address[]"
        },
        {
          "internalType": "uint256[]",
          "name": "balances",
          "type": "uint256[]"
        },
        {
          "internalType": "uint256[]",
          "name": "totalClaimedAmounts",
          "type": "uint256[]"
        },
        {
          "internalType": "uint256",
          "name": "ownerPct",
          "type": "uint256"
        }
      ],
      "stateMutability": "view",
      "type": "function"
    },
    {
      "inputs": [],
      "name": "getTreasuryTokens",
      "outputs": [
        {
          "internalType": "address[]",
          "name": "",
          "type": "address[]"
        }
      ],
      "stateMutability": "view",
      "type": "function"
    },
    {
      "inputs": [],
      "name": "governanceToken",
      "outputs": [
        {
          "internalType": "contract IERC20",
          "name": "",
          "type": "address"
        }
      ],
      "stateMutability": "view",
      "type": "function"
    },
    {
      "inputs": [],
      "name": "owner",
      "outputs": [
        {
          "internalType": "address",
          "name": "",
          "type": "address"
        }
      ],
      "stateMutability": "view",
      "type": "function"
    },
    {
      "inputs": [
        {
          "internalType": "address",
          "name": "",
          "type": "address"
        }
      ],
      "name": "ownerClaimed",
      "outputs": [
        {
          "internalType": "uint256",
          "name": "",
          "type": "uint256"
        }
      ],
      "stateMutability": "view",
      "type": "function"
    },
    {
      "inputs": [],
      "name": "ownerPercentage",
      "outputs": [
        {
          "internalType": "uint256",
          "name": "",
          "type": "uint256"
        }
      ],
      "stateMutability": "view",
      "type": "function"
    },
    {
      "inputs": [
        {
          "internalType": "address",
          "name": "token",
          "type": "address"
        }
      ],
      "name": "ownerWithdraw",
      "outputs": [],
      "stateMutability": "nonpayable",
      "type": "function"
    },
    {
      "inputs": [],
      "name": "renounceOwnership",
      "outputs": [],
      "stateMutability": "nonpayable",
      "type": "function"
    },
    {
      "inputs": [
        {
          "internalType": "address",
          "name": "_governanceToken",
          "type": "address"
        }
      ],
      "name": "setGovernanceToken",
      "outputs": [],
      "stateMutability": "nonpayable",
      "type": "function"
    },
    {
      "inputs": [
        {
          "internalType": "uint256",
          "name": "_percentage",
          "type": "uint256"
        }
      ],
      "name": "setOwnerPercentage",
      "outputs": [],
      "stateMutability": "nonpayable",
      "type": "function"
    },
    {
      "inputs": [],
      "name": "setOwnerless",
      "outputs": [],
      "stateMutability": "nonpayable",
      "type": "function"
    },
    {
      "inputs": [
        {
          "internalType": "address",
          "name": "_tokenGate",
          "type": "address"
        }
      ],
      "name": "setTokenGate",
      "outputs": [],
      "stateMutability": "nonpayable",
      "type": "function"
    },
    {
      "inputs": [],
      "name": "tokenGate",
      "outputs": [
        {
          "internalType": "contract TokenGate",
          "name": "",
          "type": "address"
        }
      ],
      "stateMutability": "view",
      "type": "function"
    },
    {
      "inputs": [
        {
          "internalType": "address",
          "name": "",
          "type": "address"
        }
      ],
      "name": "totalClaimed",
      "outputs": [
        {
          "internalType": "uint256",
          "name": "",
          "type": "uint256"
        }
      ],
      "stateMutability": "view",
      "type": "function"
    },
    {
      "inputs": [
        {
          "internalType": "address",
          "name": "newOwner",
          "type": "address"
        }
      ],
      "name": "transferOwnership",
      "outputs": [],
      "stateMutability": "nonpayable",
      "type": "function"
    },
    {
      "inputs": [],
      "name": "withdrawAll",
      "outputs": [],
      "stateMutability": "nonpayable",
      "type": "function"
    },
    {
      "inputs": [
        {
          "internalType": "address",
          "name": "token",
          "type": "address"
        }
      ],
      "name": "withdrawToken",
      "outputs": [],
      "stateMutability": "nonpayable",
      "type": "function"
    }
  ],
  "bytecode": "0x60806040523480156200001157600080fd5b506040516200240c3803806200240c833981016040819052620000349162000150565b60016000556200004433620000fe565b612710821115620000875760405162461bcd60e51b81526020600482015260086024820152674d6178203130302560c01b60448201526064015b60405180910390fd5b6001600160a01b038116620000d35760405162461bcd60e51b8152602060048201526011602482015270496e76616c696420546f6b656e4761746560781b60448201526064016200007e565b600691909155600380546001600160a01b0319166001600160a01b039092169190911790556200018f565b600180546001600160a01b038381166001600160a01b0319831681179093556040519116919082907f8be0079c531659141344cd1fd0a4f28419497f9722a3daafe3b4186f6b6457e090600090a35050565b600080604083850312156200016457600080fd5b825160208401519092506001600160a01b03811681146200018457600080fd5b809150509250929050565b61226d806200019f6000396000f3fe608060405234801561001057600080fd5b50600436106101585760003560e01c8063853828b6116100c3578063cd88a6a81161007c578063cd88a6a8146102ff578063ef5d9ae814610312578063f2fde38b14610332578063f857017014610345578063f96dae0a14610358578063f9bfaa7d1461036b57600080fd5b8063853828b614610294578063894760691461029c5780638da5cb5b146102af57806395ccea67146102c0578063bb7dbfe7146102d3578063c2939471146102e657600080fd5b806350008e4a1161011557806350008e4a146101f557806353d6c9b31461022057806354e4067a14610235578063715018a61461025957806374c4c8f714610261578063776850971461027457600080fd5b80630c9cbf0e1461015d5780631aa7a3d91461019b5780632e8cc5c6146101a5578063393b011c146101b85780633dae5c1c146101cb57806341da7555146101ec575b600080fd5b61018861016b366004611ddb565b600460209081526000928352604080842090915290825290205481565b6040519081526020015b60405180910390f35b6101a361037e565b005b6101886101b3366004611e14565b6103b9565b6101a36101c6366004611e38565b61056d565b6101de6101d9366004611e14565b6105ed565b604051610192929190611ec5565b61018860065481565b600354610208906001600160a01b031681565b6040516001600160a01b039091168152602001610192565b610228610717565b6040516101929190611eea565b610248610243366004611e14565b61078e565b604051610192959493929190611efd565b6101a3610ac0565b6101a361026f366004611e14565b610ad2565b610188610282366004611e14565b60076020526000908152604090205481565b6101a3610b6c565b6101a36102aa366004611e14565b610e58565b6001546001600160a01b0316610208565b6101a36102ce366004611f4e565b61108a565b6101886102e1366004611ddb565b6110bc565b6102ee6113ed565b604051610192959493929190611f7a565b6101a361030d366004611f4e565b611639565b610188610320366004611e14565b60056020526000908152604090205481565b6101a3610340366004611e14565b61176f565b6101a3610353366004611e14565b6117e5565b600254610208906001600160a01b031681565b6101a3610379366004611e14565b6118c6565b6103866119b6565b6040517f2ba54d6a3cc9b09a35290d130bee17be374bd7785c0ed3299961362e1c3bddaf90600090a16103b7610ac0565b565b60035460405163b5af090f60e01b81526001600160a01b038381166004830152600092169063b5af090f90602401602060405180830381865afa158015610404573d6000803e3d6000fd5b505050506040513d601f19601f820116820180604052508101906104289190611fd7565b61044d5760405162461bcd60e51b815260040161044490611ff9565b60405180910390fd5b6040516370a0823160e01b81523060048201526000906001600160a01b038416906370a0823190602401602060405180830381865afa158015610494573d6000803e3d6000fd5b505050506040513d601f19601f820116820180604052508101906104b89190612028565b6001600160a01b038416600090815260076020908152604080832054600590925282205492935090916104eb9084612057565b6104f59190612057565b905060006127106006548361050a919061206a565b6105149190612081565b6001600160a01b038616600090815260076020526040902054909150811161054157506000949350505050565b6001600160a01b03851660009081526007602052604090205461056490826120a3565b95945050505050565b6105756119b6565b6127108111156105b25760405162461bcd60e51b81526020600482015260086024820152674d6178203130302560c01b6044820152606401610444565b60068190556040518181527f148051bf12b8fbd47560c7ed877af4699139a1c4661bc184073929923e84632e9060200160405180910390a150565b606080600360009054906101000a90046001600160a01b03166001600160a01b031663273cbaa06040518163ffffffff1660e01b8152600401600060405180830381865afa158015610643573d6000803e3d6000fd5b505050506040513d6000823e601f3d908101601f1916820160405261066b91908101906120dc565b9150815167ffffffffffffffff811115610687576106876120b6565b6040519080825280602002602001820160405280156106b0578160200160208202803683370190505b50905060005b8251811015610711576106e2848483815181106106d5576106d5612195565b60200260200101516110bc565b8282815181106106f4576106f4612195565b602090810291909101015280610709816121ab565b9150506106b6565b50915091565b60035460408051630139e5d560e51b815290516060926001600160a01b03169163273cbaa09160048083019260009291908290030181865afa158015610761573d6000803e3d6000fd5b505050506040513d6000823e601f3d908101601f1916820160405261078991908101906120dc565b905090565b60025460009081906060908190819084906001600160a01b03166107b3576000610821565b6002546040516370a0823160e01b81526001600160a01b038981166004830152909116906370a0823190602401602060405180830381865afa1580156107fd573d6000803e3d6000fd5b505050506040513d601f19601f820116820180604052508101906108219190612028565b6002549091506000906001600160a01b031661083e5760006108b5565b600260009054906101000a90046001600160a01b03166001600160a01b03166318160ddd6040518163ffffffff1660e01b8152600401602060405180830381865afa158015610891573d6000803e3d6000fd5b505050506040513d601f19601f820116820180604052508101906108b59190612028565b905060008082116108c75760006108de565b816108d48461271061206a565b6108de9190612081565b9050600360009054906101000a90046001600160a01b03166001600160a01b031663273cbaa06040518163ffffffff1660e01b8152600401600060405180830381865afa158015610933573d6000803e3d6000fd5b505050506040513d6000823e601f3d908101601f1916820160405261095b91908101906120dc565b9550855167ffffffffffffffff811115610977576109776120b6565b6040519080825280602002602001820160405280156109a0578160200160208202803683370190505b509450855167ffffffffffffffff8111156109bd576109bd6120b6565b6040519080825280602002602001820160405280156109e6578160200160208202803683370190505b50935060005b8651811015610ab0576001600160a01b038a1660009081526004602052604081208851909190899084908110610a2457610a24612195565b60200260200101516001600160a01b03166001600160a01b0316815260200190815260200160002054868281518110610a5f57610a5f612195565b602002602001018181525050610a818a8883815181106106d5576106d5612195565b858281518110610a9357610a93612195565b602090810291909101015280610aa8816121ab565b9150506109ec565b5091989197509395509193509150565b610ac86119b6565b6103b76000611a10565b610ada6119b6565b6001600160a01b038116610b225760405162461bcd60e51b815260206004820152600f60248201526e496e76616c6964206164647265737360881b6044820152606401610444565b600380546001600160a01b0319166001600160a01b0383169081179091556040517f12f48c41a3477cac7d2e4a4abdf56047c29398906bda83ea030d0f5ec5d9558390600090a250565b610b74611a62565b60035460408051630139e5d560e51b815290516000926001600160a01b03169163273cbaa091600480830192869291908290030181865afa158015610bbd573d6000803e3d6000fd5b505050506040513d6000823e601f3d908101601f19168201604052610be591908101906120dc565b90506000815111610c305760405162461bcd60e51b81526020600482015260156024820152744e6f2077686974656c697374656420746f6b656e7360581b6044820152606401610444565b6002546040516370a0823160e01b81523360048201526000916001600160a01b0316906370a0823190602401602060405180830381865afa158015610c79573d6000803e3d6000fd5b505050506040513d601f19601f82011682018060405250810190610c9d9190612028565b90506000600260009054906101000a90046001600160a01b03166001600160a01b03166318160ddd6040518163ffffffff1660e01b8152600401602060405180830381865afa158015610cf4573d6000803e3d6000fd5b505050506040513d601f19601f82011682018060405250810190610d189190612028565b9050600081610d298461271061206a565b610d339190612081565b905060005b8451811015610e49576000858281518110610d5557610d55612195565b602002602001015190506000610d6b33836110bc565b90508015610e34573360009081526004602090815260408083206001600160a01b038616845290915281208054839290610da6908490612057565b90915550506001600160a01b03821660009081526005602052604081208054839290610dd3908490612057565b90915550610ded90506001600160a01b0383163383611abb565b60408051828152602081018690526001600160a01b0384169133917f91fb9d98b786c57d74c099ccd2beca1739e9f6a81fb49001ca465c4b7591bbe2910160405180910390a35b50508080610e41906121ab565b915050610d38565b50505050506103b76001600055565b610e60611a62565b6000610e6c33836110bc565b905060008111610eb15760405162461bcd60e51b815260206004820152601060248201526f4e6f7468696e6720746f20636c61696d60801b6044820152606401610444565b6002546040516370a0823160e01b81523360048201526000916001600160a01b0316906370a0823190602401602060405180830381865afa158015610efa573d6000803e3d6000fd5b505050506040513d601f19601f82011682018060405250810190610f1e9190612028565b90506000600260009054906101000a90046001600160a01b03166001600160a01b03166318160ddd6040518163ffffffff1660e01b8152600401602060405180830381865afa158015610f75573d6000803e3d6000fd5b505050506040513d601f19601f82011682018060405250810190610f999190612028565b9050600081610faa8461271061206a565b610fb49190612081565b3360009081526004602090815260408083206001600160a01b038a168452909152812080549293508692909190610fec908490612057565b90915550506001600160a01b03851660009081526005602052604081208054869290611019908490612057565b9091555061103390506001600160a01b0386163386611abb565b60408051858152602081018390526001600160a01b0387169133917f91fb9d98b786c57d74c099ccd2beca1739e9f6a81fb49001ca465c4b7591bbe2910160405180910390a3505050506110876001600055565b50565b6110926119b6565b6110b86110a76001546001600160a01b031690565b6001600160a01b0384169083611abb565b5050565b6002546000906001600160a01b03166111175760405162461bcd60e51b815260206004820152601860248201527f476f7665726e616e636520746f6b656e206e6f742073657400000000000000006044820152606401610444565b60035460405163b5af090f60e01b81526001600160a01b0384811660048301529091169063b5af090f90602401602060405180830381865afa158015611161573d6000803e3d6000fd5b505050506040513d601f19601f820116820180604052508101906111859190611fd7565b6111a15760405162461bcd60e51b815260040161044490611ff9565b600254604080516318160ddd60e01b815290516000926001600160a01b0316916318160ddd9160048083019260209291908290030181865afa1580156111eb573d6000803e3d6000fd5b505050506040513d601f19601f8201168201806040525081019061120f9190612028565b9050806000036112235760009150506113e7565b6002546040516370a0823160e01b81526001600160a01b03868116600483015260009216906370a0823190602401602060405180830381865afa15801561126e573d6000803e3d6000fd5b505050506040513d601f19601f820116820180604052508101906112929190612028565b9050806000036112a7576000925050506113e7565b6040516370a0823160e01b81523060048201526000906001600160a01b038616906370a0823190602401602060405180830381865afa1580156112ee573d6000803e3d6000fd5b505050506040513d601f19601f820116820180604052508101906113129190612028565b6001600160a01b038616600090815260076020908152604080832054600590925282205492935090916113459084612057565b61134f9190612057565b9050600061271060065461271061136691906120a3565b611370908461206a565b61137a9190612081565b9050600085611389868461206a565b6113939190612081565b6001600160a01b03808b166000908152600460209081526040808320938d16835292905220549091508082116113d35760009750505050505050506113e7565b6113dd81836120a3565b9750505050505050505b92915050565b600060608060606000600360009054906101000a90046001600160a01b03166001600160a01b031663273cbaa06040518163ffffffff1660e01b8152600401600060405180830381865afa158015611449573d6000803e3d6000fd5b505050506040513d6000823e601f3d908101601f1916820160405261147191908101906120dc565b9350835167ffffffffffffffff81111561148d5761148d6120b6565b6040519080825280602002602001820160405280156114b6578160200160208202803683370190505b509250835167ffffffffffffffff8111156114d3576114d36120b6565b6040519080825280602002602001820160405280156114fc578160200160208202803683370190505b50915060005b845181101561161d5784818151811061151d5761151d612195565b60209081029190910101516040516370a0823160e01b81523060048201526001600160a01b03909116906370a0823190602401602060405180830381865afa15801561156d573d6000803e3d6000fd5b505050506040513d601f19601f820116820180604052508101906115919190612028565b8482815181106115a3576115a3612195565b602002602001018181525050600560008683815181106115c5576115c5612195565b60200260200101516001600160a01b03166001600160a01b031681526020019081526020016000205483828151811061160057611600612195565b602090810291909101015280611615816121ab565b915050611502565b50506002546006546001600160a01b0390911694509091929394565b611641611a62565b60035460405163b5af090f60e01b81526001600160a01b0384811660048301529091169063b5af090f90602401602060405180830381865afa15801561168b573d6000803e3d6000fd5b505050506040513d601f19601f820116820180604052508101906116af9190611fd7565b6116cb5760405162461bcd60e51b815260040161044490611ff9565b600081116117105760405162461bcd60e51b81526020600482015260126024820152710416d6f756e74206d757374206265203e20360741b6044820152606401610444565b6117256001600160a01b038316333084611b23565b6040518181526001600160a01b0383169033907f4cf1ee5253a261e0dbca16e4332e8edef92787b48c1cbb3e905e1b2ebbebc6329060200160405180910390a36110b86001600055565b6117776119b6565b6001600160a01b0381166117dc5760405162461bcd60e51b815260206004820152602660248201527f4f776e61626c653a206e6577206f776e657220697320746865207a65726f206160448201526564647265737360d01b6064820152608401610444565b61108781611a10565b6117ed6119b6565b6002546001600160a01b0316156118345760405162461bcd60e51b815260206004820152600b60248201526a105b1c9958591e481cd95d60aa1b6044820152606401610444565b6001600160a01b03811661187c5760405162461bcd60e51b815260206004820152600f60248201526e496e76616c6964206164647265737360881b6044820152606401610444565b600280546001600160a01b0319166001600160a01b0383169081179091556040517f3ba24b3c4ab2560aa8c371227cd2ce1851c3c62c25b749c681fa8bc6402c3c0790600090a250565b6118ce6119b6565b6118d6611a62565b60006118e1826103b9565b9050600081116119265760405162461bcd60e51b815260206004820152601060248201526f4e6f7468696e6720746f20636c61696d60801b6044820152606401610444565b6001600160a01b0382166000908152600760205260408120805483929061194e908490612057565b9091555050600154611968906001600160a01b03166110a7565b816001600160a01b03167f7f36cb738e7e0427042dc19669b1186fd858a03b8e699e089a4306ab78a160cb826040516119a391815260200190565b60405180910390a2506110876001600055565b6001546001600160a01b031633146103b75760405162461bcd60e51b815260206004820181905260248201527f4f776e61626c653a2063616c6c6572206973206e6f7420746865206f776e65726044820152606401610444565b600180546001600160a01b038381166001600160a01b0319831681179093556040519116919082907f8be0079c531659141344cd1fd0a4f28419497f9722a3daafe3b4186f6b6457e090600090a35050565b600260005403611ab45760405162461bcd60e51b815260206004820152601f60248201527f5265656e7472616e637947756172643a207265656e7472616e742063616c6c006044820152606401610444565b6002600055565b6040516001600160a01b038316602482015260448101829052611b1e90849063a9059cbb60e01b906064015b60408051601f198184030181529190526020810180516001600160e01b03166001600160e01b031990931692909217909152611b61565b505050565b6040516001600160a01b0380851660248301528316604482015260648101829052611b5b9085906323b872dd60e01b90608401611ae7565b50505050565b6000611bb6826040518060400160405280602081526020017f5361666545524332303a206c6f772d6c6576656c2063616c6c206661696c6564815250856001600160a01b0316611c369092919063ffffffff16565b9050805160001480611bd7575080806020019051810190611bd79190611fd7565b611b1e5760405162461bcd60e51b815260206004820152602a60248201527f5361666545524332303a204552433230206f7065726174696f6e20646964206e6044820152691bdd081cdd58d8d9595960b21b6064820152608401610444565b6060611c458484600085611c4d565b949350505050565b606082471015611cae5760405162461bcd60e51b815260206004820152602660248201527f416464726573733a20696e73756666696369656e742062616c616e636520666f6044820152651c8818d85b1b60d21b6064820152608401610444565b600080866001600160a01b03168587604051611cca91906121e8565b60006040518083038185875af1925050503d8060008114611d07576040519150601f19603f3d011682016040523d82523d6000602084013e611d0c565b606091505b5091509150611d1d87838387611d28565b979650505050505050565b60608315611d97578251600003611d90576001600160a01b0385163b611d905760405162461bcd60e51b815260206004820152601d60248201527f416464726573733a2063616c6c20746f206e6f6e2d636f6e74726163740000006044820152606401610444565b5081611c45565b611c458383815115611dac5781518083602001fd5b8060405162461bcd60e51b81526004016104449190612204565b6001600160a01b038116811461108757600080fd5b60008060408385031215611dee57600080fd5b8235611df981611dc6565b91506020830135611e0981611dc6565b809150509250929050565b600060208284031215611e2657600080fd5b8135611e3181611dc6565b9392505050565b600060208284031215611e4a57600080fd5b5035919050565b600081518084526020808501945080840160005b83811015611e8a5781516001600160a01b031687529582019590820190600101611e65565b509495945050505050565b600081518084526020808501945080840160005b83811015611e8a57815187529582019590820190600101611ea9565b604081526000611ed86040830185611e51565b82810360208401526105648185611e95565b602081526000611e316020830184611e51565b85815284602082015260a060408201526000611f1c60a0830186611e51565b8281036060840152611f2e8186611e95565b90508281036080840152611f428185611e95565b98975050505050505050565b60008060408385031215611f6157600080fd5b8235611f6c81611dc6565b946020939093013593505050565b6001600160a01b038616815260a060208201819052600090611f9e90830187611e51565b8281036040840152611fb08187611e95565b90508281036060840152611fc48186611e95565b9150508260808301529695505050505050565b600060208284031215611fe957600080fd5b81518015158114611e3157600080fd5b602080825260159082015274151bdad95b881b9bdd081dda1a5d195b1a5cdd1959605a1b604082015260600190565b60006020828403121561203a57600080fd5b5051919050565b634e487b7160e01b600052601160045260246000fd5b808201808211156113e7576113e7612041565b80820281158282048414176113e7576113e7612041565b60008261209e57634e487b7160e01b600052601260045260246000fd5b500490565b818103818111156113e7576113e7612041565b634e487b7160e01b600052604160045260246000fd5b80516120d781611dc6565b919050565b600060208083850312156120ef57600080fd5b825167ffffffffffffffff8082111561210757600080fd5b818501915085601f83011261211b57600080fd5b81518181111561212d5761212d6120b6565b8060051b604051601f19603f83011681018181108582111715612152576121526120b6565b60405291825284820192508381018501918883111561217057600080fd5b938501935b82851015611f4257612186856120cc565b84529385019392850192612175565b634e487b7160e01b600052603260045260246000fd5b6000600182016121bd576121bd612041565b5060010190565b60005b838110156121df5781810151838201526020016121c7565b50506000910152565b600082516121fa8184602087016121c4565b9190910192915050565b60208152600082518060208401526122238160408501602087016121c4565b601f01601f1916919091016040019291505056fea264697066735822122010611bc31fa9c96a47ec9160394cfe90703e0bd40e6a45e19783a3cb788400fa64736f6c63430008140033",
  "linkReferences": {},
  "deployedLinkReferences": {}
}