{
  "_format": "hh-sol-artifact-1",
  "contractName": "Treasury",
  "sourceName": "contracts/treasury/Treasury.sol",
  "abi": [
    {
      "inputs": [
        {
          "internalType": "uint256",
          "name": "_ownerPercentage",
          "type": "uint256"
        },
        {
          "internalType": "address",
          "name": "_tokenGate",
          "type": "address"
        }
      ],
      "stateMutability": "nonpayable",
      "type": "constructor"
    },
    {
      "anonymous": false,
      "inputs": [],
      "name": "ContractSetOwnerless",
      "type": "event"
    },
    {
      "anonymous": false,
      "inputs": [
        {
          "indexed": true,
          "internalType": "address",
          "name": "token",
          "type": "address"
        }
      ],
      "name": "GovernanceTokenSet",
      "type": "event"
    },
    {
      "anonymous": false,
      "inputs": [
        {
          "indexed": false,
          "internalType": "uint256",
          "name": "newPercentage",
          "type": "uint256"
        }
      ],
      "name": "OwnerPercentageUpdated",
      "type": "event"
    },
    {
      "anonymous": false,
      "inputs": [
        {
          "indexed": true,
          "internalType": "address",
          "name": "token",
          "type": "address"
        },
        {
          "indexed": false,
          "internalType": "uint256",
          "name": "amount",
          "type": "uint256"
        }
      ],
      "name": "OwnerWithdrawn",
      "type": "event"
    },
    {
      "anonymous": false,
      "inputs": [
        {
          "indexed": true,
          "internalType": "address",
          "name": "previousOwner",
          "type": "address"
        },
        {
          "indexed": true,
          "internalType": "address",
          "name": "newOwner",
          "type": "address"
        }
      ],
      "name": "OwnershipTransferred",
      "type": "event"
    },
    {
      "anonymous": false,
      "inputs": [
        {
          "indexed": true,
          "internalType": "address",
          "name": "tokenGate",
          "type": "address"
        }
      ],
      "name": "TokenGateSet",
      "type": "event"
    },
    {
      "anonymous": false,
      "inputs": [
        {
          "indexed": true,
          "internalType": "address",
          "name": "funder",
          "type": "address"
        },
        {
          "indexed": true,
          "internalType": "address",
          "name": "token",
          "type": "address"
        },
        {
          "indexed": false,
          "internalType": "uint256",
          "name": "amount",
          "type": "uint256"
        }
      ],
      "name": "TreasuryFunded",
      "type": "event"
    },
    {
      "anonymous": false,
      "inputs": [
        {
          "indexed": true,
          "internalType": "address",
          "name": "holder",
          "type": "address"
        },
        {
          "indexed": true,
          "internalType": "address",
          "name": "token",
          "type": "address"
        },
        {
          "indexed": false,
          "internalType": "uint256",
          "name": "amount",
          "type": "uint256"
        },
        {
          "indexed": false,
          "internalType": "uint256",
          "name": "ownership",
          "type": "uint256"
        }
      ],
      "name": "Withdrawn",
      "type": "event"
    },
    {
      "inputs": [
        {
          "internalType": "address",
          "name": "",
          "type": "address"
        },
        {
          "internalType": "address",
          "name": "",
          "type": "address"
        }
      ],
      "name": "claimed",
      "outputs": [
        {
          "internalType": "uint256",
          "name": "",
          "type": "uint256"
        }
      ],
      "stateMutability": "view",
      "type": "function"
    },
    {
      "inputs": [
        {
          "internalType": "address",
          "name": "token",
          "type": "address"
        },
        {
          "internalType": "uint256",
          "name": "amount",
          "type": "uint256"
        }
      ],
      "name": "emergencyWithdraw",
      "outputs": [],
      "stateMutability": "nonpayable",
      "type": "function"
    },
    {
      "inputs": [
        {
          "internalType": "address",
          "name": "token",
          "type": "address"
        },
        {
          "internalType": "uint256",
          "name": "amount",
          "type": "uint256"
        }
      ],
      "name": "fundTreasury",
      "outputs": [],
      "stateMutability": "nonpayable",
      "type": "function"
    },
    {
      "inputs": [
        {
          "internalType": "address",
          "name": "holder",
          "type": "address"
        }
      ],
      "name": "getAllClaimableAmounts",
      "outputs": [
        {
          "internalType": "address[]",
          "name": "tokens",
          "type": "address[]"
        },
        {
          "internalType": "uint256[]",
          "name": "amounts",
          "type": "uint256[]"
        }
      ],
      "stateMutability": "view",
      "type": "function"
    },
    {
      "inputs": [
        {
          "internalType": "address",
          "name": "holder",
          "type": "address"
        },
        {
          "internalType": "address",
          "name": "token",
          "type": "address"
        }
      ],
      "name": "getClaimableAmount",
      "outputs": [
        {
          "internalType": "uint256",
          "name": "",
          "type": "uint256"
        }
      ],
      "stateMutability": "view",
      "type": "function"
    },
    {
      "inputs": [
        {
          "internalType": "address",
          "name": "holder",
          "type": "address"
        }
      ],
      "name": "getHolderInfo",
      "outputs": [
        {
          "internalType": "uint256",
          "name": "governanceBalance",
          "type": "uint256"
        },
        {
          "internalType": "uint256",
          "name": "ownershipPercentage",
          "type": "uint256"
        },
        {
          "internalType": "address[]",
          "name": "tokens",
          "type": "address[]"
        },
        {
          "internalType": "uint256[]",
          "name": "claimedAmounts",
          "type": "uint256[]"
        },
        {
          "internalType": "uint256[]",
          "name": "claimableAmounts",
          "type": "uint256[]"
        }
      ],
      "stateMutability": "view",
      "type": "function"
    },
    {
      "inputs": [
        {
          "internalType": "address",
          "name": "token",
          "type": "address"
        }
      ],
      "name": "getOwnerClaimableAmount",
      "outputs": [
        {
          "internalType": "uint256",
          "name": "",
          "type": "uint256"
        }
      ],
      "stateMutability": "view",
      "type": "function"
    },
    {
      "inputs": [],
      "name": "getTreasuryInfo",
      "outputs": [
        {
          "internalType": "address",
          "name": "govToken",
          "type": "address"
        },
        {
          "internalType": "address[]",
          "name": "tokens",
          "type": "address[]"
        },
        {
          "internalType": "uint256[]",
          "name": "balances",
          "type": "uint256[]"
        },
        {
          "internalType": "uint256[]",
          "name": "totalClaimedAmounts",
          "type": "uint256[]"
        },
        {
          "internalType": "uint256",
          "name": "ownerPct",
          "type": "uint256"
        }
      ],
      "stateMutability": "view",
      "type": "function"
    },
    {
      "inputs": [],
      "name": "getTreasuryTokens",
      "outputs": [
        {
          "internalType": "address[]",
          "name": "",
          "type": "address[]"
        }
      ],
      "stateMutability": "view",
      "type": "function"
    },
    {
      "inputs": [],
      "name": "governanceToken",
      "outputs": [
        {
          "internalType": "contract IERC20",
          "name": "",
          "type": "address"
        }
      ],
      "stateMutability": "view",
      "type": "function"
    },
    {
      "inputs": [],
      "name": "owner",
      "outputs": [
        {
          "internalType": "address",
          "name": "",
          "type": "address"
        }
      ],
      "stateMutability": "view",
      "type": "function"
    },
    {
      "inputs": [
        {
          "internalType": "address",
          "name": "",
          "type": "address"
        }
      ],
      "name": "ownerClaimed",
      "outputs": [
        {
          "internalType": "uint256",
          "name": "",
          "type": "uint256"
        }
      ],
      "stateMutability": "view",
      "type": "function"
    },
    {
      "inputs": [],
      "name": "ownerPercentage",
      "outputs": [
        {
          "internalType": "uint256",
          "name": "",
          "type": "uint256"
        }
      ],
      "stateMutability": "view",
      "type": "function"
    },
    {
      "inputs": [
        {
          "internalType": "address",
          "name": "token",
          "type": "address"
        }
      ],
      "name": "ownerWithdraw",
      "outputs": [],
      "stateMutability": "nonpayable",
      "type": "function"
    },
    {
      "inputs": [],
      "name": "renounceOwnership",
      "outputs": [],
      "stateMutability": "nonpayable",
      "type": "function"
    },
    {
      "inputs": [
        {
          "internalType": "address",
          "name": "_governanceToken",
          "type": "address"
        }
      ],
      "name": "setGovernanceToken",
      "outputs": [],
      "stateMutability": "nonpayable",
      "type": "function"
    },
    {
      "inputs": [
        {
          "internalType": "uint256",
          "name": "_percentage",
          "type": "uint256"
        }
      ],
      "name": "setOwnerPercentage",
      "outputs": [],
      "stateMutability": "nonpayable",
      "type": "function"
    },
    {
      "inputs": [],
      "name": "setOwnerless",
      "outputs": [],
      "stateMutability": "nonpayable",
      "type": "function"
    },
    {
      "inputs": [
        {
          "internalType": "address",
          "name": "_tokenGate",
          "type": "address"
        }
      ],
      "name": "setTokenGate",
      "outputs": [],
      "stateMutability": "nonpayable",
      "type": "function"
    },
    {
      "inputs": [],
      "name": "tokenGate",
      "outputs": [
        {
          "internalType": "contract TokenGate",
          "name": "",
          "type": "address"
        }
      ],
      "stateMutability": "view",
      "type": "function"
    },
    {
      "inputs": [
        {
          "internalType": "address",
          "name": "",
          "type": "address"
        }
      ],
      "name": "totalClaimed",
      "outputs": [
        {
          "internalType": "uint256",
          "name": "",
          "type": "uint256"
        }
      ],
      "stateMutability": "view",
      "type": "function"
    },
    {
      "inputs": [
        {
          "internalType": "address",
          "name": "newOwner",
          "type": "address"
        }
      ],
      "name": "transferOwnership",
      "outputs": [],
      "stateMutability": "nonpayable",
      "type": "function"
    },
    {
      "inputs": [],
      "name": "withdrawAll",
      "outputs": [],
      "stateMutability": "nonpayable",
      "type": "function"
    },
    {
      "inputs": [
        {
          "internalType": "address",
          "name": "token",
          "type": "address"
        }
      ],
      "name": "withdrawToken",
      "outputs": [],
      "stateMutability": "nonpayable",
      "type": "function"
    }
  ],
  "bytecode": "0x60806040523480156200001157600080fd5b506040516200229138038062002291833981016040819052620000349162000150565b60016000556200004433620000fe565b612710821115620000875760405162461bcd60e51b81526020600482015260086024820152674d6178203130302560c01b60448201526064015b60405180910390fd5b6001600160a01b038116620000d35760405162461bcd60e51b8152602060048201526011602482015270496e76616c696420546f6b656e4761746560781b60448201526064016200007e565b600691909155600380546001600160a01b0319166001600160a01b039092169190911790556200018f565b600180546001600160a01b038381166001600160a01b0319831681179093556040519116919082907f8be0079c531659141344cd1fd0a4f28419497f9722a3daafe3b4186f6b6457e090600090a35050565b600080604083850312156200016457600080fd5b825160208401519092506001600160a01b03811681146200018457600080fd5b809150509250929050565b6120f2806200019f6000396000f3fe608060405234801561001057600080fd5b50600436106101585760003560e01c8063853828b6116100c3578063cd88a6a81161007c578063cd88a6a8146102ff578063ef5d9ae814610312578063f2fde38b14610332578063f857017014610345578063f96dae0a14610358578063f9bfaa7d1461036b57600080fd5b8063853828b614610294578063894760691461029c5780638da5cb5b146102af57806395ccea67146102c0578063bb7dbfe7146102d3578063c2939471146102e657600080fd5b806350008e4a1161011557806350008e4a146101f557806353d6c9b31461022057806354e4067a14610235578063715018a61461025957806374c4c8f714610261578063776850971461027457600080fd5b80630c9cbf0e1461015d5780631aa7a3d91461019b5780632e8cc5c6146101a5578063393b011c146101b85780633dae5c1c146101cb57806341da7555146101ec575b600080fd5b61018861016b366004611c57565b600460209081526000928352604080842090915290825290205481565b6040519081526020015b60405180910390f35b6101a361037e565b005b6101886101b3366004611c90565b6103b9565b6101a36101c6366004611cb4565b6104df565b6101de6101d9366004611c90565b61055f565b604051610192929190611d41565b61018860065481565b600354610208906001600160a01b031681565b6040516001600160a01b039091168152602001610192565b610228610689565b6040516101929190611d6f565b610248610243366004611c90565b610700565b604051610192959493929190611d82565b6101a3610a32565b6101a361026f366004611c90565b610a44565b610188610282366004611c90565b60076020526000908152604090205481565b6101a3610ade565b6101a36102aa366004611c90565b610dca565b6001546001600160a01b0316610208565b6101a36102ce366004611dd3565b610ffc565b6101886102e1366004611c57565b61102e565b6102ee6112d6565b604051610192959493929190611dff565b6101a361030d366004611dd3565b611522565b610188610320366004611c90565b60056020526000908152604090205481565b6101a3610340366004611c90565b611658565b6101a3610353366004611c90565b6116ce565b600254610208906001600160a01b031681565b6101a3610379366004611c90565b6117af565b61038661189f565b6040517f2ba54d6a3cc9b09a35290d130bee17be374bd7785c0ed3299961362e1c3bddaf90600090a16103b7610a32565b565b60035460405163b5af090f60e01b81526001600160a01b038381166004830152600092169063b5af090f90602401602060405180830381865afa158015610404573d6000803e3d6000fd5b505050506040513d601f19601f820116820180604052508101906104289190611e5c565b61044d5760405162461bcd60e51b815260040161044490611e7e565b60405180910390fd5b6040516370a0823160e01b81523060048201526000906001600160a01b038416906370a0823190602401602060405180830381865afa158015610494573d6000803e3d6000fd5b505050506040513d601f19601f820116820180604052508101906104b89190611ead565b90506000612710600654836104cd9190611edc565b6104d79190611ef3565b949350505050565b6104e761189f565b6127108111156105245760405162461bcd60e51b81526020600482015260086024820152674d6178203130302560c01b6044820152606401610444565b60068190556040518181527f148051bf12b8fbd47560c7ed877af4699139a1c4661bc184073929923e84632e9060200160405180910390a150565b606080600360009054906101000a90046001600160a01b03166001600160a01b031663273cbaa06040518163ffffffff1660e01b8152600401600060405180830381865afa1580156105b5573d6000803e3d6000fd5b505050506040513d6000823e601f3d908101601f191682016040526105dd9190810190611f3b565b9150815167ffffffffffffffff8111156105f9576105f9611f15565b604051908082528060200260200182016040528015610622578160200160208202803683370190505b50905060005b8251811015610683576106548484838151811061064757610647611ff4565b602002602001015161102e565b82828151811061066657610666611ff4565b60209081029190910101528061067b8161200a565b915050610628565b50915091565b60035460408051630139e5d560e51b815290516060926001600160a01b03169163273cbaa09160048083019260009291908290030181865afa1580156106d3573d6000803e3d6000fd5b505050506040513d6000823e601f3d908101601f191682016040526106fb9190810190611f3b565b905090565b60025460009081906060908190819084906001600160a01b0316610725576000610793565b6002546040516370a0823160e01b81526001600160a01b038981166004830152909116906370a0823190602401602060405180830381865afa15801561076f573d6000803e3d6000fd5b505050506040513d601f19601f820116820180604052508101906107939190611ead565b6002549091506000906001600160a01b03166107b0576000610827565b600260009054906101000a90046001600160a01b03166001600160a01b03166318160ddd6040518163ffffffff1660e01b8152600401602060405180830381865afa158015610803573d6000803e3d6000fd5b505050506040513d601f19601f820116820180604052508101906108279190611ead565b90506000808211610839576000610850565b8161084684612710611edc565b6108509190611ef3565b9050600360009054906101000a90046001600160a01b03166001600160a01b031663273cbaa06040518163ffffffff1660e01b8152600401600060405180830381865afa1580156108a5573d6000803e3d6000fd5b505050506040513d6000823e601f3d908101601f191682016040526108cd9190810190611f3b565b9550855167ffffffffffffffff8111156108e9576108e9611f15565b604051908082528060200260200182016040528015610912578160200160208202803683370190505b509450855167ffffffffffffffff81111561092f5761092f611f15565b604051908082528060200260200182016040528015610958578160200160208202803683370190505b50935060005b8651811015610a22576001600160a01b038a166000908152600460205260408120885190919089908490811061099657610996611ff4565b60200260200101516001600160a01b03166001600160a01b03168152602001908152602001600020548682815181106109d1576109d1611ff4565b6020026020010181815250506109f38a88838151811061064757610647611ff4565b858281518110610a0557610a05611ff4565b602090810291909101015280610a1a8161200a565b91505061095e565b5091989197509395509193509150565b610a3a61189f565b6103b760006118f9565b610a4c61189f565b6001600160a01b038116610a945760405162461bcd60e51b815260206004820152600f60248201526e496e76616c6964206164647265737360881b6044820152606401610444565b600380546001600160a01b0319166001600160a01b0383169081179091556040517f12f48c41a3477cac7d2e4a4abdf56047c29398906bda83ea030d0f5ec5d9558390600090a250565b610ae661194b565b60035460408051630139e5d560e51b815290516000926001600160a01b03169163273cbaa091600480830192869291908290030181865afa158015610b2f573d6000803e3d6000fd5b505050506040513d6000823e601f3d908101601f19168201604052610b579190810190611f3b565b90506000815111610ba25760405162461bcd60e51b81526020600482015260156024820152744e6f2077686974656c697374656420746f6b656e7360581b6044820152606401610444565b6002546040516370a0823160e01b81523360048201526000916001600160a01b0316906370a0823190602401602060405180830381865afa158015610beb573d6000803e3d6000fd5b505050506040513d601f19601f82011682018060405250810190610c0f9190611ead565b90506000600260009054906101000a90046001600160a01b03166001600160a01b03166318160ddd6040518163ffffffff1660e01b8152600401602060405180830381865afa158015610c66573d6000803e3d6000fd5b505050506040513d601f19601f82011682018060405250810190610c8a9190611ead565b9050600081610c9b84612710611edc565b610ca59190611ef3565b905060005b8451811015610dbb576000858281518110610cc757610cc7611ff4565b602002602001015190506000610cdd338361102e565b90508015610da6573360009081526004602090815260408083206001600160a01b038616845290915281208054839290610d18908490612023565b90915550506001600160a01b03821660009081526005602052604081208054839290610d45908490612023565b90915550610d5f90506001600160a01b03831633836119a4565b60408051828152602081018690526001600160a01b0384169133917f91fb9d98b786c57d74c099ccd2beca1739e9f6a81fb49001ca465c4b7591bbe2910160405180910390a35b50508080610db39061200a565b915050610caa565b50505050506103b76001600055565b610dd261194b565b6000610dde338361102e565b905060008111610e235760405162461bcd60e51b815260206004820152601060248201526f4e6f7468696e6720746f20636c61696d60801b6044820152606401610444565b6002546040516370a0823160e01b81523360048201526000916001600160a01b0316906370a0823190602401602060405180830381865afa158015610e6c573d6000803e3d6000fd5b505050506040513d601f19601f82011682018060405250810190610e909190611ead565b90506000600260009054906101000a90046001600160a01b03166001600160a01b03166318160ddd6040518163ffffffff1660e01b8152600401602060405180830381865afa158015610ee7573d6000803e3d6000fd5b505050506040513d601f19601f82011682018060405250810190610f0b9190611ead565b9050600081610f1c84612710611edc565b610f269190611ef3565b3360009081526004602090815260408083206001600160a01b038a168452909152812080549293508692909190610f5e908490612023565b90915550506001600160a01b03851660009081526005602052604081208054869290610f8b908490612023565b90915550610fa590506001600160a01b03861633866119a4565b60408051858152602081018390526001600160a01b0387169133917f91fb9d98b786c57d74c099ccd2beca1739e9f6a81fb49001ca465c4b7591bbe2910160405180910390a350505050610ff96001600055565b50565b61100461189f565b61102a6110196001546001600160a01b031690565b6001600160a01b03841690836119a4565b5050565b6002546000906001600160a01b03166110895760405162461bcd60e51b815260206004820152601860248201527f476f7665726e616e636520746f6b656e206e6f742073657400000000000000006044820152606401610444565b60035460405163b5af090f60e01b81526001600160a01b0384811660048301529091169063b5af090f90602401602060405180830381865afa1580156110d3573d6000803e3d6000fd5b505050506040513d601f19601f820116820180604052508101906110f79190611e5c565b6111135760405162461bcd60e51b815260040161044490611e7e565b600254604080516318160ddd60e01b815290516000926001600160a01b0316916318160ddd9160048083019260209291908290030181865afa15801561115d573d6000803e3d6000fd5b505050506040513d601f19601f820116820180604052508101906111819190611ead565b9050806000036111955760009150506112d0565b6002546040516370a0823160e01b81526001600160a01b03868116600483015260009216906370a0823190602401602060405180830381865afa1580156111e0573d6000803e3d6000fd5b505050506040513d601f19601f820116820180604052508101906112049190611ead565b905080600003611219576000925050506112d0565b6040516370a0823160e01b81523060048201526000906001600160a01b038616906370a0823190602401602060405180830381865afa158015611260573d6000803e3d6000fd5b505050506040513d601f19601f820116820180604052508101906112849190611ead565b9050600061271060065461271061129b9190612036565b6112a59084611edc565b6112af9190611ef3565b90506000846112be8584611edc565b6112c89190611ef3565b955050505050505b92915050565b600060608060606000600360009054906101000a90046001600160a01b03166001600160a01b031663273cbaa06040518163ffffffff1660e01b8152600401600060405180830381865afa158015611332573d6000803e3d6000fd5b505050506040513d6000823e601f3d908101601f1916820160405261135a9190810190611f3b565b9350835167ffffffffffffffff81111561137657611376611f15565b60405190808252806020026020018201604052801561139f578160200160208202803683370190505b509250835167ffffffffffffffff8111156113bc576113bc611f15565b6040519080825280602002602001820160405280156113e5578160200160208202803683370190505b50915060005b84518110156115065784818151811061140657611406611ff4565b60209081029190910101516040516370a0823160e01b81523060048201526001600160a01b03909116906370a0823190602401602060405180830381865afa158015611456573d6000803e3d6000fd5b505050506040513d601f19601f8201168201806040525081019061147a9190611ead565b84828151811061148c5761148c611ff4565b602002602001018181525050600560008683815181106114ae576114ae611ff4565b60200260200101516001600160a01b03166001600160a01b03168152602001908152602001600020548382815181106114e9576114e9611ff4565b6020908102919091010152806114fe8161200a565b9150506113eb565b50506002546006546001600160a01b0390911694509091929394565b61152a61194b565b60035460405163b5af090f60e01b81526001600160a01b0384811660048301529091169063b5af090f90602401602060405180830381865afa158015611574573d6000803e3d6000fd5b505050506040513d601f19601f820116820180604052508101906115989190611e5c565b6115b45760405162461bcd60e51b815260040161044490611e7e565b600081116115f95760405162461bcd60e51b81526020600482015260126024820152710416d6f756e74206d757374206265203e20360741b6044820152606401610444565b61160e6001600160a01b038316333084611a0c565b6040518181526001600160a01b0383169033907f4cf1ee5253a261e0dbca16e4332e8edef92787b48c1cbb3e905e1b2ebbebc6329060200160405180910390a361102a6001600055565b61166061189f565b6001600160a01b0381166116c55760405162461bcd60e51b815260206004820152602660248201527f4f776e61626c653a206e6577206f776e657220697320746865207a65726f206160448201526564647265737360d01b6064820152608401610444565b610ff9816118f9565b6116d661189f565b6002546001600160a01b03161561171d5760405162461bcd60e51b815260206004820152600b60248201526a105b1c9958591e481cd95d60aa1b6044820152606401610444565b6001600160a01b0381166117655760405162461bcd60e51b815260206004820152600f60248201526e496e76616c6964206164647265737360881b6044820152606401610444565b600280546001600160a01b0319166001600160a01b0383169081179091556040517f3ba24b3c4ab2560aa8c371227cd2ce1851c3c62c25b749c681fa8bc6402c3c0790600090a250565b6117b761189f565b6117bf61194b565b60006117ca826103b9565b90506000811161180f5760405162461bcd60e51b815260206004820152601060248201526f4e6f7468696e6720746f20636c61696d60801b6044820152606401610444565b6001600160a01b03821660009081526007602052604081208054839290611837908490612023565b9091555050600154611851906001600160a01b0316611019565b816001600160a01b03167f7f36cb738e7e0427042dc19669b1186fd858a03b8e699e089a4306ab78a160cb8260405161188c91815260200190565b60405180910390a250610ff96001600055565b6001546001600160a01b031633146103b75760405162461bcd60e51b815260206004820181905260248201527f4f776e61626c653a2063616c6c6572206973206e6f7420746865206f776e65726044820152606401610444565b600180546001600160a01b038381166001600160a01b0319831681179093556040519116919082907f8be0079c531659141344cd1fd0a4f28419497f9722a3daafe3b4186f6b6457e090600090a35050565b60026000540361199d5760405162461bcd60e51b815260206004820152601f60248201527f5265656e7472616e637947756172643a207265656e7472616e742063616c6c006044820152606401610444565b6002600055565b6040516001600160a01b038316602482015260448101829052611a0790849063a9059cbb60e01b906064015b60408051601f198184030181529190526020810180516001600160e01b03166001600160e01b031990931692909217909152611a4a565b505050565b6040516001600160a01b0380851660248301528316604482015260648101829052611a449085906323b872dd60e01b906084016119d0565b50505050565b6000611a9f826040518060400160405280602081526020017f5361666545524332303a206c6f772d6c6576656c2063616c6c206661696c6564815250856001600160a01b0316611b1f9092919063ffffffff16565b9050805160001480611ac0575080806020019051810190611ac09190611e5c565b611a075760405162461bcd60e51b815260206004820152602a60248201527f5361666545524332303a204552433230206f7065726174696f6e20646964206e6044820152691bdd081cdd58d8d9595960b21b6064820152608401610444565b60606104d7848460008585600080866001600160a01b03168587604051611b46919061206d565b60006040518083038185875af1925050503d8060008114611b83576040519150601f19603f3d011682016040523d82523d6000602084013e611b88565b606091505b5091509150611b9987838387611ba4565b979650505050505050565b60608315611c13578251600003611c0c576001600160a01b0385163b611c0c5760405162461bcd60e51b815260206004820152601d60248201527f416464726573733a2063616c6c20746f206e6f6e2d636f6e74726163740000006044820152606401610444565b50816104d7565b6104d78383815115611c285781518083602001fd5b8060405162461bcd60e51b81526004016104449190612089565b6001600160a01b0381168114610ff957600080fd5b60008060408385031215611c6a57600080fd5b8235611c7581611c42565b91506020830135611c8581611c42565b809150509250929050565b600060208284031215611ca257600080fd5b8135611cad81611c42565b9392505050565b600060208284031215611cc657600080fd5b5035919050565b600081518084526020808501945080840160005b83811015611d065781516001600160a01b031687529582019590820190600101611ce1565b509495945050505050565b600081518084526020808501945080840160005b83811015611d0657815187529582019590820190600101611d25565b604081526000611d546040830185611ccd565b8281036020840152611d668185611d11565b95945050505050565b602081526000611cad6020830184611ccd565b85815284602082015260a060408201526000611da160a0830186611ccd565b8281036060840152611db38186611d11565b90508281036080840152611dc78185611d11565b98975050505050505050565b60008060408385031215611de657600080fd5b8235611df181611c42565b946020939093013593505050565b6001600160a01b038616815260a060208201819052600090611e2390830187611ccd565b8281036040840152611e358187611d11565b90508281036060840152611e498186611d11565b9150508260808301529695505050505050565b600060208284031215611e6e57600080fd5b81518015158114611cad57600080fd5b602080825260159082015274151bdad95b881b9bdd081dda1a5d195b1a5cdd1959605a1b604082015260600190565b600060208284031215611ebf57600080fd5b5051919050565b634e487b7160e01b600052601160045260246000fd5b80820281158282048414176112d0576112d0611ec6565b600082611f1057634e487b7160e01b600052601260045260246000fd5b500490565b634e487b7160e01b600052604160045260246000fd5b8051611f3681611c42565b919050565b60006020808385031215611f4e57600080fd5b825167ffffffffffffffff80821115611f6657600080fd5b818501915085601f830112611f7a57600080fd5b815181811115611f8c57611f8c611f15565b8060051b604051601f19603f83011681018181108582111715611fb157611fb1611f15565b604052918252848201925083810185019188831115611fcf57600080fd5b938501935b82851015611dc757611fe585611f2b565b84529385019392850192611fd4565b634e487b7160e01b600052603260045260246000fd5b60006001820161201c5761201c611ec6565b5060010190565b808201808211156112d0576112d0611ec6565b818103818111156112d0576112d0611ec6565b60005b8381101561206457818101518382015260200161204c565b50506000910152565b6000825161207f818460208701612049565b9190910192915050565b60208152600082518060208401526120a8816040850160208701612049565b601f01601f1916919091016040019291505056fea26469706673582212207d0ed8628e548126551e0b28a94fa24f2c4af6c8326551bb54c823a2cd12481564736f6c63430008140033",
  "linkReferences": {},
  "deployedLinkReferences": {}
}