{
  "_format": "hh-sol-artifact-1",
  "contractName": "Treasury",
  "sourceName": "contracts/treasury/Treasury.sol",
  "abi": [
    {
      "inputs": [
        {
          "internalType": "uint256",
          "name": "_ownerPercentage",
          "type": "uint256"
        },
        {
          "internalType": "address",
          "name": "_tokenGate",
          "type": "address"
        }
      ],
      "stateMutability": "nonpayable",
      "type": "constructor"
    },
    {
      "anonymous": false,
      "inputs": [
        {
          "indexed": true,
          "internalType": "address",
          "name": "token",
          "type": "address"
        }
      ],
      "name": "GovernanceTokenSet",
      "type": "event"
    },
    {
      "anonymous": false,
      "inputs": [
        {
          "indexed": false,
          "internalType": "uint256",
          "name": "newPercentage",
          "type": "uint256"
        }
      ],
      "name": "OwnerPercentageUpdated",
      "type": "event"
    },
    {
      "anonymous": false,
      "inputs": [
        {
          "indexed": true,
          "internalType": "address",
          "name": "token",
          "type": "address"
        },
        {
          "indexed": false,
          "internalType": "uint256",
          "name": "amount",
          "type": "uint256"
        }
      ],
      "name": "OwnerWithdrawn",
      "type": "event"
    },
    {
      "anonymous": false,
      "inputs": [
        {
          "indexed": true,
          "internalType": "address",
          "name": "previousOwner",
          "type": "address"
        },
        {
          "indexed": true,
          "internalType": "address",
          "name": "newOwner",
          "type": "address"
        }
      ],
      "name": "OwnershipTransferred",
      "type": "event"
    },
    {
      "anonymous": false,
      "inputs": [
        {
          "indexed": true,
          "internalType": "address",
          "name": "tokenGate",
          "type": "address"
        }
      ],
      "name": "TokenGateSet",
      "type": "event"
    },
    {
      "anonymous": false,
      "inputs": [
        {
          "indexed": true,
          "internalType": "address",
          "name": "funder",
          "type": "address"
        },
        {
          "indexed": true,
          "internalType": "address",
          "name": "token",
          "type": "address"
        },
        {
          "indexed": false,
          "internalType": "uint256",
          "name": "amount",
          "type": "uint256"
        }
      ],
      "name": "TreasuryFunded",
      "type": "event"
    },
    {
      "anonymous": false,
      "inputs": [
        {
          "indexed": true,
          "internalType": "address",
          "name": "holder",
          "type": "address"
        },
        {
          "indexed": true,
          "internalType": "address",
          "name": "token",
          "type": "address"
        },
        {
          "indexed": false,
          "internalType": "uint256",
          "name": "amount",
          "type": "uint256"
        },
        {
          "indexed": false,
          "internalType": "uint256",
          "name": "ownership",
          "type": "uint256"
        }
      ],
      "name": "Withdrawn",
      "type": "event"
    },
    {
      "inputs": [
        {
          "internalType": "address",
          "name": "",
          "type": "address"
        },
        {
          "internalType": "address",
          "name": "",
          "type": "address"
        }
      ],
      "name": "claimed",
      "outputs": [
        {
          "internalType": "uint256",
          "name": "",
          "type": "uint256"
        }
      ],
      "stateMutability": "view",
      "type": "function"
    },
    {
      "inputs": [
        {
          "internalType": "address",
          "name": "token",
          "type": "address"
        },
        {
          "internalType": "uint256",
          "name": "amount",
          "type": "uint256"
        }
      ],
      "name": "emergencyWithdraw",
      "outputs": [],
      "stateMutability": "nonpayable",
      "type": "function"
    },
    {
      "inputs": [
        {
          "internalType": "address",
          "name": "token",
          "type": "address"
        },
        {
          "internalType": "uint256",
          "name": "amount",
          "type": "uint256"
        }
      ],
      "name": "fundTreasury",
      "outputs": [],
      "stateMutability": "nonpayable",
      "type": "function"
    },
    {
      "inputs": [
        {
          "internalType": "address",
          "name": "holder",
          "type": "address"
        }
      ],
      "name": "getAllClaimableAmounts",
      "outputs": [
        {
          "internalType": "address[]",
          "name": "tokens",
          "type": "address[]"
        },
        {
          "internalType": "uint256[]",
          "name": "amounts",
          "type": "uint256[]"
        }
      ],
      "stateMutability": "view",
      "type": "function"
    },
    {
      "inputs": [
        {
          "internalType": "address",
          "name": "holder",
          "type": "address"
        },
        {
          "internalType": "address",
          "name": "token",
          "type": "address"
        }
      ],
      "name": "getClaimableAmount",
      "outputs": [
        {
          "internalType": "uint256",
          "name": "",
          "type": "uint256"
        }
      ],
      "stateMutability": "view",
      "type": "function"
    },
    {
      "inputs": [
        {
          "internalType": "address",
          "name": "holder",
          "type": "address"
        }
      ],
      "name": "getHolderInfo",
      "outputs": [
        {
          "internalType": "uint256",
          "name": "governanceBalance",
          "type": "uint256"
        },
        {
          "internalType": "uint256",
          "name": "ownershipPercentage",
          "type": "uint256"
        },
        {
          "internalType": "address[]",
          "name": "tokens",
          "type": "address[]"
        },
        {
          "internalType": "uint256[]",
          "name": "claimedAmounts",
          "type": "uint256[]"
        },
        {
          "internalType": "uint256[]",
          "name": "claimableAmounts",
          "type": "uint256[]"
        }
      ],
      "stateMutability": "view",
      "type": "function"
    },
    {
      "inputs": [
        {
          "internalType": "address",
          "name": "token",
          "type": "address"
        }
      ],
      "name": "getOwnerClaimableAmount",
      "outputs": [
        {
          "internalType": "uint256",
          "name": "",
          "type": "uint256"
        }
      ],
      "stateMutability": "view",
      "type": "function"
    },
    {
      "inputs": [],
      "name": "getTreasuryInfo",
      "outputs": [
        {
          "internalType": "address",
          "name": "govToken",
          "type": "address"
        },
        {
          "internalType": "address[]",
          "name": "tokens",
          "type": "address[]"
        },
        {
          "internalType": "uint256[]",
          "name": "balances",
          "type": "uint256[]"
        },
        {
          "internalType": "uint256[]",
          "name": "totalClaimedAmounts",
          "type": "uint256[]"
        },
        {
          "internalType": "uint256",
          "name": "ownerPct",
          "type": "uint256"
        }
      ],
      "stateMutability": "view",
      "type": "function"
    },
    {
      "inputs": [],
      "name": "getTreasuryTokens",
      "outputs": [
        {
          "internalType": "address[]",
          "name": "",
          "type": "address[]"
        }
      ],
      "stateMutability": "view",
      "type": "function"
    },
    {
      "inputs": [],
      "name": "governanceToken",
      "outputs": [
        {
          "internalType": "contract IERC20",
          "name": "",
          "type": "address"
        }
      ],
      "stateMutability": "view",
      "type": "function"
    },
    {
      "inputs": [],
      "name": "owner",
      "outputs": [
        {
          "internalType": "address",
          "name": "",
          "type": "address"
        }
      ],
      "stateMutability": "view",
      "type": "function"
    },
    {
      "inputs": [
        {
          "internalType": "address",
          "name": "",
          "type": "address"
        }
      ],
      "name": "ownerClaimed",
      "outputs": [
        {
          "internalType": "uint256",
          "name": "",
          "type": "uint256"
        }
      ],
      "stateMutability": "view",
      "type": "function"
    },
    {
      "inputs": [],
      "name": "ownerPercentage",
      "outputs": [
        {
          "internalType": "uint256",
          "name": "",
          "type": "uint256"
        }
      ],
      "stateMutability": "view",
      "type": "function"
    },
    {
      "inputs": [
        {
          "internalType": "address",
          "name": "token",
          "type": "address"
        }
      ],
      "name": "ownerWithdraw",
      "outputs": [],
      "stateMutability": "nonpayable",
      "type": "function"
    },
    {
      "inputs": [],
      "name": "renounceOwnership",
      "outputs": [],
      "stateMutability": "nonpayable",
      "type": "function"
    },
    {
      "inputs": [
        {
          "internalType": "address",
          "name": "_governanceToken",
          "type": "address"
        }
      ],
      "name": "setGovernanceToken",
      "outputs": [],
      "stateMutability": "nonpayable",
      "type": "function"
    },
    {
      "inputs": [
        {
          "internalType": "uint256",
          "name": "_percentage",
          "type": "uint256"
        }
      ],
      "name": "setOwnerPercentage",
      "outputs": [],
      "stateMutability": "nonpayable",
      "type": "function"
    },
    {
      "inputs": [
        {
          "internalType": "address",
          "name": "_tokenGate",
          "type": "address"
        }
      ],
      "name": "setTokenGate",
      "outputs": [],
      "stateMutability": "nonpayable",
      "type": "function"
    },
    {
      "inputs": [],
      "name": "tokenGate",
      "outputs": [
        {
          "internalType": "contract TokenGate",
          "name": "",
          "type": "address"
        }
      ],
      "stateMutability": "view",
      "type": "function"
    },
    {
      "inputs": [
        {
          "internalType": "address",
          "name": "",
          "type": "address"
        }
      ],
      "name": "totalClaimed",
      "outputs": [
        {
          "internalType": "uint256",
          "name": "",
          "type": "uint256"
        }
      ],
      "stateMutability": "view",
      "type": "function"
    },
    {
      "inputs": [
        {
          "internalType": "address",
          "name": "newOwner",
          "type": "address"
        }
      ],
      "name": "transferOwnership",
      "outputs": [],
      "stateMutability": "nonpayable",
      "type": "function"
    },
    {
      "inputs": [],
      "name": "withdrawAll",
      "outputs": [],
      "stateMutability": "nonpayable",
      "type": "function"
    },
    {
      "inputs": [
        {
          "internalType": "address",
          "name": "token",
          "type": "address"
        }
      ],
      "name": "withdrawToken",
      "outputs": [],
      "stateMutability": "nonpayable",
      "type": "function"
    }
  ],
  "bytecode": "0x60806040523480156200001157600080fd5b50604051620023c0380380620023c0833981016040819052620000349162000150565b60016000556200004433620000fe565b612710821115620000875760405162461bcd60e51b81526020600482015260086024820152674d6178203130302560c01b60448201526064015b60405180910390fd5b6001600160a01b038116620000d35760405162461bcd60e51b8152602060048201526011602482015270496e76616c696420546f6b656e4761746560781b60448201526064016200007e565b600691909155600380546001600160a01b0319166001600160a01b039092169190911790556200018f565b600180546001600160a01b038381166001600160a01b0319831681179093556040519116919082907f8be0079c531659141344cd1fd0a4f28419497f9722a3daafe3b4186f6b6457e090600090a35050565b600080604083850312156200016457600080fd5b825160208401519092506001600160a01b03811681146200018457600080fd5b809150509250929050565b612221806200019f6000396000f3fe608060405234801561001057600080fd5b506004361061014d5760003560e01c8063853828b6116100c3578063cd88a6a81161007c578063cd88a6a8146102ec578063ef5d9ae8146102ff578063f2fde38b1461031f578063f857017014610332578063f96dae0a14610345578063f9bfaa7d1461035857600080fd5b8063853828b61461028157806389476069146102895780638da5cb5b1461029c57806395ccea67146102ad578063bb7dbfe7146102c0578063c2939471146102d357600080fd5b806350008e4a1161011557806350008e4a146101e257806353d6c9b31461020d57806354e4067a14610222578063715018a61461024657806374c4c8f71461024e578063776850971461026157600080fd5b80630c9cbf0e146101525780632e8cc5c614610190578063393b011c146101a35780633dae5c1c146101b857806341da7555146101d9575b600080fd5b61017d610160366004611d8f565b600460209081526000928352604080842090915290825290205481565b6040519081526020015b60405180910390f35b61017d61019e366004611dc8565b61036b565b6101b66101b1366004611dec565b61051f565b005b6101cb6101c6366004611dc8565b61059f565b604051610187929190611e79565b61017d60065481565b6003546101f5906001600160a01b031681565b6040516001600160a01b039091168152602001610187565b6102156106c9565b6040516101879190611e9e565b610235610230366004611dc8565b610740565b604051610187959493929190611eb1565b6101b6610a72565b6101b661025c366004611dc8565b610a86565b61017d61026f366004611dc8565b60076020526000908152604090205481565b6101b6610b20565b6101b6610297366004611dc8565b610e0c565b6001546001600160a01b03166101f5565b6101b66102bb366004611f02565b61103e565b61017d6102ce366004611d8f565b611070565b6102db6113a1565b604051610187959493929190611f2e565b6101b66102fa366004611f02565b6115ed565b61017d61030d366004611dc8565b60056020526000908152604090205481565b6101b661032d366004611dc8565b611723565b6101b6610340366004611dc8565b611799565b6002546101f5906001600160a01b031681565b6101b6610366366004611dc8565b61187a565b60035460405163b5af090f60e01b81526001600160a01b038381166004830152600092169063b5af090f90602401602060405180830381865afa1580156103b6573d6000803e3d6000fd5b505050506040513d601f19601f820116820180604052508101906103da9190611f8b565b6103ff5760405162461bcd60e51b81526004016103f690611fad565b60405180910390fd5b6040516370a0823160e01b81523060048201526000906001600160a01b038416906370a0823190602401602060405180830381865afa158015610446573d6000803e3d6000fd5b505050506040513d601f19601f8201168201806040525081019061046a9190611fdc565b6001600160a01b0384166000908152600760209081526040808320546005909252822054929350909161049d908461200b565b6104a7919061200b565b90506000612710600654836104bc919061201e565b6104c69190612035565b6001600160a01b03861660009081526007602052604090205490915081116104f357506000949350505050565b6001600160a01b0385166000908152600760205260409020546105169082612057565b95945050505050565b61052761196a565b6127108111156105645760405162461bcd60e51b81526020600482015260086024820152674d6178203130302560c01b60448201526064016103f6565b60068190556040518181527f148051bf12b8fbd47560c7ed877af4699139a1c4661bc184073929923e84632e9060200160405180910390a150565b606080600360009054906101000a90046001600160a01b03166001600160a01b031663273cbaa06040518163ffffffff1660e01b8152600401600060405180830381865afa1580156105f5573d6000803e3d6000fd5b505050506040513d6000823e601f3d908101601f1916820160405261061d9190810190612090565b9150815167ffffffffffffffff8111156106395761063961206a565b604051908082528060200260200182016040528015610662578160200160208202803683370190505b50905060005b82518110156106c3576106948484838151811061068757610687612149565b6020026020010151611070565b8282815181106106a6576106a6612149565b6020908102919091010152806106bb8161215f565b915050610668565b50915091565b60035460408051630139e5d560e51b815290516060926001600160a01b03169163273cbaa09160048083019260009291908290030181865afa158015610713573d6000803e3d6000fd5b505050506040513d6000823e601f3d908101601f1916820160405261073b9190810190612090565b905090565b60025460009081906060908190819084906001600160a01b03166107655760006107d3565b6002546040516370a0823160e01b81526001600160a01b038981166004830152909116906370a0823190602401602060405180830381865afa1580156107af573d6000803e3d6000fd5b505050506040513d601f19601f820116820180604052508101906107d39190611fdc565b6002549091506000906001600160a01b03166107f0576000610867565b600260009054906101000a90046001600160a01b03166001600160a01b03166318160ddd6040518163ffffffff1660e01b8152600401602060405180830381865afa158015610843573d6000803e3d6000fd5b505050506040513d601f19601f820116820180604052508101906108679190611fdc565b90506000808211610879576000610890565b816108868461271061201e565b6108909190612035565b9050600360009054906101000a90046001600160a01b03166001600160a01b031663273cbaa06040518163ffffffff1660e01b8152600401600060405180830381865afa1580156108e5573d6000803e3d6000fd5b505050506040513d6000823e601f3d908101601f1916820160405261090d9190810190612090565b9550855167ffffffffffffffff8111156109295761092961206a565b604051908082528060200260200182016040528015610952578160200160208202803683370190505b509450855167ffffffffffffffff81111561096f5761096f61206a565b604051908082528060200260200182016040528015610998578160200160208202803683370190505b50935060005b8651811015610a62576001600160a01b038a16600090815260046020526040812088519091908990849081106109d6576109d6612149565b60200260200101516001600160a01b03166001600160a01b0316815260200190815260200160002054868281518110610a1157610a11612149565b602002602001018181525050610a338a88838151811061068757610687612149565b858281518110610a4557610a45612149565b602090810291909101015280610a5a8161215f565b91505061099e565b5091989197509395509193509150565b610a7a61196a565b610a8460006119c4565b565b610a8e61196a565b6001600160a01b038116610ad65760405162461bcd60e51b815260206004820152600f60248201526e496e76616c6964206164647265737360881b60448201526064016103f6565b600380546001600160a01b0319166001600160a01b0383169081179091556040517f12f48c41a3477cac7d2e4a4abdf56047c29398906bda83ea030d0f5ec5d9558390600090a250565b610b28611a16565b60035460408051630139e5d560e51b815290516000926001600160a01b03169163273cbaa091600480830192869291908290030181865afa158015610b71573d6000803e3d6000fd5b505050506040513d6000823e601f3d908101601f19168201604052610b999190810190612090565b90506000815111610be45760405162461bcd60e51b81526020600482015260156024820152744e6f2077686974656c697374656420746f6b656e7360581b60448201526064016103f6565b6002546040516370a0823160e01b81523360048201526000916001600160a01b0316906370a0823190602401602060405180830381865afa158015610c2d573d6000803e3d6000fd5b505050506040513d601f19601f82011682018060405250810190610c519190611fdc565b90506000600260009054906101000a90046001600160a01b03166001600160a01b03166318160ddd6040518163ffffffff1660e01b8152600401602060405180830381865afa158015610ca8573d6000803e3d6000fd5b505050506040513d601f19601f82011682018060405250810190610ccc9190611fdc565b9050600081610cdd8461271061201e565b610ce79190612035565b905060005b8451811015610dfd576000858281518110610d0957610d09612149565b602002602001015190506000610d1f3383611070565b90508015610de8573360009081526004602090815260408083206001600160a01b038616845290915281208054839290610d5a90849061200b565b90915550506001600160a01b03821660009081526005602052604081208054839290610d8790849061200b565b90915550610da190506001600160a01b0383163383611a6f565b60408051828152602081018690526001600160a01b0384169133917f91fb9d98b786c57d74c099ccd2beca1739e9f6a81fb49001ca465c4b7591bbe2910160405180910390a35b50508080610df59061215f565b915050610cec565b5050505050610a846001600055565b610e14611a16565b6000610e203383611070565b905060008111610e655760405162461bcd60e51b815260206004820152601060248201526f4e6f7468696e6720746f20636c61696d60801b60448201526064016103f6565b6002546040516370a0823160e01b81523360048201526000916001600160a01b0316906370a0823190602401602060405180830381865afa158015610eae573d6000803e3d6000fd5b505050506040513d601f19601f82011682018060405250810190610ed29190611fdc565b90506000600260009054906101000a90046001600160a01b03166001600160a01b03166318160ddd6040518163ffffffff1660e01b8152600401602060405180830381865afa158015610f29573d6000803e3d6000fd5b505050506040513d601f19601f82011682018060405250810190610f4d9190611fdc565b9050600081610f5e8461271061201e565b610f689190612035565b3360009081526004602090815260408083206001600160a01b038a168452909152812080549293508692909190610fa090849061200b565b90915550506001600160a01b03851660009081526005602052604081208054869290610fcd90849061200b565b90915550610fe790506001600160a01b0386163386611a6f565b60408051858152602081018390526001600160a01b0387169133917f91fb9d98b786c57d74c099ccd2beca1739e9f6a81fb49001ca465c4b7591bbe2910160405180910390a35050505061103b6001600055565b50565b61104661196a565b61106c61105b6001546001600160a01b031690565b6001600160a01b0384169083611a6f565b5050565b6002546000906001600160a01b03166110cb5760405162461bcd60e51b815260206004820152601860248201527f476f7665726e616e636520746f6b656e206e6f7420736574000000000000000060448201526064016103f6565b60035460405163b5af090f60e01b81526001600160a01b0384811660048301529091169063b5af090f90602401602060405180830381865afa158015611115573d6000803e3d6000fd5b505050506040513d601f19601f820116820180604052508101906111399190611f8b565b6111555760405162461bcd60e51b81526004016103f690611fad565b600254604080516318160ddd60e01b815290516000926001600160a01b0316916318160ddd9160048083019260209291908290030181865afa15801561119f573d6000803e3d6000fd5b505050506040513d601f19601f820116820180604052508101906111c39190611fdc565b9050806000036111d757600091505061139b565b6002546040516370a0823160e01b81526001600160a01b03868116600483015260009216906370a0823190602401602060405180830381865afa158015611222573d6000803e3d6000fd5b505050506040513d601f19601f820116820180604052508101906112469190611fdc565b90508060000361125b5760009250505061139b565b6040516370a0823160e01b81523060048201526000906001600160a01b038616906370a0823190602401602060405180830381865afa1580156112a2573d6000803e3d6000fd5b505050506040513d601f19601f820116820180604052508101906112c69190611fdc565b6001600160a01b038616600090815260076020908152604080832054600590925282205492935090916112f9908461200b565b611303919061200b565b9050600061271060065461271061131a9190612057565b611324908461201e565b61132e9190612035565b905060008561133d868461201e565b6113479190612035565b6001600160a01b03808b166000908152600460209081526040808320938d168352929052205490915080821161138757600097505050505050505061139b565b6113918183612057565b9750505050505050505b92915050565b600060608060606000600360009054906101000a90046001600160a01b03166001600160a01b031663273cbaa06040518163ffffffff1660e01b8152600401600060405180830381865afa1580156113fd573d6000803e3d6000fd5b505050506040513d6000823e601f3d908101601f191682016040526114259190810190612090565b9350835167ffffffffffffffff8111156114415761144161206a565b60405190808252806020026020018201604052801561146a578160200160208202803683370190505b509250835167ffffffffffffffff8111156114875761148761206a565b6040519080825280602002602001820160405280156114b0578160200160208202803683370190505b50915060005b84518110156115d1578481815181106114d1576114d1612149565b60209081029190910101516040516370a0823160e01b81523060048201526001600160a01b03909116906370a0823190602401602060405180830381865afa158015611521573d6000803e3d6000fd5b505050506040513d601f19601f820116820180604052508101906115459190611fdc565b84828151811061155757611557612149565b6020026020010181815250506005600086838151811061157957611579612149565b60200260200101516001600160a01b03166001600160a01b03168152602001908152602001600020548382815181106115b4576115b4612149565b6020908102919091010152806115c98161215f565b9150506114b6565b50506002546006546001600160a01b0390911694509091929394565b6115f5611a16565b60035460405163b5af090f60e01b81526001600160a01b0384811660048301529091169063b5af090f90602401602060405180830381865afa15801561163f573d6000803e3d6000fd5b505050506040513d601f19601f820116820180604052508101906116639190611f8b565b61167f5760405162461bcd60e51b81526004016103f690611fad565b600081116116c45760405162461bcd60e51b81526020600482015260126024820152710416d6f756e74206d757374206265203e20360741b60448201526064016103f6565b6116d96001600160a01b038316333084611ad7565b6040518181526001600160a01b0383169033907f4cf1ee5253a261e0dbca16e4332e8edef92787b48c1cbb3e905e1b2ebbebc6329060200160405180910390a361106c6001600055565b61172b61196a565b6001600160a01b0381166117905760405162461bcd60e51b815260206004820152602660248201527f4f776e61626c653a206e6577206f776e657220697320746865207a65726f206160448201526564647265737360d01b60648201526084016103f6565b61103b816119c4565b6117a161196a565b6002546001600160a01b0316156117e85760405162461bcd60e51b815260206004820152600b60248201526a105b1c9958591e481cd95d60aa1b60448201526064016103f6565b6001600160a01b0381166118305760405162461bcd60e51b815260206004820152600f60248201526e496e76616c6964206164647265737360881b60448201526064016103f6565b600280546001600160a01b0319166001600160a01b0383169081179091556040517f3ba24b3c4ab2560aa8c371227cd2ce1851c3c62c25b749c681fa8bc6402c3c0790600090a250565b61188261196a565b61188a611a16565b60006118958261036b565b9050600081116118da5760405162461bcd60e51b815260206004820152601060248201526f4e6f7468696e6720746f20636c61696d60801b60448201526064016103f6565b6001600160a01b0382166000908152600760205260408120805483929061190290849061200b565b909155505060015461191c906001600160a01b031661105b565b816001600160a01b03167f7f36cb738e7e0427042dc19669b1186fd858a03b8e699e089a4306ab78a160cb8260405161195791815260200190565b60405180910390a25061103b6001600055565b6001546001600160a01b03163314610a845760405162461bcd60e51b815260206004820181905260248201527f4f776e61626c653a2063616c6c6572206973206e6f7420746865206f776e657260448201526064016103f6565b600180546001600160a01b038381166001600160a01b0319831681179093556040519116919082907f8be0079c531659141344cd1fd0a4f28419497f9722a3daafe3b4186f6b6457e090600090a35050565b600260005403611a685760405162461bcd60e51b815260206004820152601f60248201527f5265656e7472616e637947756172643a207265656e7472616e742063616c6c0060448201526064016103f6565b6002600055565b6040516001600160a01b038316602482015260448101829052611ad290849063a9059cbb60e01b906064015b60408051601f198184030181529190526020810180516001600160e01b03166001600160e01b031990931692909217909152611b15565b505050565b6040516001600160a01b0380851660248301528316604482015260648101829052611b0f9085906323b872dd60e01b90608401611a9b565b50505050565b6000611b6a826040518060400160405280602081526020017f5361666545524332303a206c6f772d6c6576656c2063616c6c206661696c6564815250856001600160a01b0316611bea9092919063ffffffff16565b9050805160001480611b8b575080806020019051810190611b8b9190611f8b565b611ad25760405162461bcd60e51b815260206004820152602a60248201527f5361666545524332303a204552433230206f7065726174696f6e20646964206e6044820152691bdd081cdd58d8d9595960b21b60648201526084016103f6565b6060611bf98484600085611c01565b949350505050565b606082471015611c625760405162461bcd60e51b815260206004820152602660248201527f416464726573733a20696e73756666696369656e742062616c616e636520666f6044820152651c8818d85b1b60d21b60648201526084016103f6565b600080866001600160a01b03168587604051611c7e919061219c565b60006040518083038185875af1925050503d8060008114611cbb576040519150601f19603f3d011682016040523d82523d6000602084013e611cc0565b606091505b5091509150611cd187838387611cdc565b979650505050505050565b60608315611d4b578251600003611d44576001600160a01b0385163b611d445760405162461bcd60e51b815260206004820152601d60248201527f416464726573733a2063616c6c20746f206e6f6e2d636f6e747261637400000060448201526064016103f6565b5081611bf9565b611bf98383815115611d605781518083602001fd5b8060405162461bcd60e51b81526004016103f691906121b8565b6001600160a01b038116811461103b57600080fd5b60008060408385031215611da257600080fd5b8235611dad81611d7a565b91506020830135611dbd81611d7a565b809150509250929050565b600060208284031215611dda57600080fd5b8135611de581611d7a565b9392505050565b600060208284031215611dfe57600080fd5b5035919050565b600081518084526020808501945080840160005b83811015611e3e5781516001600160a01b031687529582019590820190600101611e19565b509495945050505050565b600081518084526020808501945080840160005b83811015611e3e57815187529582019590820190600101611e5d565b604081526000611e8c6040830185611e05565b82810360208401526105168185611e49565b602081526000611de56020830184611e05565b85815284602082015260a060408201526000611ed060a0830186611e05565b8281036060840152611ee28186611e49565b90508281036080840152611ef68185611e49565b98975050505050505050565b60008060408385031215611f1557600080fd5b8235611f2081611d7a565b946020939093013593505050565b6001600160a01b038616815260a060208201819052600090611f5290830187611e05565b8281036040840152611f648187611e49565b90508281036060840152611f788186611e49565b9150508260808301529695505050505050565b600060208284031215611f9d57600080fd5b81518015158114611de557600080fd5b602080825260159082015274151bdad95b881b9bdd081dda1a5d195b1a5cdd1959605a1b604082015260600190565b600060208284031215611fee57600080fd5b5051919050565b634e487b7160e01b600052601160045260246000fd5b8082018082111561139b5761139b611ff5565b808202811582820484141761139b5761139b611ff5565b60008261205257634e487b7160e01b600052601260045260246000fd5b500490565b8181038181111561139b5761139b611ff5565b634e487b7160e01b600052604160045260246000fd5b805161208b81611d7a565b919050565b600060208083850312156120a357600080fd5b825167ffffffffffffffff808211156120bb57600080fd5b818501915085601f8301126120cf57600080fd5b8151818111156120e1576120e161206a565b8060051b604051601f19603f830116810181811085821117156121065761210661206a565b60405291825284820192508381018501918883111561212457600080fd5b938501935b82851015611ef65761213a85612080565b84529385019392850192612129565b634e487b7160e01b600052603260045260246000fd5b60006001820161217157612171611ff5565b5060010190565b60005b8381101561219357818101518382015260200161217b565b50506000910152565b600082516121ae818460208701612178565b9190910192915050565b60208152600082518060208401526121d7816040850160208701612178565b601f01601f1916919091016040019291505056fea2646970667358221220512add559ceb934db1a1ed49e4767df293ecd9115d351447da7e60b450e8c5d264736f6c63430008140033",
  "linkReferences": {},
  "deployedLinkReferences": {}
}