{
  "_format": "hh-sol-artifact-1",
  "contractName": "ManualPriceOracle",
  "sourceName": "contracts/oracles/ManualPriceOracle.sol",
  "abi": [
    {
      "anonymous": false,
      "inputs": [
        {
          "indexed": true,
          "internalType": "address",
          "name": "previousOwner",
          "type": "address"
        },
        {
          "indexed": true,
          "internalType": "address",
          "name": "newOwner",
          "type": "address"
        }
      ],
      "name": "OwnershipTransferred",
      "type": "event"
    },
    {
      "anonymous": false,
      "inputs": [
        {
          "indexed": true,
          "internalType": "address",
          "name": "token",
          "type": "address"
        }
      ],
      "name": "PriceRemoved",
      "type": "event"
    },
    {
      "anonymous": false,
      "inputs": [
        {
          "indexed": true,
          "internalType": "address",
          "name": "token",
          "type": "address"
        },
        {
          "indexed": false,
          "internalType": "uint256",
          "name": "price",
          "type": "uint256"
        },
        {
          "indexed": false,
          "internalType": "uint8",
          "name": "decimals",
          "type": "uint8"
        },
        {
          "indexed": false,
          "internalType": "uint256",
          "name": "timestamp",
          "type": "uint256"
        }
      ],
      "name": "PriceUpdated",
      "type": "event"
    },
    {
      "inputs": [
        {
          "internalType": "address[]",
          "name": "tokens",
          "type": "address[]"
        },
        {
          "internalType": "uint256[]",
          "name": "priceValues",
          "type": "uint256[]"
        },
        {
          "internalType": "uint8[]",
          "name": "decimalsArray",
          "type": "uint8[]"
        }
      ],
      "name": "batchSetPrices",
      "outputs": [],
      "stateMutability": "nonpayable",
      "type": "function"
    },
    {
      "inputs": [
        {
          "internalType": "address",
          "name": "token",
          "type": "address"
        }
      ],
      "name": "getPrice",
      "outputs": [
        {
          "internalType": "uint256",
          "name": "price",
          "type": "uint256"
        },
        {
          "internalType": "uint8",
          "name": "decimals",
          "type": "uint8"
        },
        {
          "internalType": "uint256",
          "name": "timestamp",
          "type": "uint256"
        }
      ],
      "stateMutability": "view",
      "type": "function"
    },
    {
      "inputs": [
        {
          "internalType": "address",
          "name": "token",
          "type": "address"
        }
      ],
      "name": "hasPriceFeed",
      "outputs": [
        {
          "internalType": "bool",
          "name": "exists",
          "type": "bool"
        }
      ],
      "stateMutability": "view",
      "type": "function"
    },
    {
      "inputs": [],
      "name": "owner",
      "outputs": [
        {
          "internalType": "address",
          "name": "",
          "type": "address"
        }
      ],
      "stateMutability": "view",
      "type": "function"
    },
    {
      "inputs": [
        {
          "internalType": "address",
          "name": "",
          "type": "address"
        }
      ],
      "name": "prices",
      "outputs": [
        {
          "internalType": "uint256",
          "name": "price",
          "type": "uint256"
        },
        {
          "internalType": "uint8",
          "name": "decimals",
          "type": "uint8"
        },
        {
          "internalType": "uint256",
          "name": "timestamp",
          "type": "uint256"
        },
        {
          "internalType": "bool",
          "name": "exists",
          "type": "bool"
        }
      ],
      "stateMutability": "view",
      "type": "function"
    },
    {
      "inputs": [
        {
          "internalType": "address",
          "name": "token",
          "type": "address"
        }
      ],
      "name": "removePrice",
      "outputs": [],
      "stateMutability": "nonpayable",
      "type": "function"
    },
    {
      "inputs": [],
      "name": "renounceOwnership",
      "outputs": [],
      "stateMutability": "nonpayable",
      "type": "function"
    },
    {
      "inputs": [
        {
          "internalType": "address",
          "name": "token",
          "type": "address"
        },
        {
          "internalType": "uint256",
          "name": "price",
          "type": "uint256"
        },
        {
          "internalType": "uint8",
          "name": "decimals",
          "type": "uint8"
        }
      ],
      "name": "setPrice",
      "outputs": [],
      "stateMutability": "nonpayable",
      "type": "function"
    },
    {
      "inputs": [
        {
          "internalType": "address",
          "name": "newOwner",
          "type": "address"
        }
      ],
      "name": "transferOwnership",
      "outputs": [],
      "stateMutability": "nonpayable",
      "type": "function"
    }
  ],
  "bytecode": "0x608060405234801561001057600080fd5b5061001a3361001f565b61006f565b600080546001600160a01b038381166001600160a01b0319831681178455604051919092169283917f8be0079c531659141344cd1fd0a4f28419497f9722a3daafe3b4186f6b6457e09190a35050565b610ab48061007e6000396000f3fe608060405234801561001057600080fd5b50600436106100935760003560e01c80638da5cb5b116100665780638da5cb5b14610129578063cfed246b14610144578063da605867146101a3578063f2fde38b146101b6578063f4961fa3146101c957600080fd5b80630b7983a21461009857806341976e09146100dc578063511204741461010c578063715018a614610121575b600080fd5b6100c76100a63660046108d1565b6001600160a01b031660009081526001602052604090206003015460ff1690565b60405190151581526020015b60405180910390f35b6100ef6100ea3660046108d1565b6101dc565b6040805193845260ff9092166020840152908201526060016100d3565b61011f61011a366004610904565b61028b565b005b61011f6103d4565b6000546040516001600160a01b0390911681526020016100d3565b61017f6101523660046108d1565b6001602081905260009182526040909120805491810154600282015460039092015460ff91821692911684565b6040805194855260ff909316602085015291830152151560608201526080016100d3565b61011f6101b136600461098c565b6103e8565b61011f6101c43660046108d1565b6106c7565b61011f6101d73660046108d1565b610740565b6001600160a01b03811660009081526001602081815260408084208151608081018352815481529381015460ff908116938501939093526002810154918401919091526003015416151560608201819052829182916102725760405162461bcd60e51b815260206004820152600d60248201526c141c9a58d9481b9bdd081cd95d609a1b60448201526064015b60405180910390fd5b8051602082015160409092015190969195509350915050565b61029361080b565b6001600160a01b0383166102d95760405162461bcd60e51b815260206004820152600d60248201526c24b73b30b634b2103a37b5b2b760991b6044820152606401610269565b600082116103195760405162461bcd60e51b815260206004820152600d60248201526c496e76616c696420707269636560981b6044820152606401610269565b6040805160808101825283815260ff838116602080840182815242858701818152600160608089018281526001600160a01b038e1660008181528489528c90209a518b559551928a0180549390991660ff199384161790985591516002890155955160039097018054971515979096169690961790945585518881529182019290925293840191909152917f5cbfdd086220f495e5d8a15805e17c05374548375649d8fe513a473b69cead76910160405180910390a2505050565b6103dc61080b565b6103e66000610865565b565b6103f061080b565b84831480156103fe57508481145b6104425760405162461bcd60e51b8152602060048201526015602482015274082e4e4c2f240d8cadccee8d040dad2e6dac2e8c6d605b1b6044820152606401610269565b60005b858110156106be57600087878381811061046157610461610a26565b905060200201602081019061047691906108d1565b6001600160a01b0316036104bc5760405162461bcd60e51b815260206004820152600d60248201526c24b73b30b634b2103a37b5b2b760991b6044820152606401610269565b60008585838181106104d0576104d0610a26565b90506020020135116105145760405162461bcd60e51b815260206004820152600d60248201526c496e76616c696420707269636560981b6044820152606401610269565b604051806080016040528086868481811061053157610531610a26565b90506020020135815260200184848481811061054f5761054f610a26565b90506020020160208101906105649190610a3c565b60ff16815242602082015260016040909101819052600089898581811061058d5761058d610a26565b90506020020160208101906105a291906108d1565b6001600160a01b031681526020808201929092526040908101600020835181559183015160018301805460ff90921660ff19928316179055908301516002830155606090920151600390910180549115159190921617905586868281811061060c5761060c610a26565b905060200201602081019061062191906108d1565b6001600160a01b03167f5cbfdd086220f495e5d8a15805e17c05374548375649d8fe513a473b69cead7686868481811061065d5761065d610a26565b9050602002013585858581811061067657610676610a26565b905060200201602081019061068b9190610a3c565b6040805192835260ff9091166020830152429082015260600160405180910390a2806106b681610a57565b915050610445565b50505050505050565b6106cf61080b565b6001600160a01b0381166107345760405162461bcd60e51b815260206004820152602660248201527f4f776e61626c653a206e6577206f776e657220697320746865207a65726f206160448201526564647265737360d01b6064820152608401610269565b61073d81610865565b50565b61074861080b565b6001600160a01b03811660009081526001602052604090206003015460ff166107a35760405162461bcd60e51b815260206004820152600d60248201526c141c9a58d9481b9bdd081cd95d609a1b6044820152606401610269565b6001600160a01b0381166000818152600160208190526040808320838155918201805460ff199081169091556002830184905560039092018054909216909155517fb0e09cc2a1c729c1ad17b9273a92c742a5c22cac4285ff849736991d196bbf999190a250565b6000546001600160a01b031633146103e65760405162461bcd60e51b815260206004820181905260248201527f4f776e61626c653a2063616c6c6572206973206e6f7420746865206f776e65726044820152606401610269565b600080546001600160a01b038381166001600160a01b0319831681178455604051919092169283917f8be0079c531659141344cd1fd0a4f28419497f9722a3daafe3b4186f6b6457e09190a35050565b80356001600160a01b03811681146108cc57600080fd5b919050565b6000602082840312156108e357600080fd5b6108ec826108b5565b9392505050565b803560ff811681146108cc57600080fd5b60008060006060848603121561091957600080fd5b610922846108b5565b925060208401359150610937604085016108f3565b90509250925092565b60008083601f84011261095257600080fd5b50813567ffffffffffffffff81111561096a57600080fd5b6020830191508360208260051b850101111561098557600080fd5b9250929050565b600080600080600080606087890312156109a557600080fd5b863567ffffffffffffffff808211156109bd57600080fd5b6109c98a838b01610940565b909850965060208901359150808211156109e257600080fd5b6109ee8a838b01610940565b90965094506040890135915080821115610a0757600080fd5b50610a1489828a01610940565b979a9699509497509295939492505050565b634e487b7160e01b600052603260045260246000fd5b600060208284031215610a4e57600080fd5b6108ec826108f3565b600060018201610a7757634e487b7160e01b600052601160045260246000fd5b506001019056fea2646970667358221220f12bcfee0ee61ce586d38c602209e06f718360dca774549fc144f0dbf8560e4864736f6c63430008140033",
  "linkReferences": {},
  "deployedLinkReferences": {}
}