{
  "_format": "hh-sol-artifact-1",
  "contractName": "BlocTime",
  "sourceName": "contracts/bloctime/BlocTime.sol",
  "abi": [
    {
      "inputs": [
        {
          "internalType": "address",
          "name": "_nativeToken",
          "type": "address"
        },
        {
          "internalType": "string",
          "name": "_name",
          "type": "string"
        },
        {
          "internalType": "string",
          "name": "_symbol",
          "type": "string"
        },
        {
          "internalType": "uint256",
          "name": "_maxLockBlocks",
          "type": "uint256"
        },
        {
          "internalType": "uint256",
          "name": "_distributionPercentage",
          "type": "uint256"
        }
      ],
      "stateMutability": "nonpayable",
      "type": "constructor"
    },
    {
      "anonymous": false,
      "inputs": [
        {
          "indexed": true,
          "internalType": "address",
          "name": "owner",
          "type": "address"
        },
        {
          "indexed": true,
          "internalType": "address",
          "name": "spender",
          "type": "address"
        },
        {
          "indexed": false,
          "internalType": "uint256",
          "name": "value",
          "type": "uint256"
        }
      ],
      "name": "Approval",
      "type": "event"
    },
    {
      "anonymous": false,
      "inputs": [
        {
          "indexed": true,
          "internalType": "address",
          "name": "previousOwner",
          "type": "address"
        },
        {
          "indexed": true,
          "internalType": "address",
          "name": "newOwner",
          "type": "address"
        }
      ],
      "name": "OwnershipTransferred",
      "type": "event"
    },
    {
      "anonymous": false,
      "inputs": [
        {
          "components": [
            {
              "internalType": "uint256",
              "name": "maxLockBlocks",
              "type": "uint256"
            },
            {
              "internalType": "uint256",
              "name": "distributionPercentage",
              "type": "uint256"
            }
          ],
          "indexed": false,
          "internalType": "struct BlocTime.Params",
          "name": "params",
          "type": "tuple"
        }
      ],
      "name": "ParamsUpdated",
      "type": "event"
    },
    {
      "anonymous": false,
      "inputs": [
        {
          "indexed": false,
          "internalType": "uint256",
          "name": "pointCount",
          "type": "uint256"
        }
      ],
      "name": "PointsSet",
      "type": "event"
    },
    {
      "anonymous": false,
      "inputs": [
        {
          "indexed": true,
          "internalType": "address",
          "name": "user",
          "type": "address"
        },
        {
          "indexed": false,
          "internalType": "uint256",
          "name": "stakeId",
          "type": "uint256"
        },
        {
          "indexed": false,
          "internalType": "uint256",
          "name": "amount",
          "type": "uint256"
        },
        {
          "indexed": false,
          "internalType": "uint256",
          "name": "lockBlocks",
          "type": "uint256"
        },
        {
          "indexed": false,
          "internalType": "uint256",
          "name": "blocTimeEarned",
          "type": "uint256"
        }
      ],
      "name": "Staked",
      "type": "event"
    },
    {
      "anonymous": false,
      "inputs": [
        {
          "indexed": true,
          "internalType": "address",
          "name": "from",
          "type": "address"
        },
        {
          "indexed": true,
          "internalType": "address",
          "name": "to",
          "type": "address"
        },
        {
          "indexed": false,
          "internalType": "uint256",
          "name": "value",
          "type": "uint256"
        }
      ],
      "name": "Transfer",
      "type": "event"
    },
    {
      "anonymous": false,
      "inputs": [
        {
          "indexed": true,
          "internalType": "address",
          "name": "user",
          "type": "address"
        },
        {
          "indexed": false,
          "internalType": "uint256",
          "name": "stakeId",
          "type": "uint256"
        },
        {
          "indexed": false,
          "internalType": "uint256",
          "name": "amount",
          "type": "uint256"
        },
        {
          "indexed": false,
          "internalType": "uint256",
          "name": "blocTimeReturned",
          "type": "uint256"
        }
      ],
      "name": "Unstaked",
      "type": "event"
    },
    {
      "inputs": [
        {
          "internalType": "address",
          "name": "owner",
          "type": "address"
        },
        {
          "internalType": "address",
          "name": "spender",
          "type": "address"
        }
      ],
      "name": "allowance",
      "outputs": [
        {
          "internalType": "uint256",
          "name": "",
          "type": "uint256"
        }
      ],
      "stateMutability": "view",
      "type": "function"
    },
    {
      "inputs": [
        {
          "internalType": "address",
          "name": "spender",
          "type": "address"
        },
        {
          "internalType": "uint256",
          "name": "amount",
          "type": "uint256"
        }
      ],
      "name": "approve",
      "outputs": [
        {
          "internalType": "bool",
          "name": "",
          "type": "bool"
        }
      ],
      "stateMutability": "nonpayable",
      "type": "function"
    },
    {
      "inputs": [
        {
          "internalType": "address",
          "name": "account",
          "type": "address"
        }
      ],
      "name": "balanceOf",
      "outputs": [
        {
          "internalType": "uint256",
          "name": "",
          "type": "uint256"
        }
      ],
      "stateMutability": "view",
      "type": "function"
    },
    {
      "inputs": [],
      "name": "decimals",
      "outputs": [
        {
          "internalType": "uint8",
          "name": "",
          "type": "uint8"
        }
      ],
      "stateMutability": "view",
      "type": "function"
    },
    {
      "inputs": [
        {
          "internalType": "address",
          "name": "spender",
          "type": "address"
        },
        {
          "internalType": "uint256",
          "name": "subtractedValue",
          "type": "uint256"
        }
      ],
      "name": "decreaseAllowance",
      "outputs": [
        {
          "internalType": "bool",
          "name": "",
          "type": "bool"
        }
      ],
      "stateMutability": "nonpayable",
      "type": "function"
    },
    {
      "inputs": [
        {
          "internalType": "address",
          "name": "token",
          "type": "address"
        },
        {
          "internalType": "uint256",
          "name": "amount",
          "type": "uint256"
        }
      ],
      "name": "emergencyWithdraw",
      "outputs": [],
      "stateMutability": "nonpayable",
      "type": "function"
    },
    {
      "inputs": [
        {
          "internalType": "uint256",
          "name": "blockCount",
          "type": "uint256"
        }
      ],
      "name": "getMultiplier",
      "outputs": [
        {
          "internalType": "uint256",
          "name": "",
          "type": "uint256"
        }
      ],
      "stateMutability": "view",
      "type": "function"
    },
    {
      "inputs": [
        {
          "internalType": "address",
          "name": "user",
          "type": "address"
        }
      ],
      "name": "getStakeInfo",
      "outputs": [
        {
          "internalType": "uint256",
          "name": "amount",
          "type": "uint256"
        },
        {
          "internalType": "uint256",
          "name": "startBlock",
          "type": "uint256"
        },
        {
          "internalType": "uint256",
          "name": "lockBlocks",
          "type": "uint256"
        },
        {
          "internalType": "uint256",
          "name": "blocTimeBalance",
          "type": "uint256"
        },
        {
          "internalType": "uint256",
          "name": "blocksRemaining",
          "type": "uint256"
        }
      ],
      "stateMutability": "view",
      "type": "function"
    },
    {
      "inputs": [
        {
          "internalType": "address",
          "name": "user",
          "type": "address"
        },
        {
          "internalType": "uint256",
          "name": "stakeId",
          "type": "uint256"
        }
      ],
      "name": "getStakePosition",
      "outputs": [
        {
          "internalType": "uint256",
          "name": "amount",
          "type": "uint256"
        },
        {
          "internalType": "uint256",
          "name": "startBlock",
          "type": "uint256"
        },
        {
          "internalType": "uint256",
          "name": "lockBlocks",
          "type": "uint256"
        },
        {
          "internalType": "uint256",
          "name": "blocTimeBalance",
          "type": "uint256"
        },
        {
          "internalType": "uint256",
          "name": "blocksRemaining",
          "type": "uint256"
        }
      ],
      "stateMutability": "view",
      "type": "function"
    },
    {
      "inputs": [
        {
          "internalType": "address",
          "name": "user",
          "type": "address"
        }
      ],
      "name": "getUserStakeIds",
      "outputs": [
        {
          "internalType": "uint256[]",
          "name": "",
          "type": "uint256[]"
        }
      ],
      "stateMutability": "view",
      "type": "function"
    },
    {
      "inputs": [
        {
          "internalType": "address",
          "name": "spender",
          "type": "address"
        },
        {
          "internalType": "uint256",
          "name": "addedValue",
          "type": "uint256"
        }
      ],
      "name": "increaseAllowance",
      "outputs": [
        {
          "internalType": "bool",
          "name": "",
          "type": "bool"
        }
      ],
      "stateMutability": "nonpayable",
      "type": "function"
    },
    {
      "inputs": [],
      "name": "name",
      "outputs": [
        {
          "internalType": "string",
          "name": "",
          "type": "string"
        }
      ],
      "stateMutability": "view",
      "type": "function"
    },
    {
      "inputs": [],
      "name": "nativeToken",
      "outputs": [
        {
          "internalType": "contract IERC20",
          "name": "",
          "type": "address"
        }
      ],
      "stateMutability": "view",
      "type": "function"
    },
    {
      "inputs": [],
      "name": "nextStakeId",
      "outputs": [
        {
          "internalType": "uint256",
          "name": "",
          "type": "uint256"
        }
      ],
      "stateMutability": "view",
      "type": "function"
    },
    {
      "inputs": [],
      "name": "owner",
      "outputs": [
        {
          "internalType": "address",
          "name": "",
          "type": "address"
        }
      ],
      "stateMutability": "view",
      "type": "function"
    },
    {
      "inputs": [],
      "name": "params",
      "outputs": [
        {
          "internalType": "uint256",
          "name": "maxLockBlocks",
          "type": "uint256"
        },
        {
          "internalType": "uint256",
          "name": "distributionPercentage",
          "type": "uint256"
        }
      ],
      "stateMutability": "view",
      "type": "function"
    },
    {
      "inputs": [
        {
          "internalType": "uint256",
          "name": "",
          "type": "uint256"
        }
      ],
      "name": "points",
      "outputs": [
        {
          "internalType": "uint256",
          "name": "blocks",
          "type": "uint256"
        },
        {
          "internalType": "uint256",
          "name": "multiplier",
          "type": "uint256"
        }
      ],
      "stateMutability": "view",
      "type": "function"
    },
    {
      "inputs": [],
      "name": "renounceOwnership",
      "outputs": [],
      "stateMutability": "nonpayable",
      "type": "function"
    },
    {
      "inputs": [
        {
          "internalType": "uint256",
          "name": "_maxLockBlocks",
          "type": "uint256"
        },
        {
          "internalType": "uint256",
          "name": "_distributionPercentage",
          "type": "uint256"
        }
      ],
      "name": "setParams",
      "outputs": [],
      "stateMutability": "nonpayable",
      "type": "function"
    },
    {
      "inputs": [
        {
          "components": [
            {
              "internalType": "uint256",
              "name": "blocks",
              "type": "uint256"
            },
            {
              "internalType": "uint256",
              "name": "multiplier",
              "type": "uint256"
            }
          ],
          "internalType": "struct BlocTime.Point[]",
          "name": "_points",
          "type": "tuple[]"
        }
      ],
      "name": "setPoints",
      "outputs": [],
      "stateMutability": "nonpayable",
      "type": "function"
    },
    {
      "inputs": [
        {
          "internalType": "uint256",
          "name": "amount",
          "type": "uint256"
        },
        {
          "internalType": "uint256",
          "name": "lockBlocks",
          "type": "uint256"
        }
      ],
      "name": "stake",
      "outputs": [],
      "stateMutability": "nonpayable",
      "type": "function"
    },
    {
      "inputs": [
        {
          "internalType": "address",
          "name": "",
          "type": "address"
        }
      ],
      "name": "stakes",
      "outputs": [
        {
          "internalType": "uint256",
          "name": "amount",
          "type": "uint256"
        },
        {
          "internalType": "uint256",
          "name": "startBlock",
          "type": "uint256"
        },
        {
          "internalType": "uint256",
          "name": "lockBlocks",
          "type": "uint256"
        },
        {
          "internalType": "uint256",
          "name": "blocTimeBalance",
          "type": "uint256"
        }
      ],
      "stateMutability": "view",
      "type": "function"
    },
    {
      "inputs": [],
      "name": "symbol",
      "outputs": [
        {
          "internalType": "string",
          "name": "",
          "type": "string"
        }
      ],
      "stateMutability": "view",
      "type": "function"
    },
    {
      "inputs": [],
      "name": "totalBlocTime",
      "outputs": [
        {
          "internalType": "uint256",
          "name": "",
          "type": "uint256"
        }
      ],
      "stateMutability": "view",
      "type": "function"
    },
    {
      "inputs": [],
      "name": "totalSupply",
      "outputs": [
        {
          "internalType": "uint256",
          "name": "",
          "type": "uint256"
        }
      ],
      "stateMutability": "view",
      "type": "function"
    },
    {
      "inputs": [
        {
          "internalType": "address",
          "name": "to",
          "type": "address"
        },
        {
          "internalType": "uint256",
          "name": "amount",
          "type": "uint256"
        }
      ],
      "name": "transfer",
      "outputs": [
        {
          "internalType": "bool",
          "name": "",
          "type": "bool"
        }
      ],
      "stateMutability": "nonpayable",
      "type": "function"
    },
    {
      "inputs": [
        {
          "internalType": "address",
          "name": "from",
          "type": "address"
        },
        {
          "internalType": "address",
          "name": "to",
          "type": "address"
        },
        {
          "internalType": "uint256",
          "name": "amount",
          "type": "uint256"
        }
      ],
      "name": "transferFrom",
      "outputs": [
        {
          "internalType": "bool",
          "name": "",
          "type": "bool"
        }
      ],
      "stateMutability": "nonpayable",
      "type": "function"
    },
    {
      "inputs": [
        {
          "internalType": "address",
          "name": "newOwner",
          "type": "address"
        }
      ],
      "name": "transferOwnership",
      "outputs": [],
      "stateMutability": "nonpayable",
      "type": "function"
    },
    {
      "inputs": [
        {
          "internalType": "uint256",
          "name": "stakeId",
          "type": "uint256"
        }
      ],
      "name": "unstake",
      "outputs": [],
      "stateMutability": "nonpayable",
      "type": "function"
    },
    {
      "inputs": [
        {
          "internalType": "address",
          "name": "",
          "type": "address"
        },
        {
          "internalType": "uint256",
          "name": "",
          "type": "uint256"
        }
      ],
      "name": "userStakeIds",
      "outputs": [
        {
          "internalType": "uint256",
          "name": "",
          "type": "uint256"
        }
      ],
      "stateMutability": "view",
      "type": "function"
    },
    {
      "inputs": [
        {
          "internalType": "address",
          "name": "",
          "type": "address"
        },
        {
          "internalType": "uint256",
          "name": "",
          "type": "uint256"
        }
      ],
      "name": "userStakes",
      "outputs": [
        {
          "internalType": "uint256",
          "name": "stakeId",
          "type": "uint256"
        },
        {
          "internalType": "uint256",
          "name": "amount",
          "type": "uint256"
        },
        {
          "internalType": "uint256",
          "name": "startBlock",
          "type": "uint256"
        },
        {
          "internalType": "uint256",
          "name": "lockBlocks",
          "type": "uint256"
        },
        {
          "internalType": "uint256",
          "name": "blocTimeBalance",
          "type": "uint256"
        }
      ],
      "stateMutability": "view",
      "type": "function"
    }
  ],
  "bytecode": "0x60806040523480156200001157600080fd5b506040516200262c3803806200262c833981016040819052620000349162000280565b83836003620000448382620003ac565b506004620000538282620003ac565b5050600160055550620000663362000169565b612710811115620000a85760405162461bcd60e51b81526020600482015260086024820152674d6178203130302560c01b604482015260640160405180910390fd5b600780546001600160a01b0319166001600160a01b0396909616959095179094556040805180820182528281526020908101869052600e92909255600f9490945583518085019094526000808552612710918501918252600d8054600181018255915293517fd7b6990105719101dabeb77144f2a3385c8033acd3af97e9423a695e81ad1eb5600290950294850155517fd7b6990105719101dabeb77144f2a3385c8033acd3af97e9423a695e81ad1eb69093019290925550620004789050565b600680546001600160a01b038381166001600160a01b0319831681179093556040519116919082907f8be0079c531659141344cd1fd0a4f28419497f9722a3daafe3b4186f6b6457e090600090a35050565b634e487b7160e01b600052604160045260246000fd5b600082601f830112620001e357600080fd5b81516001600160401b0380821115620002005762000200620001bb565b604051601f8301601f19908116603f011681019082821181831017156200022b576200022b620001bb565b816040528381526020925086838588010111156200024857600080fd5b600091505b838210156200026c57858201830151818301840152908201906200024d565b600093810190920192909252949350505050565b600080600080600060a086880312156200029957600080fd5b85516001600160a01b0381168114620002b157600080fd5b60208701519095506001600160401b0380821115620002cf57600080fd5b620002dd89838a01620001d1565b95506040880151915080821115620002f457600080fd5b506200030388828901620001d1565b606088015160809098015196999598509695949350505050565b600181811c908216806200033257607f821691505b6020821081036200035357634e487b7160e01b600052602260045260246000fd5b50919050565b601f821115620003a757600081815260208120601f850160051c81016020861015620003825750805b601f850160051c820191505b81811015620003a3578281556001016200038e565b5050505b505050565b81516001600160401b03811115620003c857620003c8620001bb565b620003e081620003d984546200031d565b8462000359565b602080601f831160018114620004185760008415620003ff5750858301515b600019600386901b1c1916600185901b178555620003a3565b600085815260208120601f198616915b82811015620004495788860151825594840194600190910190840162000428565b5085821015620004685787850151600019600388901b60f8161c191681555b5050505050600190811b01905550565b6121a480620004886000396000f3fe608060405234801561001057600080fd5b50600436106101e55760003560e01c80638da5cb5b1161010f578063c0324c77116100a2578063dd62ed3e11610071578063dd62ed3e146104c7578063e1758bd8146104da578063f2fde38b146104ed578063fb6e52da1461050057600080fd5b8063c0324c7714610480578063c345315314610493578063c517841c146104a6578063cff0ab96146104b957600080fd5b8063a457c2d7116100de578063a457c2d7146103ff578063a9059cbb14610412578063adf8252d14610425578063b5d5b5fa1461043857600080fd5b80638da5cb5b1461039757806395ccea67146103bc57806395d89b41146103cf5780639799b4e7146103d757600080fd5b8063313ce5671161018757806370a082311161015657806370a082311461034a578063715018a61461037357806375506c961461037b5780637b0472f01461038457600080fd5b8063313ce567146102f5578063313da78f1461030457806339509351146103245780635f86846e1461033757600080fd5b806318160ddd116101c357806318160ddd1461028057806323b872dd146102925780632e17de78146102a55780632e569eff146102ba57600080fd5b806306fdde03146101ea578063095ea7b31461020857806316934fc41461022b575b600080fd5b6101f2610509565b6040516101ff9190611e45565b60405180910390f35b61021b610216366004611e94565b61059b565b60405190151581526020016101ff565b610260610239366004611ebe565b600c6020526000908152604090208054600182015460028301546003909301549192909184565b6040805194855260208501939093529183015260608201526080016101ff565b6002545b6040519081526020016101ff565b61021b6102a0366004611ed9565b6105b5565b6102b86102b3366004611f15565b6105d9565b005b6102cd6102c8366004611e94565b610878565b604080519586526020860194909452928401919091526060830152608082015260a0016101ff565b604051601281526020016101ff565b610317610312366004611ebe565b610916565b6040516101ff9190611f2e565b61021b610332366004611e94565b610982565b6102b8610345366004611f72565b6109a4565b610284610358366004611ebe565b6001600160a01b031660009081526020819052604090205490565b6102b8610ce7565b61028460095481565b6102b8610392366004611fe7565b610cfb565b6006546001600160a01b03165b6040516001600160a01b0390911681526020016101ff565b6102b86103ca366004611e94565b610f3b565b6101f2610f69565b6103ea6103e5366004611f15565b610f78565b604080519283526020830191909152016101ff565b61021b61040d366004611e94565b610fa6565b61021b610420366004611e94565b611021565b610284610433366004611f15565b61102f565b6102cd610446366004611e94565b600a602090815260009283526040808420909152908252902080546001820154600283015460038401546004909401549293919290919085565b6102b861048e366004611fe7565b611251565b6102cd6104a1366004611ebe565b6112e7565b6102846104b4366004611e94565b611376565b600e54600f546103ea919082565b6102846104d5366004612009565b6113a7565b6007546103a4906001600160a01b031681565b6102b86104fb366004611ebe565b6113d2565b61028460085481565b6060600380546105189061203c565b80601f01602080910402602001604051908101604052809291908181526020018280546105449061203c565b80156105915780601f1061056657610100808354040283529160200191610591565b820191906000526020600020905b81548152906001019060200180831161057457829003601f168201915b5050505050905090565b6000336105a9818585611448565b60019150505b92915050565b6000336105c385828561156d565b6105ce8585856115e7565b506001949350505050565b6105e161178b565b336000908152600a60209081526040808320848452909152902060018101546106435760405162461bcd60e51b815260206004820152600f60248201526e4e6f20616374697665207374616b6560881b60448201526064015b60405180910390fd5b80600301548160020154610657919061208c565b4310156106955760405162461bcd60e51b815260206004820152600c60248201526b14dd1a5b1b081b1bd8dad95960a21b604482015260640161063a565b60018101546004820154600880548291906000906106b490849061209f565b909155506106c4905033826117e4565b336000908152600c6020526040812080548492906106e390849061209f565b9091555050336000908152600c60205260408120600301805483929061070a90849061209f565b9091555050336000908152600b60205260408120905b81548110156107d4578582828154811061073c5761073c6120b2565b9060005260206000200154036107c2578154829061075c9060019061209f565b8154811061076c5761076c6120b2565b9060005260206000200154828281548110610789576107896120b2565b9060005260206000200181905550818054806107a7576107a76120c8565b600190038181906000526020600020016000905590556107d4565b806107cc816120de565b915050610720565b50336000818152600a60209081526040808320898452909152812081815560018101829055600281018290556003810182905560040155600754610824916001600160a01b039091169085611913565b604080518681526020810185905290810183905233907f204fccf0d92ed8d48f204adb39b2e81e92bad0dedb93f5716ca9478cfb57de009060600160405180910390a2505050506108756001600555565b50565b6001600160a01b0382166000908152600a60209081526040808320848452909152812060028101548291829182918291829043116108b75760006108c6565b60028201546108c6904361209f565b90506000818360030154116108dc5760006108ec565b8183600301546108ec919061209f565b600184015460028501546003860154600490960154919d909c50949a509850965091945050505050565b6001600160a01b0381166000908152600b602090815260409182902080548351818402810184019094528084526060939283018282801561097657602002820191906000526020600020905b815481526020019060010190808311610962575b50505050509050919050565b6000336105a981858561099583836113a7565b61099f919061208c565b611448565b6109ac611976565b806109f95760405162461bcd60e51b815260206004820152601f60248201527f4d7573742070726f76696465206174206c65617374206f6e6520706f696e7400604482015260640161063a565b60005b81811015610c3257612710838383818110610a1957610a196120b2565b905060400201602001351015610a715760405162461bcd60e51b815260206004820152601860248201527f4d756c7469706c696572206d757374206265203e3d2031780000000000000000604482015260640161063a565b600e54838383818110610a8657610a866120b2565b905060400201600001351115610ad35760405162461bcd60e51b815260206004820152601260248201527145786365656473206d617820626c6f636b7360701b604482015260640161063a565b8015610c20578282610ae660018461209f565b818110610af557610af56120b2565b90506040020160000135838383818110610b1157610b116120b2565b9050604002016000013511610b785760405162461bcd60e51b815260206004820152602760248201527f426c6f636b73206d757374206265206d6f6e6f746f6e6963616c6c7920696e6360448201526672656173696e6760c81b606482015260840161063a565b8282610b8560018461209f565b818110610b9457610b946120b2565b90506040020160200135838383818110610bb057610bb06120b2565b905060400201602001351015610c205760405162461bcd60e51b815260206004820152602f60248201527f4d756c7469706c696572206d757374206265206d6f6e6f746f6e6963616c6c7960448201526e206e6f6e2d64656372656173696e6760881b606482015260840161063a565b80610c2a816120de565b9150506109fc565b50610c3f600d6000611de6565b60005b81811015610cae57600d838383818110610c5e57610c5e6120b2565b835460018101855560009485526020909420604090910292909201926002029091019050610c99828281358155602082013560018201555050565b50508080610ca6906120de565b915050610c42565b506040518181527ff5bba9ee8086975b79c106899b736ec9ed2cc98a23b10d802e5e921e8516a39c906020015b60405180910390a15050565b610cef611976565b610cf960006119d0565b565b610d0361178b565b60008211610d485760405162461bcd60e51b81526020600482015260126024820152710416d6f756e74206d757374206265203e20360741b604482015260640161063a565b600e54811115610d9a5760405162461bcd60e51b815260206004820152601760248201527f45786365656473206d6178206c6f636b20626c6f636b73000000000000000000604482015260640161063a565b600754610db2906001600160a01b0316333085611a22565b6000610dbd8261102f565b90506000612710610dce83866120f7565b610dd8919061210e565b600980549192506000919082610ded836120de565b909155506040805160a081018252828152602080820189815243838501908152606084018a815260808501898152336000818152600a87528881208a82528752888120975188559451600180890191909155935160028801559151600387015551600490950194909455838252600b835284822080549182018155825282822001859055918252600c905290812080549293508792909190610e9090849061208c565b9091555050336000908152600c602052604081206003018054849290610eb790849061208c565b925050819055508160086000828254610ed0919061208c565b90915550610ee090503383611a5a565b60408051828152602081018790529081018590526060810183905233907f9cfd25589d1eb8ad71e342a86a8524e83522e3936c0803048c08f6d9ad974f409060800160405180910390a2505050610f376001600555565b5050565b610f43611976565b610f37610f586006546001600160a01b031690565b6001600160a01b0384169083611913565b6060600480546105189061203c565b600d8181548110610f8857600080fd5b60009182526020909120600290910201805460019091015490915082565b60003381610fb482866113a7565b9050838110156110145760405162461bcd60e51b815260206004820152602560248201527f45524332303a2064656372656173656420616c6c6f77616e63652062656c6f77604482015264207a65726f60d81b606482015260840161063a565b6105ce8286868403611448565b6000336105a98185856115e7565b600d5460009081036110445750612710919050565b600d600081548110611058576110586120b2565b906000526020600020906002020160000154821161109d57600d600081548110611084576110846120b2565b9060005260206000209060020201600101549050919050565b600d80546110ad9060019061209f565b815481106110bd576110bd6120b2565b90600052602060002090600202016000015482106110f557600d80546110e59060019061209f565b81548110611084576110846120b2565b60005b600d546111079060019061209f565b81101561124057600d8181548110611121576111216120b2565b90600052602060002090600202016000015483101580156111705750600d61114a82600161208c565b8154811061115a5761115a6120b2565b9060005260206000209060020201600001548311155b1561122e57611227600d828154811061118b5761118b6120b2565b906000526020600020906002020160000154600d83815481106111b0576111b06120b2565b906000526020600020906002020160010154600d8460016111d1919061208c565b815481106111e1576111e16120b2565b6000918252602090912060029091020154600d6111ff86600161208c565b8154811061120f5761120f6120b2565b90600052602060002090600202016001015487611b19565b9392505050565b80611238816120de565b9150506110f8565b50600d80546110e59060019061209f565b611259611976565b6127108111156112965760405162461bcd60e51b81526020600482015260086024820152674d6178203130302560c01b604482015260640161063a565b6040805180820182528381526020908101839052600e849055600f83905581518481529081018390527f866145bb6fb5067ddcf0bbb23328df642f23f0363c486a63783a8d98044ad44b9101610cdb565b6001600160a01b0381166000908152600c60205260408120600181015482918291829182918290431161131b57600061132a565b600182015461132a904361209f565b9050600081836002015411611340576000611350565b818360020154611350919061209f565b835460018501546002860154600390960154919c909b5094995097509550919350505050565b600b602052816000526040600020818154811061139257600080fd5b90600052602060002001600091509150505481565b6001600160a01b03918216600090815260016020908152604080832093909416825291909152205490565b6113da611976565b6001600160a01b03811661143f5760405162461bcd60e51b815260206004820152602660248201527f4f776e61626c653a206e6577206f776e657220697320746865207a65726f206160448201526564647265737360d01b606482015260840161063a565b610875816119d0565b6001600160a01b0383166114aa5760405162461bcd60e51b8152602060048201526024808201527f45524332303a20617070726f76652066726f6d20746865207a65726f206164646044820152637265737360e01b606482015260840161063a565b6001600160a01b03821661150b5760405162461bcd60e51b815260206004820152602260248201527f45524332303a20617070726f766520746f20746865207a65726f206164647265604482015261737360f01b606482015260840161063a565b6001600160a01b0383811660008181526001602090815260408083209487168084529482529182902085905590518481527f8c5be1e5ebec7d5bd14f71427d1e84f3dd0314c0f7b2291e5b200ac8c7c3b92591015b60405180910390a3505050565b600061157984846113a7565b905060001981146115e157818110156115d45760405162461bcd60e51b815260206004820152601d60248201527f45524332303a20696e73756666696369656e7420616c6c6f77616e6365000000604482015260640161063a565b6115e18484848403611448565b50505050565b6001600160a01b03831661164b5760405162461bcd60e51b815260206004820152602560248201527f45524332303a207472616e736665722066726f6d20746865207a65726f206164604482015264647265737360d81b606482015260840161063a565b6001600160a01b0382166116ad5760405162461bcd60e51b815260206004820152602360248201527f45524332303a207472616e7366657220746f20746865207a65726f206164647260448201526265737360e81b606482015260840161063a565b6001600160a01b038316600090815260208190526040902054818110156117255760405162461bcd60e51b815260206004820152602660248201527f45524332303a207472616e7366657220616d6f756e7420657863656564732062604482015265616c616e636560d01b606482015260840161063a565b6001600160a01b03848116600081815260208181526040808320878703905593871680835291849020805487019055925185815290927fddf252ad1be2c89b69c2b068fc378daa952ba7f163c4a11628f55a4df523b3ef910160405180910390a36115e1565b6002600554036117dd5760405162461bcd60e51b815260206004820152601f60248201527f5265656e7472616e637947756172643a207265656e7472616e742063616c6c00604482015260640161063a565b6002600555565b6001600160a01b0382166118445760405162461bcd60e51b815260206004820152602160248201527f45524332303a206275726e2066726f6d20746865207a65726f206164647265736044820152607360f81b606482015260840161063a565b6001600160a01b038216600090815260208190526040902054818110156118b85760405162461bcd60e51b815260206004820152602260248201527f45524332303a206275726e20616d6f756e7420657863656564732062616c616e604482015261636560f01b606482015260840161063a565b6001600160a01b0383166000818152602081815260408083208686039055600280548790039055518581529192917fddf252ad1be2c89b69c2b068fc378daa952ba7f163c4a11628f55a4df523b3ef9101611560565b505050565b6040516001600160a01b03831660248201526044810182905261190e90849063a9059cbb60e01b906064015b60408051601f198184030181529190526020810180516001600160e01b03166001600160e01b031990931692909217909152611b81565b6006546001600160a01b03163314610cf95760405162461bcd60e51b815260206004820181905260248201527f4f776e61626c653a2063616c6c6572206973206e6f7420746865206f776e6572604482015260640161063a565b600680546001600160a01b038381166001600160a01b0319831681179093556040519116919082907f8be0079c531659141344cd1fd0a4f28419497f9722a3daafe3b4186f6b6457e090600090a35050565b6040516001600160a01b03808516602483015283166044820152606481018290526115e19085906323b872dd60e01b9060840161193f565b6001600160a01b038216611ab05760405162461bcd60e51b815260206004820152601f60248201527f45524332303a206d696e7420746f20746865207a65726f206164647265737300604482015260640161063a565b8060026000828254611ac2919061208c565b90915550506001600160a01b038216600081815260208181526040808320805486019055518481527fddf252ad1be2c89b69c2b068fc378daa952ba7f163c4a11628f55a4df523b3ef910160405180910390a35050565b6000838603611b29575083611b78565b6000611b35878661209f565b90506000611b43888561209f565b90506000611b51888761209f565b905082611b5e83836120f7565b611b68919061210e565b611b72908961208c565b93505050505b95945050505050565b6000611bd6826040518060400160405280602081526020017f5361666545524332303a206c6f772d6c6576656c2063616c6c206661696c6564815250856001600160a01b0316611c569092919063ffffffff16565b9050805160001480611bf7575080806020019051810190611bf79190612130565b61190e5760405162461bcd60e51b815260206004820152602a60248201527f5361666545524332303a204552433230206f7065726174696f6e20646964206e6044820152691bdd081cdd58d8d9595960b21b606482015260840161063a565b6060611c658484600085611c6d565b949350505050565b606082471015611cce5760405162461bcd60e51b815260206004820152602660248201527f416464726573733a20696e73756666696369656e742062616c616e636520666f6044820152651c8818d85b1b60d21b606482015260840161063a565b600080866001600160a01b03168587604051611cea9190612152565b60006040518083038185875af1925050503d8060008114611d27576040519150601f19603f3d011682016040523d82523d6000602084013e611d2c565b606091505b5091509150611d3d87838387611d48565b979650505050505050565b60608315611db7578251600003611db0576001600160a01b0385163b611db05760405162461bcd60e51b815260206004820152601d60248201527f416464726573733a2063616c6c20746f206e6f6e2d636f6e7472616374000000604482015260640161063a565b5081611c65565b611c658383815115611dcc5781518083602001fd5b8060405162461bcd60e51b815260040161063a9190611e45565b508054600082556002029060005260206000209081019061087591905b80821115611e1d5760008082556001820155600201611e03565b5090565b60005b83811015611e3c578181015183820152602001611e24565b50506000910152565b6020815260008251806020840152611e64816040850160208701611e21565b601f01601f19169190910160400192915050565b80356001600160a01b0381168114611e8f57600080fd5b919050565b60008060408385031215611ea757600080fd5b611eb083611e78565b946020939093013593505050565b600060208284031215611ed057600080fd5b61122782611e78565b600080600060608486031215611eee57600080fd5b611ef784611e78565b9250611f0560208501611e78565b9150604084013590509250925092565b600060208284031215611f2757600080fd5b5035919050565b6020808252825182820181905260009190848201906040850190845b81811015611f6657835183529284019291840191600101611f4a565b50909695505050505050565b60008060208385031215611f8557600080fd5b823567ffffffffffffffff80821115611f9d57600080fd5b818501915085601f830112611fb157600080fd5b813581811115611fc057600080fd5b8660208260061b8501011115611fd557600080fd5b60209290920196919550909350505050565b60008060408385031215611ffa57600080fd5b50508035926020909101359150565b6000806040838503121561201c57600080fd5b61202583611e78565b915061203360208401611e78565b90509250929050565b600181811c9082168061205057607f821691505b60208210810361207057634e487b7160e01b600052602260045260246000fd5b50919050565b634e487b7160e01b600052601160045260246000fd5b808201808211156105af576105af612076565b818103818111156105af576105af612076565b634e487b7160e01b600052603260045260246000fd5b634e487b7160e01b600052603160045260246000fd5b6000600182016120f0576120f0612076565b5060010190565b80820281158282048414176105af576105af612076565b60008261212b57634e487b7160e01b600052601260045260246000fd5b500490565b60006020828403121561214257600080fd5b8151801515811461122757600080fd5b60008251612164818460208701611e21565b919091019291505056fea2646970667358221220c8285390bd8274b8273b5018b7d4177f8cdc50b1e313d10549377f5c39c89bfd64736f6c63430008140033",
  "linkReferences": {},
  "deployedLinkReferences": {}
}