{
  "_format": "hh-sol-artifact-1",
  "contractName": "SafeProxyFactory",
  "sourceName": "contracts/safe/SafeProxyFactory.sol",
  "abi": [
    {
      "anonymous": false,
      "inputs": [
        {
          "indexed": true,
          "internalType": "address",
          "name": "proxy",
          "type": "address"
        },
        {
          "indexed": false,
          "internalType": "address",
          "name": "singleton",
          "type": "address"
        }
      ],
      "name": "ProxyCreation",
      "type": "event"
    },
    {
      "inputs": [
        {
          "internalType": "address",
          "name": "_singleton",
          "type": "address"
        },
        {
          "internalType": "bytes",
          "name": "initializer",
          "type": "bytes"
        },
        {
          "internalType": "uint256",
          "name": "saltNonce",
          "type": "uint256"
        }
      ],
      "name": "calculateCreateProxyWithNonceAddress",
      "outputs": [
        {
          "internalType": "address",
          "name": "",
          "type": "address"
        }
      ],
      "stateMutability": "view",
      "type": "function"
    },
    {
      "inputs": [
        {
          "internalType": "address",
          "name": "_singleton",
          "type": "address"
        },
        {
          "internalType": "bytes",
          "name": "initializer",
          "type": "bytes"
        }
      ],
      "name": "createProxy",
      "outputs": [
        {
          "internalType": "contract SafeProxy",
          "name": "proxy",
          "type": "address"
        }
      ],
      "stateMutability": "nonpayable",
      "type": "function"
    },
    {
      "inputs": [
        {
          "internalType": "address",
          "name": "_singleton",
          "type": "address"
        },
        {
          "internalType": "bytes",
          "name": "initializer",
          "type": "bytes"
        },
        {
          "internalType": "uint256",
          "name": "saltNonce",
          "type": "uint256"
        }
      ],
      "name": "createProxyWithNonce",
      "outputs": [
        {
          "internalType": "contract SafeProxy",
          "name": "proxy",
          "type": "address"
        }
      ],
      "stateMutability": "nonpayable",
      "type": "function"
    },
    {
      "inputs": [],
      "name": "proxyCreationCode",
      "outputs": [
        {
          "internalType": "bytes",
          "name": "",
          "type": "bytes"
        }
      ],
      "stateMutability": "pure",
      "type": "function"
    }
  ],
  "bytecode": "0x608060405234801561001057600080fd5b50610786806100206000396000f3fe608060405234801561001057600080fd5b506004361061004c5760003560e01c80631688f0b9146100515780632500510e1461008157806353e5d9351461009457806361b69abd146100a9575b600080fd5b61006461005f3660046104b1565b6100bc565b6040516001600160a01b0390911681526020015b60405180910390f35b61006461008f3660046104b1565b610228565b61009c610315565b604051610078919061052c565b6100646100b736600461055f565b61033f565b6000808380519060200120836040516020016100e2929190918252602082015260400190565b60405160208183030381529060405280519060200120905060006040518060200161010c906103e5565b601f1982820381018352601f90910116604081905261013991906001600160a01b038916906020016105ad565b6040516020818303038152906040529050818151826020016000f592506001600160a01b0383166101be5760405162461bcd60e51b815260206004820152602560248201527f5361666550726f7879466163746f72793a20437265617465322063616c6c2066604482015264185a5b195960da1b606482015260840160405180910390fd5b8451156101df5760008060008751602089016000885af1036101df57600080fd5b6040516001600160a01b0387811682528416907f4f51faf6c4561ff95f067657e43439f0f856d97c04d9ec9070a6199ad418e2359060200160405180910390a250509392505050565b60008083805190602001208360405160200161024e929190918252602082015260400190565b604051602081830303815290604052805190602001209050600060405180602001610278906103e5565b601f1982820381018352601f9091011660408190526102a591906001600160a01b038916906020016105ad565b60408051808303601f1901815282825280516020918201206001600160f81b0319828501523060601b6bffffffffffffffffffffffff1916602185015260358401959095526055808401959095528151808403909501855260759092019052825192019190912095945050505050565b606060405180602001610327906103e5565b601f1982820381018352601f90910116604052919050565b60008260405161034e906103e5565b6001600160a01b039091168152602001604051809103906000f08015801561037a573d6000803e3d6000fd5b5082519091501561039f5760008060008451602086016000865af10361039f57600080fd5b6040516001600160a01b0384811682528216907f4f51faf6c4561ff95f067657e43439f0f856d97c04d9ec9070a6199ad418e2359060200160405180910390a292915050565b610181806105d083390190565b80356001600160a01b038116811461040957600080fd5b919050565b634e487b7160e01b600052604160045260246000fd5b600082601f83011261043557600080fd5b813567ffffffffffffffff808211156104505761045061040e565b604051601f8301601f19908116603f011681019082821181831017156104785761047861040e565b8160405283815286602085880101111561049157600080fd5b836020870160208301376000602085830101528094505050505092915050565b6000806000606084860312156104c657600080fd5b6104cf846103f2565b9250602084013567ffffffffffffffff8111156104eb57600080fd5b6104f786828701610424565b925050604084013590509250925092565b60005b8381101561052357818101518382015260200161050b565b50506000910152565b602081526000825180602084015261054b816040850160208701610508565b601f01601f19169190910160400192915050565b6000806040838503121561057257600080fd5b61057b836103f2565b9150602083013567ffffffffffffffff81111561059757600080fd5b6105a385828601610424565b9150509250929050565b600083516105bf818460208801610508565b919091019182525060200191905056fe608060405234801561001057600080fd5b5060405161018138038061018183398101604081905261002f916100bc565b6001600160a01b0381166100955760405162461bcd60e51b8152602060048201526024808201527f5361666550726f78793a20496e76616c69642073696e676c65746f6e206164646044820152637265737360e01b606482015260840160405180910390fd5b7f360894a13ba1a3210667c828492db98dca3e2076cc3735a920a3ca505d382bbc556100ec565b6000602082840312156100ce57600080fd5b81516001600160a01b03811681146100e557600080fd5b9392505050565b6087806100fa6000396000f3fe608060405236600a57005b7f360894a13ba1a3210667c828492db98dca3e2076cc3735a920a3ca505d382bbc543660008037600080366000845af490503d6000803e808015604c573d6000f35b3d6000fdfea2646970667358221220eb3898829c2097a14e7d4e0136e3d4166a42ff529021b84ba858fabd7cac474264736f6c63430008140033a264697066735822122011e52ddc4ef790ea86380b80a3a0faaa412b8856828448f43fc5ce780c2e413564736f6c63430008140033",
  "linkReferences": {},
  "deployedLinkReferences": {}
}