{
  "_format": "hh-sol-artifact-1",
  "contractName": "Safe",
  "sourceName": "contracts/safe/Safe.sol",
  "abi": [
    {
      "anonymous": false,
      "inputs": [
        {
          "indexed": false,
          "internalType": "address",
          "name": "owner",
          "type": "address"
        }
      ],
      "name": "AddedOwner",
      "type": "event"
    },
    {
      "anonymous": false,
      "inputs": [
        {
          "indexed": true,
          "internalType": "bytes32",
          "name": "approvedHash",
          "type": "bytes32"
        },
        {
          "indexed": true,
          "internalType": "address",
          "name": "owner",
          "type": "address"
        }
      ],
      "name": "ApproveHash",
      "type": "event"
    },
    {
      "anonymous": false,
      "inputs": [
        {
          "indexed": false,
          "internalType": "uint256",
          "name": "threshold",
          "type": "uint256"
        }
      ],
      "name": "ChangedThreshold",
      "type": "event"
    },
    {
      "anonymous": false,
      "inputs": [
        {
          "indexed": false,
          "internalType": "bytes32",
          "name": "txHash",
          "type": "bytes32"
        },
        {
          "indexed": false,
          "internalType": "uint256",
          "name": "payment",
          "type": "uint256"
        }
      ],
      "name": "ExecutionFailure",
      "type": "event"
    },
    {
      "anonymous": false,
      "inputs": [
        {
          "indexed": false,
          "internalType": "bytes32",
          "name": "txHash",
          "type": "bytes32"
        },
        {
          "indexed": false,
          "internalType": "uint256",
          "name": "payment",
          "type": "uint256"
        }
      ],
      "name": "ExecutionSuccess",
      "type": "event"
    },
    {
      "anonymous": false,
      "inputs": [
        {
          "indexed": false,
          "internalType": "address",
          "name": "owner",
          "type": "address"
        }
      ],
      "name": "RemovedOwner",
      "type": "event"
    },
    {
      "anonymous": false,
      "inputs": [
        {
          "indexed": true,
          "internalType": "address",
          "name": "initiator",
          "type": "address"
        },
        {
          "indexed": false,
          "internalType": "address[]",
          "name": "owners",
          "type": "address[]"
        },
        {
          "indexed": false,
          "internalType": "uint256",
          "name": "threshold",
          "type": "uint256"
        },
        {
          "indexed": false,
          "internalType": "address",
          "name": "initializer",
          "type": "address"
        },
        {
          "indexed": false,
          "internalType": "address",
          "name": "fallbackHandler",
          "type": "address"
        }
      ],
      "name": "SafeSetup",
      "type": "event"
    },
    {
      "anonymous": false,
      "inputs": [
        {
          "indexed": true,
          "internalType": "bytes32",
          "name": "msgHash",
          "type": "bytes32"
        }
      ],
      "name": "SignMsg",
      "type": "event"
    },
    {
      "inputs": [],
      "name": "VERSION",
      "outputs": [
        {
          "internalType": "string",
          "name": "",
          "type": "string"
        }
      ],
      "stateMutability": "view",
      "type": "function"
    },
    {
      "inputs": [
        {
          "internalType": "address",
          "name": "owner",
          "type": "address"
        },
        {
          "internalType": "uint256",
          "name": "_threshold",
          "type": "uint256"
        }
      ],
      "name": "addOwnerWithThreshold",
      "outputs": [],
      "stateMutability": "nonpayable",
      "type": "function"
    },
    {
      "inputs": [
        {
          "internalType": "uint256",
          "name": "_threshold",
          "type": "uint256"
        }
      ],
      "name": "changeThreshold",
      "outputs": [],
      "stateMutability": "nonpayable",
      "type": "function"
    },
    {
      "inputs": [
        {
          "internalType": "bytes32",
          "name": "dataHash",
          "type": "bytes32"
        },
        {
          "internalType": "bytes",
          "name": "signatures",
          "type": "bytes"
        }
      ],
      "name": "checkSignatures",
      "outputs": [],
      "stateMutability": "view",
      "type": "function"
    },
    {
      "inputs": [
        {
          "internalType": "address",
          "name": "to",
          "type": "address"
        },
        {
          "internalType": "uint256",
          "name": "value",
          "type": "uint256"
        },
        {
          "internalType": "bytes",
          "name": "data",
          "type": "bytes"
        },
        {
          "internalType": "enum Enum.Operation",
          "name": "operation",
          "type": "uint8"
        },
        {
          "internalType": "uint256",
          "name": "safeTxGas",
          "type": "uint256"
        },
        {
          "internalType": "uint256",
          "name": "baseGas",
          "type": "uint256"
        },
        {
          "internalType": "uint256",
          "name": "gasPrice",
          "type": "uint256"
        },
        {
          "internalType": "address",
          "name": "gasToken",
          "type": "address"
        },
        {
          "internalType": "address",
          "name": "refundReceiver",
          "type": "address"
        },
        {
          "internalType": "uint256",
          "name": "_nonce",
          "type": "uint256"
        }
      ],
      "name": "encodeTransactionData",
      "outputs": [
        {
          "internalType": "bytes",
          "name": "",
          "type": "bytes"
        }
      ],
      "stateMutability": "view",
      "type": "function"
    },
    {
      "inputs": [
        {
          "internalType": "address",
          "name": "to",
          "type": "address"
        },
        {
          "internalType": "uint256",
          "name": "value",
          "type": "uint256"
        },
        {
          "internalType": "bytes",
          "name": "data",
          "type": "bytes"
        },
        {
          "internalType": "enum Enum.Operation",
          "name": "operation",
          "type": "uint8"
        },
        {
          "internalType": "uint256",
          "name": "safeTxGas",
          "type": "uint256"
        },
        {
          "internalType": "uint256",
          "name": "baseGas",
          "type": "uint256"
        },
        {
          "internalType": "uint256",
          "name": "gasPrice",
          "type": "uint256"
        },
        {
          "internalType": "address",
          "name": "gasToken",
          "type": "address"
        },
        {
          "internalType": "address payable",
          "name": "refundReceiver",
          "type": "address"
        },
        {
          "internalType": "bytes",
          "name": "signatures",
          "type": "bytes"
        }
      ],
      "name": "execTransaction",
      "outputs": [
        {
          "internalType": "bool",
          "name": "success",
          "type": "bool"
        }
      ],
      "stateMutability": "payable",
      "type": "function"
    },
    {
      "inputs": [],
      "name": "getOwners",
      "outputs": [
        {
          "internalType": "address[]",
          "name": "",
          "type": "address[]"
        }
      ],
      "stateMutability": "view",
      "type": "function"
    },
    {
      "inputs": [],
      "name": "getThreshold",
      "outputs": [
        {
          "internalType": "uint256",
          "name": "",
          "type": "uint256"
        }
      ],
      "stateMutability": "view",
      "type": "function"
    },
    {
      "inputs": [
        {
          "internalType": "address",
          "name": "to",
          "type": "address"
        },
        {
          "internalType": "uint256",
          "name": "value",
          "type": "uint256"
        },
        {
          "internalType": "bytes",
          "name": "data",
          "type": "bytes"
        },
        {
          "internalType": "enum Enum.Operation",
          "name": "operation",
          "type": "uint8"
        },
        {
          "internalType": "uint256",
          "name": "safeTxGas",
          "type": "uint256"
        },
        {
          "internalType": "uint256",
          "name": "baseGas",
          "type": "uint256"
        },
        {
          "internalType": "uint256",
          "name": "gasPrice",
          "type": "uint256"
        },
        {
          "internalType": "address",
          "name": "gasToken",
          "type": "address"
        },
        {
          "internalType": "address",
          "name": "refundReceiver",
          "type": "address"
        },
        {
          "internalType": "uint256",
          "name": "_nonce",
          "type": "uint256"
        }
      ],
      "name": "getTransactionHash",
      "outputs": [
        {
          "internalType": "bytes32",
          "name": "",
          "type": "bytes32"
        }
      ],
      "stateMutability": "view",
      "type": "function"
    },
    {
      "inputs": [
        {
          "internalType": "address",
          "name": "owner",
          "type": "address"
        }
      ],
      "name": "isOwner",
      "outputs": [
        {
          "internalType": "bool",
          "name": "",
          "type": "bool"
        }
      ],
      "stateMutability": "view",
      "type": "function"
    },
    {
      "inputs": [],
      "name": "nonce",
      "outputs": [
        {
          "internalType": "uint256",
          "name": "",
          "type": "uint256"
        }
      ],
      "stateMutability": "view",
      "type": "function"
    },
    {
      "inputs": [
        {
          "internalType": "address",
          "name": "prevOwner",
          "type": "address"
        },
        {
          "internalType": "address",
          "name": "owner",
          "type": "address"
        },
        {
          "internalType": "uint256",
          "name": "_threshold",
          "type": "uint256"
        }
      ],
      "name": "removeOwner",
      "outputs": [],
      "stateMutability": "nonpayable",
      "type": "function"
    },
    {
      "inputs": [
        {
          "internalType": "address[]",
          "name": "_owners",
          "type": "address[]"
        },
        {
          "internalType": "uint256",
          "name": "_threshold",
          "type": "uint256"
        },
        {
          "internalType": "address",
          "name": "to",
          "type": "address"
        },
        {
          "internalType": "bytes",
          "name": "data",
          "type": "bytes"
        },
        {
          "internalType": "address",
          "name": "fallbackHandler",
          "type": "address"
        },
        {
          "internalType": "address",
          "name": "paymentToken",
          "type": "address"
        },
        {
          "internalType": "uint256",
          "name": "payment",
          "type": "uint256"
        },
        {
          "internalType": "address payable",
          "name": "paymentReceiver",
          "type": "address"
        }
      ],
      "name": "setup",
      "outputs": [],
      "stateMutability": "nonpayable",
      "type": "function"
    },
    {
      "stateMutability": "payable",
      "type": "receive"
    }
  ],
  "bytecode": "0x608060405234801561001057600080fd5b50611a9e806100206000396000f3fe6080604052600436106100c65760003560e01c8063b63e800d1161007f578063e86637db11610059578063e86637db146101f7578063ed516d5114610224578063f8dc5dd914610244578063ffa1ad741461026457600080fd5b8063b63e800d146101a2578063d8d11f78146101c2578063e75235b8146101e257600080fd5b80630d582f13146100d25780632f54bf6e146100f4578063694e80c3146101295780636a76120214610149578063a0e67e2b1461015c578063affed0e01461017e57600080fd5b366100cd57005b600080fd5b3480156100de57600080fd5b506100f26100ed36600461132c565b610295565b005b34801561010057600080fd5b5061011461010f366004611358565b61043c565b60405190151581526020015b60405180910390f35b34801561013557600080fd5b506100f261014436600461137c565b610477565b610114610157366004611490565b61052f565b34801561016857600080fd5b50610171610688565b6040516101209190611569565b34801561018a57600080fd5b5061019460045481565b604051908152602001610120565b3480156101ae57600080fd5b506100f26101bd3660046115b6565b61077a565b3480156101ce57600080fd5b506101946101dd3660046116ab565b610c52565b3480156101ee57600080fd5b50600354610194565b34801561020357600080fd5b506102176102123660046116ab565b610c7f565b60405161012091906117b2565b34801561023057600080fd5b506100f261023f3660046117c5565b610d46565b34801561025057600080fd5b506100f261025f36600461180c565b610fdd565b34801561027057600080fd5b50610217604051806040016040528060058152602001640312e302e360dc1b81525081565b3330146102bd5760405162461bcd60e51b81526004016102b49061184d565b60405180910390fd5b6001600160a01b038216158015906102df57506001600160a01b038216600114155b80156102f457506001600160a01b0382163014155b6103105760405162461bcd60e51b81526004016102b49061187b565b6001600160a01b0382811660009081526001602052604090205416156103785760405162461bcd60e51b815260206004820152601a60248201527f536166653a204f776e657220616c72656164792065786973747300000000000060448201526064016102b4565b600160208190527fcc69885fda6bcc1a4ace058b4a62bf5e179ea78fd58a1ccd71c22cc9b688792f80546001600160a01b038581166000818152604081208054939094166001600160a01b031993841617909355938252825416909217905560028054916103e5836118be565b90915550506040516001600160a01b03831681527f9465fa0c962cc76958e6373a993326400c1c94f8be2fe3a952adfa7f60b2ea269060200160405180910390a160035481146104385761043881610477565b5050565b60006001600160a01b03821660011480159061047157506001600160a01b038281166000908152600160205260409020541615155b92915050565b3330146104965760405162461bcd60e51b81526004016102b49061184d565b6000811180156104a857506002548111155b6104f45760405162461bcd60e51b815260206004820152601760248201527f536166653a20496e76616c6964207468726573686f6c6400000000000000000060448201526064016102b4565b60038190556040518181527f610f7ff2b304ae8903c3de74c60c6ab1f7d6226b3f52c5161905bb5ad4039c939060200160405180910390a150565b60008060006105498e8e8e8e8e8e8e8e8e8e600454610c7f565b805160208201209250905061055e8285610d46565b506004805490600061056f836118be565b919050555060005a90506105ca8e8e8e8e8080601f016020809104026020016040519081016040528093929190818152602001838380828437600081840152601f19601f820116905080830192505050505050508d8d6111cd565b92505a6105d790826118d7565b9050600087156105f8576105f56105ee8a846118ea565b8888611220565b90505b831561063c5760408051848152602081018390527f442e715f626346e8c54381002da614f62bee8d27386535b2521ec8540898556e910160405180910390a1610676565b60408051848152602081018390527f23428b18acfb3ea64b08dc0c1d296ea9c09702c09083ca5272e64d115b687d23910160405180910390a15b5050509b9a5050505050505050505050565b6060600060025467ffffffffffffffff8111156106a7576106a76113ed565b6040519080825280602002602001820160405280156106d0578160200160208202803683370190505b50600160008181526020919091527fcc69885fda6bcc1a4ace058b4a62bf5e179ea78fd58a1ccd71c22cc9b688792f54919250906001600160a01b03165b6001600160a01b0381166001146107725780838381518110610732576107326118fd565b6001600160a01b0392831660209182029290920181019190915291811660009081526001909252604090912054168161076a816118be565b92505061070e565b509092915050565b600354156107ca5760405162461bcd60e51b815260206004820152601960248201527f536166653a20416c726561647920696e697469616c697a65640000000000000060448201526064016102b4565b6000881161081a5760405162461bcd60e51b815260206004820152601b60248201527f536166653a205468726573686f6c64206d757374206265203e2030000000000060448201526064016102b4565b888811156108765760405162461bcd60e51b815260206004820152602360248201527f536166653a205468726573686f6c642065786365656473206f776e657220636f6044820152621d5b9d60ea1b60648201526084016102b4565b600a8911156108bf5760405162461bcd60e51b8152602060048201526015602482015274536166653a20546f6f206d616e79206f776e65727360581b60448201526064016102b4565b604080517f47e79534a245952e8b16893a336b85a3d9ea9fa8c573f3d803afb92a794692186020820152469181019190915230606082015260800160408051601f19818403018152919052805160209091012060055560005b89811015610a825760008b8b83818110610934576109346118fd565b90506020020160208101906109499190611358565b90506001600160a01b0381161580159061096d57506001600160a01b038116600114155b801561098257506001600160a01b0381163014155b61099e5760405162461bcd60e51b81526004016102b49061187b565b60006109ab8360016118ea565b90505b8b811015610a6d578c8c828181106109c8576109c86118fd565b90506020020160208101906109dd9190611358565b6001600160a01b03168d8d858181106109f8576109f86118fd565b9050602002016020810190610a0d9190611358565b6001600160a01b031603610a5b5760405162461bcd60e51b815260206004820152601560248201527429b0b3329d10223ab83634b1b0ba329037bbb732b960591b60448201526064016102b4565b80610a65816118be565b9150506109ae565b50508080610a7a906118be565b915050610918565b50600160005b8a811015610afb5760008c8c83818110610aa457610aa46118fd565b9050602002016020810190610ab99190611358565b6001600160a01b03938416600090815260016020526040902080546001600160a01b031916948216949094179093555080610af3816118be565b915050610a88565b506001600160a01b03808216600090815260016020819052604090912080546001600160a01b031916909117905560028b905560038a9055881615610be9576000886001600160a01b03168888604051610b56929190611913565b600060405180830381855af49150503d8060008114610b91576040519150601f19603f3d011682016040523d82523d6000602084013e610b96565b606091505b5050905080610be75760405162461bcd60e51b815260206004820152601760248201527f536166653a2053657475702063616c6c206661696c656400000000000000000060448201526064016102b4565b505b336001600160a01b03167f141df868a6331af528e38c83b7aa03edc19be66e37ae67f9285bf4f8e3c6a1a88c8c8c8c8a604051610c2a959493929190611923565b60405180910390a28215610c4557610c43838584611220565b505b5050505050505050505050565b6000610c678c8c8c8c8c8c8c8c8c8c8c610c7f565b8051906020012090509b9a5050505050505050505050565b606060007fbb8310d486368db6bd6f849402fdd73ad53d316b5a4b2644ad6efe0f941286d860001b8d8d8d8d604051610cb9929190611913565b604051908190038120610cdf949392918e908e908e908e908e908e908e906020016119a5565b60408051808303601f19018152908290528051602091820120600554601960f81b92840192909252600160f81b602184015260228301919091526042820181905291506062016040516020818303038152906040529150509b9a5050505050505050505050565b600354610d54906041611a3a565b81511015610da45760405162461bcd60e51b815260206004820152601b60248201527f536166653a204e6f7420656e6f756768207369676e617475726573000000000060448201526064016102b4565b6000808060008060005b600354811015610fd3576041810287016020810151604082015160609092015160001a95509350915060ff8416600003610e3a5760405162461bcd60e51b815260206004820152602760248201527f536166653a20436f6e7472616374207369676e617475726573206e6f742073756044820152661c1c1bdc9d195960ca1b60648201526084016102b4565b8360ff16600103610e975760405162461bcd60e51b815260206004820152602160248201527f536166653a20417070726f7665642068617368206e6f7420737570706f7274656044820152601960fa1b60648201526084016102b4565b6040517f19457468657265756d205369676e6564204d6573736167653a0a3332000000006020820152603c8101899052600190605c0160408051601f198184030181528282528051602091820120600084529083018083525260ff871690820152606081018590526080810184905260a0016020604051602081039080840390855afa158015610f2b573d6000803e3d6000fd5b505050602060405103519450856001600160a01b0316856001600160a01b0316118015610f7157506001600160a01b038581166000908152600160205260409020541615155b610fbd5760405162461bcd60e51b815260206004820152601d60248201527f536166653a20496e76616c6964207369676e6174757265206f7264657200000060448201526064016102b4565b8495508080610fcb906118be565b915050610dae565b5050505050505050565b333014610ffc5760405162461bcd60e51b81526004016102b49061184d565b80600160025461100c91906118d7565b101561106d5760405162461bcd60e51b815260206004820152602a60248201527f536166653a204e6577206f776e657220636f756e74206d757374206265203e3d604482015269081d1a1c995cda1bdb1960b21b60648201526084016102b4565b6001600160a01b0382161580159061108f57506001600160a01b038216600114155b6110ab5760405162461bcd60e51b81526004016102b49061187b565b6001600160a01b038381166000908152600160205260409020548116908316146111225760405162461bcd60e51b815260206004820152602260248201527f536166653a20496e76616c696420707265764f776e65722f6f776e657220706160448201526134b960f11b60648201526084016102b4565b6001600160a01b03828116600081815260016020526040808220805488861684529183208054929095166001600160a01b0319928316179094559181528254909116909155600280549161117583611a51565b90915550506040516001600160a01b03831681527ff8d49fc529812e9a7c5c50e69c20f0dccc0db8fa95c98bc58cc9a4f1c1299eaf9060200160405180910390a160035481146111c8576111c881610477565b505050565b6000816000036111db575a91505b60018360018111156111ef576111ef61198f565b03611207576000808551602087018986f49050611217565b600080855160208701888a87f190505b95945050505050565b600061122c3a85611a3a565b905060006001600160a01b038316156112455782611247565b325b90506001600160a01b0384166112fc576000816001600160a01b03168360405160006040518083038185875af1925050503d80600081146112a4576040519150601f19603f3d011682016040523d82523d6000602084013e6112a9565b606091505b50509050806112fa5760405162461bcd60e51b815260206004820152601860248201527f536166653a20455448207061796d656e74206661696c6564000000000000000060448201526064016102b4565b505b509392505050565b6001600160a01b038116811461131957600080fd5b50565b803561132781611304565b919050565b6000806040838503121561133f57600080fd5b823561134a81611304565b946020939093013593505050565b60006020828403121561136a57600080fd5b813561137581611304565b9392505050565b60006020828403121561138e57600080fd5b5035919050565b60008083601f8401126113a757600080fd5b50813567ffffffffffffffff8111156113bf57600080fd5b6020830191508360208285010111156113d757600080fd5b9250929050565b80356002811061132757600080fd5b634e487b7160e01b600052604160045260246000fd5b600082601f83011261141457600080fd5b813567ffffffffffffffff8082111561142f5761142f6113ed565b604051601f8301601f19908116603f01168101908282118183101715611457576114576113ed565b8160405283815286602085880101111561147057600080fd5b836020870160208301376000602085830101528094505050505092915050565b60008060008060008060008060008060006101408c8e0312156114b257600080fd5b6114bb8c61131c565b9a5060208c0135995067ffffffffffffffff8060408e013511156114de57600080fd5b6114ee8e60408f01358f01611395565b909a5098506114ff60608e016113de565b975060808d0135965060a08d0135955060c08d0135945061152260e08e0161131c565b93506115316101008e0161131c565b9250806101208e0135111561154557600080fd5b506115578d6101208e01358e01611403565b90509295989b509295989b9093969950565b6020808252825182820181905260009190848201906040850190845b818110156115aa5783516001600160a01b031683529284019291840191600101611585565b50909695505050505050565b6000806000806000806000806000806101008b8d0312156115d657600080fd5b8a3567ffffffffffffffff808211156115ee57600080fd5b818d0191508d601f83011261160257600080fd5b81358181111561161157600080fd5b8e60208260051b850101111561162657600080fd5b60208381019d50909b508d0135995061164160408e0161131c565b985060608d013591508082111561165757600080fd5b506116648d828e01611395565b9097509550611677905060808c0161131c565b935061168560a08c0161131c565b925060c08b0135915061169a60e08c0161131c565b90509295989b9194979a5092959850565b60008060008060008060008060008060006101408c8e0312156116cd57600080fd5b8b356116d881611304565b9a5060208c0135995060408c013567ffffffffffffffff8111156116fb57600080fd5b6117078e828f01611395565b909a50985061171a905060608d016113de565b965060808c0135955060a08c0135945060c08c0135935060e08c013561173f81611304565b92506101008c013561175081611304565b809250506101208c013590509295989b509295989b9093969950565b6000815180845260005b8181101561179257602081850181015186830182015201611776565b506000602082860101526020601f19601f83011685010191505092915050565b602081526000611375602083018461176c565b600080604083850312156117d857600080fd5b82359150602083013567ffffffffffffffff8111156117f657600080fd5b61180285828601611403565b9150509250929050565b60008060006060848603121561182157600080fd5b833561182c81611304565b9250602084013561183c81611304565b929592945050506040919091013590565b60208082526014908201527314d859994e88139bdd08185d5d1a1bdc9a5e995960621b604082015260600190565b60208082526013908201527229b0b3329d1024b73b30b634b21037bbb732b960691b604082015260600190565b634e487b7160e01b600052601160045260246000fd5b6000600182016118d0576118d06118a8565b5060010190565b81810381811115610471576104716118a8565b80820180821115610471576104716118a8565b634e487b7160e01b600052603260045260246000fd5b8183823760009101908152919050565b6080808252810185905260008660a08301825b8881101561196657823561194981611304565b6001600160a01b0316825260209283019290910190600101611936565b50602084019690965250506001600160a01b039283166040820152911660609091015292915050565b634e487b7160e01b600052602160045260246000fd5b8b81526001600160a01b038b166020820152604081018a9052606081018990526101608101600289106119e857634e487b7160e01b600052602160045260246000fd5b8860808301528760a08301528660c08301528560e0830152611a166101008301866001600160a01b03169052565b6001600160a01b039390931661012082015261014001529998505050505050505050565b8082028115828204841417610471576104716118a8565b600081611a6057611a606118a8565b50600019019056fea264697066735822122039e9f129da20c5d6204a364b9f2866537550bdbd7fa53390a124a76b5a39521964736f6c63430008140033",
  "linkReferences": {},
  "deployedLinkReferences": {}
}