{
  "_format": "hh-sol-artifact-1",
  "contractName": "Debit",
  "sourceName": "contracts/market/debit/Debit.sol",
  "abi": [
    {
      "inputs": [
        {
          "internalType": "address",
          "name": "_market",
          "type": "address"
        }
      ],
      "stateMutability": "nonpayable",
      "type": "constructor"
    },
    {
      "inputs": [],
      "name": "InvalidShortString",
      "type": "error"
    },
    {
      "inputs": [
        {
          "internalType": "string",
          "name": "str",
          "type": "string"
        }
      ],
      "name": "StringTooLong",
      "type": "error"
    },
    {
      "anonymous": false,
      "inputs": [
        {
          "indexed": true,
          "internalType": "address",
          "name": "client",
          "type": "address"
        },
        {
          "indexed": false,
          "internalType": "uint256",
          "name": "newLimit",
          "type": "uint256"
        }
      ],
      "name": "DailyLimitUpdated",
      "type": "event"
    },
    {
      "anonymous": false,
      "inputs": [
        {
          "indexed": true,
          "internalType": "uint256",
          "name": "txId",
          "type": "uint256"
        },
        {
          "indexed": true,
          "internalType": "address",
          "name": "client",
          "type": "address"
        },
        {
          "indexed": true,
          "internalType": "address",
          "name": "provider",
          "type": "address"
        },
        {
          "indexed": false,
          "internalType": "uint256",
          "name": "amount",
          "type": "uint256"
        },
        {
          "indexed": false,
          "internalType": "uint256",
          "name": "treasuryFee",
          "type": "uint256"
        },
        {
          "indexed": false,
          "internalType": "uint256",
          "name": "providerAmount",
          "type": "uint256"
        },
        {
          "indexed": false,
          "internalType": "uint256",
          "name": "nonce",
          "type": "uint256"
        }
      ],
      "name": "DebitExecuted",
      "type": "event"
    },
    {
      "anonymous": false,
      "inputs": [],
      "name": "EIP712DomainChanged",
      "type": "event"
    },
    {
      "anonymous": false,
      "inputs": [
        {
          "indexed": true,
          "internalType": "address",
          "name": "newMarket",
          "type": "address"
        }
      ],
      "name": "MarketUpdated",
      "type": "event"
    },
    {
      "anonymous": false,
      "inputs": [
        {
          "indexed": true,
          "internalType": "address",
          "name": "previousOwner",
          "type": "address"
        },
        {
          "indexed": true,
          "internalType": "address",
          "name": "newOwner",
          "type": "address"
        }
      ],
      "name": "OwnershipTransferred",
      "type": "event"
    },
    {
      "anonymous": false,
      "inputs": [
        {
          "indexed": false,
          "internalType": "bool",
          "name": "required",
          "type": "bool"
        }
      ],
      "name": "SignatureRequirementUpdated",
      "type": "event"
    },
    {
      "inputs": [],
      "name": "DEBIT_TYPEHASH",
      "outputs": [
        {
          "internalType": "bytes32",
          "name": "",
          "type": "bytes32"
        }
      ],
      "stateMutability": "view",
      "type": "function"
    },
    {
      "inputs": [],
      "name": "DEFAULT_DAILY_LIMIT",
      "outputs": [
        {
          "internalType": "uint256",
          "name": "",
          "type": "uint256"
        }
      ],
      "stateMutability": "view",
      "type": "function"
    },
    {
      "inputs": [],
      "name": "TREASURY_FEE_PERCENT",
      "outputs": [
        {
          "internalType": "uint256",
          "name": "",
          "type": "uint256"
        }
      ],
      "stateMutability": "view",
      "type": "function"
    },
    {
      "inputs": [
        {
          "internalType": "address",
          "name": "",
          "type": "address"
        }
      ],
      "name": "dailyLimit",
      "outputs": [
        {
          "internalType": "uint256",
          "name": "",
          "type": "uint256"
        }
      ],
      "stateMutability": "view",
      "type": "function"
    },
    {
      "inputs": [
        {
          "internalType": "address",
          "name": "",
          "type": "address"
        },
        {
          "internalType": "uint256",
          "name": "",
          "type": "uint256"
        }
      ],
      "name": "dailySpent",
      "outputs": [
        {
          "internalType": "uint256",
          "name": "",
          "type": "uint256"
        }
      ],
      "stateMutability": "view",
      "type": "function"
    },
    {
      "inputs": [],
      "name": "eip712Domain",
      "outputs": [
        {
          "internalType": "bytes1",
          "name": "fields",
          "type": "bytes1"
        },
        {
          "internalType": "string",
          "name": "name",
          "type": "string"
        },
        {
          "internalType": "string",
          "name": "version",
          "type": "string"
        },
        {
          "internalType": "uint256",
          "name": "chainId",
          "type": "uint256"
        },
        {
          "internalType": "address",
          "name": "verifyingContract",
          "type": "address"
        },
        {
          "internalType": "bytes32",
          "name": "salt",
          "type": "bytes32"
        },
        {
          "internalType": "uint256[]",
          "name": "extensions",
          "type": "uint256[]"
        }
      ],
      "stateMutability": "view",
      "type": "function"
    },
    {
      "inputs": [
        {
          "internalType": "address",
          "name": "client",
          "type": "address"
        },
        {
          "internalType": "address",
          "name": "provider",
          "type": "address"
        },
        {
          "internalType": "uint256",
          "name": "stableAmount",
          "type": "uint256"
        },
        {
          "internalType": "uint256",
          "name": "deadline",
          "type": "uint256"
        },
        {
          "internalType": "bytes",
          "name": "signature",
          "type": "bytes"
        }
      ],
      "name": "executeDebit",
      "outputs": [
        {
          "internalType": "uint256",
          "name": "",
          "type": "uint256"
        }
      ],
      "stateMutability": "nonpayable",
      "type": "function"
    },
    {
      "inputs": [
        {
          "internalType": "address",
          "name": "client",
          "type": "address"
        },
        {
          "internalType": "address",
          "name": "provider",
          "type": "address"
        },
        {
          "internalType": "uint256",
          "name": "stableAmount",
          "type": "uint256"
        }
      ],
      "name": "executeDebitUnsigned",
      "outputs": [
        {
          "internalType": "uint256",
          "name": "",
          "type": "uint256"
        }
      ],
      "stateMutability": "nonpayable",
      "type": "function"
    },
    {
      "inputs": [
        {
          "internalType": "address",
          "name": "client",
          "type": "address"
        }
      ],
      "name": "getDailyRemaining",
      "outputs": [
        {
          "internalType": "uint256",
          "name": "",
          "type": "uint256"
        }
      ],
      "stateMutability": "view",
      "type": "function"
    },
    {
      "inputs": [
        {
          "internalType": "address",
          "name": "client",
          "type": "address"
        }
      ],
      "name": "getDailySpent",
      "outputs": [
        {
          "internalType": "uint256",
          "name": "",
          "type": "uint256"
        }
      ],
      "stateMutability": "view",
      "type": "function"
    },
    {
      "inputs": [],
      "name": "getDomainSeparator",
      "outputs": [
        {
          "internalType": "bytes32",
          "name": "",
          "type": "bytes32"
        }
      ],
      "stateMutability": "view",
      "type": "function"
    },
    {
      "inputs": [
        {
          "internalType": "address",
          "name": "client",
          "type": "address"
        }
      ],
      "name": "getEffectiveDailyLimit",
      "outputs": [
        {
          "internalType": "uint256",
          "name": "",
          "type": "uint256"
        }
      ],
      "stateMutability": "view",
      "type": "function"
    },
    {
      "inputs": [
        {
          "internalType": "address",
          "name": "_client",
          "type": "address"
        },
        {
          "internalType": "address",
          "name": "_provider",
          "type": "address"
        }
      ],
      "name": "getLastDebit",
      "outputs": [
        {
          "internalType": "uint256",
          "name": "amount",
          "type": "uint256"
        },
        {
          "internalType": "uint256",
          "name": "timestamp",
          "type": "uint256"
        },
        {
          "internalType": "uint256",
          "name": "nonce",
          "type": "uint256"
        }
      ],
      "stateMutability": "view",
      "type": "function"
    },
    {
      "inputs": [
        {
          "internalType": "address",
          "name": "_client",
          "type": "address"
        }
      ],
      "name": "getNonce",
      "outputs": [
        {
          "internalType": "uint256",
          "name": "",
          "type": "uint256"
        }
      ],
      "stateMutability": "view",
      "type": "function"
    },
    {
      "inputs": [
        {
          "internalType": "address",
          "name": "",
          "type": "address"
        },
        {
          "internalType": "address",
          "name": "",
          "type": "address"
        }
      ],
      "name": "lastDebit",
      "outputs": [
        {
          "internalType": "uint256",
          "name": "amount",
          "type": "uint256"
        },
        {
          "internalType": "uint256",
          "name": "timestamp",
          "type": "uint256"
        },
        {
          "internalType": "uint256",
          "name": "nonce",
          "type": "uint256"
        }
      ],
      "stateMutability": "view",
      "type": "function"
    },
    {
      "inputs": [],
      "name": "market",
      "outputs": [
        {
          "internalType": "contract IMarket",
          "name": "",
          "type": "address"
        }
      ],
      "stateMutability": "view",
      "type": "function"
    },
    {
      "inputs": [],
      "name": "nextTransactionId",
      "outputs": [
        {
          "internalType": "uint256",
          "name": "",
          "type": "uint256"
        }
      ],
      "stateMutability": "view",
      "type": "function"
    },
    {
      "inputs": [
        {
          "internalType": "address",
          "name": "",
          "type": "address"
        }
      ],
      "name": "nonces",
      "outputs": [
        {
          "internalType": "uint256",
          "name": "",
          "type": "uint256"
        }
      ],
      "stateMutability": "view",
      "type": "function"
    },
    {
      "inputs": [],
      "name": "owner",
      "outputs": [
        {
          "internalType": "address",
          "name": "",
          "type": "address"
        }
      ],
      "stateMutability": "view",
      "type": "function"
    },
    {
      "inputs": [],
      "name": "renounceOwnership",
      "outputs": [],
      "stateMutability": "nonpayable",
      "type": "function"
    },
    {
      "inputs": [
        {
          "internalType": "uint256",
          "name": "_limit",
          "type": "uint256"
        }
      ],
      "name": "setDailyLimit",
      "outputs": [],
      "stateMutability": "nonpayable",
      "type": "function"
    },
    {
      "inputs": [
        {
          "internalType": "address",
          "name": "_market",
          "type": "address"
        }
      ],
      "name": "setMarket",
      "outputs": [],
      "stateMutability": "nonpayable",
      "type": "function"
    },
    {
      "inputs": [
        {
          "internalType": "bool",
          "name": "_required",
          "type": "bool"
        }
      ],
      "name": "setSignatureRequired",
      "outputs": [],
      "stateMutability": "nonpayable",
      "type": "function"
    },
    {
      "inputs": [],
      "name": "signatureRequired",
      "outputs": [
        {
          "internalType": "bool",
          "name": "",
          "type": "bool"
        }
      ],
      "stateMutability": "view",
      "type": "function"
    },
    {
      "inputs": [
        {
          "internalType": "address",
          "name": "newOwner",
          "type": "address"
        }
      ],
      "name": "transferOwnership",
      "outputs": [],
      "stateMutability": "nonpayable",
      "type": "function"
    }
  ],
  "bytecode": "0x61016060405260016005553480156200001757600080fd5b50604051620020c4380380620020c48339810160408190526200003a916200027b565b604080518082018252600b81526a13585c9ad95d1119589a5d60aa1b602080830191909152825180840190935260018352603160f81b908301529062000082826000620001ad565b6101205262000093816001620001ad565b61014052815160208084019190912060e052815190820120610100524660a0526200012160e05161010051604080517f8b73c3c69bb8fe3d512ecc4cf759cc79239f7b179b0ffacaa9a75d522b39400f60208201529081019290925260608201524660808201523060a082015260009060c00160405160208183030381529060405280519060200120905090565b60805250503060c05260016002556200013a33620001e6565b6001600160a01b038116620001875760405162461bcd60e51b815260206004820152600e60248201526d125b9d985b1a59081b585c9ad95d60921b60448201526064015b60405180910390fd5b600480546001600160a01b0319166001600160a01b039290921691909117905562000493565b6000602083511015620001cd57620001c58362000238565b9050620001e0565b81620001da848262000352565b5060ff90505b92915050565b600380546001600160a01b038381166001600160a01b0319831681179093556040519116919082907f8be0079c531659141344cd1fd0a4f28419497f9722a3daafe3b4186f6b6457e090600090a35050565b600080829050601f8151111562000266578260405163305a27a960e01b81526004016200017e91906200041e565b805162000273826200046e565b179392505050565b6000602082840312156200028e57600080fd5b81516001600160a01b0381168114620002a657600080fd5b9392505050565b634e487b7160e01b600052604160045260246000fd5b600181811c90821680620002d857607f821691505b602082108103620002f957634e487b7160e01b600052602260045260246000fd5b50919050565b601f8211156200034d57600081815260208120601f850160051c81016020861015620003285750805b601f850160051c820191505b81811015620003495782815560010162000334565b5050505b505050565b81516001600160401b038111156200036e576200036e620002ad565b62000386816200037f8454620002c3565b84620002ff565b602080601f831160018114620003be5760008415620003a55750858301515b600019600386901b1c1916600185901b17855562000349565b600085815260208120601f198616915b82811015620003ef57888601518255948401946001909101908401620003ce565b50858210156200040e5787850151600019600388901b60f8161c191681555b5050505050600190811b01905550565b600060208083528351808285015260005b818110156200044d578581018301518582016040015282016200042f565b506000604082860101526040601f19601f8301168501019250505092915050565b80516020808301519190811015620002f95760001960209190910360031b1b16919050565b60805160a05160c05160e051610100516101205161014051611bd6620004ee600039600061076101526000610737015260006114820152600061145a015260006113b5015260006113df015260006114090152611bd66000f3fe608060405234801561001057600080fd5b50600436106101735760003560e01c80638da5cb5b116100de578063d7ca38f311610097578063f2fde38b11610071578063f2fde38b146103db578063f3f51415146103ee578063f6eb0fb41461040e578063fe67050f1461042157600080fd5b8063d7ca38f3146103c2578063e111703a146103cb578063ed24911d146103d357600080fd5b80638da5cb5b146103375780639061a57f1461034857806399ffbe5f14610373578063a30b8ed414610386578063aecbdfd7146103a3578063b20d30a9146103af57600080fd5b80636dcea85f116101305780636dcea85f146102a1578063715018a6146102b65780637ecebe00146102be57806380f55605146102de57806384b0196e1461030957806385d1c9f41461032457600080fd5b80630ccd698c146101785780632d0335ab146101f75780634a52442e1461022e5780635b8c9337146102415780636218f5931461025457806365528ac314610267575b600080fd5b6101d76101863660046117b2565b6001600160a01b039182166000908152600a60209081526040808320939094168252918252829020825160608101845281548082526001830154938201849052600290920154930183905292909190565b604080519384526020840192909252908201526060015b60405180910390f35b6102206102053660046117eb565b6001600160a01b031660009081526007602052604090205490565b6040519081526020016101ee565b61022061023c3660046117eb565b610448565b61022061024f3660046117eb565b61047a565b61022061026236600461181e565b6104b1565b6101d76102753660046117b2565b600a60209081526000928352604080842090915290825290208054600182015460029092015490919083565b6102b46102af3660046117eb565b61067c565b005b6102b4610715565b6102206102cc3660046117eb565b60076020526000908152604090205481565b6004546102f1906001600160a01b031681565b6040516001600160a01b0390911681526020016101ee565b610311610729565b6040516101ee979695949392919061194e565b6102206103323660046119e4565b6107b1565b6003546001600160a01b03166102f1565b610220610356366004611a25565b600960209081526000928352604080842090915290825290205481565b6102b4610381366004611a51565b610a41565b6006546103939060ff1681565b60405190151581526020016101ee565b61022064174876e80081565b6102b46103bd366004611a73565b610a90565b61022060055481565b610220600581565b610220610b23565b6102b46103e93660046117eb565b610b32565b6102206103fc3660046117eb565b60086020526000908152604090205481565b61022061041c3660046117eb565b610bab565b6102207fba6e6fc85897dfdad4078f1deba73c999c65d49cd2810347919f081e623d544081565b6001600160a01b038116600090815260086020526040812054806104715764174876e800610473565b805b9392505050565b6001600160a01b03811660009081526009602052604081208161049b610c0f565b8152602001908152602001600020549050919050565b60006104bb610c1e565b600084116105015760405162461bcd60e51b815260206004820152600e60248201526d125b9d985b1a5908185b5bdd5b9d60921b60448201526064015b60405180910390fd5b6001600160a01b0386166105485760405162461bcd60e51b815260206004820152600e60248201526d125b9d985b1a590818db1a595b9d60921b60448201526064016104f8565b6001600160a01b0385166105915760405162461bcd60e51b815260206004820152601060248201526f24b73b30b634b210383937bb34b232b960811b60448201526064016104f8565b600480546040516370a0823160e01b81526001600160a01b03898116938201939093528692909116906370a0823190602401602060405180830381865afa1580156105e0573d6000803e3d6000fd5b505050506040513d601f19601f820116820180604052508101906106049190611a8c565b10156106495760405162461bcd60e51b8152602060048201526014602482015273496e73756666696369656e742062616c616e636560601b60448201526064016104f8565b60006106588787878787610c75565b905061066687878784610e4e565b9150506106736001600255565b95945050505050565b61068461124f565b6001600160a01b0381166106cb5760405162461bcd60e51b815260206004820152600e60248201526d125b9d985b1a59081b585c9ad95d60921b60448201526064016104f8565b600480546001600160a01b0319166001600160a01b0383169081179091556040517f7069fd9fab3e4fe83cc8eef039cb4a73a437f72a7e2afa41a88ef13a4e74894b90600090a250565b61071d61124f565b61072760006112a9565b565b60006060808280808361075c7f0000000000000000000000000000000000000000000000000000000000000000836112fb565b6107877f000000000000000000000000000000000000000000000000000000000000000060016112fb565b60408051600080825260208201909252600f60f81b9b939a50919850469750309650945092509050565b60006107bb610c1e565b60065460ff16156108045760405162461bcd60e51b815260206004820152601360248201527214da59db985d1d5c995cc81c995c5d5a5c9959606a1b60448201526064016104f8565b6004546001600160a01b031633148061082757506003546001600160a01b031633145b6108625760405162461bcd60e51b815260206004820152600c60248201526b155b985d5d1a1bdc9a5e995960a21b60448201526064016104f8565b600082116108a35760405162461bcd60e51b815260206004820152600e60248201526d125b9d985b1a5908185b5bdd5b9d60921b60448201526064016104f8565b6001600160a01b0384166108ea5760405162461bcd60e51b815260206004820152600e60248201526d125b9d985b1a590818db1a595b9d60921b60448201526064016104f8565b6001600160a01b0383166109335760405162461bcd60e51b815260206004820152601060248201526f24b73b30b634b210383937bb34b232b960811b60448201526064016104f8565b600480546040516370a0823160e01b81526001600160a01b03878116938201939093528492909116906370a0823190602401602060405180830381865afa158015610982573d6000803e3d6000fd5b505050506040513d601f19601f820116820180604052508101906109a69190611a8c565b10156109eb5760405162461bcd60e51b8152602060048201526014602482015273496e73756666696369656e742062616c616e636560601b60448201526064016104f8565b6001600160a01b038416600090815260076020526040902054610a0f816001611abb565b6001600160a01b038616600090815260076020526040902055610a3485858584610e4e565b9150506104736001600255565b610a4961124f565b6006805460ff19168215159081179091556040519081527f562f712a2a8452e5f4edf2922649bec7bc941f58c9b8fe619f87c210abcbcd259060200160405180910390a150565b60008111610ad45760405162461bcd60e51b815260206004820152601160248201527004c696d6974206d757374206265203e203607c1b60448201526064016104f8565b3360008181526008602052604090819020839055517f074424510750f675220b94bac388bff82d6407b38f341b0226af2ab45af33dc290610b189084815260200190565b60405180910390a250565b6000610b2d6113a8565b905090565b610b3a61124f565b6001600160a01b038116610b9f5760405162461bcd60e51b815260206004820152602660248201527f4f776e61626c653a206e6577206f776e657220697320746865207a65726f206160448201526564647265737360d01b60648201526084016104f8565b610ba8816112a9565b50565b600080610bb783610448565b6001600160a01b03841660009081526009602052604081209192509081610bdc610c0f565b815260200190815260200160002054905081811015610c0457610bff8183611ace565b610c07565b60005b949350505050565b6000610b2d6201518042611ae1565b6002805403610c6f5760405162461bcd60e51b815260206004820152601f60248201527f5265656e7472616e637947756172643a207265656e7472616e742063616c6c0060448201526064016104f8565b60028055565b60008151604114610cc85760405162461bcd60e51b815260206004820152601860248201527f496e76616c6964207369676e6174757265206c656e677468000000000000000060448201526064016104f8565b82421115610d0c5760405162461bcd60e51b815260206004820152601160248201527014da59db985d1d5c9948195e1c1a5c9959607a1b60448201526064016104f8565b506001600160a01b0385811660008181526007602090815260408083205481517fba6e6fc85897dfdad4078f1deba73c999c65d49cd2810347919f081e623d5440938101939093529082019390935292871660608401526080830186905260a0830182905260c08301859052909160e00160408051601f198184030181529181528151602092830120918501519085015160608601519293509091600090811a90610dc1610db9866114d3565b838686611500565b90508a6001600160a01b0316816001600160a01b031614610e185760405162461bcd60e51b8152602060048201526011602482015270496e76616c6964207369676e617475726560781b60448201526064016104f8565b610e23866001611abb565b6001600160a01b03909b1660009081526007602052604090209a909a55509298975050505050505050565b600080610e59610c0f565b90506000610e6687610448565b6001600160a01b038816600090815260096020908152604080832086845290915290205490915081610e988783611abb565b1115610ee65760405162461bcd60e51b815260206004820152601d60248201527f4461696c79207370656e64696e67206c696d697420657863656564656400000060448201526064016104f8565b610ef08682611abb565b6001600160a01b03891660009081526009602090815260408083208784529091528120919091556064610f24600589611b03565b610f2e9190611ae1565b90506000610f3c8289611ace565b6004805460405163d4335c3960e01b81526001600160a01b038e811693820193909352602481018c9052929350169063d4335c3990604401600060405180830381600087803b158015610f8e57600080fd5b505af1158015610fa2573d6000803e3d6000fd5b505060048054604080516361d027b360e01b815290516001600160a01b03909216945063940c6ffb935084926361d027b39282820192602092908290030181865afa158015610ff5573d6000803e3d6000fd5b505050506040513d601f19601f820116820180604052508101906110199190611b1a565b6040516001600160e01b031960e084901b1681526001600160a01b03909116600482015260248101859052604401600060405180830381600087803b15801561106157600080fd5b505af1158015611075573d6000803e3d6000fd5b505060048054604051636f56cf2f60e11b81529182018690526001600160a01b0316925063dead9e5e9150602401600060405180830381600087803b1580156110bd57600080fd5b505af11580156110d1573d6000803e3d6000fd5b50506004805460405163940c6ffb60e01b81526001600160a01b038e811693820193909352602481018690529116925063940c6ffb9150604401600060405180830381600087803b15801561112557600080fd5b505af1158015611139573d6000803e3d6000fd5b50505050604051806060016040528089815260200142815260200188815250600a60008c6001600160a01b03166001600160a01b0316815260200190815260200160002060008b6001600160a01b03166001600160a01b03168152602001908152602001600020600082015181600001556020820151816001015560408201518160020155905050600560008154809291906111d490611b37565b919050559550886001600160a01b03168a6001600160a01b0316877fc11b2bf85a1699476a9c7a01abda42c469911364350489c4b4a73a1e387302d98b86868d60405161123a949392919093845260208401929092526040830152606082015260800190565b60405180910390a45050505050949350505050565b6003546001600160a01b031633146107275760405162461bcd60e51b815260206004820181905260248201527f4f776e61626c653a2063616c6c6572206973206e6f7420746865206f776e657260448201526064016104f8565b600380546001600160a01b038381166001600160a01b0319831681179093556040519116919082907f8be0079c531659141344cd1fd0a4f28419497f9722a3daafe3b4186f6b6457e090600090a35050565b606060ff83146113155761130e83611528565b90506113a2565b81805461132190611b50565b80601f016020809104026020016040519081016040528092919081815260200182805461134d90611b50565b801561139a5780601f1061136f5761010080835404028352916020019161139a565b820191906000526020600020905b81548152906001019060200180831161137d57829003601f168201915b505050505090505b92915050565b6000306001600160a01b037f00000000000000000000000000000000000000000000000000000000000000001614801561140157507f000000000000000000000000000000000000000000000000000000000000000046145b1561142b57507f000000000000000000000000000000000000000000000000000000000000000090565b610b2d604080517f8b73c3c69bb8fe3d512ecc4cf759cc79239f7b179b0ffacaa9a75d522b39400f60208201527f0000000000000000000000000000000000000000000000000000000000000000918101919091527f000000000000000000000000000000000000000000000000000000000000000060608201524660808201523060a082015260009060c00160405160208183030381529060405280519060200120905090565b60006113a26114e06113a8565b8360405161190160f01b8152600281019290925260228201526042902090565b600080600061151187878787611567565b9150915061151e8161162b565b5095945050505050565b6060600061153583611775565b604080516020808252818301909252919250600091906020820181803683375050509182525060208101929092525090565b6000807f7fffffffffffffffffffffffffffffff5d576e7357a4501ddfe92f46681b20a083111561159e5750600090506003611622565b6040805160008082526020820180845289905260ff881692820192909252606081018690526080810185905260019060a0016020604051602081039080840390855afa1580156115f2573d6000803e3d6000fd5b5050604051601f1901519150506001600160a01b03811661161b57600060019250925050611622565b9150600090505b94509492505050565b600081600481111561163f5761163f611b8a565b036116475750565b600181600481111561165b5761165b611b8a565b036116a85760405162461bcd60e51b815260206004820152601860248201527f45434453413a20696e76616c6964207369676e6174757265000000000000000060448201526064016104f8565b60028160048111156116bc576116bc611b8a565b036117095760405162461bcd60e51b815260206004820152601f60248201527f45434453413a20696e76616c6964207369676e6174757265206c656e6774680060448201526064016104f8565b600381600481111561171d5761171d611b8a565b03610ba85760405162461bcd60e51b815260206004820152602260248201527f45434453413a20696e76616c6964207369676e6174757265202773272076616c604482015261756560f01b60648201526084016104f8565b600060ff8216601f81111561047157604051632cd44ac360e21b815260040160405180910390fd5b6001600160a01b0381168114610ba857600080fd5b600080604083850312156117c557600080fd5b82356117d08161179d565b915060208301356117e08161179d565b809150509250929050565b6000602082840312156117fd57600080fd5b81356104738161179d565b634e487b7160e01b600052604160045260246000fd5b600080600080600060a0868803121561183657600080fd5b85356118418161179d565b945060208601356118518161179d565b93506040860135925060608601359150608086013567ffffffffffffffff8082111561187c57600080fd5b818801915088601f83011261189057600080fd5b8135818111156118a2576118a2611808565b604051601f8201601f19908116603f011681019083821181831017156118ca576118ca611808565b816040528281528b60208487010111156118e357600080fd5b8260208601602083013760006020848301015280955050505050509295509295909350565b6000815180845260005b8181101561192e57602081850181015186830182015201611912565b506000602082860101526020601f19601f83011685010191505092915050565b60ff60f81b881681526000602060e08184015261196e60e084018a611908565b8381036040850152611980818a611908565b606085018990526001600160a01b038816608086015260a0850187905284810360c0860152855180825283870192509083019060005b818110156119d2578351835292840192918401916001016119b6565b50909c9b505050505050505050505050565b6000806000606084860312156119f957600080fd5b8335611a048161179d565b92506020840135611a148161179d565b929592945050506040919091013590565b60008060408385031215611a3857600080fd5b8235611a438161179d565b946020939093013593505050565b600060208284031215611a6357600080fd5b8135801515811461047357600080fd5b600060208284031215611a8557600080fd5b5035919050565b600060208284031215611a9e57600080fd5b5051919050565b634e487b7160e01b600052601160045260246000fd5b808201808211156113a2576113a2611aa5565b818103818111156113a2576113a2611aa5565b600082611afe57634e487b7160e01b600052601260045260246000fd5b500490565b80820281158282048414176113a2576113a2611aa5565b600060208284031215611b2c57600080fd5b81516104738161179d565b600060018201611b4957611b49611aa5565b5060010190565b600181811c90821680611b6457607f821691505b602082108103611b8457634e487b7160e01b600052602260045260246000fd5b50919050565b634e487b7160e01b600052602160045260246000fdfea26469706673582212208a51072621cc2a3f655e1c58f16c062d57f37d84a0ba881d9a4b9ebeb00c322a64736f6c63430008140033",
  "linkReferences": {},
  "deployedLinkReferences": {}
}