{
  "_format": "hh-sol-artifact-1",
  "contractName": "Debit",
  "sourceName": "contracts/market/debit/Debit.sol",
  "abi": [
    {
      "inputs": [
        {
          "internalType": "address",
          "name": "_market",
          "type": "address"
        }
      ],
      "stateMutability": "nonpayable",
      "type": "constructor"
    },
    {
      "inputs": [],
      "name": "InvalidShortString",
      "type": "error"
    },
    {
      "inputs": [
        {
          "internalType": "string",
          "name": "str",
          "type": "string"
        }
      ],
      "name": "StringTooLong",
      "type": "error"
    },
    {
      "anonymous": false,
      "inputs": [
        {
          "indexed": true,
          "internalType": "uint256",
          "name": "txId",
          "type": "uint256"
        },
        {
          "indexed": true,
          "internalType": "address",
          "name": "client",
          "type": "address"
        },
        {
          "indexed": true,
          "internalType": "address",
          "name": "provider",
          "type": "address"
        },
        {
          "indexed": false,
          "internalType": "uint256",
          "name": "amount",
          "type": "uint256"
        },
        {
          "indexed": false,
          "internalType": "uint256",
          "name": "treasuryFee",
          "type": "uint256"
        },
        {
          "indexed": false,
          "internalType": "uint256",
          "name": "providerAmount",
          "type": "uint256"
        },
        {
          "indexed": false,
          "internalType": "uint256",
          "name": "nonce",
          "type": "uint256"
        }
      ],
      "name": "DebitExecuted",
      "type": "event"
    },
    {
      "anonymous": false,
      "inputs": [],
      "name": "EIP712DomainChanged",
      "type": "event"
    },
    {
      "anonymous": false,
      "inputs": [
        {
          "indexed": true,
          "internalType": "address",
          "name": "newMarket",
          "type": "address"
        }
      ],
      "name": "MarketUpdated",
      "type": "event"
    },
    {
      "anonymous": false,
      "inputs": [
        {
          "indexed": true,
          "internalType": "address",
          "name": "previousOwner",
          "type": "address"
        },
        {
          "indexed": true,
          "internalType": "address",
          "name": "newOwner",
          "type": "address"
        }
      ],
      "name": "OwnershipTransferred",
      "type": "event"
    },
    {
      "anonymous": false,
      "inputs": [
        {
          "indexed": false,
          "internalType": "bool",
          "name": "required",
          "type": "bool"
        }
      ],
      "name": "SignatureRequirementUpdated",
      "type": "event"
    },
    {
      "inputs": [],
      "name": "DEBIT_TYPEHASH",
      "outputs": [
        {
          "internalType": "bytes32",
          "name": "",
          "type": "bytes32"
        }
      ],
      "stateMutability": "view",
      "type": "function"
    },
    {
      "inputs": [],
      "name": "TREASURY_FEE_PERCENT",
      "outputs": [
        {
          "internalType": "uint256",
          "name": "",
          "type": "uint256"
        }
      ],
      "stateMutability": "view",
      "type": "function"
    },
    {
      "inputs": [],
      "name": "eip712Domain",
      "outputs": [
        {
          "internalType": "bytes1",
          "name": "fields",
          "type": "bytes1"
        },
        {
          "internalType": "string",
          "name": "name",
          "type": "string"
        },
        {
          "internalType": "string",
          "name": "version",
          "type": "string"
        },
        {
          "internalType": "uint256",
          "name": "chainId",
          "type": "uint256"
        },
        {
          "internalType": "address",
          "name": "verifyingContract",
          "type": "address"
        },
        {
          "internalType": "bytes32",
          "name": "salt",
          "type": "bytes32"
        },
        {
          "internalType": "uint256[]",
          "name": "extensions",
          "type": "uint256[]"
        }
      ],
      "stateMutability": "view",
      "type": "function"
    },
    {
      "inputs": [
        {
          "internalType": "address",
          "name": "client",
          "type": "address"
        },
        {
          "internalType": "address",
          "name": "provider",
          "type": "address"
        },
        {
          "internalType": "uint256",
          "name": "stableAmount",
          "type": "uint256"
        },
        {
          "internalType": "uint256",
          "name": "deadline",
          "type": "uint256"
        },
        {
          "internalType": "bytes",
          "name": "signature",
          "type": "bytes"
        }
      ],
      "name": "executeDebit",
      "outputs": [
        {
          "internalType": "uint256",
          "name": "",
          "type": "uint256"
        }
      ],
      "stateMutability": "nonpayable",
      "type": "function"
    },
    {
      "inputs": [
        {
          "internalType": "address",
          "name": "client",
          "type": "address"
        },
        {
          "internalType": "address",
          "name": "provider",
          "type": "address"
        },
        {
          "internalType": "uint256",
          "name": "stableAmount",
          "type": "uint256"
        }
      ],
      "name": "executeDebitUnsigned",
      "outputs": [
        {
          "internalType": "uint256",
          "name": "",
          "type": "uint256"
        }
      ],
      "stateMutability": "nonpayable",
      "type": "function"
    },
    {
      "inputs": [],
      "name": "getDomainSeparator",
      "outputs": [
        {
          "internalType": "bytes32",
          "name": "",
          "type": "bytes32"
        }
      ],
      "stateMutability": "view",
      "type": "function"
    },
    {
      "inputs": [
        {
          "internalType": "address",
          "name": "_client",
          "type": "address"
        },
        {
          "internalType": "address",
          "name": "_provider",
          "type": "address"
        }
      ],
      "name": "getLastDebit",
      "outputs": [
        {
          "internalType": "uint256",
          "name": "amount",
          "type": "uint256"
        },
        {
          "internalType": "uint256",
          "name": "timestamp",
          "type": "uint256"
        },
        {
          "internalType": "uint256",
          "name": "nonce",
          "type": "uint256"
        }
      ],
      "stateMutability": "view",
      "type": "function"
    },
    {
      "inputs": [
        {
          "internalType": "address",
          "name": "_client",
          "type": "address"
        }
      ],
      "name": "getNonce",
      "outputs": [
        {
          "internalType": "uint256",
          "name": "",
          "type": "uint256"
        }
      ],
      "stateMutability": "view",
      "type": "function"
    },
    {
      "inputs": [
        {
          "internalType": "address",
          "name": "",
          "type": "address"
        },
        {
          "internalType": "address",
          "name": "",
          "type": "address"
        }
      ],
      "name": "lastDebit",
      "outputs": [
        {
          "internalType": "uint256",
          "name": "amount",
          "type": "uint256"
        },
        {
          "internalType": "uint256",
          "name": "timestamp",
          "type": "uint256"
        },
        {
          "internalType": "uint256",
          "name": "nonce",
          "type": "uint256"
        }
      ],
      "stateMutability": "view",
      "type": "function"
    },
    {
      "inputs": [],
      "name": "market",
      "outputs": [
        {
          "internalType": "contract IMarket",
          "name": "",
          "type": "address"
        }
      ],
      "stateMutability": "view",
      "type": "function"
    },
    {
      "inputs": [],
      "name": "nextTransactionId",
      "outputs": [
        {
          "internalType": "uint256",
          "name": "",
          "type": "uint256"
        }
      ],
      "stateMutability": "view",
      "type": "function"
    },
    {
      "inputs": [
        {
          "internalType": "address",
          "name": "",
          "type": "address"
        }
      ],
      "name": "nonces",
      "outputs": [
        {
          "internalType": "uint256",
          "name": "",
          "type": "uint256"
        }
      ],
      "stateMutability": "view",
      "type": "function"
    },
    {
      "inputs": [],
      "name": "owner",
      "outputs": [
        {
          "internalType": "address",
          "name": "",
          "type": "address"
        }
      ],
      "stateMutability": "view",
      "type": "function"
    },
    {
      "inputs": [],
      "name": "renounceOwnership",
      "outputs": [],
      "stateMutability": "nonpayable",
      "type": "function"
    },
    {
      "inputs": [
        {
          "internalType": "address",
          "name": "_market",
          "type": "address"
        }
      ],
      "name": "setMarket",
      "outputs": [],
      "stateMutability": "nonpayable",
      "type": "function"
    },
    {
      "inputs": [
        {
          "internalType": "bool",
          "name": "_required",
          "type": "bool"
        }
      ],
      "name": "setSignatureRequired",
      "outputs": [],
      "stateMutability": "nonpayable",
      "type": "function"
    },
    {
      "inputs": [],
      "name": "signatureRequired",
      "outputs": [
        {
          "internalType": "bool",
          "name": "",
          "type": "bool"
        }
      ],
      "stateMutability": "view",
      "type": "function"
    },
    {
      "inputs": [
        {
          "internalType": "address",
          "name": "newOwner",
          "type": "address"
        }
      ],
      "name": "transferOwnership",
      "outputs": [],
      "stateMutability": "nonpayable",
      "type": "function"
    }
  ],
  "bytecode": "0x61016060405260016005553480156200001757600080fd5b5060405162001d1638038062001d168339810160408190526200003a916200027b565b604080518082018252600b81526a13585c9ad95d1119589a5d60aa1b602080830191909152825180840190935260018352603160f81b908301529062000082826000620001ad565b6101205262000093816001620001ad565b61014052815160208084019190912060e052815190820120610100524660a0526200012160e05161010051604080517f8b73c3c69bb8fe3d512ecc4cf759cc79239f7b179b0ffacaa9a75d522b39400f60208201529081019290925260608201524660808201523060a082015260009060c00160405160208183030381529060405280519060200120905090565b60805250503060c05260016002556200013a33620001e6565b6001600160a01b038116620001875760405162461bcd60e51b815260206004820152600e60248201526d125b9d985b1a59081b585c9ad95d60921b60448201526064015b60405180910390fd5b600480546001600160a01b0319166001600160a01b039290921691909117905562000493565b6000602083511015620001cd57620001c58362000238565b9050620001e0565b81620001da848262000352565b5060ff90505b92915050565b600380546001600160a01b038381166001600160a01b0319831681179093556040519116919082907f8be0079c531659141344cd1fd0a4f28419497f9722a3daafe3b4186f6b6457e090600090a35050565b600080829050601f8151111562000266578260405163305a27a960e01b81526004016200017e91906200041e565b805162000273826200046e565b179392505050565b6000602082840312156200028e57600080fd5b81516001600160a01b0381168114620002a657600080fd5b9392505050565b634e487b7160e01b600052604160045260246000fd5b600181811c90821680620002d857607f821691505b602082108103620002f957634e487b7160e01b600052602260045260246000fd5b50919050565b601f8211156200034d57600081815260208120601f850160051c81016020861015620003285750805b601f850160051c820191505b81811015620003495782815560010162000334565b5050505b505050565b81516001600160401b038111156200036e576200036e620002ad565b62000386816200037f8454620002c3565b84620002ff565b602080601f831160018114620003be5760008415620003a55750858301515b600019600386901b1c1916600185901b17855562000349565b600085815260208120601f198616915b82811015620003ef57888601518255948401946001909101908401620003ce565b50858210156200040e5787850151600019600388901b60f8161c191681555b5050505050600190811b01905550565b600060208083528351808285015260005b818110156200044d578581018301518582016040015282016200042f565b506000604082860101526040601f19601f8301168501019250505092915050565b80516020808301519190811015620002f95760001960209190910360031b1b16919050565b60805160a05160c05160e051610100516101205161014051611828620004ee60003960006105f8015260006105ce01526000611119015260006110f10152600061104c01526000611076015260006110a001526118286000f3fe608060405234801561001057600080fd5b50600436106101165760003560e01c806385d1c9f4116100a2578063d7ca38f311610071578063d7ca38f3146102f5578063e111703a146102fe578063ed24911d14610306578063f2fde38b1461030e578063fe67050f1461032157600080fd5b806385d1c9f4146102a15780638da5cb5b146102b457806399ffbe5f146102c5578063a30b8ed4146102d857600080fd5b80636dcea85f116100e95780636dcea85f1461021e578063715018a6146102335780637ecebe001461023b57806380f556051461025b57806384b0196e1461028657600080fd5b80630ccd698c1461011b5780632d0335ab1461019a5780636218f593146101d157806365528ac3146101e4575b600080fd5b61017a610129366004611449565b6001600160a01b039182166000908152600860209081526040808320939094168252918252829020825160608101845281548082526001830154938201849052600290920154930183905292909190565b604080519384526020840192909252908201526060015b60405180910390f35b6101c36101a8366004611482565b6001600160a01b031660009081526007602052604090205490565b604051908152602001610191565b6101c36101df3660046114b5565b610348565b61017a6101f2366004611449565b600860209081526000928352604080842090915290825290208054600182015460029092015490919083565b61023161022c366004611482565b610513565b005b6102316105ac565b6101c3610249366004611482565b60076020526000908152604090205481565b60045461026e906001600160a01b031681565b6040516001600160a01b039091168152602001610191565b61028e6105c0565b60405161019197969594939291906115e5565b6101c36102af36600461167b565b610648565b6003546001600160a01b031661026e565b6102316102d33660046116bc565b6108df565b6006546102e59060ff1681565b6040519015158152602001610191565b6101c360055481565b6101c3600581565b6101c361092e565b61023161031c366004611482565b61093d565b6101c37fba6e6fc85897dfdad4078f1deba73c999c65d49cd2810347919f081e623d544081565b60006103526109b6565b600084116103985760405162461bcd60e51b815260206004820152600e60248201526d125b9d985b1a5908185b5bdd5b9d60921b60448201526064015b60405180910390fd5b6001600160a01b0386166103df5760405162461bcd60e51b815260206004820152600e60248201526d125b9d985b1a590818db1a595b9d60921b604482015260640161038f565b6001600160a01b0385166104285760405162461bcd60e51b815260206004820152601060248201526f24b73b30b634b210383937bb34b232b960811b604482015260640161038f565b600480546040516370a0823160e01b81526001600160a01b03898116938201939093528692909116906370a0823190602401602060405180830381865afa158015610477573d6000803e3d6000fd5b505050506040513d601f19601f8201168201806040525081019061049b91906116de565b10156104e05760405162461bcd60e51b8152602060048201526014602482015273496e73756666696369656e742062616c616e636560601b604482015260640161038f565b60006104ef8787878787610a0d565b90506104fd87878784610be6565b91505061050a6001600255565b95945050505050565b61051b610ee6565b6001600160a01b0381166105625760405162461bcd60e51b815260206004820152600e60248201526d125b9d985b1a59081b585c9ad95d60921b604482015260640161038f565b600480546001600160a01b0319166001600160a01b0383169081179091556040517f7069fd9fab3e4fe83cc8eef039cb4a73a437f72a7e2afa41a88ef13a4e74894b90600090a250565b6105b4610ee6565b6105be6000610f40565b565b6000606080828080836105f37f000000000000000000000000000000000000000000000000000000000000000083610f92565b61061e7f00000000000000000000000000000000000000000000000000000000000000006001610f92565b60408051600080825260208201909252600f60f81b9b939a50919850469750309650945092509050565b60006106526109b6565b60065460ff161561069b5760405162461bcd60e51b815260206004820152601360248201527214da59db985d1d5c995cc81c995c5d5a5c9959606a1b604482015260640161038f565b6004546001600160a01b03163314806106be57506003546001600160a01b031633145b6106f95760405162461bcd60e51b815260206004820152600c60248201526b155b985d5d1a1bdc9a5e995960a21b604482015260640161038f565b6000821161073a5760405162461bcd60e51b815260206004820152600e60248201526d125b9d985b1a5908185b5bdd5b9d60921b604482015260640161038f565b6001600160a01b0384166107815760405162461bcd60e51b815260206004820152600e60248201526d125b9d985b1a590818db1a595b9d60921b604482015260640161038f565b6001600160a01b0383166107ca5760405162461bcd60e51b815260206004820152601060248201526f24b73b30b634b210383937bb34b232b960811b604482015260640161038f565b600480546040516370a0823160e01b81526001600160a01b03878116938201939093528492909116906370a0823190602401602060405180830381865afa158015610819573d6000803e3d6000fd5b505050506040513d601f19601f8201168201806040525081019061083d91906116de565b10156108825760405162461bcd60e51b8152602060048201526014602482015273496e73756666696369656e742062616c616e636560601b604482015260640161038f565b6001600160a01b0384166000908152600760205260409020546108a681600161170d565b6001600160a01b0386166000908152600760205260409020556108cb85858584610be6565b9150506108d86001600255565b9392505050565b6108e7610ee6565b6006805460ff19168215159081179091556040519081527f562f712a2a8452e5f4edf2922649bec7bc941f58c9b8fe619f87c210abcbcd259060200160405180910390a150565b600061093861103f565b905090565b610945610ee6565b6001600160a01b0381166109aa5760405162461bcd60e51b815260206004820152602660248201527f4f776e61626c653a206e6577206f776e657220697320746865207a65726f206160448201526564647265737360d01b606482015260840161038f565b6109b381610f40565b50565b6002805403610a075760405162461bcd60e51b815260206004820152601f60248201527f5265656e7472616e637947756172643a207265656e7472616e742063616c6c00604482015260640161038f565b60028055565b60008151604114610a605760405162461bcd60e51b815260206004820152601860248201527f496e76616c6964207369676e6174757265206c656e6774680000000000000000604482015260640161038f565b82421115610aa45760405162461bcd60e51b815260206004820152601160248201527014da59db985d1d5c9948195e1c1a5c9959607a1b604482015260640161038f565b506001600160a01b0385811660008181526007602090815260408083205481517fba6e6fc85897dfdad4078f1deba73c999c65d49cd2810347919f081e623d5440938101939093529082019390935292871660608401526080830186905260a0830182905260c08301859052909160e00160408051601f198184030181529181528151602092830120918501519085015160608601519293509091600090811a90610b59610b518661116a565b838686611197565b90508a6001600160a01b0316816001600160a01b031614610bb05760405162461bcd60e51b8152602060048201526011602482015270496e76616c6964207369676e617475726560781b604482015260640161038f565b610bbb86600161170d565b6001600160a01b03909b1660009081526007602052604090209a909a55509298975050505050505050565b6000806064610bf6600586611720565b610c009190611737565b90506000610c0e8286611759565b6004805460405163d4335c3960e01b81526001600160a01b038b81169382019390935260248101899052929350169063d4335c3990604401600060405180830381600087803b158015610c6057600080fd5b505af1158015610c74573d6000803e3d6000fd5b505060048054604080516361d027b360e01b815290516001600160a01b03909216945063940c6ffb935084926361d027b39282820192602092908290030181865afa158015610cc7573d6000803e3d6000fd5b505050506040513d601f19601f82011682018060405250810190610ceb919061176c565b6040516001600160e01b031960e084901b1681526001600160a01b03909116600482015260248101859052604401600060405180830381600087803b158015610d3357600080fd5b505af1158015610d47573d6000803e3d6000fd5b505060048054604051636f56cf2f60e11b81529182018690526001600160a01b0316925063dead9e5e9150602401600060405180830381600087803b158015610d8f57600080fd5b505af1158015610da3573d6000803e3d6000fd5b50506004805460405163940c6ffb60e01b81526001600160a01b038b811693820193909352602481018690529116925063940c6ffb9150604401600060405180830381600087803b158015610df757600080fd5b505af1158015610e0b573d6000803e3d6000fd5b5050604080516060810182528881524260208083019182528284018a81526001600160a01b03808f16600090815260088452868120918f1681529252938120925183559051600183015591516002909101556005805493509150610e6e83611789565b919050559250856001600160a01b0316876001600160a01b0316847fc11b2bf85a1699476a9c7a01abda42c469911364350489c4b4a73a1e387302d98886868a604051610ed4949392919093845260208401929092526040830152606082015260800190565b60405180910390a45050949350505050565b6003546001600160a01b031633146105be5760405162461bcd60e51b815260206004820181905260248201527f4f776e61626c653a2063616c6c6572206973206e6f7420746865206f776e6572604482015260640161038f565b600380546001600160a01b038381166001600160a01b0319831681179093556040519116919082907f8be0079c531659141344cd1fd0a4f28419497f9722a3daafe3b4186f6b6457e090600090a35050565b606060ff8314610fac57610fa5836111bf565b9050611039565b818054610fb8906117a2565b80601f0160208091040260200160405190810160405280929190818152602001828054610fe4906117a2565b80156110315780601f1061100657610100808354040283529160200191611031565b820191906000526020600020905b81548152906001019060200180831161101457829003601f168201915b505050505090505b92915050565b6000306001600160a01b037f00000000000000000000000000000000000000000000000000000000000000001614801561109857507f000000000000000000000000000000000000000000000000000000000000000046145b156110c257507f000000000000000000000000000000000000000000000000000000000000000090565b610938604080517f8b73c3c69bb8fe3d512ecc4cf759cc79239f7b179b0ffacaa9a75d522b39400f60208201527f0000000000000000000000000000000000000000000000000000000000000000918101919091527f000000000000000000000000000000000000000000000000000000000000000060608201524660808201523060a082015260009060c00160405160208183030381529060405280519060200120905090565b600061103961117761103f565b8360405161190160f01b8152600281019290925260228201526042902090565b60008060006111a8878787876111fe565b915091506111b5816112c2565b5095945050505050565b606060006111cc8361140c565b604080516020808252818301909252919250600091906020820181803683375050509182525060208101929092525090565b6000807f7fffffffffffffffffffffffffffffff5d576e7357a4501ddfe92f46681b20a083111561123557506000905060036112b9565b6040805160008082526020820180845289905260ff881692820192909252606081018690526080810185905260019060a0016020604051602081039080840390855afa158015611289573d6000803e3d6000fd5b5050604051601f1901519150506001600160a01b0381166112b2576000600192509250506112b9565b9150600090505b94509492505050565b60008160048111156112d6576112d66117dc565b036112de5750565b60018160048111156112f2576112f26117dc565b0361133f5760405162461bcd60e51b815260206004820152601860248201527f45434453413a20696e76616c6964207369676e61747572650000000000000000604482015260640161038f565b6002816004811115611353576113536117dc565b036113a05760405162461bcd60e51b815260206004820152601f60248201527f45434453413a20696e76616c6964207369676e6174757265206c656e67746800604482015260640161038f565b60038160048111156113b4576113b46117dc565b036109b35760405162461bcd60e51b815260206004820152602260248201527f45434453413a20696e76616c6964207369676e6174757265202773272076616c604482015261756560f01b606482015260840161038f565b600060ff8216601f81111561103957604051632cd44ac360e21b815260040160405180910390fd5b6001600160a01b03811681146109b357600080fd5b6000806040838503121561145c57600080fd5b823561146781611434565b9150602083013561147781611434565b809150509250929050565b60006020828403121561149457600080fd5b81356108d881611434565b634e487b7160e01b600052604160045260246000fd5b600080600080600060a086880312156114cd57600080fd5b85356114d881611434565b945060208601356114e881611434565b93506040860135925060608601359150608086013567ffffffffffffffff8082111561151357600080fd5b818801915088601f83011261152757600080fd5b8135818111156115395761153961149f565b604051601f8201601f19908116603f011681019083821181831017156115615761156161149f565b816040528281528b602084870101111561157a57600080fd5b8260208601602083013760006020848301015280955050505050509295509295909350565b6000815180845260005b818110156115c5576020818501810151868301820152016115a9565b506000602082860101526020601f19601f83011685010191505092915050565b60ff60f81b881681526000602060e08184015261160560e084018a61159f565b8381036040850152611617818a61159f565b606085018990526001600160a01b038816608086015260a0850187905284810360c0860152855180825283870192509083019060005b818110156116695783518352928401929184019160010161164d565b50909c9b505050505050505050505050565b60008060006060848603121561169057600080fd5b833561169b81611434565b925060208401356116ab81611434565b929592945050506040919091013590565b6000602082840312156116ce57600080fd5b813580151581146108d857600080fd5b6000602082840312156116f057600080fd5b5051919050565b634e487b7160e01b600052601160045260246000fd5b80820180821115611039576110396116f7565b8082028115828204841417611039576110396116f7565b60008261175457634e487b7160e01b600052601260045260246000fd5b500490565b81810381811115611039576110396116f7565b60006020828403121561177e57600080fd5b81516108d881611434565b60006001820161179b5761179b6116f7565b5060010190565b600181811c908216806117b657607f821691505b6020821081036117d657634e487b7160e01b600052602260045260246000fd5b50919050565b634e487b7160e01b600052602160045260246000fdfea2646970667358221220601c9ae6391b0a469f2634cb51ff784ed3b4cb7b29d79137ca9a23d1611c7ca864736f6c63430008140033",
  "linkReferences": {},
  "deployedLinkReferences": {}
}