{
  "_format": "hh-sol-artifact-1",
  "contractName": "Perms",
  "sourceName": "contracts/perms/Perms.sol",
  "abi": [
    {
      "inputs": [],
      "stateMutability": "nonpayable",
      "type": "constructor"
    },
    {
      "anonymous": false,
      "inputs": [
        {
          "indexed": true,
          "internalType": "bytes",
          "name": "parentKey",
          "type": "bytes"
        },
        {
          "indexed": false,
          "internalType": "bytes",
          "name": "childKey",
          "type": "bytes"
        },
        {
          "indexed": true,
          "internalType": "address",
          "name": "addedBy",
          "type": "address"
        }
      ],
      "name": "KeyAdded",
      "type": "event"
    },
    {
      "anonymous": false,
      "inputs": [
        {
          "indexed": true,
          "internalType": "bytes",
          "name": "parentKey",
          "type": "bytes"
        },
        {
          "indexed": false,
          "internalType": "bytes",
          "name": "childKey",
          "type": "bytes"
        },
        {
          "indexed": true,
          "internalType": "address",
          "name": "removedBy",
          "type": "address"
        }
      ],
      "name": "KeyRemoved",
      "type": "event"
    },
    {
      "anonymous": false,
      "inputs": [
        {
          "indexed": true,
          "internalType": "bytes",
          "name": "parentKey",
          "type": "bytes"
        },
        {
          "indexed": false,
          "internalType": "uint256",
          "name": "count",
          "type": "uint256"
        },
        {
          "indexed": true,
          "internalType": "address",
          "name": "setBy",
          "type": "address"
        }
      ],
      "name": "KeysSet",
      "type": "event"
    },
    {
      "anonymous": false,
      "inputs": [
        {
          "indexed": false,
          "internalType": "uint256",
          "name": "newMax",
          "type": "uint256"
        }
      ],
      "name": "MaxChildKeysUpdated",
      "type": "event"
    },
    {
      "anonymous": false,
      "inputs": [
        {
          "indexed": false,
          "internalType": "uint256",
          "name": "newMax",
          "type": "uint256"
        }
      ],
      "name": "MaxKeySizeUpdated",
      "type": "event"
    },
    {
      "anonymous": false,
      "inputs": [
        {
          "indexed": true,
          "internalType": "bytes",
          "name": "parentKey",
          "type": "bytes"
        },
        {
          "indexed": true,
          "internalType": "address",
          "name": "previousOwner",
          "type": "address"
        },
        {
          "indexed": true,
          "internalType": "address",
          "name": "newOwner",
          "type": "address"
        }
      ],
      "name": "OwnershipTransferred",
      "type": "event"
    },
    {
      "inputs": [
        {
          "internalType": "bytes",
          "name": "",
          "type": "bytes"
        },
        {
          "internalType": "uint256",
          "name": "",
          "type": "uint256"
        }
      ],
      "name": "Perms",
      "outputs": [
        {
          "internalType": "bytes",
          "name": "",
          "type": "bytes"
        }
      ],
      "stateMutability": "view",
      "type": "function"
    },
    {
      "inputs": [
        {
          "internalType": "bytes",
          "name": "parentKey",
          "type": "bytes"
        },
        {
          "internalType": "bytes",
          "name": "childKey",
          "type": "bytes"
        }
      ],
      "name": "addKey",
      "outputs": [],
      "stateMutability": "nonpayable",
      "type": "function"
    },
    {
      "inputs": [
        {
          "internalType": "bytes",
          "name": "parentKey",
          "type": "bytes"
        },
        {
          "internalType": "uint256",
          "name": "index",
          "type": "uint256"
        }
      ],
      "name": "getKeyAtIndex",
      "outputs": [
        {
          "internalType": "bytes",
          "name": "",
          "type": "bytes"
        }
      ],
      "stateMutability": "view",
      "type": "function"
    },
    {
      "inputs": [
        {
          "internalType": "bytes",
          "name": "parentKey",
          "type": "bytes"
        }
      ],
      "name": "getKeyCount",
      "outputs": [
        {
          "internalType": "uint256",
          "name": "",
          "type": "uint256"
        }
      ],
      "stateMutability": "view",
      "type": "function"
    },
    {
      "inputs": [
        {
          "internalType": "bytes",
          "name": "parentKey",
          "type": "bytes"
        }
      ],
      "name": "getKeyOwner",
      "outputs": [
        {
          "internalType": "address",
          "name": "",
          "type": "address"
        }
      ],
      "stateMutability": "view",
      "type": "function"
    },
    {
      "inputs": [
        {
          "internalType": "bytes",
          "name": "parentKey",
          "type": "bytes"
        }
      ],
      "name": "getKeys",
      "outputs": [
        {
          "internalType": "bytes[]",
          "name": "",
          "type": "bytes[]"
        }
      ],
      "stateMutability": "view",
      "type": "function"
    },
    {
      "inputs": [
        {
          "internalType": "bytes",
          "name": "",
          "type": "bytes"
        }
      ],
      "name": "keyOwners",
      "outputs": [
        {
          "internalType": "address",
          "name": "",
          "type": "address"
        }
      ],
      "stateMutability": "view",
      "type": "function"
    },
    {
      "inputs": [],
      "name": "maxChildKeys",
      "outputs": [
        {
          "internalType": "uint256",
          "name": "",
          "type": "uint256"
        }
      ],
      "stateMutability": "view",
      "type": "function"
    },
    {
      "inputs": [],
      "name": "maxKeySize",
      "outputs": [
        {
          "internalType": "uint256",
          "name": "",
          "type": "uint256"
        }
      ],
      "stateMutability": "view",
      "type": "function"
    },
    {
      "inputs": [],
      "name": "owner",
      "outputs": [
        {
          "internalType": "address",
          "name": "",
          "type": "address"
        }
      ],
      "stateMutability": "view",
      "type": "function"
    },
    {
      "inputs": [
        {
          "internalType": "bytes",
          "name": "parentKey",
          "type": "bytes"
        },
        {
          "internalType": "bytes",
          "name": "childKey",
          "type": "bytes"
        }
      ],
      "name": "removeKey",
      "outputs": [],
      "stateMutability": "nonpayable",
      "type": "function"
    },
    {
      "inputs": [
        {
          "internalType": "bytes",
          "name": "parentKey",
          "type": "bytes"
        },
        {
          "internalType": "uint256",
          "name": "index",
          "type": "uint256"
        }
      ],
      "name": "removeKeyAtIndex",
      "outputs": [],
      "stateMutability": "nonpayable",
      "type": "function"
    },
    {
      "inputs": [
        {
          "internalType": "bytes",
          "name": "parentKey",
          "type": "bytes"
        },
        {
          "internalType": "bytes[]",
          "name": "childKeys",
          "type": "bytes[]"
        }
      ],
      "name": "setKeys",
      "outputs": [],
      "stateMutability": "nonpayable",
      "type": "function"
    },
    {
      "inputs": [
        {
          "internalType": "uint256",
          "name": "newMax",
          "type": "uint256"
        }
      ],
      "name": "setMaxChildKeys",
      "outputs": [],
      "stateMutability": "nonpayable",
      "type": "function"
    },
    {
      "inputs": [
        {
          "internalType": "uint256",
          "name": "newMax",
          "type": "uint256"
        }
      ],
      "name": "setMaxKeySize",
      "outputs": [],
      "stateMutability": "nonpayable",
      "type": "function"
    },
    {
      "inputs": [
        {
          "internalType": "bytes",
          "name": "parentKey",
          "type": "bytes"
        },
        {
          "internalType": "address",
          "name": "newOwner",
          "type": "address"
        }
      ],
      "name": "transferKeyOwnership",
      "outputs": [],
      "stateMutability": "nonpayable",
      "type": "function"
    },
    {
      "inputs": [
        {
          "internalType": "address",
          "name": "newOwner",
          "type": "address"
        }
      ],
      "name": "transferOwnership",
      "outputs": [],
      "stateMutability": "nonpayable",
      "type": "function"
    }
  ],
  "bytecode": "0x6080604052606460025561040060035534801561001b57600080fd5b50600480546001600160a01b03191633179055611a598061003d6000396000f3fe608060405234801561001057600080fd5b506004361061010b5760003560e01c80638da5cb5b116100a2578063dace5aef11610071578063dace5aef1461023f578063e5db5cb814610252578063ea6b319414610265578063f2fde38b14610285578063fcf50b5d1461029857600080fd5b80638da5cb5b146101ba578063a9588f5a146101e5578063bd4e8d75146101f8578063d4e9da351461020b57600080fd5b80633bb1594b116100de5780633bb1594b1461015e578063546b031c14610187578063678f27ed1461019a5780638d9b7d42146101b157600080fd5b80630c6fe1aa14610110578063127ab8e514610125578063309a671d1461013857806332bced241461014b575b600080fd5b61012361011e36600461136d565b6102ab565b005b6101236101333660046113d1565b6104ee565b61012361014636600461136d565b6107a3565b6101236101593660046114b8565b610986565b61017161016c3660046114b8565b610bb3565b60405161017e919061154d565b60405180910390f35b610123610195366004611567565b610ce4565b6101a360035481565b60405190815260200161017e565b6101a360025481565b6004546101cd906001600160a01b031681565b6040516001600160a01b03909116815260200161017e565b6101a36101f3366004611580565b610d8c565b6101cd610206366004611580565b610db3565b6101cd610219366004611580565b80516020818301810180516001825292820191909301209152546001600160a01b031681565b61017161024d3660046114b8565b610de4565b610123610260366004611567565b610eac565b610278610273366004611580565b610f4d565b60405161017e91906115bd565b61012361029336600461163b565b611044565b6101236102a6366004611656565b6110da565b600354815111156102fc5760405162461bcd60e51b815260206004820152601660248201527512d95e481cda5e9948195e18d959591cc81b1a5b5a5d60521b60448201526064015b60405180910390fd5b60025460008360405161030f91906116a4565b90815260405190819003602001902054106103655760405162461bcd60e51b815260206004820152601660248201527513585e0818da1a5b19081ad95e5cc81c995858da195960521b60448201526064016102f3565b60006001600160a01b031660018360405161038091906116a4565b908152604051908190036020019020546001600160a01b0316036103df57336001836040516103af91906116a4565b90815260405190819003602001902080546001600160a01b03929092166001600160a01b03199092169190911790555b336001600160a01b03166001836040516103f991906116a4565b908152604051908190036020019020546001600160a01b03161461045f5760405162461bcd60e51b815260206004820152601d60248201527f4f6e6c7920706172656e74206b6579206f776e65722063616e2061646400000060448201526064016102f3565b60008260405161046f91906116a4565b90815260405160209181900382019020805460018101825560009182529190200161049a8282611748565b5060405133906104ab9084906116a4565b60405180910390207fcc7a5280b2fde757d7a14af15c3d52461212cd315a0958bc4237263dd057c31c836040516104e2919061154d565b60405180910390a35050565b6002548151111561053a5760405162461bcd60e51b815260206004820152601660248201527545786365656473206d6178206368696c64206b65797360501b60448201526064016102f3565b60006001600160a01b031660018360405161055591906116a4565b908152604051908190036020019020546001600160a01b0316036105b4573360018360405161058491906116a4565b90815260405190819003602001902080546001600160a01b03929092166001600160a01b03199092169190911790555b336001600160a01b03166001836040516105ce91906116a4565b908152604051908190036020019020546001600160a01b0316146106345760405162461bcd60e51b815260206004820152601d60248201527f4f6e6c7920706172656e74206b6579206f776e65722063616e2073657400000060448201526064016102f3565b60005b81518110156106b75760035482828151811061065557610655611808565b60200260200101515111156106a55760405162461bcd60e51b815260206004820152601660248201527512d95e481cda5e9948195e18d959591cc81b1a5b5a5d60521b60448201526064016102f3565b806106af81611834565b915050610637565b506000826040516106c891906116a4565b908152602001604051809103902060006106e29190611225565b60005b815181101561075a576000836040516106fe91906116a4565b908152602001604051809103902082828151811061071e5761071e611808565b602090810291909101810151825460018101845560009384529190922001906107479082611748565b508061075281611834565b9150506106e5565b50604051339061076b9084906116a4565b60405190819003812083518252907f659979cdf2c673e55c91d35a217d339af20aa703c5eb78af868c17a1590f00d2906020016104e2565b81336001600160a01b03166001826040516107be91906116a4565b908152604051908190036020019020546001600160a01b0316146107f45760405162461bcd60e51b81526004016102f39061184d565b6000808460405161080591906116a4565b9081526020016040518091039020905060005b815481101561094857838051906020012082828154811061083b5761083b611808565b90600052602060002001604051610852919061187c565b604051809103902003610936578154829061086f906001906118f2565b8154811061087f5761087f611808565b9060005260206000200182828154811061089b5761089b611808565b9060005260206000200190816108b19190611905565b50818054806108c2576108c26119e0565b6001900381819060005260206000200160006108de9190611246565b905560405133906108f09087906116a4565b60405180910390207f26c5e7c45004be9e356c6ef76a9575e6a83868f384bd24c323e30dc7c16ba32f86604051610927919061154d565b60405180910390a35050505050565b8061094081611834565b915050610818565b5060405162461bcd60e51b815260206004820152600d60248201526c12d95e481b9bdd08199bdd5b99609a1b60448201526064016102f3565b505050565b81336001600160a01b03166001826040516109a191906116a4565b908152604051908190036020019020546001600160a01b0316146109d75760405162461bcd60e51b81526004016102f39061184d565b600080846040516109e891906116a4565b90815260405190819003602001902080549091508310610a405760405162461bcd60e51b8152602060048201526013602482015272496e646578206f7574206f6620626f756e647360681b60448201526064016102f3565b6000818481548110610a5457610a54611808565b906000526020600020018054610a69906116c0565b80601f0160208091040260200160405190810160405280929190818152602001828054610a95906116c0565b8015610ae25780601f10610ab757610100808354040283529160200191610ae2565b820191906000526020600020905b815481529060010190602001808311610ac557829003601f168201915b505050505090508160018380549050610afb91906118f2565b81548110610b0b57610b0b611808565b90600052602060002001828581548110610b2757610b27611808565b906000526020600020019081610b3d9190611905565b5081805480610b4e57610b4e6119e0565b600190038181906000526020600020016000610b6a9190611246565b90556040513390610b7c9087906116a4565b60405180910390207f26c5e7c45004be9e356c6ef76a9575e6a83868f384bd24c323e30dc7c16ba32f83604051610927919061154d565b6060600083604051610bc591906116a4565b908152604051908190036020019020548210610c195760405162461bcd60e51b8152602060048201526013602482015272496e646578206f7574206f6620626f756e647360681b60448201526064016102f3565b600083604051610c2991906116a4565b90815260200160405180910390208281548110610c4857610c48611808565b906000526020600020018054610c5d906116c0565b80601f0160208091040260200160405190810160405280929190818152602001828054610c89906116c0565b8015610cd65780601f10610cab57610100808354040283529160200191610cd6565b820191906000526020600020905b815481529060010190602001808311610cb957829003601f168201915b505050505090505b92915050565b6004546001600160a01b03163314610d0e5760405162461bcd60e51b81526004016102f3906119f6565b60008111610d505760405162461bcd60e51b815260206004820152600f60248201526e04d6178206d757374206265203e203608c1b60448201526064016102f3565b60028190556040518181527f3189d58401ed985f5866bd5de6f4f533620ae4ec28a96fef70ee38b1223d527d906020015b60405180910390a150565b60008082604051610d9d91906116a4565b9081526040519081900360200190205492915050565b6000600182604051610dc591906116a4565b908152604051908190036020019020546001600160a01b031692915050565b81516020818401810180516000825292820191850191909120919052805482908110610e0f57600080fd5b90600052602060002001600091509150508054610e2b906116c0565b80601f0160208091040260200160405190810160405280929190818152602001828054610e57906116c0565b8015610ea45780601f10610e7957610100808354040283529160200191610ea4565b820191906000526020600020905b815481529060010190602001808311610e8757829003601f168201915b505050505081565b6004546001600160a01b03163314610ed65760405162461bcd60e51b81526004016102f3906119f6565b60008111610f185760405162461bcd60e51b815260206004820152600f60248201526e04d6178206d757374206265203e203608c1b60448201526064016102f3565b60038190556040518181527f558f4546cf1dd19dd026ba3f0f9f3de22c7751ac2e37e790d134248e0e1e74b190602001610d81565b6060600082604051610f5f91906116a4565b9081526020016040518091039020805480602002602001604051908101604052809291908181526020016000905b82821015611039578382906000526020600020018054610fac906116c0565b80601f0160208091040260200160405190810160405280929190818152602001828054610fd8906116c0565b80156110255780601f10610ffa57610100808354040283529160200191611025565b820191906000526020600020905b81548152906001019060200180831161100857829003601f168201915b505050505081526020019060010190610f8d565b505050509050919050565b6004546001600160a01b0316331461106e5760405162461bcd60e51b81526004016102f3906119f6565b6001600160a01b0381166110b85760405162461bcd60e51b815260206004820152601160248201527024b73b30b634b2103732bb9037bbb732b960791b60448201526064016102f3565b600480546001600160a01b0319166001600160a01b0392909216919091179055565b81336001600160a01b03166001826040516110f591906116a4565b908152604051908190036020019020546001600160a01b03161461112b5760405162461bcd60e51b81526004016102f39061184d565b6001600160a01b0382166111755760405162461bcd60e51b815260206004820152601160248201527024b73b30b634b2103732bb9037bbb732b960791b60448201526064016102f3565b600060018460405161118791906116a4565b908152604051908190036020018120546001600160a01b0316915083906001906111b29087906116a4565b90815260405190819003602001812080546001600160a01b039384166001600160a01b0319909116179055848216918316906111ef9087906116a4565b604051908190038120907f6f762088d9d603221050485480beef2502e964ed208a4242002ed8450147e8ea90600090a450505050565b50805460008255906000526020600020908101906112439190611280565b50565b508054611252906116c0565b6000825580601f10611262575050565b601f01602090049060005260206000209081019061124391906112a1565b8082111561129d5760006112948282611246565b50600101611280565b5090565b5b8082111561129d57600081556001016112a2565b634e487b7160e01b600052604160045260246000fd5b604051601f8201601f1916810167ffffffffffffffff811182821017156112f5576112f56112b6565b604052919050565b600082601f83011261130e57600080fd5b813567ffffffffffffffff811115611328576113286112b6565b61133b601f8201601f19166020016112cc565b81815284602083860101111561135057600080fd5b816020850160208301376000918101602001919091529392505050565b6000806040838503121561138057600080fd5b823567ffffffffffffffff8082111561139857600080fd5b6113a4868387016112fd565b935060208501359150808211156113ba57600080fd5b506113c7858286016112fd565b9150509250929050565b600080604083850312156113e457600080fd5b823567ffffffffffffffff808211156113fc57600080fd5b611408868387016112fd565b935060209150818501358181111561141f57600080fd5b8501601f8101871361143057600080fd5b803582811115611442576114426112b6565b8060051b6114518582016112cc565b918252828101850191858101908a84111561146b57600080fd5b86850192505b838310156114a7578235868111156114895760008081fd5b6114978c89838901016112fd565b8352509186019190860190611471565b809750505050505050509250929050565b600080604083850312156114cb57600080fd5b823567ffffffffffffffff8111156114e257600080fd5b6114ee858286016112fd565b95602094909401359450505050565b60005b83811015611518578181015183820152602001611500565b50506000910152565b600081518084526115398160208601602086016114fd565b601f01601f19169290920160200192915050565b6020815260006115606020830184611521565b9392505050565b60006020828403121561157957600080fd5b5035919050565b60006020828403121561159257600080fd5b813567ffffffffffffffff8111156115a957600080fd5b6115b5848285016112fd565b949350505050565b6000602080830181845280855180835260408601915060408160051b870101925083870160005b8281101561161257603f19888603018452611600858351611521565b945092850192908501906001016115e4565b5092979650505050505050565b80356001600160a01b038116811461163657600080fd5b919050565b60006020828403121561164d57600080fd5b6115608261161f565b6000806040838503121561166957600080fd5b823567ffffffffffffffff81111561168057600080fd5b61168c858286016112fd565b92505061169b6020840161161f565b90509250929050565b600082516116b68184602087016114fd565b9190910192915050565b600181811c908216806116d457607f821691505b6020821081036116f457634e487b7160e01b600052602260045260246000fd5b50919050565b601f82111561098157600081815260208120601f850160051c810160208610156117215750805b601f850160051c820191505b818110156117405782815560010161172d565b505050505050565b815167ffffffffffffffff811115611762576117626112b6565b6117768161177084546116c0565b846116fa565b602080601f8311600181146117ab57600084156117935750858301515b600019600386901b1c1916600185901b178555611740565b600085815260208120601f198616915b828110156117da578886015182559484019460019091019084016117bb565b50858210156117f85787850151600019600388901b60f8161c191681555b5050505050600190811b01905550565b634e487b7160e01b600052603260045260246000fd5b634e487b7160e01b600052601160045260246000fd5b6000600182016118465761184661181e565b5060010190565b60208082526015908201527427b7363c903830b932b73a1035b2bc9037bbb732b960591b604082015260600190565b600080835461188a816116c0565b600182811680156118a257600181146118b7576118e6565b60ff19841687528215158302870194506118e6565b8760005260208060002060005b858110156118dd5781548a8201529084019082016118c4565b50505082870194505b50929695505050505050565b81810381811115610cde57610cde61181e565b818103611910575050565b61191a82546116c0565b67ffffffffffffffff811115611932576119326112b6565b6119408161177084546116c0565b6000601f821160018114611974576000831561195c5750848201545b600019600385901b1c1916600184901b1784556119d9565b600085815260209020601f19841690600086815260209020845b838110156119ae578286015482556001958601959091019060200161198e565b50858310156119cc5781850154600019600388901b60f8161c191681555b50505060018360011b0184555b5050505050565b634e487b7160e01b600052603160045260246000fd5b60208082526013908201527227b7363c9031b7b73a3930b1ba1037bbb732b960691b60408201526060019056fea264697066735822122011d3d43a3d7e1ca42333818a0bd2875575e6ebbbc2a1b3751d27b69850f2762464736f6c63430008140033",
  "linkReferences": {},
  "deployedLinkReferences": {}
}