{
  "_format": "hh-sol-artifact-1",
  "contractName": "ManualPriceOracle",
  "sourceName": "contracts/oracles/ManualPriceOracle.sol",
  "abi": [
    {
      "anonymous": false,
      "inputs": [],
      "name": "ContractSetOwnerless",
      "type": "event"
    },
    {
      "anonymous": false,
      "inputs": [
        {
          "indexed": true,
          "internalType": "address",
          "name": "previousOwner",
          "type": "address"
        },
        {
          "indexed": true,
          "internalType": "address",
          "name": "newOwner",
          "type": "address"
        }
      ],
      "name": "OwnershipTransferred",
      "type": "event"
    },
    {
      "anonymous": false,
      "inputs": [
        {
          "indexed": true,
          "internalType": "address",
          "name": "token",
          "type": "address"
        }
      ],
      "name": "PriceRemoved",
      "type": "event"
    },
    {
      "anonymous": false,
      "inputs": [
        {
          "indexed": true,
          "internalType": "address",
          "name": "token",
          "type": "address"
        },
        {
          "indexed": false,
          "internalType": "uint256",
          "name": "price",
          "type": "uint256"
        },
        {
          "indexed": false,
          "internalType": "uint8",
          "name": "decimals",
          "type": "uint8"
        },
        {
          "indexed": false,
          "internalType": "uint256",
          "name": "timestamp",
          "type": "uint256"
        }
      ],
      "name": "PriceUpdated",
      "type": "event"
    },
    {
      "inputs": [
        {
          "internalType": "address[]",
          "name": "tokens",
          "type": "address[]"
        },
        {
          "internalType": "uint256[]",
          "name": "priceValues",
          "type": "uint256[]"
        },
        {
          "internalType": "uint8[]",
          "name": "decimalsArray",
          "type": "uint8[]"
        }
      ],
      "name": "batchSetPrices",
      "outputs": [],
      "stateMutability": "nonpayable",
      "type": "function"
    },
    {
      "inputs": [
        {
          "internalType": "address",
          "name": "token",
          "type": "address"
        }
      ],
      "name": "getPrice",
      "outputs": [
        {
          "internalType": "uint256",
          "name": "price",
          "type": "uint256"
        },
        {
          "internalType": "uint8",
          "name": "decimals",
          "type": "uint8"
        },
        {
          "internalType": "uint256",
          "name": "timestamp",
          "type": "uint256"
        }
      ],
      "stateMutability": "view",
      "type": "function"
    },
    {
      "inputs": [
        {
          "internalType": "address",
          "name": "token",
          "type": "address"
        }
      ],
      "name": "hasPriceFeed",
      "outputs": [
        {
          "internalType": "bool",
          "name": "exists",
          "type": "bool"
        }
      ],
      "stateMutability": "view",
      "type": "function"
    },
    {
      "inputs": [],
      "name": "owner",
      "outputs": [
        {
          "internalType": "address",
          "name": "",
          "type": "address"
        }
      ],
      "stateMutability": "view",
      "type": "function"
    },
    {
      "inputs": [
        {
          "internalType": "address",
          "name": "",
          "type": "address"
        }
      ],
      "name": "prices",
      "outputs": [
        {
          "internalType": "uint256",
          "name": "price",
          "type": "uint256"
        },
        {
          "internalType": "uint8",
          "name": "decimals",
          "type": "uint8"
        },
        {
          "internalType": "uint256",
          "name": "timestamp",
          "type": "uint256"
        },
        {
          "internalType": "bool",
          "name": "exists",
          "type": "bool"
        }
      ],
      "stateMutability": "view",
      "type": "function"
    },
    {
      "inputs": [
        {
          "internalType": "address",
          "name": "token",
          "type": "address"
        }
      ],
      "name": "removePrice",
      "outputs": [],
      "stateMutability": "nonpayable",
      "type": "function"
    },
    {
      "inputs": [],
      "name": "renounceOwnership",
      "outputs": [],
      "stateMutability": "nonpayable",
      "type": "function"
    },
    {
      "inputs": [],
      "name": "setOwnerless",
      "outputs": [],
      "stateMutability": "nonpayable",
      "type": "function"
    },
    {
      "inputs": [
        {
          "internalType": "address",
          "name": "token",
          "type": "address"
        },
        {
          "internalType": "uint256",
          "name": "price",
          "type": "uint256"
        },
        {
          "internalType": "uint8",
          "name": "decimals",
          "type": "uint8"
        }
      ],
      "name": "setPrice",
      "outputs": [],
      "stateMutability": "nonpayable",
      "type": "function"
    },
    {
      "inputs": [
        {
          "internalType": "address",
          "name": "newOwner",
          "type": "address"
        }
      ],
      "name": "transferOwnership",
      "outputs": [],
      "stateMutability": "nonpayable",
      "type": "function"
    }
  ],
  "bytecode": "0x608060405234801561001057600080fd5b5061001a3361001f565b61006f565b600080546001600160a01b038381166001600160a01b0319831681178455604051919092169283917f8be0079c531659141344cd1fd0a4f28419497f9722a3daafe3b4186f6b6457e09190a35050565b610b008061007e6000396000f3fe608060405234801561001057600080fd5b506004361061009e5760003560e01c80638da5cb5b116100665780638da5cb5b1461013c578063cfed246b14610157578063da605867146101b6578063f2fde38b146101c9578063f4961fa3146101dc57600080fd5b80630b7983a2146100a35780631aa7a3d9146100e757806341976e09146100f15780635112047414610121578063715018a614610134575b600080fd5b6100d26100b136600461091d565b6001600160a01b031660009081526001602052604090206003015460ff1690565b60405190151581526020015b60405180910390f35b6100ef6101ef565b005b6101046100ff36600461091d565b61022a565b6040805193845260ff9092166020840152908201526060016100de565b6100ef61012f366004610950565b6102d9565b6100ef610422565b6000546040516001600160a01b0390911681526020016100de565b61019261016536600461091d565b6001602081905260009182526040909120805491810154600282015460039092015460ff91821692911684565b6040805194855260ff909316602085015291830152151560608201526080016100de565b6100ef6101c43660046109d8565b610434565b6100ef6101d736600461091d565b610713565b6100ef6101ea36600461091d565b61078c565b6101f7610857565b6040517f2ba54d6a3cc9b09a35290d130bee17be374bd7785c0ed3299961362e1c3bddaf90600090a1610228610422565b565b6001600160a01b03811660009081526001602081815260408084208151608081018352815481529381015460ff908116938501939093526002810154918401919091526003015416151560608201819052829182916102c05760405162461bcd60e51b815260206004820152600d60248201526c141c9a58d9481b9bdd081cd95d609a1b60448201526064015b60405180910390fd5b8051602082015160409092015190969195509350915050565b6102e1610857565b6001600160a01b0383166103275760405162461bcd60e51b815260206004820152600d60248201526c24b73b30b634b2103a37b5b2b760991b60448201526064016102b7565b600082116103675760405162461bcd60e51b815260206004820152600d60248201526c496e76616c696420707269636560981b60448201526064016102b7565b6040805160808101825283815260ff838116602080840182815242858701818152600160608089018281526001600160a01b038e1660008181528489528c90209a518b559551928a0180549390991660ff199384161790985591516002890155955160039097018054971515979096169690961790945585518881529182019290925293840191909152917f5cbfdd086220f495e5d8a15805e17c05374548375649d8fe513a473b69cead76910160405180910390a2505050565b61042a610857565b61022860006108b1565b61043c610857565b848314801561044a57508481145b61048e5760405162461bcd60e51b8152602060048201526015602482015274082e4e4c2f240d8cadccee8d040dad2e6dac2e8c6d605b1b60448201526064016102b7565b60005b8581101561070a5760008787838181106104ad576104ad610a72565b90506020020160208101906104c2919061091d565b6001600160a01b0316036105085760405162461bcd60e51b815260206004820152600d60248201526c24b73b30b634b2103a37b5b2b760991b60448201526064016102b7565b600085858381811061051c5761051c610a72565b90506020020135116105605760405162461bcd60e51b815260206004820152600d60248201526c496e76616c696420707269636560981b60448201526064016102b7565b604051806080016040528086868481811061057d5761057d610a72565b90506020020135815260200184848481811061059b5761059b610a72565b90506020020160208101906105b09190610a88565b60ff1681524260208201526001604090910181905260008989858181106105d9576105d9610a72565b90506020020160208101906105ee919061091d565b6001600160a01b031681526020808201929092526040908101600020835181559183015160018301805460ff90921660ff19928316179055908301516002830155606090920151600390910180549115159190921617905586868281811061065857610658610a72565b905060200201602081019061066d919061091d565b6001600160a01b03167f5cbfdd086220f495e5d8a15805e17c05374548375649d8fe513a473b69cead768686848181106106a9576106a9610a72565b905060200201358585858181106106c2576106c2610a72565b90506020020160208101906106d79190610a88565b6040805192835260ff9091166020830152429082015260600160405180910390a28061070281610aa3565b915050610491565b50505050505050565b61071b610857565b6001600160a01b0381166107805760405162461bcd60e51b815260206004820152602660248201527f4f776e61626c653a206e6577206f776e657220697320746865207a65726f206160448201526564647265737360d01b60648201526084016102b7565b610789816108b1565b50565b610794610857565b6001600160a01b03811660009081526001602052604090206003015460ff166107ef5760405162461bcd60e51b815260206004820152600d60248201526c141c9a58d9481b9bdd081cd95d609a1b60448201526064016102b7565b6001600160a01b0381166000818152600160208190526040808320838155918201805460ff199081169091556002830184905560039092018054909216909155517fb0e09cc2a1c729c1ad17b9273a92c742a5c22cac4285ff849736991d196bbf999190a250565b6000546001600160a01b031633146102285760405162461bcd60e51b815260206004820181905260248201527f4f776e61626c653a2063616c6c6572206973206e6f7420746865206f776e657260448201526064016102b7565b600080546001600160a01b038381166001600160a01b0319831681178455604051919092169283917f8be0079c531659141344cd1fd0a4f28419497f9722a3daafe3b4186f6b6457e09190a35050565b80356001600160a01b038116811461091857600080fd5b919050565b60006020828403121561092f57600080fd5b61093882610901565b9392505050565b803560ff8116811461091857600080fd5b60008060006060848603121561096557600080fd5b61096e84610901565b9250602084013591506109836040850161093f565b90509250925092565b60008083601f84011261099e57600080fd5b50813567ffffffffffffffff8111156109b657600080fd5b6020830191508360208260051b85010111156109d157600080fd5b9250929050565b600080600080600080606087890312156109f157600080fd5b863567ffffffffffffffff80821115610a0957600080fd5b610a158a838b0161098c565b90985096506020890135915080821115610a2e57600080fd5b610a3a8a838b0161098c565b90965094506040890135915080821115610a5357600080fd5b50610a6089828a0161098c565b979a9699509497509295939492505050565b634e487b7160e01b600052603260045260246000fd5b600060208284031215610a9a57600080fd5b6109388261093f565b600060018201610ac357634e487b7160e01b600052601160045260246000fd5b506001019056fea2646970667358221220ed3bb91086a62b5580d7c39ae9e114b6d94a03d50a683b096d02757fe1db8e8b64736f6c63430008140033",
  "linkReferences": {},
  "deployedLinkReferences": {}
}