{
  "_format": "hh-sol-artifact-1",
  "contractName": "PythAdapter",
  "sourceName": "contracts/oracles/PythAdapter.sol",
  "abi": [
    {
      "inputs": [
        {
          "internalType": "address",
          "name": "_pyth",
          "type": "address"
        }
      ],
      "stateMutability": "nonpayable",
      "type": "constructor"
    },
    {
      "anonymous": false,
      "inputs": [
        {
          "indexed": true,
          "internalType": "address",
          "name": "token",
          "type": "address"
        }
      ],
      "name": "PriceIdRemoved",
      "type": "event"
    },
    {
      "anonymous": false,
      "inputs": [
        {
          "indexed": true,
          "internalType": "address",
          "name": "token",
          "type": "address"
        },
        {
          "indexed": true,
          "internalType": "bytes32",
          "name": "priceId",
          "type": "bytes32"
        }
      ],
      "name": "PriceIdSet",
      "type": "event"
    },
    {
      "inputs": [
        {
          "internalType": "address",
          "name": "token",
          "type": "address"
        }
      ],
      "name": "getPrice",
      "outputs": [
        {
          "internalType": "uint256",
          "name": "price",
          "type": "uint256"
        },
        {
          "internalType": "uint8",
          "name": "decimals",
          "type": "uint8"
        },
        {
          "internalType": "uint256",
          "name": "timestamp",
          "type": "uint256"
        }
      ],
      "stateMutability": "view",
      "type": "function"
    },
    {
      "inputs": [
        {
          "internalType": "address",
          "name": "token",
          "type": "address"
        }
      ],
      "name": "hasPriceFeed",
      "outputs": [
        {
          "internalType": "bool",
          "name": "exists",
          "type": "bool"
        }
      ],
      "stateMutability": "view",
      "type": "function"
    },
    {
      "inputs": [],
      "name": "owner",
      "outputs": [
        {
          "internalType": "address",
          "name": "",
          "type": "address"
        }
      ],
      "stateMutability": "view",
      "type": "function"
    },
    {
      "inputs": [
        {
          "internalType": "address",
          "name": "",
          "type": "address"
        }
      ],
      "name": "priceIds",
      "outputs": [
        {
          "internalType": "bytes32",
          "name": "",
          "type": "bytes32"
        }
      ],
      "stateMutability": "view",
      "type": "function"
    },
    {
      "inputs": [],
      "name": "pyth",
      "outputs": [
        {
          "internalType": "contract IPyth",
          "name": "",
          "type": "address"
        }
      ],
      "stateMutability": "view",
      "type": "function"
    },
    {
      "inputs": [
        {
          "internalType": "address",
          "name": "token",
          "type": "address"
        }
      ],
      "name": "removePriceId",
      "outputs": [],
      "stateMutability": "nonpayable",
      "type": "function"
    },
    {
      "inputs": [
        {
          "internalType": "address",
          "name": "token",
          "type": "address"
        },
        {
          "internalType": "bytes32",
          "name": "priceId",
          "type": "bytes32"
        }
      ],
      "name": "setPriceId",
      "outputs": [],
      "stateMutability": "nonpayable",
      "type": "function"
    },
    {
      "inputs": [
        {
          "internalType": "address",
          "name": "newOwner",
          "type": "address"
        }
      ],
      "name": "transferOwnership",
      "outputs": [],
      "stateMutability": "nonpayable",
      "type": "function"
    }
  ],
  "bytecode": "0x608060405234801561001057600080fd5b506040516109ed3803806109ed83398101604081905261002f916100b7565b6001600160a01b0381166100895760405162461bcd60e51b815260206004820152601460248201527f496e76616c696420507974682061646472657373000000000000000000000000604482015260640160405180910390fd5b600080546001600160a01b039092166001600160a01b031992831617905560028054909116331790556100e7565b6000602082840312156100c957600080fd5b81516001600160a01b03811681146100e057600080fd5b9392505050565b6108f7806100f66000396000f3fe608060405234801561001057600080fd5b50600436106100885760003560e01c8063db7a68281161005b578063db7a68281461013d578063f1ee92c41461016b578063f2fde38b1461017e578063f98d06f01461019157600080fd5b80630b7983a21461008d57806341976e09146100cd5780635ff6772b146100fd5780638da5cb5b14610112575b600080fd5b6100b861009b366004610602565b6001600160a01b0316600090815260016020526040902054151590565b60405190151581526020015b60405180910390f35b6100e06100db366004610602565b6101a4565b6040805193845260ff9092166020840152908201526060016100c4565b61011061010b366004610624565b610397565b005b600254610125906001600160a01b031681565b6040516001600160a01b0390911681526020016100c4565b61015d61014b366004610602565b60016020526000908152604090205481565b6040519081526020016100c4565b610110610179366004610602565b61048e565b61011061018c366004610602565b610554565b600054610125906001600160a01b031681565b6001600160a01b03811660009081526001602052604081205481908190806102065760405162461bcd60e51b815260206004820152601060248201526f141c9a58d9481251081b9bdd081cd95d60821b60448201526064015b60405180910390fd5b600080546040516396834ad360e01b8152600481018490526001600160a01b03909116906396834ad390602401608060405180830381865afa158015610250573d6000803e3d6000fd5b505050506040513d601f19601f820116820180604052508101906102749190610678565b90506000816000015160070b136102bd5760405162461bcd60e51b815260206004820152600d60248201526c496e76616c696420707269636560981b60448201526064016101fd565b60008160600151116103075760405162461bcd60e51b8152602060048201526013602482015272141c9a58d9481b9bdd081c1d589b1a5cda1959606a1b60448201526064016101fd565b604081015160089060009061031c908361071e565b90506000808260030b126103525761033582600a61082f565b845161034b919067ffffffffffffffff16610841565b905061037f565b61035b82610858565b61036690600a61082f565b845161037c919067ffffffffffffffff1661087b565b90505b60609093015192986008985092965091945050505050565b6002546001600160a01b031633146103c15760405162461bcd60e51b81526004016101fd9061089d565b6001600160a01b0382166104075760405162461bcd60e51b815260206004820152600d60248201526c24b73b30b634b2103a37b5b2b760991b60448201526064016101fd565b806104475760405162461bcd60e51b815260206004820152601060248201526f125b9d985b1a59081c1c9a58d948125160821b60448201526064016101fd565b6001600160a01b038216600081815260016020526040808220849055518392917f6578c1a1051ae85e00f128678beada55e53d2f37f26bc83b4d79b2b77b51fef291a35050565b6002546001600160a01b031633146104b85760405162461bcd60e51b81526004016101fd9061089d565b6001600160a01b0381166000908152600160205260409020546105105760405162461bcd60e51b815260206004820152601060248201526f141c9a58d9481251081b9bdd081cd95d60821b60448201526064016101fd565b6001600160a01b038116600081815260016020526040808220829055517f51366f46ef069d0a7788dc60e3872493534200cdf4ac68063fead736e7eee4d29190a250565b6002546001600160a01b0316331461057e5760405162461bcd60e51b81526004016101fd9061089d565b6001600160a01b0381166105c45760405162461bcd60e51b815260206004820152600d60248201526c24b73b30b634b21037bbb732b960991b60448201526064016101fd565b600280546001600160a01b0319166001600160a01b0392909216919091179055565b80356001600160a01b03811681146105fd57600080fd5b919050565b60006020828403121561061457600080fd5b61061d826105e6565b9392505050565b6000806040838503121561063757600080fd5b610640836105e6565b946020939093013593505050565b805167ffffffffffffffff811681146105fd57600080fd5b8051600381900b81146105fd57600080fd5b60006080828403121561068a57600080fd5b6040516080810181811067ffffffffffffffff821117156106bb57634e487b7160e01b600052604160045260246000fd5b6040528251600781900b81146106d057600080fd5b81526106de6020840161064e565b60208201526106ef60408401610666565b6040820152606083015160608201528091505092915050565b634e487b7160e01b600052601160045260246000fd5b600381810b9083900b01637fffffff8113637fffffff198212171561074557610745610708565b92915050565b600181815b8085111561078657816000190482111561076c5761076c610708565b8085161561077957918102915b93841c9390800290610750565b509250929050565b60008261079d57506001610745565b816107aa57506000610745565b81600181146107c057600281146107ca576107e6565b6001915050610745565b60ff8411156107db576107db610708565b50506001821b610745565b5060208310610133831016604e8410600b8410161715610809575081810a610745565b610813838361074b565b806000190482111561082757610827610708565b029392505050565b600061061d63ffffffff84168361078e565b808202811582820484141761074557610745610708565b60008160030b637fffffff19810361087257610872610708565b60000392915050565b60008261089857634e487b7160e01b600052601260045260246000fd5b500490565b6020808252600a908201526927b7363c9037bbb732b960b11b60408201526060019056fea2646970667358221220844086932fb9232e908cf1edb277d82284a9a802f2ea972c8e9fe78035cf047c64736f6c63430008140033",
  "linkReferences": {},
  "deployedLinkReferences": {}
}