{
  "_format": "hh-sol-artifact-1",
  "contractName": "Perms",
  "sourceName": "contracts/perms/Perms.sol",
  "abi": [
    {
      "inputs": [],
      "stateMutability": "nonpayable",
      "type": "constructor"
    },
    {
      "anonymous": false,
      "inputs": [],
      "name": "ContractSetOwnerless",
      "type": "event"
    },
    {
      "anonymous": false,
      "inputs": [
        {
          "indexed": true,
          "internalType": "bytes",
          "name": "parentKey",
          "type": "bytes"
        },
        {
          "indexed": false,
          "internalType": "bytes",
          "name": "childKey",
          "type": "bytes"
        },
        {
          "indexed": true,
          "internalType": "address",
          "name": "addedBy",
          "type": "address"
        }
      ],
      "name": "KeyAdded",
      "type": "event"
    },
    {
      "anonymous": false,
      "inputs": [
        {
          "indexed": true,
          "internalType": "bytes",
          "name": "parentKey",
          "type": "bytes"
        },
        {
          "indexed": false,
          "internalType": "bytes",
          "name": "childKey",
          "type": "bytes"
        },
        {
          "indexed": true,
          "internalType": "address",
          "name": "removedBy",
          "type": "address"
        }
      ],
      "name": "KeyRemoved",
      "type": "event"
    },
    {
      "anonymous": false,
      "inputs": [
        {
          "indexed": true,
          "internalType": "bytes",
          "name": "parentKey",
          "type": "bytes"
        },
        {
          "indexed": false,
          "internalType": "uint256",
          "name": "count",
          "type": "uint256"
        },
        {
          "indexed": true,
          "internalType": "address",
          "name": "setBy",
          "type": "address"
        }
      ],
      "name": "KeysSet",
      "type": "event"
    },
    {
      "anonymous": false,
      "inputs": [
        {
          "indexed": false,
          "internalType": "uint256",
          "name": "newMax",
          "type": "uint256"
        }
      ],
      "name": "MaxChildKeysUpdated",
      "type": "event"
    },
    {
      "anonymous": false,
      "inputs": [
        {
          "indexed": false,
          "internalType": "uint256",
          "name": "newMax",
          "type": "uint256"
        }
      ],
      "name": "MaxKeySizeUpdated",
      "type": "event"
    },
    {
      "anonymous": false,
      "inputs": [
        {
          "indexed": true,
          "internalType": "bytes",
          "name": "parentKey",
          "type": "bytes"
        },
        {
          "indexed": true,
          "internalType": "address",
          "name": "previousOwner",
          "type": "address"
        },
        {
          "indexed": true,
          "internalType": "address",
          "name": "newOwner",
          "type": "address"
        }
      ],
      "name": "OwnershipTransferred",
      "type": "event"
    },
    {
      "inputs": [
        {
          "internalType": "bytes",
          "name": "",
          "type": "bytes"
        },
        {
          "internalType": "uint256",
          "name": "",
          "type": "uint256"
        }
      ],
      "name": "Perms",
      "outputs": [
        {
          "internalType": "bytes",
          "name": "",
          "type": "bytes"
        }
      ],
      "stateMutability": "view",
      "type": "function"
    },
    {
      "inputs": [
        {
          "internalType": "bytes",
          "name": "parentKey",
          "type": "bytes"
        },
        {
          "internalType": "bytes",
          "name": "childKey",
          "type": "bytes"
        }
      ],
      "name": "addKey",
      "outputs": [],
      "stateMutability": "nonpayable",
      "type": "function"
    },
    {
      "inputs": [
        {
          "internalType": "bytes",
          "name": "parentKey",
          "type": "bytes"
        },
        {
          "internalType": "uint256",
          "name": "index",
          "type": "uint256"
        }
      ],
      "name": "getKeyAtIndex",
      "outputs": [
        {
          "internalType": "bytes",
          "name": "",
          "type": "bytes"
        }
      ],
      "stateMutability": "view",
      "type": "function"
    },
    {
      "inputs": [
        {
          "internalType": "bytes",
          "name": "parentKey",
          "type": "bytes"
        }
      ],
      "name": "getKeyCount",
      "outputs": [
        {
          "internalType": "uint256",
          "name": "",
          "type": "uint256"
        }
      ],
      "stateMutability": "view",
      "type": "function"
    },
    {
      "inputs": [
        {
          "internalType": "bytes",
          "name": "parentKey",
          "type": "bytes"
        }
      ],
      "name": "getKeyOwner",
      "outputs": [
        {
          "internalType": "address",
          "name": "",
          "type": "address"
        }
      ],
      "stateMutability": "view",
      "type": "function"
    },
    {
      "inputs": [
        {
          "internalType": "bytes",
          "name": "parentKey",
          "type": "bytes"
        }
      ],
      "name": "getKeys",
      "outputs": [
        {
          "internalType": "bytes[]",
          "name": "",
          "type": "bytes[]"
        }
      ],
      "stateMutability": "view",
      "type": "function"
    },
    {
      "inputs": [
        {
          "internalType": "bytes",
          "name": "",
          "type": "bytes"
        }
      ],
      "name": "keyOwners",
      "outputs": [
        {
          "internalType": "address",
          "name": "",
          "type": "address"
        }
      ],
      "stateMutability": "view",
      "type": "function"
    },
    {
      "inputs": [],
      "name": "maxChildKeys",
      "outputs": [
        {
          "internalType": "uint256",
          "name": "",
          "type": "uint256"
        }
      ],
      "stateMutability": "view",
      "type": "function"
    },
    {
      "inputs": [],
      "name": "maxKeySize",
      "outputs": [
        {
          "internalType": "uint256",
          "name": "",
          "type": "uint256"
        }
      ],
      "stateMutability": "view",
      "type": "function"
    },
    {
      "inputs": [],
      "name": "owner",
      "outputs": [
        {
          "internalType": "address",
          "name": "",
          "type": "address"
        }
      ],
      "stateMutability": "view",
      "type": "function"
    },
    {
      "inputs": [
        {
          "internalType": "bytes",
          "name": "parentKey",
          "type": "bytes"
        },
        {
          "internalType": "bytes",
          "name": "childKey",
          "type": "bytes"
        }
      ],
      "name": "removeKey",
      "outputs": [],
      "stateMutability": "nonpayable",
      "type": "function"
    },
    {
      "inputs": [
        {
          "internalType": "bytes",
          "name": "parentKey",
          "type": "bytes"
        },
        {
          "internalType": "uint256",
          "name": "index",
          "type": "uint256"
        }
      ],
      "name": "removeKeyAtIndex",
      "outputs": [],
      "stateMutability": "nonpayable",
      "type": "function"
    },
    {
      "inputs": [
        {
          "internalType": "bytes",
          "name": "parentKey",
          "type": "bytes"
        },
        {
          "internalType": "bytes[]",
          "name": "childKeys",
          "type": "bytes[]"
        }
      ],
      "name": "setKeys",
      "outputs": [],
      "stateMutability": "nonpayable",
      "type": "function"
    },
    {
      "inputs": [
        {
          "internalType": "uint256",
          "name": "newMax",
          "type": "uint256"
        }
      ],
      "name": "setMaxChildKeys",
      "outputs": [],
      "stateMutability": "nonpayable",
      "type": "function"
    },
    {
      "inputs": [
        {
          "internalType": "uint256",
          "name": "newMax",
          "type": "uint256"
        }
      ],
      "name": "setMaxKeySize",
      "outputs": [],
      "stateMutability": "nonpayable",
      "type": "function"
    },
    {
      "inputs": [],
      "name": "setOwnerless",
      "outputs": [],
      "stateMutability": "nonpayable",
      "type": "function"
    },
    {
      "inputs": [
        {
          "internalType": "bytes",
          "name": "parentKey",
          "type": "bytes"
        },
        {
          "internalType": "address",
          "name": "newOwner",
          "type": "address"
        }
      ],
      "name": "transferKeyOwnership",
      "outputs": [],
      "stateMutability": "nonpayable",
      "type": "function"
    },
    {
      "inputs": [
        {
          "internalType": "address",
          "name": "newOwner",
          "type": "address"
        }
      ],
      "name": "transferOwnership",
      "outputs": [],
      "stateMutability": "nonpayable",
      "type": "function"
    }
  ],
  "bytecode": "0x6080604052606460025561040060035534801561001b57600080fd5b50600480546001600160a01b03191633179055611ad18061003d6000396000f3fe608060405234801561001057600080fd5b50600436106101165760003560e01c80638da5cb5b116100a2578063dace5aef11610071578063dace5aef14610252578063e5db5cb814610265578063ea6b319414610278578063f2fde38b14610298578063fcf50b5d146102ab57600080fd5b80638da5cb5b146101cd578063a9588f5a146101f8578063bd4e8d751461020b578063d4e9da351461021e57600080fd5b806332bced24116100e957806332bced241461015e5780633bb1594b14610171578063546b031c1461019a578063678f27ed146101ad5780638d9b7d42146101c457600080fd5b80630c6fe1aa1461011b578063127ab8e5146101305780631aa7a3d914610143578063309a671d1461014b575b600080fd5b61012e6101293660046113e5565b6102be565b005b61012e61013e366004611449565b610501565b61012e6107b6565b61012e6101593660046113e5565b61081b565b61012e61016c366004611530565b6109fe565b61018461017f366004611530565b610c2b565b60405161019191906115c5565b60405180910390f35b61012e6101a83660046115df565b610d5c565b6101b660035481565b604051908152602001610191565b6101b660025481565b6004546101e0906001600160a01b031681565b6040516001600160a01b039091168152602001610191565b6101b66102063660046115f8565b610e04565b6101e06102193660046115f8565b610e2b565b6101e061022c3660046115f8565b80516020818301810180516001825292820191909301209152546001600160a01b031681565b610184610260366004611530565b610e5c565b61012e6102733660046115df565b610f24565b61028b6102863660046115f8565b610fc5565b6040516101919190611635565b61012e6102a63660046116b3565b6110bc565b61012e6102b93660046116ce565b611152565b6003548151111561030f5760405162461bcd60e51b815260206004820152601660248201527512d95e481cda5e9948195e18d959591cc81b1a5b5a5d60521b60448201526064015b60405180910390fd5b600254600083604051610322919061171c565b90815260405190819003602001902054106103785760405162461bcd60e51b815260206004820152601660248201527513585e0818da1a5b19081ad95e5cc81c995858da195960521b6044820152606401610306565b60006001600160a01b0316600183604051610393919061171c565b908152604051908190036020019020546001600160a01b0316036103f257336001836040516103c2919061171c565b90815260405190819003602001902080546001600160a01b03929092166001600160a01b03199092169190911790555b336001600160a01b031660018360405161040c919061171c565b908152604051908190036020019020546001600160a01b0316146104725760405162461bcd60e51b815260206004820152601d60248201527f4f6e6c7920706172656e74206b6579206f776e65722063616e206164640000006044820152606401610306565b600082604051610482919061171c565b9081526040516020918190038201902080546001810182556000918252919020016104ad82826117c0565b5060405133906104be90849061171c565b60405180910390207fcc7a5280b2fde757d7a14af15c3d52461212cd315a0958bc4237263dd057c31c836040516104f591906115c5565b60405180910390a35050565b6002548151111561054d5760405162461bcd60e51b815260206004820152601660248201527545786365656473206d6178206368696c64206b65797360501b6044820152606401610306565b60006001600160a01b0316600183604051610568919061171c565b908152604051908190036020019020546001600160a01b0316036105c75733600183604051610597919061171c565b90815260405190819003602001902080546001600160a01b03929092166001600160a01b03199092169190911790555b336001600160a01b03166001836040516105e1919061171c565b908152604051908190036020019020546001600160a01b0316146106475760405162461bcd60e51b815260206004820152601d60248201527f4f6e6c7920706172656e74206b6579206f776e65722063616e207365740000006044820152606401610306565b60005b81518110156106ca5760035482828151811061066857610668611880565b60200260200101515111156106b85760405162461bcd60e51b815260206004820152601660248201527512d95e481cda5e9948195e18d959591cc81b1a5b5a5d60521b6044820152606401610306565b806106c2816118ac565b91505061064a565b506000826040516106db919061171c565b908152602001604051809103902060006106f5919061129d565b60005b815181101561076d57600083604051610711919061171c565b908152602001604051809103902082828151811061073157610731611880565b6020908102919091018101518254600181018455600093845291909220019061075a90826117c0565b5080610765816118ac565b9150506106f8565b50604051339061077e90849061171c565b60405190819003812083518252907f659979cdf2c673e55c91d35a217d339af20aa703c5eb78af868c17a1590f00d2906020016104f5565b6004546001600160a01b031633146107e05760405162461bcd60e51b8152600401610306906118c5565b6040517f2ba54d6a3cc9b09a35290d130bee17be374bd7785c0ed3299961362e1c3bddaf90600090a1600480546001600160a01b0319169055565b81336001600160a01b0316600182604051610836919061171c565b908152604051908190036020019020546001600160a01b03161461086c5760405162461bcd60e51b8152600401610306906118f2565b6000808460405161087d919061171c565b9081526020016040518091039020905060005b81548110156109c05783805190602001208282815481106108b3576108b3611880565b906000526020600020016040516108ca9190611921565b6040518091039020036109ae57815482906108e790600190611997565b815481106108f7576108f7611880565b9060005260206000200182828154811061091357610913611880565b90600052602060002001908161092991906119aa565b508180548061093a5761093a611a85565b60019003818190600052602060002001600061095691906112be565b9055604051339061096890879061171c565b60405180910390207f26c5e7c45004be9e356c6ef76a9575e6a83868f384bd24c323e30dc7c16ba32f8660405161099f91906115c5565b60405180910390a35050505050565b806109b8816118ac565b915050610890565b5060405162461bcd60e51b815260206004820152600d60248201526c12d95e481b9bdd08199bdd5b99609a1b6044820152606401610306565b505050565b81336001600160a01b0316600182604051610a19919061171c565b908152604051908190036020019020546001600160a01b031614610a4f5760405162461bcd60e51b8152600401610306906118f2565b60008084604051610a60919061171c565b90815260405190819003602001902080549091508310610ab85760405162461bcd60e51b8152602060048201526013602482015272496e646578206f7574206f6620626f756e647360681b6044820152606401610306565b6000818481548110610acc57610acc611880565b906000526020600020018054610ae190611738565b80601f0160208091040260200160405190810160405280929190818152602001828054610b0d90611738565b8015610b5a5780601f10610b2f57610100808354040283529160200191610b5a565b820191906000526020600020905b815481529060010190602001808311610b3d57829003601f168201915b505050505090508160018380549050610b739190611997565b81548110610b8357610b83611880565b90600052602060002001828581548110610b9f57610b9f611880565b906000526020600020019081610bb591906119aa565b5081805480610bc657610bc6611a85565b600190038181906000526020600020016000610be291906112be565b90556040513390610bf490879061171c565b60405180910390207f26c5e7c45004be9e356c6ef76a9575e6a83868f384bd24c323e30dc7c16ba32f8360405161099f91906115c5565b6060600083604051610c3d919061171c565b908152604051908190036020019020548210610c915760405162461bcd60e51b8152602060048201526013602482015272496e646578206f7574206f6620626f756e647360681b6044820152606401610306565b600083604051610ca1919061171c565b90815260200160405180910390208281548110610cc057610cc0611880565b906000526020600020018054610cd590611738565b80601f0160208091040260200160405190810160405280929190818152602001828054610d0190611738565b8015610d4e5780601f10610d2357610100808354040283529160200191610d4e565b820191906000526020600020905b815481529060010190602001808311610d3157829003601f168201915b505050505090505b92915050565b6004546001600160a01b03163314610d865760405162461bcd60e51b8152600401610306906118c5565b60008111610dc85760405162461bcd60e51b815260206004820152600f60248201526e04d6178206d757374206265203e203608c1b6044820152606401610306565b60028190556040518181527f3189d58401ed985f5866bd5de6f4f533620ae4ec28a96fef70ee38b1223d527d906020015b60405180910390a150565b60008082604051610e15919061171c565b9081526040519081900360200190205492915050565b6000600182604051610e3d919061171c565b908152604051908190036020019020546001600160a01b031692915050565b81516020818401810180516000825292820191850191909120919052805482908110610e8757600080fd5b90600052602060002001600091509150508054610ea390611738565b80601f0160208091040260200160405190810160405280929190818152602001828054610ecf90611738565b8015610f1c5780601f10610ef157610100808354040283529160200191610f1c565b820191906000526020600020905b815481529060010190602001808311610eff57829003601f168201915b505050505081565b6004546001600160a01b03163314610f4e5760405162461bcd60e51b8152600401610306906118c5565b60008111610f905760405162461bcd60e51b815260206004820152600f60248201526e04d6178206d757374206265203e203608c1b6044820152606401610306565b60038190556040518181527f558f4546cf1dd19dd026ba3f0f9f3de22c7751ac2e37e790d134248e0e1e74b190602001610df9565b6060600082604051610fd7919061171c565b9081526020016040518091039020805480602002602001604051908101604052809291908181526020016000905b828210156110b157838290600052602060002001805461102490611738565b80601f016020809104026020016040519081016040528092919081815260200182805461105090611738565b801561109d5780601f106110725761010080835404028352916020019161109d565b820191906000526020600020905b81548152906001019060200180831161108057829003601f168201915b505050505081526020019060010190611005565b505050509050919050565b6004546001600160a01b031633146110e65760405162461bcd60e51b8152600401610306906118c5565b6001600160a01b0381166111305760405162461bcd60e51b815260206004820152601160248201527024b73b30b634b2103732bb9037bbb732b960791b6044820152606401610306565b600480546001600160a01b0319166001600160a01b0392909216919091179055565b81336001600160a01b031660018260405161116d919061171c565b908152604051908190036020019020546001600160a01b0316146111a35760405162461bcd60e51b8152600401610306906118f2565b6001600160a01b0382166111ed5760405162461bcd60e51b815260206004820152601160248201527024b73b30b634b2103732bb9037bbb732b960791b6044820152606401610306565b60006001846040516111ff919061171c565b908152604051908190036020018120546001600160a01b03169150839060019061122a90879061171c565b90815260405190819003602001812080546001600160a01b039384166001600160a01b03199091161790558482169183169061126790879061171c565b604051908190038120907f6f762088d9d603221050485480beef2502e964ed208a4242002ed8450147e8ea90600090a450505050565b50805460008255906000526020600020908101906112bb91906112f8565b50565b5080546112ca90611738565b6000825580601f106112da575050565b601f0160209004906000526020600020908101906112bb9190611319565b8082111561131557600061130c82826112be565b506001016112f8565b5090565b5b80821115611315576000815560010161131a565b634e487b7160e01b600052604160045260246000fd5b604051601f8201601f1916810167ffffffffffffffff8111828210171561136d5761136d61132e565b604052919050565b600082601f83011261138657600080fd5b813567ffffffffffffffff8111156113a0576113a061132e565b6113b3601f8201601f1916602001611344565b8181528460208386010111156113c857600080fd5b816020850160208301376000918101602001919091529392505050565b600080604083850312156113f857600080fd5b823567ffffffffffffffff8082111561141057600080fd5b61141c86838701611375565b9350602085013591508082111561143257600080fd5b5061143f85828601611375565b9150509250929050565b6000806040838503121561145c57600080fd5b823567ffffffffffffffff8082111561147457600080fd5b61148086838701611375565b935060209150818501358181111561149757600080fd5b8501601f810187136114a857600080fd5b8035828111156114ba576114ba61132e565b8060051b6114c9858201611344565b918252828101850191858101908a8411156114e357600080fd5b86850192505b8383101561151f578235868111156115015760008081fd5b61150f8c8983890101611375565b83525091860191908601906114e9565b809750505050505050509250929050565b6000806040838503121561154357600080fd5b823567ffffffffffffffff81111561155a57600080fd5b61156685828601611375565b95602094909401359450505050565b60005b83811015611590578181015183820152602001611578565b50506000910152565b600081518084526115b1816020860160208601611575565b601f01601f19169290920160200192915050565b6020815260006115d86020830184611599565b9392505050565b6000602082840312156115f157600080fd5b5035919050565b60006020828403121561160a57600080fd5b813567ffffffffffffffff81111561162157600080fd5b61162d84828501611375565b949350505050565b6000602080830181845280855180835260408601915060408160051b870101925083870160005b8281101561168a57603f19888603018452611678858351611599565b9450928501929085019060010161165c565b5092979650505050505050565b80356001600160a01b03811681146116ae57600080fd5b919050565b6000602082840312156116c557600080fd5b6115d882611697565b600080604083850312156116e157600080fd5b823567ffffffffffffffff8111156116f857600080fd5b61170485828601611375565b92505061171360208401611697565b90509250929050565b6000825161172e818460208701611575565b9190910192915050565b600181811c9082168061174c57607f821691505b60208210810361176c57634e487b7160e01b600052602260045260246000fd5b50919050565b601f8211156109f957600081815260208120601f850160051c810160208610156117995750805b601f850160051c820191505b818110156117b8578281556001016117a5565b505050505050565b815167ffffffffffffffff8111156117da576117da61132e565b6117ee816117e88454611738565b84611772565b602080601f831160018114611823576000841561180b5750858301515b600019600386901b1c1916600185901b1785556117b8565b600085815260208120601f198616915b8281101561185257888601518255948401946001909101908401611833565b50858210156118705787850151600019600388901b60f8161c191681555b5050505050600190811b01905550565b634e487b7160e01b600052603260045260246000fd5b634e487b7160e01b600052601160045260246000fd5b6000600182016118be576118be611896565b5060010190565b60208082526013908201527227b7363c9031b7b73a3930b1ba1037bbb732b960691b604082015260600190565b60208082526015908201527427b7363c903830b932b73a1035b2bc9037bbb732b960591b604082015260600190565b600080835461192f81611738565b60018281168015611947576001811461195c5761198b565b60ff198416875282151583028701945061198b565b8760005260208060002060005b858110156119825781548a820152908401908201611969565b50505082870194505b50929695505050505050565b81810381811115610d5657610d56611896565b8181036119b5575050565b6119bf8254611738565b67ffffffffffffffff8111156119d7576119d761132e565b6119e5816117e88454611738565b6000601f821160018114611a195760008315611a015750848201545b600019600385901b1c1916600184901b178455611a7e565b600085815260209020601f19841690600086815260209020845b83811015611a535782860154825560019586019590910190602001611a33565b5085831015611a715781850154600019600388901b60f8161c191681555b50505060018360011b0184555b5050505050565b634e487b7160e01b600052603160045260246000fdfea26469706673582212205120bf6cb31e522402e1e688f939323eb0eb690f7611d53c7545e17c76597b0b64736f6c63430008140033",
  "linkReferences": {},
  "deployedLinkReferences": {}
}