{
  "_format": "hh-sol-artifact-1",
  "contractName": "TokenGate",
  "sourceName": "contracts/tokengate/TokenGate.sol",
  "abi": [
    {
      "inputs": [
        {
          "internalType": "address",
          "name": "_defaultOracle",
          "type": "address"
        }
      ],
      "stateMutability": "nonpayable",
      "type": "constructor"
    },
    {
      "anonymous": false,
      "inputs": [
        {
          "indexed": true,
          "internalType": "address",
          "name": "newOracle",
          "type": "address"
        }
      ],
      "name": "DefaultOracleUpdated",
      "type": "event"
    },
    {
      "anonymous": false,
      "inputs": [
        {
          "indexed": true,
          "internalType": "address",
          "name": "previousOwner",
          "type": "address"
        },
        {
          "indexed": true,
          "internalType": "address",
          "name": "newOwner",
          "type": "address"
        }
      ],
      "name": "OwnershipTransferred",
      "type": "event"
    },
    {
      "anonymous": false,
      "inputs": [
        {
          "indexed": true,
          "internalType": "address",
          "name": "token",
          "type": "address"
        }
      ],
      "name": "TokenDelisted",
      "type": "event"
    },
    {
      "anonymous": false,
      "inputs": [
        {
          "indexed": true,
          "internalType": "address",
          "name": "token",
          "type": "address"
        },
        {
          "indexed": true,
          "internalType": "address",
          "name": "oracle",
          "type": "address"
        }
      ],
      "name": "TokenOracleRegistered",
      "type": "event"
    },
    {
      "anonymous": false,
      "inputs": [
        {
          "indexed": true,
          "internalType": "address",
          "name": "token",
          "type": "address"
        }
      ],
      "name": "TokenOracleRemoved",
      "type": "event"
    },
    {
      "anonymous": false,
      "inputs": [
        {
          "indexed": true,
          "internalType": "address",
          "name": "token",
          "type": "address"
        }
      ],
      "name": "TokenWhitelisted",
      "type": "event"
    },
    {
      "inputs": [
        {
          "internalType": "address[]",
          "name": "tokens",
          "type": "address[]"
        }
      ],
      "name": "batchWhitelistTokens",
      "outputs": [],
      "stateMutability": "nonpayable",
      "type": "function"
    },
    {
      "inputs": [],
      "name": "defaultOracle",
      "outputs": [
        {
          "internalType": "contract IOracleAdapter",
          "name": "",
          "type": "address"
        }
      ],
      "stateMutability": "view",
      "type": "function"
    },
    {
      "inputs": [
        {
          "internalType": "address",
          "name": "token",
          "type": "address"
        }
      ],
      "name": "delistToken",
      "outputs": [],
      "stateMutability": "nonpayable",
      "type": "function"
    },
    {
      "inputs": [
        {
          "internalType": "address",
          "name": "token",
          "type": "address"
        }
      ],
      "name": "getOracleForToken",
      "outputs": [
        {
          "internalType": "contract IOracleAdapter",
          "name": "",
          "type": "address"
        }
      ],
      "stateMutability": "view",
      "type": "function"
    },
    {
      "inputs": [],
      "name": "getTokenList",
      "outputs": [
        {
          "internalType": "address[]",
          "name": "",
          "type": "address[]"
        }
      ],
      "stateMutability": "view",
      "type": "function"
    },
    {
      "inputs": [
        {
          "internalType": "address",
          "name": "token",
          "type": "address"
        }
      ],
      "name": "getTokenPrice",
      "outputs": [
        {
          "internalType": "uint256",
          "name": "price",
          "type": "uint256"
        },
        {
          "internalType": "uint8",
          "name": "decimals",
          "type": "uint8"
        },
        {
          "internalType": "uint256",
          "name": "timestamp",
          "type": "uint256"
        }
      ],
      "stateMutability": "view",
      "type": "function"
    },
    {
      "inputs": [
        {
          "internalType": "address",
          "name": "token",
          "type": "address"
        }
      ],
      "name": "isTokenWhitelisted",
      "outputs": [
        {
          "internalType": "bool",
          "name": "",
          "type": "bool"
        }
      ],
      "stateMutability": "view",
      "type": "function"
    },
    {
      "inputs": [],
      "name": "owner",
      "outputs": [
        {
          "internalType": "address",
          "name": "",
          "type": "address"
        }
      ],
      "stateMutability": "view",
      "type": "function"
    },
    {
      "inputs": [
        {
          "internalType": "address",
          "name": "token",
          "type": "address"
        },
        {
          "internalType": "address",
          "name": "oracle",
          "type": "address"
        }
      ],
      "name": "registerTokenOracle",
      "outputs": [],
      "stateMutability": "nonpayable",
      "type": "function"
    },
    {
      "inputs": [
        {
          "internalType": "address",
          "name": "token",
          "type": "address"
        }
      ],
      "name": "removeTokenOracle",
      "outputs": [],
      "stateMutability": "nonpayable",
      "type": "function"
    },
    {
      "inputs": [],
      "name": "renounceOwnership",
      "outputs": [],
      "stateMutability": "nonpayable",
      "type": "function"
    },
    {
      "inputs": [
        {
          "internalType": "address",
          "name": "_oracle",
          "type": "address"
        }
      ],
      "name": "setDefaultOracle",
      "outputs": [],
      "stateMutability": "nonpayable",
      "type": "function"
    },
    {
      "inputs": [
        {
          "internalType": "address",
          "name": "newOwner",
          "type": "address"
        }
      ],
      "name": "transferOwnership",
      "outputs": [],
      "stateMutability": "nonpayable",
      "type": "function"
    },
    {
      "inputs": [
        {
          "internalType": "address",
          "name": "token",
          "type": "address"
        }
      ],
      "name": "whitelistToken",
      "outputs": [],
      "stateMutability": "nonpayable",
      "type": "function"
    }
  ],
  "bytecode": "0x608060405234801561001057600080fd5b506040516111c53803806111c583398101604081905261002f916100f8565b610038336100a8565b6001600160a01b0381166100835760405162461bcd60e51b815260206004820152600e60248201526d496e76616c6964206f7261636c6560901b604482015260640160405180910390fd5b600180546001600160a01b0319166001600160a01b0392909216919091179055610128565b600080546001600160a01b038381166001600160a01b0319831681178455604051919092169283917f8be0079c531659141344cd1fd0a4f28419497f9722a3daafe3b4186f6b6457e09190a35050565b60006020828403121561010a57600080fd5b81516001600160a01b038116811461012157600080fd5b9392505050565b61108e806101376000396000f3fe608060405234801561001057600080fd5b50600436106100ea5760003560e01c8063abffc9ac1161008c578063c44014d211610066578063c44014d2146101ee578063cd8e19c514610201578063d02641a014610214578063f2fde38b1461024457600080fd5b8063abffc9ac1461018c578063b2b3c0091461019f578063b5af090f146101b257600080fd5b806380dce169116100c857806380dce1691461012a57806388e32fc2146101555780638da5cb5b146101685780639a48ba101461017957600080fd5b8063273cbaa0146100ef5780636247f6f21461010d578063715018a614610122575b600080fd5b6100f7610257565b6040516101049190610e30565b60405180910390f35b61012061011b366004610e99565b6102b9565b005b6101206104a7565b60015461013d906001600160a01b031681565b6040516001600160a01b039091168152602001610104565b610120610163366004610e99565b6104bb565b6000546001600160a01b031661013d565b610120610187366004610eb4565b61056f565b61012061019a366004610e99565b61089c565b61013d6101ad366004610e99565b610a81565b6101de6101c0366004610e99565b6001600160a01b031660009081526003602052604090205460ff1690565b6040519015158152602001610104565b6101206101fc366004610e99565b610abd565b61012061020f366004610f29565b610b56565b610227610222366004610e99565b610c22565b6040805193845260ff909216602084015290820152606001610104565b610120610252366004610e99565b610d0d565b606060048054806020026020016040519081016040528092919081815260200182805480156102af57602002820191906000526020600020905b81546001600160a01b03168152600190910190602001808311610291575b5050505050905090565b6102c1610d86565b6001600160a01b0381166102f05760405162461bcd60e51b81526004016102e790610f5c565b60405180910390fd5b6001600160a01b03811660009081526003602052604090205460ff161561034f5760405162461bcd60e51b8152602060048201526013602482015272105b1c9958591e481dda1a5d195b1a5cdd1959606a1b60448201526064016102e7565b600061035a82610a81565b6040516305bcc1d160e11b81526001600160a01b03848116600483015291925090821690630b7983a290602401602060405180830381865afa1580156103a4573d6000803e3d6000fd5b505050506040513d601f19601f820116820180604052508101906103c89190610f83565b61040b5760405162461bcd60e51b8152602060048201526014602482015273139bc81bdc9858db19481c1c9a58d9481999595960621b60448201526064016102e7565b6001600160a01b0382166000818152600360209081526040808320805460ff19166001908117909155600480546005909452828520849055908301815583527f8a35acfbc15ff81a39ae7d344fd709f28e8600b4aa8c65c6b64bfe7fe36bd19b90910180546001600160a01b03191684179055517f6a65f90b1a644d2faac467a21e07e50e3f8fa5846e26231d30ae79a417d3d2629190a25050565b6104af610d86565b6104b96000610de0565b565b6104c3610d86565b6001600160a01b03818116600090815260026020526040902054166105205760405162461bcd60e51b8152602060048201526013602482015272139bc81d1bdad95b881bdc9858db19481cd95d606a1b60448201526064016102e7565b6001600160a01b03811660008181526002602052604080822080546001600160a01b0319169055517fc481e129bafcd65f0043ed760b1b18558c537690c09d170213c64d52606d9fc09190a250565b610577610d86565b60005b8181101561089757600083838381811061059657610596610fa5565b90506020020160208101906105ab9190610e99565b6001600160a01b0316036105d15760405162461bcd60e51b81526004016102e790610f5c565b600360008484848181106105e7576105e7610fa5565b90506020020160208101906105fc9190610e99565b6001600160a01b0316815260208101919091526040016000205460ff1661088557600061064984848481811061063457610634610fa5565b90506020020160208101906101ad9190610e99565b9050806001600160a01b0316630b7983a285858581811061066c5761066c610fa5565b90506020020160208101906106819190610e99565b6040516001600160e01b031960e084901b1681526001600160a01b039091166004820152602401602060405180830381865afa1580156106c5573d6000803e3d6000fd5b505050506040513d601f19601f820116820180604052508101906106e99190610f83565b61072c5760405162461bcd60e51b8152602060048201526014602482015273139bc81bdc9858db19481c1c9a58d9481999595960621b60448201526064016102e7565b60016003600086868681811061074457610744610fa5565b90506020020160208101906107599190610e99565b6001600160a01b0316815260208101919091526040016000908120805460ff1916921515929092179091556004549060059086868681811061079d5761079d610fa5565b90506020020160208101906107b29190610e99565b6001600160a01b0316815260208101919091526040016000205560048484848181106107e0576107e0610fa5565b90506020020160208101906107f59190610e99565b81546001810183556000928352602090922090910180546001600160a01b0319166001600160a01b0390921691909117905583838381811061083957610839610fa5565b905060200201602081019061084e9190610e99565b6001600160a01b03167f6a65f90b1a644d2faac467a21e07e50e3f8fa5846e26231d30ae79a417d3d26260405160405180910390a2505b8061088f81610fd1565b91505061057a565b505050565b6108a4610d86565b6001600160a01b03811660009081526003602052604090205460ff166108fe5760405162461bcd60e51b815260206004820152600f60248201526e139bdd081dda1a5d195b1a5cdd1959608a1b60448201526064016102e7565b6001600160a01b0381166000908152600360209081526040808320805460ff19169055600590915281205460045490919061093b90600190610fea565b90508082146109c35760006004828154811061095957610959610fa5565b600091825260209091200154600480546001600160a01b03909216925082918590811061098857610988610fa5565b600091825260208083209190910180546001600160a01b0319166001600160a01b039485161790559290911681526005909152604090208290555b60048054806109d4576109d4611003565b60008281526020808220830160001990810180546001600160a01b03191690559092019092556001600160a01b03858116835260058252604080842084905560029092529120541615610a48576001600160a01b038316600090815260026020526040902080546001600160a01b03191690555b6040516001600160a01b038416907f6621c4efc5efa31320394260425b7d14cbb9d7e3754b2c98c04af66b1cbf315b90600090a2505050565b6001600160a01b0380821660009081526002602052604081205490911680610ab4576001546001600160a01b0316610ab6565b805b9392505050565b610ac5610d86565b6001600160a01b038116610b0c5760405162461bcd60e51b815260206004820152600e60248201526d496e76616c6964206f7261636c6560901b60448201526064016102e7565b600180546001600160a01b0319166001600160a01b0383169081179091556040517f1bc296d82f6c12b9613275344793ebdb1c8ed5dca91d1699898b5c9adf1e997890600090a250565b610b5e610d86565b6001600160a01b038216610b845760405162461bcd60e51b81526004016102e790610f5c565b6001600160a01b038116610bcb5760405162461bcd60e51b815260206004820152600e60248201526d496e76616c6964206f7261636c6560901b60448201526064016102e7565b6001600160a01b0382811660008181526002602052604080822080546001600160a01b0319169486169485179055517f9d1e3ce0fd26cf2587668c1912223834577f94dc7d2a3febd50ff03273b8c4e59190a35050565b6001600160a01b0381166000908152600360205260408120548190819060ff16610c865760405162461bcd60e51b8152602060048201526015602482015274151bdad95b881b9bdd081dda1a5d195b1a5cdd1959605a1b60448201526064016102e7565b6000610c9185610a81565b6040516341976e0960e01b81526001600160a01b038781166004830152919250908216906341976e0990602401606060405180830381865afa158015610cdb573d6000803e3d6000fd5b505050506040513d601f19601f82011682018060405250810190610cff9190611019565b935093509350509193909250565b610d15610d86565b6001600160a01b038116610d7a5760405162461bcd60e51b815260206004820152602660248201527f4f776e61626c653a206e6577206f776e657220697320746865207a65726f206160448201526564647265737360d01b60648201526084016102e7565b610d8381610de0565b50565b6000546001600160a01b031633146104b95760405162461bcd60e51b815260206004820181905260248201527f4f776e61626c653a2063616c6c6572206973206e6f7420746865206f776e657260448201526064016102e7565b600080546001600160a01b038381166001600160a01b0319831681178455604051919092169283917f8be0079c531659141344cd1fd0a4f28419497f9722a3daafe3b4186f6b6457e09190a35050565b6020808252825182820181905260009190848201906040850190845b81811015610e715783516001600160a01b031683529284019291840191600101610e4c565b50909695505050505050565b80356001600160a01b0381168114610e9457600080fd5b919050565b600060208284031215610eab57600080fd5b610ab682610e7d565b60008060208385031215610ec757600080fd5b823567ffffffffffffffff80821115610edf57600080fd5b818501915085601f830112610ef357600080fd5b813581811115610f0257600080fd5b8660208260051b8501011115610f1757600080fd5b60209290920196919550909350505050565b60008060408385031215610f3c57600080fd5b610f4583610e7d565b9150610f5360208401610e7d565b90509250929050565b6020808252600d908201526c24b73b30b634b2103a37b5b2b760991b604082015260600190565b600060208284031215610f9557600080fd5b81518015158114610ab657600080fd5b634e487b7160e01b600052603260045260246000fd5b634e487b7160e01b600052601160045260246000fd5b600060018201610fe357610fe3610fbb565b5060010190565b81810381811115610ffd57610ffd610fbb565b92915050565b634e487b7160e01b600052603160045260246000fd5b60008060006060848603121561102e57600080fd5b83519250602084015160ff8116811461104657600080fd5b8092505060408401519050925092509256fea2646970667358221220c579c4993575751179984a80f39c29e482f9f40699150256e116dfcd9bc1e92b64736f6c63430008140033",
  "linkReferences": {},
  "deployedLinkReferences": {}
}