{
  "_format": "hh-sol-artifact-1",
  "contractName": "Debit",
  "sourceName": "contracts/market/debit/Debit.sol",
  "abi": [
    {
      "inputs": [
        {
          "internalType": "address",
          "name": "_market",
          "type": "address"
        }
      ],
      "stateMutability": "nonpayable",
      "type": "constructor"
    },
    {
      "inputs": [],
      "name": "InvalidShortString",
      "type": "error"
    },
    {
      "inputs": [
        {
          "internalType": "string",
          "name": "str",
          "type": "string"
        }
      ],
      "name": "StringTooLong",
      "type": "error"
    },
    {
      "anonymous": false,
      "inputs": [
        {
          "indexed": true,
          "internalType": "address",
          "name": "client",
          "type": "address"
        },
        {
          "indexed": true,
          "internalType": "address",
          "name": "authority",
          "type": "address"
        }
      ],
      "name": "ApprovalRevoked",
      "type": "event"
    },
    {
      "anonymous": false,
      "inputs": [
        {
          "indexed": true,
          "internalType": "address",
          "name": "client",
          "type": "address"
        },
        {
          "indexed": true,
          "internalType": "address",
          "name": "authority",
          "type": "address"
        }
      ],
      "name": "AuthorityAdded",
      "type": "event"
    },
    {
      "anonymous": false,
      "inputs": [
        {
          "indexed": true,
          "internalType": "address",
          "name": "client",
          "type": "address"
        },
        {
          "indexed": true,
          "internalType": "address",
          "name": "authority",
          "type": "address"
        }
      ],
      "name": "AuthorityRemoved",
      "type": "event"
    },
    {
      "anonymous": false,
      "inputs": [],
      "name": "ContractSetOwnerless",
      "type": "event"
    },
    {
      "anonymous": false,
      "inputs": [
        {
          "indexed": true,
          "internalType": "address",
          "name": "client",
          "type": "address"
        },
        {
          "indexed": false,
          "internalType": "uint256",
          "name": "newLimit",
          "type": "uint256"
        }
      ],
      "name": "DailyLimitUpdated",
      "type": "event"
    },
    {
      "anonymous": false,
      "inputs": [
        {
          "indexed": true,
          "internalType": "address",
          "name": "client",
          "type": "address"
        },
        {
          "indexed": true,
          "internalType": "address",
          "name": "authority",
          "type": "address"
        },
        {
          "indexed": false,
          "internalType": "uint256",
          "name": "maxAmount",
          "type": "uint256"
        },
        {
          "indexed": false,
          "internalType": "uint256",
          "name": "deadline",
          "type": "uint256"
        }
      ],
      "name": "DebitApproved",
      "type": "event"
    },
    {
      "anonymous": false,
      "inputs": [
        {
          "indexed": true,
          "internalType": "uint256",
          "name": "txId",
          "type": "uint256"
        },
        {
          "indexed": true,
          "internalType": "address",
          "name": "client",
          "type": "address"
        },
        {
          "indexed": true,
          "internalType": "address",
          "name": "provider",
          "type": "address"
        },
        {
          "indexed": false,
          "internalType": "uint256",
          "name": "amount",
          "type": "uint256"
        },
        {
          "indexed": false,
          "internalType": "uint256",
          "name": "treasuryFee",
          "type": "uint256"
        },
        {
          "indexed": false,
          "internalType": "uint256",
          "name": "providerAmount",
          "type": "uint256"
        },
        {
          "indexed": false,
          "internalType": "uint256",
          "name": "nonce",
          "type": "uint256"
        }
      ],
      "name": "DebitExecuted",
      "type": "event"
    },
    {
      "anonymous": false,
      "inputs": [],
      "name": "EIP712DomainChanged",
      "type": "event"
    },
    {
      "anonymous": false,
      "inputs": [
        {
          "indexed": true,
          "internalType": "address",
          "name": "newMarket",
          "type": "address"
        }
      ],
      "name": "MarketUpdated",
      "type": "event"
    },
    {
      "anonymous": false,
      "inputs": [
        {
          "indexed": true,
          "internalType": "address",
          "name": "previousOwner",
          "type": "address"
        },
        {
          "indexed": true,
          "internalType": "address",
          "name": "newOwner",
          "type": "address"
        }
      ],
      "name": "OwnershipTransferred",
      "type": "event"
    },
    {
      "anonymous": false,
      "inputs": [
        {
          "indexed": false,
          "internalType": "bool",
          "name": "required",
          "type": "bool"
        }
      ],
      "name": "SignatureRequirementUpdated",
      "type": "event"
    },
    {
      "anonymous": false,
      "inputs": [
        {
          "indexed": true,
          "internalType": "address",
          "name": "client",
          "type": "address"
        },
        {
          "indexed": false,
          "internalType": "uint256",
          "name": "threshold",
          "type": "uint256"
        }
      ],
      "name": "ThresholdUpdated",
      "type": "event"
    },
    {
      "inputs": [],
      "name": "DEBIT_TYPEHASH",
      "outputs": [
        {
          "internalType": "bytes32",
          "name": "",
          "type": "bytes32"
        }
      ],
      "stateMutability": "view",
      "type": "function"
    },
    {
      "inputs": [],
      "name": "DEFAULT_DAILY_LIMIT",
      "outputs": [
        {
          "internalType": "uint256",
          "name": "",
          "type": "uint256"
        }
      ],
      "stateMutability": "view",
      "type": "function"
    },
    {
      "inputs": [],
      "name": "TREASURY_FEE_PERCENT",
      "outputs": [
        {
          "internalType": "uint256",
          "name": "",
          "type": "uint256"
        }
      ],
      "stateMutability": "view",
      "type": "function"
    },
    {
      "inputs": [
        {
          "internalType": "address",
          "name": "authority",
          "type": "address"
        }
      ],
      "name": "addAuthority",
      "outputs": [],
      "stateMutability": "nonpayable",
      "type": "function"
    },
    {
      "inputs": [
        {
          "internalType": "address",
          "name": "",
          "type": "address"
        }
      ],
      "name": "approvalThreshold",
      "outputs": [
        {
          "internalType": "uint256",
          "name": "",
          "type": "uint256"
        }
      ],
      "stateMutability": "view",
      "type": "function"
    },
    {
      "inputs": [
        {
          "internalType": "address",
          "name": "",
          "type": "address"
        },
        {
          "internalType": "address",
          "name": "",
          "type": "address"
        }
      ],
      "name": "approvals",
      "outputs": [
        {
          "internalType": "uint256",
          "name": "maxAmount",
          "type": "uint256"
        },
        {
          "internalType": "uint256",
          "name": "deadline",
          "type": "uint256"
        }
      ],
      "stateMutability": "view",
      "type": "function"
    },
    {
      "inputs": [
        {
          "internalType": "address",
          "name": "client",
          "type": "address"
        },
        {
          "internalType": "uint256",
          "name": "maxAmount",
          "type": "uint256"
        },
        {
          "internalType": "uint256",
          "name": "deadline",
          "type": "uint256"
        }
      ],
      "name": "approveDebit",
      "outputs": [],
      "stateMutability": "nonpayable",
      "type": "function"
    },
    {
      "inputs": [
        {
          "internalType": "address",
          "name": "",
          "type": "address"
        }
      ],
      "name": "dailyLimit",
      "outputs": [
        {
          "internalType": "uint256",
          "name": "",
          "type": "uint256"
        }
      ],
      "stateMutability": "view",
      "type": "function"
    },
    {
      "inputs": [
        {
          "internalType": "address",
          "name": "",
          "type": "address"
        },
        {
          "internalType": "uint256",
          "name": "",
          "type": "uint256"
        }
      ],
      "name": "dailySpent",
      "outputs": [
        {
          "internalType": "uint256",
          "name": "",
          "type": "uint256"
        }
      ],
      "stateMutability": "view",
      "type": "function"
    },
    {
      "inputs": [],
      "name": "eip712Domain",
      "outputs": [
        {
          "internalType": "bytes1",
          "name": "fields",
          "type": "bytes1"
        },
        {
          "internalType": "string",
          "name": "name",
          "type": "string"
        },
        {
          "internalType": "string",
          "name": "version",
          "type": "string"
        },
        {
          "internalType": "uint256",
          "name": "chainId",
          "type": "uint256"
        },
        {
          "internalType": "address",
          "name": "verifyingContract",
          "type": "address"
        },
        {
          "internalType": "bytes32",
          "name": "salt",
          "type": "bytes32"
        },
        {
          "internalType": "uint256[]",
          "name": "extensions",
          "type": "uint256[]"
        }
      ],
      "stateMutability": "view",
      "type": "function"
    },
    {
      "inputs": [
        {
          "internalType": "address",
          "name": "client",
          "type": "address"
        },
        {
          "internalType": "address",
          "name": "provider",
          "type": "address"
        },
        {
          "internalType": "uint256",
          "name": "stableAmount",
          "type": "uint256"
        },
        {
          "internalType": "uint256",
          "name": "deadline",
          "type": "uint256"
        },
        {
          "internalType": "bytes",
          "name": "signature",
          "type": "bytes"
        }
      ],
      "name": "executeDebit",
      "outputs": [
        {
          "internalType": "uint256",
          "name": "",
          "type": "uint256"
        }
      ],
      "stateMutability": "nonpayable",
      "type": "function"
    },
    {
      "inputs": [
        {
          "internalType": "address",
          "name": "client",
          "type": "address"
        },
        {
          "internalType": "address",
          "name": "provider",
          "type": "address"
        },
        {
          "internalType": "uint256",
          "name": "stableAmount",
          "type": "uint256"
        }
      ],
      "name": "executeDebitUnsigned",
      "outputs": [
        {
          "internalType": "uint256",
          "name": "",
          "type": "uint256"
        }
      ],
      "stateMutability": "nonpayable",
      "type": "function"
    },
    {
      "inputs": [
        {
          "internalType": "address",
          "name": "client",
          "type": "address"
        },
        {
          "internalType": "address",
          "name": "authority",
          "type": "address"
        }
      ],
      "name": "getApproval",
      "outputs": [
        {
          "internalType": "uint256",
          "name": "maxAmount",
          "type": "uint256"
        },
        {
          "internalType": "uint256",
          "name": "deadline",
          "type": "uint256"
        }
      ],
      "stateMutability": "view",
      "type": "function"
    },
    {
      "inputs": [
        {
          "internalType": "address",
          "name": "client",
          "type": "address"
        }
      ],
      "name": "getAuthorities",
      "outputs": [
        {
          "internalType": "address[]",
          "name": "",
          "type": "address[]"
        }
      ],
      "stateMutability": "view",
      "type": "function"
    },
    {
      "inputs": [
        {
          "internalType": "address",
          "name": "client",
          "type": "address"
        }
      ],
      "name": "getAuthorityCount",
      "outputs": [
        {
          "internalType": "uint256",
          "name": "",
          "type": "uint256"
        }
      ],
      "stateMutability": "view",
      "type": "function"
    },
    {
      "inputs": [
        {
          "internalType": "address",
          "name": "client",
          "type": "address"
        }
      ],
      "name": "getDailyRemaining",
      "outputs": [
        {
          "internalType": "uint256",
          "name": "",
          "type": "uint256"
        }
      ],
      "stateMutability": "view",
      "type": "function"
    },
    {
      "inputs": [
        {
          "internalType": "address",
          "name": "client",
          "type": "address"
        }
      ],
      "name": "getDailySpent",
      "outputs": [
        {
          "internalType": "uint256",
          "name": "",
          "type": "uint256"
        }
      ],
      "stateMutability": "view",
      "type": "function"
    },
    {
      "inputs": [],
      "name": "getDomainSeparator",
      "outputs": [
        {
          "internalType": "bytes32",
          "name": "",
          "type": "bytes32"
        }
      ],
      "stateMutability": "view",
      "type": "function"
    },
    {
      "inputs": [
        {
          "internalType": "address",
          "name": "client",
          "type": "address"
        }
      ],
      "name": "getEffectiveDailyLimit",
      "outputs": [
        {
          "internalType": "uint256",
          "name": "",
          "type": "uint256"
        }
      ],
      "stateMutability": "view",
      "type": "function"
    },
    {
      "inputs": [
        {
          "internalType": "address",
          "name": "client",
          "type": "address"
        }
      ],
      "name": "getEffectiveThreshold",
      "outputs": [
        {
          "internalType": "uint256",
          "name": "",
          "type": "uint256"
        }
      ],
      "stateMutability": "view",
      "type": "function"
    },
    {
      "inputs": [
        {
          "internalType": "address",
          "name": "_client",
          "type": "address"
        },
        {
          "internalType": "address",
          "name": "_provider",
          "type": "address"
        }
      ],
      "name": "getLastDebit",
      "outputs": [
        {
          "internalType": "uint256",
          "name": "amount",
          "type": "uint256"
        },
        {
          "internalType": "uint256",
          "name": "timestamp",
          "type": "uint256"
        },
        {
          "internalType": "uint256",
          "name": "nonce",
          "type": "uint256"
        }
      ],
      "stateMutability": "view",
      "type": "function"
    },
    {
      "inputs": [
        {
          "internalType": "address",
          "name": "_client",
          "type": "address"
        }
      ],
      "name": "getNonce",
      "outputs": [
        {
          "internalType": "uint256",
          "name": "",
          "type": "uint256"
        }
      ],
      "stateMutability": "view",
      "type": "function"
    },
    {
      "inputs": [
        {
          "internalType": "address",
          "name": "client",
          "type": "address"
        },
        {
          "internalType": "uint256",
          "name": "amount",
          "type": "uint256"
        }
      ],
      "name": "getValidApprovalCount",
      "outputs": [
        {
          "internalType": "uint256",
          "name": "count",
          "type": "uint256"
        }
      ],
      "stateMutability": "view",
      "type": "function"
    },
    {
      "inputs": [
        {
          "internalType": "address",
          "name": "",
          "type": "address"
        },
        {
          "internalType": "address",
          "name": "",
          "type": "address"
        }
      ],
      "name": "isAuthority",
      "outputs": [
        {
          "internalType": "bool",
          "name": "",
          "type": "bool"
        }
      ],
      "stateMutability": "view",
      "type": "function"
    },
    {
      "inputs": [
        {
          "internalType": "address",
          "name": "",
          "type": "address"
        },
        {
          "internalType": "address",
          "name": "",
          "type": "address"
        }
      ],
      "name": "lastDebit",
      "outputs": [
        {
          "internalType": "uint256",
          "name": "amount",
          "type": "uint256"
        },
        {
          "internalType": "uint256",
          "name": "timestamp",
          "type": "uint256"
        },
        {
          "internalType": "uint256",
          "name": "nonce",
          "type": "uint256"
        }
      ],
      "stateMutability": "view",
      "type": "function"
    },
    {
      "inputs": [],
      "name": "market",
      "outputs": [
        {
          "internalType": "contract IMarket",
          "name": "",
          "type": "address"
        }
      ],
      "stateMutability": "view",
      "type": "function"
    },
    {
      "inputs": [],
      "name": "nextTransactionId",
      "outputs": [
        {
          "internalType": "uint256",
          "name": "",
          "type": "uint256"
        }
      ],
      "stateMutability": "view",
      "type": "function"
    },
    {
      "inputs": [
        {
          "internalType": "address",
          "name": "",
          "type": "address"
        }
      ],
      "name": "nonces",
      "outputs": [
        {
          "internalType": "uint256",
          "name": "",
          "type": "uint256"
        }
      ],
      "stateMutability": "view",
      "type": "function"
    },
    {
      "inputs": [],
      "name": "owner",
      "outputs": [
        {
          "internalType": "address",
          "name": "",
          "type": "address"
        }
      ],
      "stateMutability": "view",
      "type": "function"
    },
    {
      "inputs": [
        {
          "internalType": "address",
          "name": "authority",
          "type": "address"
        }
      ],
      "name": "removeAuthority",
      "outputs": [],
      "stateMutability": "nonpayable",
      "type": "function"
    },
    {
      "inputs": [],
      "name": "renounceOwnership",
      "outputs": [],
      "stateMutability": "nonpayable",
      "type": "function"
    },
    {
      "inputs": [
        {
          "internalType": "address",
          "name": "client",
          "type": "address"
        }
      ],
      "name": "revokeApproval",
      "outputs": [],
      "stateMutability": "nonpayable",
      "type": "function"
    },
    {
      "inputs": [
        {
          "internalType": "uint256",
          "name": "threshold",
          "type": "uint256"
        }
      ],
      "name": "setApprovalThreshold",
      "outputs": [],
      "stateMutability": "nonpayable",
      "type": "function"
    },
    {
      "inputs": [
        {
          "internalType": "uint256",
          "name": "_limit",
          "type": "uint256"
        }
      ],
      "name": "setDailyLimit",
      "outputs": [],
      "stateMutability": "nonpayable",
      "type": "function"
    },
    {
      "inputs": [
        {
          "internalType": "address",
          "name": "_market",
          "type": "address"
        }
      ],
      "name": "setMarket",
      "outputs": [],
      "stateMutability": "nonpayable",
      "type": "function"
    },
    {
      "inputs": [],
      "name": "setOwnerless",
      "outputs": [],
      "stateMutability": "nonpayable",
      "type": "function"
    },
    {
      "inputs": [
        {
          "internalType": "bool",
          "name": "_required",
          "type": "bool"
        }
      ],
      "name": "setSignatureRequired",
      "outputs": [],
      "stateMutability": "nonpayable",
      "type": "function"
    },
    {
      "inputs": [],
      "name": "signatureRequired",
      "outputs": [
        {
          "internalType": "bool",
          "name": "",
          "type": "bool"
        }
      ],
      "stateMutability": "view",
      "type": "function"
    },
    {
      "inputs": [
        {
          "internalType": "address",
          "name": "newOwner",
          "type": "address"
        }
      ],
      "name": "transferOwnership",
      "outputs": [],
      "stateMutability": "nonpayable",
      "type": "function"
    }
  ],
  "bytecode": "0x61016060405260016005553480156200001757600080fd5b5060405162002f7a38038062002f7a8339810160408190526200003a916200027b565b604080518082018252600b81526a13585c9ad95d1119589a5d60aa1b602080830191909152825180840190935260018352603160f81b908301529062000082826000620001ad565b6101205262000093816001620001ad565b61014052815160208084019190912060e052815190820120610100524660a0526200012160e05161010051604080517f8b73c3c69bb8fe3d512ecc4cf759cc79239f7b179b0ffacaa9a75d522b39400f60208201529081019290925260608201524660808201523060a082015260009060c00160405160208183030381529060405280519060200120905090565b60805250503060c05260016002556200013a33620001e6565b6001600160a01b038116620001875760405162461bcd60e51b815260206004820152600e60248201526d125b9d985b1a59081b585c9ad95d60921b60448201526064015b60405180910390fd5b600480546001600160a01b0319166001600160a01b039290921691909117905562000493565b6000602083511015620001cd57620001c58362000238565b9050620001e0565b81620001da848262000352565b5060ff90505b92915050565b600380546001600160a01b038381166001600160a01b0319831681179093556040519116919082907f8be0079c531659141344cd1fd0a4f28419497f9722a3daafe3b4186f6b6457e090600090a35050565b600080829050601f8151111562000266578260405163305a27a960e01b81526004016200017e91906200041e565b805162000273826200046e565b179392505050565b6000602082840312156200028e57600080fd5b81516001600160a01b0381168114620002a657600080fd5b9392505050565b634e487b7160e01b600052604160045260246000fd5b600181811c90821680620002d857607f821691505b602082108103620002f957634e487b7160e01b600052602260045260246000fd5b50919050565b601f8211156200034d57600081815260208120601f850160051c81016020861015620003285750805b601f850160051c820191505b81811015620003495782815560010162000334565b5050505b505050565b81516001600160401b038111156200036e576200036e620002ad565b62000386816200037f8454620002c3565b84620002ff565b602080601f831160018114620003be5760008415620003a55750858301515b600019600386901b1c1916600185901b17855562000349565b600085815260208120601f198616915b82811015620003ef57888601518255948401946001909101908401620003ce565b50858210156200040e5787850151600019600388901b60f8161c191681555b5050505050600190811b01905550565b600060208083528351808285015260005b818110156200044d578581018301518582016040015282016200042f565b506000604082860101526040601f19601f8301168501019250505092915050565b80516020808301519190811015620002f95760001960209190910360031b1b16919050565b60805160a05160c05160e051610100516101205161014051612a8c620004ee6000396000610e7601526000610e4c015260006122620152600061223a01526000612195015260006121bf015260006121e90152612a8c6000f3fe608060405234801561001057600080fd5b506004361061023d5760003560e01c806385d1c9f41161013b578063b20d30a9116100b8578063ed24911d1161007c578063ed24911d1461065b578063f2fde38b14610663578063f3f5141514610676578063f6eb0fb414610696578063fe67050f146106a957600080fd5b8063b20d30a914610611578063c7f1425e14610624578063d544e01014610637578063d7ca38f31461064a578063e111703a1461065357600080fd5b8063a0016b8c116100ff578063a0016b8c146105a0578063a30b8ed4146105b3578063a32ce11e146105c0578063aecbdfd7146105f2578063afa66722146105fe57600080fd5b806385d1c9f4146104d657806389fcd099146104e95780638da5cb5b146105515780639061a57f1461056257806399ffbe5f1461058d57600080fd5b80634a52442e116101c95780636dcea85f1161018d5780636dcea85f14610455578063715018a6146104685780637ecebe001461047057806380f556051461049057806384b0196e146104bb57600080fd5b80634a52442e146103a45780635b8c9337146103b757806360f18fd2146103ca5780636218f5931461040857806365528ac31461041b57600080fd5b806326defa731161021057806326defa73146103155780632d0335ab146103285780634839e12b14610351578063484685b014610371578063497cadd91461038457600080fd5b806307bb8998146102425780630c888eb91461027e5780630ccd698c146102935780631aa7a3d91461030d575b600080fd5b61026b610250366004612592565b6001600160a01b031660009081526008602052604090205490565b6040519081526020015b60405180910390f35b61029161028c3660046125af565b6106d0565b005b6102f26102a13660046125e4565b6001600160a01b039182166000908152600e60209081526040808320939094168252918252829020825160608101845281548082526001830154938201849052600290920154930183905292909190565b60408051938452602084019290925290820152606001610275565b6102916108d9565b610291610323366004612592565b610914565b61026b610336366004612592565b6001600160a01b031660009081526007602052604090205490565b61026b61035f366004612592565b600a6020526000908152604090205481565b61029161037f366004612592565b610a4d565b610397610392366004612592565b610b05565b604051610275919061261d565b61026b6103b2366004612592565b610b7b565b61026b6103c5366004612592565b610bad565b6103f86103d83660046125e4565b600960209081526000928352604080842090915290825290205460ff1681565b6040519015158152602001610275565b61026b610416366004612680565b610be4565b6102f26104293660046125e4565b600e60209081526000928352604080842090915290825290208054600182015460029092015490919083565b610291610463366004612592565b610d93565b610291610e2c565b61026b61047e366004612592565b60076020526000908152604090205481565b6004546104a3906001600160a01b031681565b6040516001600160a01b039091168152602001610275565b6104c3610e3e565b60405161027597969594939291906127b0565b61026b6104e4366004612846565b610ec6565b61053c6104f73660046125e4565b6001600160a01b039182166000908152600b60209081526040808320939094168252918252829020825180840190935280548084526001909101549290910182905291565b60408051928352602083019190915201610275565b6003546001600160a01b03166104a3565b61026b610570366004612887565b600d60209081526000928352604080842090915290825290205481565b61029161059b3660046128b3565b61113f565b6102916105ae3660046128d5565b61118e565b6006546103f89060ff1681565b61053c6105ce3660046125e4565b600b6020908152600092835260408084209091529082529020805460019091015482565b61026b64174876e80081565b61026b61060c366004612592565b611244565b61029161061f3660046128d5565b611269565b61026b610632366004612887565b6112fc565b610291610645366004612592565b611472565b61026b60055481565b61026b600581565b61026b6116e9565b610291610671366004612592565b6116f8565b61026b610684366004612592565b600c6020526000908152604090205481565b61026b6106a4366004612592565b611771565b61026b7fba6e6fc85897dfdad4078f1deba73c999c65d49cd2810347919f081e623d544081565b6001600160a01b038316600090815260086020526040812054900361073f576003546001600160a01b0316331461073a5760405162461bcd60e51b81526020600482015260096024820152682737ba1037bbb732b960b91b60448201526064015b60405180910390fd5b6107a3565b6001600160a01b038316600090815260096020908152604080832033845290915290205460ff166107a35760405162461bcd60e51b815260206004820152600e60248201526d139bdd08185d5d1a1bdc9a5e995960921b6044820152606401610731565b600082116107c35760405162461bcd60e51b8152600401610731906128ee565b4281116108045760405162461bcd60e51b815260206004820152600f60248201526e111958591b1a5b99481c185cdcd959608a1b6044820152606401610731565b610811426201518061292c565b8111156108595760405162461bcd60e51b8152602060048201526016602482015275446561646c696e65206578636565647320312064617960501b6044820152606401610731565b60408051808201825283815260208082018481526001600160a01b0387166000818152600b845285812033808352908552908690209451855591516001909401939093558351868152918201859052927f534969e6dc21d4b3101dcbe556e76c0ef09a2fd5ea38001aa7c53e63179d1ee3910160405180910390a3505050565b6108e16117d5565b6040517f2ba54d6a3cc9b09a35290d130bee17be374bd7785c0ed3299961362e1c3bddaf90600090a1610912610e2c565b565b6001600160a01b03811661095e5760405162461bcd60e51b8152602060048201526011602482015270496e76616c696420617574686f7269747960781b6044820152606401610731565b3360009081526009602090815260408083206001600160a01b038516845290915290205460ff16156109c75760405162461bcd60e51b8152602060048201526012602482015271105b1c9958591e48185d5d1a1bdc9a5e995960721b6044820152606401610731565b3360008181526009602090815260408083206001600160a01b038616808552908352818420805460ff191660019081179091558585526008845282852080549182018155855292842090920180546001600160a01b03191683179055519092917f0acb504b401f9acbf6fb08386e0ee4b9d03c8f34d20cd722fe8b7a4cc52fb53191a350565b6001600160a01b0381166000908152600b60209081526040808320338452909152902060010154610aae5760405162461bcd60e51b815260206004820152600b60248201526a139bc8185c1c1c9bdd985b60aa1b6044820152606401610731565b6001600160a01b0381166000818152600b60209081526040808320338085529252808320838155600101839055519092917f97a94ee714dc2c5c1889f6fe8e8909a95e0307c4b272c7df374bf76582099f8791a350565b6001600160a01b038116600090815260086020908152604091829020805483518184028101840190945280845260609392830182828015610b6f57602002820191906000526020600020905b81546001600160a01b03168152600190910190602001808311610b51575b50505050509050919050565b6001600160a01b0381166000908152600c602052604081205480610ba45764174876e800610ba6565b805b9392505050565b6001600160a01b0381166000908152600d6020526040812081610bce61182f565b8152602001908152602001600020549050919050565b6000610bee61183e565b60008411610c0e5760405162461bcd60e51b8152600401610731906128ee565b6001600160a01b038616610c555760405162461bcd60e51b815260206004820152600e60248201526d125b9d985b1a590818db1a595b9d60921b6044820152606401610731565b6001600160a01b038516610c9e5760405162461bcd60e51b815260206004820152601060248201526f24b73b30b634b210383937bb34b232b960811b6044820152606401610731565b600480546040516370a0823160e01b81526001600160a01b03898116938201939093528692909116906370a0823190602401602060405180830381865afa158015610ced573d6000803e3d6000fd5b505050506040513d601f19601f82011682018060405250810190610d11919061293f565b1015610d565760405162461bcd60e51b8152602060048201526014602482015273496e73756666696369656e742062616c616e636560601b6044820152606401610731565b610d608685611895565b6000610d6f8787878787611ab1565b9050610d7d87878784611c8a565b915050610d8a6001600255565b95945050505050565b610d9b6117d5565b6001600160a01b038116610de25760405162461bcd60e51b815260206004820152600e60248201526d125b9d985b1a59081b585c9ad95d60921b6044820152606401610731565b600480546001600160a01b0319166001600160a01b0383169081179091556040517f7069fd9fab3e4fe83cc8eef039cb4a73a437f72a7e2afa41a88ef13a4e74894b90600090a250565b610e346117d5565b610912600061208b565b600060608082808083610e717f0000000000000000000000000000000000000000000000000000000000000000836120dd565b610e9c7f000000000000000000000000000000000000000000000000000000000000000060016120dd565b60408051600080825260208201909252600f60f81b9b939a50919850469750309650945092509050565b6000610ed061183e565b60065460ff1615610f195760405162461bcd60e51b815260206004820152601360248201527214da59db985d1d5c995cc81c995c5d5a5c9959606a1b6044820152606401610731565b6003546001600160a01b0316331480610f3c57506004546001600160a01b031633145b610f775760405162461bcd60e51b815260206004820152600c60248201526b155b985d5d1a1bdc9a5e995960a21b6044820152606401610731565b60008211610f975760405162461bcd60e51b8152600401610731906128ee565b6001600160a01b038416610fde5760405162461bcd60e51b815260206004820152600e60248201526d125b9d985b1a590818db1a595b9d60921b6044820152606401610731565b6001600160a01b0383166110275760405162461bcd60e51b815260206004820152601060248201526f24b73b30b634b210383937bb34b232b960811b6044820152606401610731565b600480546040516370a0823160e01b81526001600160a01b03878116938201939093528492909116906370a0823190602401602060405180830381865afa158015611076573d6000803e3d6000fd5b505050506040513d601f19601f8201168201806040525081019061109a919061293f565b10156110df5760405162461bcd60e51b8152602060048201526014602482015273496e73756666696369656e742062616c616e636560601b6044820152606401610731565b6110e98483611895565b6001600160a01b03841660009081526007602052604090205461110d81600161292c565b6001600160a01b03861660009081526007602052604090205561113285858584611c8a565b915050610ba66001600255565b6111476117d5565b6006805460ff19168215159081179091556040519081527f562f712a2a8452e5f4edf2922649bec7bc941f58c9b8fe619f87c210abcbcd259060200160405180910390a150565b3360009081526008602052604090205480156111f4576000821180156111b45750808211155b6111f45760405162461bcd60e51b8152602060048201526011602482015270125b9d985b1a59081d1a1c995cda1bdb19607a1b6044820152606401610731565b336000818152600a602052604090819020849055517fbb0549e0aedb1fcc6a27d802df340bb4bd5dc53b1f97f3736a879345232e6def906112389085815260200190565b60405180910390a25050565b6001600160a01b0381166000908152600a602052604081205480610ba4576001610ba6565b600081116112ad5760405162461bcd60e51b815260206004820152601160248201527004c696d6974206d757374206265203e203607c1b6044820152606401610731565b336000818152600c602052604090819020839055517f074424510750f675220b94bac388bff82d6407b38f341b0226af2ab45af33dc2906112f19084815260200190565b60405180910390a250565b6001600160a01b03821660009081526008602052604081205481036113a3576001600160a01b0383166000908152600b60205260408120816113466003546001600160a01b031690565b6001600160a01b031681526020808201929092526040908101600020815180830190925280548252600101549181018290529150421180159061138a575080518311155b1561139957600191505061146c565b600091505061146c565b6001600160a01b0383166000908152600860205260408120905b8154811015611469576001600160a01b0385166000908152600b60205260408120835482908590859081106113f4576113f4612958565b60009182526020808320909101546001600160a01b0316835282810193909352604091820190208151808301909252805482526001015491810182905291504211801590611443575080518511155b1561145657836114528161296e565b9450505b50806114618161296e565b9150506113bd565b50505b92915050565b3360009081526009602090815260408083206001600160a01b038516845290915290205460ff166114d65760405162461bcd60e51b815260206004820152600e60248201526d139bdd08185d5d1a1bdc9a5e995960921b6044820152606401610731565b3360008181526009602090815260408083206001600160a01b03861684528252808320805460ff1916905592825260089052908120905b815481101561161357826001600160a01b031682828154811061153257611532612958565b6000918252602090912001546001600160a01b031603611601578154829061155c90600190612987565b8154811061156c5761156c612958565b9060005260206000200160009054906101000a90046001600160a01b031682828154811061159c5761159c612958565b9060005260206000200160006101000a8154816001600160a01b0302191690836001600160a01b03160217905550818054806115da576115da61299a565b600082815260209020810160001990810180546001600160a01b0319169055019055611613565b8061160b8161296e565b91505061150d565b50336000818152600b602090815260408083206001600160a01b038716845282528083208381556001018390558454938352600a90915290205411801561165a5750805415155b156116af578054336000818152600a6020526040908190208390555190917fbb0549e0aedb1fcc6a27d802df340bb4bd5dc53b1f97f3736a879345232e6def916116a691815260200190565b60405180910390a25b6040516001600160a01b0383169033907fea15800334f009e503e91aa288ae25bacf3037fe76ee511d4a57cdf0fb7f26c890600090a35050565b60006116f3612188565b905090565b6117006117d5565b6001600160a01b0381166117655760405162461bcd60e51b815260206004820152602660248201527f4f776e61626c653a206e6577206f776e657220697320746865207a65726f206160448201526564647265737360d01b6064820152608401610731565b61176e8161208b565b50565b60008061177d83610b7b565b6001600160a01b0384166000908152600d6020526040812091925090816117a261182f565b8152602001908152602001600020549050818110156117ca576117c58183612987565b6117cd565b60005b949350505050565b6003546001600160a01b031633146109125760405162461bcd60e51b815260206004820181905260248201527f4f776e61626c653a2063616c6c6572206973206e6f7420746865206f776e65726044820152606401610731565b60006116f362015180426129b0565b600280540361188f5760405162461bcd60e51b815260206004820152601f60248201527f5265656e7472616e637947756172643a207265656e7472616e742063616c6c006044820152606401610731565b60028055565b6001600160a01b0382166000908152600860205260408120549003611979576001600160a01b0382166000908152600b60205260408120816118df6003546001600160a01b031690565b6001600160a01b031681526020810191909152604001600020600181015490915015611974574281600101541015801561191a575080548211155b61195a5760405162461bcd60e51b8152602060048201526011602482015270139bc81d985b1a5908185c1c1c9bdd985b607a1b6044820152606401610731565b8181600001600082825461196e9190612987565b90915550505b505050565b600061198483611244565b6001600160a01b038416600090815260086020526040812091925090815b8154811080156119b157508383105b15611a60576001600160a01b0386166000908152600b60205260408120835482908590859081106119e4576119e4612958565b60009182526020808320909101546001600160a01b03168352820192909252604001902060018101549091504211801590611a20575080548611155b15611a4d5785816000016000828254611a399190612987565b90915550849050611a498161296e565b9450505b5080611a588161296e565b9150506119a2565b5082821015611aaa5760405162461bcd60e51b8152602060048201526016602482015275496e73756666696369656e7420617070726f76616c7360501b6044820152606401610731565b5050505050565b60008151604114611b045760405162461bcd60e51b815260206004820152601860248201527f496e76616c6964207369676e6174757265206c656e67746800000000000000006044820152606401610731565b82421115611b485760405162461bcd60e51b815260206004820152601160248201527014da59db985d1d5c9948195e1c1a5c9959607a1b6044820152606401610731565b506001600160a01b0385811660008181526007602090815260408083205481517fba6e6fc85897dfdad4078f1deba73c999c65d49cd2810347919f081e623d5440938101939093529082019390935292871660608401526080830186905260a0830182905260c08301859052909160e00160408051601f198184030181529181528151602092830120918501519085015160608601519293509091600090811a90611bfd611bf5866122b3565b8386866122e0565b90508a6001600160a01b0316816001600160a01b031614611c545760405162461bcd60e51b8152602060048201526011602482015270496e76616c6964207369676e617475726560781b6044820152606401610731565b611c5f86600161292c565b6001600160a01b03909b1660009081526007602052604090209a909a55509298975050505050505050565b600080611c9561182f565b90506000611ca287610b7b565b6001600160a01b0388166000908152600d6020908152604080832086845290915290205490915081611cd4878361292c565b1115611d225760405162461bcd60e51b815260206004820152601d60248201527f4461696c79207370656e64696e67206c696d69742065786365656465640000006044820152606401610731565b611d2c868261292c565b6001600160a01b0389166000908152600d602090815260408083208784529091528120919091556064611d606005896129d2565b611d6a91906129b0565b90506000611d788289612987565b6004805460405163d4335c3960e01b81526001600160a01b038e811693820193909352602481018c9052929350169063d4335c3990604401600060405180830381600087803b158015611dca57600080fd5b505af1158015611dde573d6000803e3d6000fd5b505060048054604080516361d027b360e01b815290516001600160a01b03909216945063940c6ffb935084926361d027b39282820192602092908290030181865afa158015611e31573d6000803e3d6000fd5b505050506040513d601f19601f82011682018060405250810190611e5591906129e9565b6040516001600160e01b031960e084901b1681526001600160a01b03909116600482015260248101859052604401600060405180830381600087803b158015611e9d57600080fd5b505af1158015611eb1573d6000803e3d6000fd5b505060048054604051636f56cf2f60e11b81529182018690526001600160a01b0316925063dead9e5e9150602401600060405180830381600087803b158015611ef957600080fd5b505af1158015611f0d573d6000803e3d6000fd5b50506004805460405163940c6ffb60e01b81526001600160a01b038e811693820193909352602481018690529116925063940c6ffb9150604401600060405180830381600087803b158015611f6157600080fd5b505af1158015611f75573d6000803e3d6000fd5b50505050604051806060016040528089815260200142815260200188815250600e60008c6001600160a01b03166001600160a01b0316815260200190815260200160002060008b6001600160a01b03166001600160a01b03168152602001908152602001600020600082015181600001556020820151816001015560408201518160020155905050600560008154809291906120109061296e565b919050559550886001600160a01b03168a6001600160a01b0316877fc11b2bf85a1699476a9c7a01abda42c469911364350489c4b4a73a1e387302d98b86868d604051612076949392919093845260208401929092526040830152606082015260800190565b60405180910390a45050505050949350505050565b600380546001600160a01b038381166001600160a01b0319831681179093556040519116919082907f8be0079c531659141344cd1fd0a4f28419497f9722a3daafe3b4186f6b6457e090600090a35050565b606060ff83146120f7576120f083612308565b905061146c565b81805461210390612a06565b80601f016020809104026020016040519081016040528092919081815260200182805461212f90612a06565b801561217c5780601f106121515761010080835404028352916020019161217c565b820191906000526020600020905b81548152906001019060200180831161215f57829003601f168201915b5050505050905061146c565b6000306001600160a01b037f0000000000000000000000000000000000000000000000000000000000000000161480156121e157507f000000000000000000000000000000000000000000000000000000000000000046145b1561220b57507f000000000000000000000000000000000000000000000000000000000000000090565b6116f3604080517f8b73c3c69bb8fe3d512ecc4cf759cc79239f7b179b0ffacaa9a75d522b39400f60208201527f0000000000000000000000000000000000000000000000000000000000000000918101919091527f000000000000000000000000000000000000000000000000000000000000000060608201524660808201523060a082015260009060c00160405160208183030381529060405280519060200120905090565b600061146c6122c0612188565b8360405161190160f01b8152600281019290925260228201526042902090565b60008060006122f187878787612347565b915091506122fe8161240b565b5095945050505050565b6060600061231583612555565b604080516020808252818301909252919250600091906020820181803683375050509182525060208101929092525090565b6000807f7fffffffffffffffffffffffffffffff5d576e7357a4501ddfe92f46681b20a083111561237e5750600090506003612402565b6040805160008082526020820180845289905260ff881692820192909252606081018690526080810185905260019060a0016020604051602081039080840390855afa1580156123d2573d6000803e3d6000fd5b5050604051601f1901519150506001600160a01b0381166123fb57600060019250925050612402565b9150600090505b94509492505050565b600081600481111561241f5761241f612a40565b036124275750565b600181600481111561243b5761243b612a40565b036124885760405162461bcd60e51b815260206004820152601860248201527f45434453413a20696e76616c6964207369676e617475726500000000000000006044820152606401610731565b600281600481111561249c5761249c612a40565b036124e95760405162461bcd60e51b815260206004820152601f60248201527f45434453413a20696e76616c6964207369676e6174757265206c656e677468006044820152606401610731565b60038160048111156124fd576124fd612a40565b0361176e5760405162461bcd60e51b815260206004820152602260248201527f45434453413a20696e76616c6964207369676e6174757265202773272076616c604482015261756560f01b6064820152608401610731565b600060ff8216601f811115610ba457604051632cd44ac360e21b815260040160405180910390fd5b6001600160a01b038116811461176e57600080fd5b6000602082840312156125a457600080fd5b8135610ba68161257d565b6000806000606084860312156125c457600080fd5b83356125cf8161257d565b95602085013595506040909401359392505050565b600080604083850312156125f757600080fd5b82356126028161257d565b915060208301356126128161257d565b809150509250929050565b6020808252825182820181905260009190848201906040850190845b8181101561265e5783516001600160a01b031683529284019291840191600101612639565b50909695505050505050565b634e487b7160e01b600052604160045260246000fd5b600080600080600060a0868803121561269857600080fd5b85356126a38161257d565b945060208601356126b38161257d565b93506040860135925060608601359150608086013567ffffffffffffffff808211156126de57600080fd5b818801915088601f8301126126f257600080fd5b8135818111156127045761270461266a565b604051601f8201601f19908116603f0116810190838211818310171561272c5761272c61266a565b816040528281528b602084870101111561274557600080fd5b8260208601602083013760006020848301015280955050505050509295509295909350565b6000815180845260005b8181101561279057602081850181015186830182015201612774565b506000602082860101526020601f19601f83011685010191505092915050565b60ff60f81b881681526000602060e0818401526127d060e084018a61276a565b83810360408501526127e2818a61276a565b606085018990526001600160a01b038816608086015260a0850187905284810360c0860152855180825283870192509083019060005b8181101561283457835183529284019291840191600101612818565b50909c9b505050505050505050505050565b60008060006060848603121561285b57600080fd5b83356128668161257d565b925060208401356128768161257d565b929592945050506040919091013590565b6000806040838503121561289a57600080fd5b82356128a58161257d565b946020939093013593505050565b6000602082840312156128c557600080fd5b81358015158114610ba657600080fd5b6000602082840312156128e757600080fd5b5035919050565b6020808252600e908201526d125b9d985b1a5908185b5bdd5b9d60921b604082015260600190565b634e487b7160e01b600052601160045260246000fd5b8082018082111561146c5761146c612916565b60006020828403121561295157600080fd5b5051919050565b634e487b7160e01b600052603260045260246000fd5b60006001820161298057612980612916565b5060010190565b8181038181111561146c5761146c612916565b634e487b7160e01b600052603160045260246000fd5b6000826129cd57634e487b7160e01b600052601260045260246000fd5b500490565b808202811582820484141761146c5761146c612916565b6000602082840312156129fb57600080fd5b8151610ba68161257d565b600181811c90821680612a1a57607f821691505b602082108103612a3a57634e487b7160e01b600052602260045260246000fd5b50919050565b634e487b7160e01b600052602160045260246000fdfea2646970667358221220f40c363ea6671d5b94dc56fae9d85879bcd204a5d03c03e658d659418a35d6e464736f6c63430008140033",
  "linkReferences": {},
  "deployedLinkReferences": {}
}