{
  "_format": "hh-sol-artifact-1",
  "contractName": "Treasury",
  "sourceName": "contracts/treasury/Treasury.sol",
  "abi": [
    {
      "inputs": [
        {
          "internalType": "uint256",
          "name": "_ownerPercentage",
          "type": "uint256"
        }
      ],
      "stateMutability": "nonpayable",
      "type": "constructor"
    },
    {
      "anonymous": false,
      "inputs": [
        {
          "indexed": true,
          "internalType": "address",
          "name": "token",
          "type": "address"
        }
      ],
      "name": "GovernanceTokenSet",
      "type": "event"
    },
    {
      "anonymous": false,
      "inputs": [
        {
          "indexed": false,
          "internalType": "uint256",
          "name": "newPercentage",
          "type": "uint256"
        }
      ],
      "name": "OwnerPercentageUpdated",
      "type": "event"
    },
    {
      "anonymous": false,
      "inputs": [
        {
          "indexed": true,
          "internalType": "address",
          "name": "token",
          "type": "address"
        },
        {
          "indexed": false,
          "internalType": "uint256",
          "name": "amount",
          "type": "uint256"
        }
      ],
      "name": "OwnerWithdrawn",
      "type": "event"
    },
    {
      "anonymous": false,
      "inputs": [
        {
          "indexed": true,
          "internalType": "address",
          "name": "previousOwner",
          "type": "address"
        },
        {
          "indexed": true,
          "internalType": "address",
          "name": "newOwner",
          "type": "address"
        }
      ],
      "name": "OwnershipTransferred",
      "type": "event"
    },
    {
      "anonymous": false,
      "inputs": [
        {
          "indexed": true,
          "internalType": "address",
          "name": "funder",
          "type": "address"
        },
        {
          "indexed": true,
          "internalType": "address",
          "name": "token",
          "type": "address"
        },
        {
          "indexed": false,
          "internalType": "uint256",
          "name": "amount",
          "type": "uint256"
        }
      ],
      "name": "TreasuryFunded",
      "type": "event"
    },
    {
      "anonymous": false,
      "inputs": [
        {
          "indexed": true,
          "internalType": "address",
          "name": "token",
          "type": "address"
        }
      ],
      "name": "TreasuryTokenAdded",
      "type": "event"
    },
    {
      "anonymous": false,
      "inputs": [
        {
          "indexed": true,
          "internalType": "address",
          "name": "holder",
          "type": "address"
        },
        {
          "indexed": true,
          "internalType": "address",
          "name": "token",
          "type": "address"
        },
        {
          "indexed": false,
          "internalType": "uint256",
          "name": "amount",
          "type": "uint256"
        },
        {
          "indexed": false,
          "internalType": "uint256",
          "name": "ownership",
          "type": "uint256"
        }
      ],
      "name": "Withdrawn",
      "type": "event"
    },
    {
      "inputs": [
        {
          "internalType": "address",
          "name": "_treasuryToken",
          "type": "address"
        }
      ],
      "name": "addTreasuryToken",
      "outputs": [],
      "stateMutability": "nonpayable",
      "type": "function"
    },
    {
      "inputs": [
        {
          "internalType": "address",
          "name": "",
          "type": "address"
        },
        {
          "internalType": "address",
          "name": "",
          "type": "address"
        }
      ],
      "name": "claimed",
      "outputs": [
        {
          "internalType": "uint256",
          "name": "",
          "type": "uint256"
        }
      ],
      "stateMutability": "view",
      "type": "function"
    },
    {
      "inputs": [
        {
          "internalType": "address",
          "name": "token",
          "type": "address"
        },
        {
          "internalType": "uint256",
          "name": "amount",
          "type": "uint256"
        }
      ],
      "name": "emergencyWithdraw",
      "outputs": [],
      "stateMutability": "nonpayable",
      "type": "function"
    },
    {
      "inputs": [
        {
          "internalType": "address",
          "name": "token",
          "type": "address"
        },
        {
          "internalType": "uint256",
          "name": "amount",
          "type": "uint256"
        }
      ],
      "name": "fundTreasury",
      "outputs": [],
      "stateMutability": "nonpayable",
      "type": "function"
    },
    {
      "inputs": [
        {
          "internalType": "address",
          "name": "holder",
          "type": "address"
        }
      ],
      "name": "getAllClaimableAmounts",
      "outputs": [
        {
          "internalType": "address[]",
          "name": "tokens",
          "type": "address[]"
        },
        {
          "internalType": "uint256[]",
          "name": "amounts",
          "type": "uint256[]"
        }
      ],
      "stateMutability": "view",
      "type": "function"
    },
    {
      "inputs": [
        {
          "internalType": "address",
          "name": "holder",
          "type": "address"
        },
        {
          "internalType": "address",
          "name": "token",
          "type": "address"
        }
      ],
      "name": "getClaimableAmount",
      "outputs": [
        {
          "internalType": "uint256",
          "name": "",
          "type": "uint256"
        }
      ],
      "stateMutability": "view",
      "type": "function"
    },
    {
      "inputs": [
        {
          "internalType": "address",
          "name": "holder",
          "type": "address"
        }
      ],
      "name": "getHolderInfo",
      "outputs": [
        {
          "internalType": "uint256",
          "name": "governanceBalance",
          "type": "uint256"
        },
        {
          "internalType": "uint256",
          "name": "ownershipPercentage",
          "type": "uint256"
        },
        {
          "internalType": "address[]",
          "name": "tokens",
          "type": "address[]"
        },
        {
          "internalType": "uint256[]",
          "name": "claimedAmounts",
          "type": "uint256[]"
        },
        {
          "internalType": "uint256[]",
          "name": "claimableAmounts",
          "type": "uint256[]"
        }
      ],
      "stateMutability": "view",
      "type": "function"
    },
    {
      "inputs": [
        {
          "internalType": "address",
          "name": "token",
          "type": "address"
        }
      ],
      "name": "getOwnerClaimableAmount",
      "outputs": [
        {
          "internalType": "uint256",
          "name": "",
          "type": "uint256"
        }
      ],
      "stateMutability": "view",
      "type": "function"
    },
    {
      "inputs": [],
      "name": "getTreasuryInfo",
      "outputs": [
        {
          "internalType": "address",
          "name": "govToken",
          "type": "address"
        },
        {
          "internalType": "address[]",
          "name": "tokens",
          "type": "address[]"
        },
        {
          "internalType": "uint256[]",
          "name": "balances",
          "type": "uint256[]"
        },
        {
          "internalType": "uint256[]",
          "name": "totalClaimedAmounts",
          "type": "uint256[]"
        },
        {
          "internalType": "uint256",
          "name": "ownerPct",
          "type": "uint256"
        }
      ],
      "stateMutability": "view",
      "type": "function"
    },
    {
      "inputs": [],
      "name": "getTreasuryTokens",
      "outputs": [
        {
          "internalType": "address[]",
          "name": "",
          "type": "address[]"
        }
      ],
      "stateMutability": "view",
      "type": "function"
    },
    {
      "inputs": [],
      "name": "governanceToken",
      "outputs": [
        {
          "internalType": "contract IERC20",
          "name": "",
          "type": "address"
        }
      ],
      "stateMutability": "view",
      "type": "function"
    },
    {
      "inputs": [
        {
          "internalType": "address",
          "name": "",
          "type": "address"
        }
      ],
      "name": "isTreasuryToken",
      "outputs": [
        {
          "internalType": "bool",
          "name": "",
          "type": "bool"
        }
      ],
      "stateMutability": "view",
      "type": "function"
    },
    {
      "inputs": [],
      "name": "owner",
      "outputs": [
        {
          "internalType": "address",
          "name": "",
          "type": "address"
        }
      ],
      "stateMutability": "view",
      "type": "function"
    },
    {
      "inputs": [
        {
          "internalType": "address",
          "name": "",
          "type": "address"
        }
      ],
      "name": "ownerClaimed",
      "outputs": [
        {
          "internalType": "uint256",
          "name": "",
          "type": "uint256"
        }
      ],
      "stateMutability": "view",
      "type": "function"
    },
    {
      "inputs": [],
      "name": "ownerPercentage",
      "outputs": [
        {
          "internalType": "uint256",
          "name": "",
          "type": "uint256"
        }
      ],
      "stateMutability": "view",
      "type": "function"
    },
    {
      "inputs": [
        {
          "internalType": "address",
          "name": "token",
          "type": "address"
        }
      ],
      "name": "ownerWithdraw",
      "outputs": [],
      "stateMutability": "nonpayable",
      "type": "function"
    },
    {
      "inputs": [],
      "name": "renounceOwnership",
      "outputs": [],
      "stateMutability": "nonpayable",
      "type": "function"
    },
    {
      "inputs": [
        {
          "internalType": "address",
          "name": "_governanceToken",
          "type": "address"
        }
      ],
      "name": "setGovernanceToken",
      "outputs": [],
      "stateMutability": "nonpayable",
      "type": "function"
    },
    {
      "inputs": [
        {
          "internalType": "uint256",
          "name": "_percentage",
          "type": "uint256"
        }
      ],
      "name": "setOwnerPercentage",
      "outputs": [],
      "stateMutability": "nonpayable",
      "type": "function"
    },
    {
      "inputs": [
        {
          "internalType": "address",
          "name": "",
          "type": "address"
        }
      ],
      "name": "totalClaimed",
      "outputs": [
        {
          "internalType": "uint256",
          "name": "",
          "type": "uint256"
        }
      ],
      "stateMutability": "view",
      "type": "function"
    },
    {
      "inputs": [
        {
          "internalType": "address",
          "name": "newOwner",
          "type": "address"
        }
      ],
      "name": "transferOwnership",
      "outputs": [],
      "stateMutability": "nonpayable",
      "type": "function"
    },
    {
      "inputs": [
        {
          "internalType": "uint256",
          "name": "",
          "type": "uint256"
        }
      ],
      "name": "treasuryTokens",
      "outputs": [
        {
          "internalType": "address",
          "name": "",
          "type": "address"
        }
      ],
      "stateMutability": "view",
      "type": "function"
    },
    {
      "inputs": [],
      "name": "withdrawAll",
      "outputs": [],
      "stateMutability": "nonpayable",
      "type": "function"
    },
    {
      "inputs": [
        {
          "internalType": "address",
          "name": "token",
          "type": "address"
        }
      ],
      "name": "withdrawToken",
      "outputs": [],
      "stateMutability": "nonpayable",
      "type": "function"
    }
  ],
  "bytecode": "0x60806040523480156200001157600080fd5b50604051620021ac380380620021ac8339810160408190526200003491620000e1565b600160005562000044336200008f565b612710811115620000865760405162461bcd60e51b81526020600482015260086024820152674d6178203130302560c01b604482015260640160405180910390fd5b600755620000fb565b600180546001600160a01b038381166001600160a01b0319831681179093556040519116919082907f8be0079c531659141344cd1fd0a4f28419497f9722a3daafe3b4186f6b6457e090600090a35050565b600060208284031215620000f457600080fd5b5051919050565b6120a1806200010b6000396000f3fe608060405234801561001057600080fd5b50600436106101585760003560e01c80638da5cb5b116100c3578063d5c548f51161007c578063d5c548f51461030a578063ef5d9ae81461033d578063f2fde38b1461035d578063f857017014610370578063f96dae0a14610383578063f9bfaa7d1461039657600080fd5b80638da5cb5b1461029457806395ccea67146102a5578063bb7dbfe7146102b8578063c2939471146102cb578063cd88a6a8146102e4578063d1783a35146102f757600080fd5b806353d6c9b31161011557806353d6c9b31461021857806354e4067a1461022d578063715018a6146102515780637768509714610259578063853828b614610279578063894760691461028157600080fd5b80630c9cbf0e1461015d5780632c613a141461019b5780632e8cc5c6146101c6578063393b011c146101d95780633dae5c1c146101ee57806341da75551461020f575b600080fd5b61018861016b366004611ce2565b600560209081526000928352604080842090915290825290205481565b6040519081526020015b60405180910390f35b6101ae6101a9366004611d15565b6103a9565b6040516001600160a01b039091168152602001610192565b6101886101d4366004611d2e565b6103d3565b6101ec6101e7366004611d15565b610534565b005b6102016101fc366004611d2e565b6105b4565b604051610192929190611dc4565b61018860075481565b6102206106d0565b6040516101929190611de9565b61024061023b366004611d2e565b610732565b604051610192959493929190611dfc565b6101ec610a44565b610188610267366004611d2e565b60086020526000908152604090205481565b6101ec610a58565b6101ec61028f366004611d2e565b610cd7565b6001546001600160a01b03166101ae565b6101ec6102b3366004611e4d565b610f09565b6101886102c6366004611ce2565b610f3b565b6102d361121a565b604051610192959493929190611e77565b6101ec6102f2366004611e4d565b61144d565b6101ec610305366004611d2e565b611531565b61032d610318366004611d2e565b60046020526000908152604090205460ff1681565b6040519015158152602001610192565b61018861034b366004611d2e565b60066020526000908152604090205481565b6101ec61036b366004611d2e565b61166f565b6101ec61037e366004611d2e565b6116e5565b6002546101ae906001600160a01b031681565b6101ec6103a4366004611d2e565b6117c6565b600381815481106103b957600080fd5b6000918252602090912001546001600160a01b0316905081565b6001600160a01b03811660009081526004602052604081205460ff166104145760405162461bcd60e51b815260040161040b90611ed4565b60405180910390fd5b6040516370a0823160e01b81523060048201526000906001600160a01b038416906370a0823190602401602060405180830381865afa15801561045b573d6000803e3d6000fd5b505050506040513d601f19601f8201168201806040525081019061047f9190611f03565b6001600160a01b038416600090815260086020908152604080832054600690925282205492935090916104b29084611f32565b6104bc9190611f32565b90506000612710600754836104d19190611f45565b6104db9190611f5c565b6001600160a01b038616600090815260086020526040902054909150811161050857506000949350505050565b6001600160a01b03851660009081526008602052604090205461052b9082611f7e565b95945050505050565b61053c6118b6565b6127108111156105795760405162461bcd60e51b81526020600482015260086024820152674d6178203130302560c01b604482015260640161040b565b60078190556040518181527f148051bf12b8fbd47560c7ed877af4699139a1c4661bc184073929923e84632e9060200160405180910390a150565b606080600380548060200260200160405190810160405280929190818152602001828054801561060d57602002820191906000526020600020905b81546001600160a01b031681526001909101906020018083116105ef575b5050600354939550505067ffffffffffffffff821115905061063157610631611f91565b60405190808252806020026020018201604052801561065a578160200160208202803683370190505b50905060005b6003548110156106ca5761069b846003838154811061068157610681611fa7565b6000918252602090912001546001600160a01b0316610f3b565b8282815181106106ad576106ad611fa7565b6020908102919091010152806106c281611fbd565b915050610660565b50915091565b6060600380548060200260200160405190810160405280929190818152602001828054801561072857602002820191906000526020600020905b81546001600160a01b0316815260019091019060200180831161070a575b5050505050905090565b60025460009081906060908190819084906001600160a01b03166107575760006107c5565b6002546040516370a0823160e01b81526001600160a01b038981166004830152909116906370a0823190602401602060405180830381865afa1580156107a1573d6000803e3d6000fd5b505050506040513d601f19601f820116820180604052508101906107c59190611f03565b6002549091506000906001600160a01b03166107e2576000610859565b600260009054906101000a90046001600160a01b03166001600160a01b03166318160ddd6040518163ffffffff1660e01b8152600401602060405180830381865afa158015610835573d6000803e3d6000fd5b505050506040513d601f19601f820116820180604052508101906108599190611f03565b9050600080821161086b576000610882565b8161087884612710611f45565b6108829190611f5c565b60038054604080516020808402820181019092528281529394508301828280156108d557602002820191906000526020600020905b81546001600160a01b031681526001909101906020018083116108b7575b5050600354939950505067ffffffffffffffff82111590506108f9576108f9611f91565b604051908082528060200260200182016040528015610922578160200160208202803683370190505b5060035490955067ffffffffffffffff81111561094157610941611f91565b60405190808252806020026020018201604052801561096a578160200160208202803683370190505b50935060005b600354811015610a34576001600160a01b038a16600090815260056020526040812060038054919291849081106109a9576109a9611fa7565b60009182526020808320909101546001600160a01b0316835282019290925260400190205486518790839081106109e2576109e2611fa7565b602002602001018181525050610a058a6003838154811061068157610681611fa7565b858281518110610a1757610a17611fa7565b602090810291909101015280610a2c81611fbd565b915050610970565b5091989197509395509193509150565b610a4c6118b6565b610a566000611910565b565b610a60611962565b600354610aa45760405162461bcd60e51b81526020600482015260126024820152714e6f20747265617375727920746f6b656e7360701b604482015260640161040b565b6002546040516370a0823160e01b81523360048201526000916001600160a01b0316906370a0823190602401602060405180830381865afa158015610aed573d6000803e3d6000fd5b505050506040513d601f19601f82011682018060405250810190610b119190611f03565b90506000600260009054906101000a90046001600160a01b03166001600160a01b03166318160ddd6040518163ffffffff1660e01b8152600401602060405180830381865afa158015610b68573d6000803e3d6000fd5b505050506040513d601f19601f82011682018060405250810190610b8c9190611f03565b9050600081610b9d84612710611f45565b610ba79190611f5c565b905060005b600354811015610cc957600060038281548110610bcb57610bcb611fa7565b60009182526020822001546001600160a01b03169150610beb3383610f3b565b90508015610cb4573360009081526005602090815260408083206001600160a01b038616845290915281208054839290610c26908490611f32565b90915550506001600160a01b03821660009081526006602052604081208054839290610c53908490611f32565b90915550610c6d90506001600160a01b03831633836119bb565b60408051828152602081018690526001600160a01b0384169133917f91fb9d98b786c57d74c099ccd2beca1739e9f6a81fb49001ca465c4b7591bbe2910160405180910390a35b50508080610cc190611fbd565b915050610bac565b50505050610a566001600055565b610cdf611962565b6000610ceb3383610f3b565b905060008111610d305760405162461bcd60e51b815260206004820152601060248201526f4e6f7468696e6720746f20636c61696d60801b604482015260640161040b565b6002546040516370a0823160e01b81523360048201526000916001600160a01b0316906370a0823190602401602060405180830381865afa158015610d79573d6000803e3d6000fd5b505050506040513d601f19601f82011682018060405250810190610d9d9190611f03565b90506000600260009054906101000a90046001600160a01b03166001600160a01b03166318160ddd6040518163ffffffff1660e01b8152600401602060405180830381865afa158015610df4573d6000803e3d6000fd5b505050506040513d601f19601f82011682018060405250810190610e189190611f03565b9050600081610e2984612710611f45565b610e339190611f5c565b3360009081526005602090815260408083206001600160a01b038a168452909152812080549293508692909190610e6b908490611f32565b90915550506001600160a01b03851660009081526006602052604081208054869290610e98908490611f32565b90915550610eb290506001600160a01b03861633866119bb565b60408051858152602081018390526001600160a01b0387169133917f91fb9d98b786c57d74c099ccd2beca1739e9f6a81fb49001ca465c4b7591bbe2910160405180910390a350505050610f066001600055565b50565b610f116118b6565b610f37610f266001546001600160a01b031690565b6001600160a01b03841690836119bb565b5050565b6002546000906001600160a01b0316610f965760405162461bcd60e51b815260206004820152601860248201527f476f7665726e616e636520746f6b656e206e6f74207365740000000000000000604482015260640161040b565b6001600160a01b03821660009081526004602052604090205460ff16610fce5760405162461bcd60e51b815260040161040b90611ed4565b600254604080516318160ddd60e01b815290516000926001600160a01b0316916318160ddd9160048083019260209291908290030181865afa158015611018573d6000803e3d6000fd5b505050506040513d601f19601f8201168201806040525081019061103c9190611f03565b905080600003611050576000915050611214565b6002546040516370a0823160e01b81526001600160a01b03868116600483015260009216906370a0823190602401602060405180830381865afa15801561109b573d6000803e3d6000fd5b505050506040513d601f19601f820116820180604052508101906110bf9190611f03565b9050806000036110d457600092505050611214565b6040516370a0823160e01b81523060048201526000906001600160a01b038616906370a0823190602401602060405180830381865afa15801561111b573d6000803e3d6000fd5b505050506040513d601f19601f8201168201806040525081019061113f9190611f03565b6001600160a01b038616600090815260086020908152604080832054600690925282205492935090916111729084611f32565b61117c9190611f32565b905060006127106007546127106111939190611f7e565b61119d9084611f45565b6111a79190611f5c565b90506000856111b68684611f45565b6111c09190611f5c565b6001600160a01b03808b166000908152600560209081526040808320938d1683529290522054909150808211611200576000975050505050505050611214565b61120a8183611f7e565b9750505050505050505b92915050565b600060608060606000600380548060200260200160405190810160405280929190818152602001828054801561127957602002820191906000526020600020905b81546001600160a01b0316815260019091019060200180831161125b575b5050600354939750505067ffffffffffffffff821115905061129d5761129d611f91565b6040519080825280602002602001820160405280156112c6578160200160208202803683370190505b5060035490935067ffffffffffffffff8111156112e5576112e5611f91565b60405190808252806020026020018201604052801561130e578160200160208202803683370190505b50915060005b600354811015611431576003818154811061133157611331611fa7565b6000918252602090912001546040516370a0823160e01b81523060048201526001600160a01b03909116906370a0823190602401602060405180830381865afa158015611382573d6000803e3d6000fd5b505050506040513d601f19601f820116820180604052508101906113a69190611f03565b8482815181106113b8576113b8611fa7565b60200260200101818152505060066000600383815481106113db576113db611fa7565b60009182526020808320909101546001600160a01b03168352820192909252604001902054835184908390811061141457611414611fa7565b60209081029190910101528061142981611fbd565b915050611314565b50506002546007546001600160a01b0390911694509091929394565b611455611962565b6001600160a01b03821660009081526004602052604090205460ff1661148d5760405162461bcd60e51b815260040161040b90611ed4565b600081116114d25760405162461bcd60e51b81526020600482015260126024820152710416d6f756e74206d757374206265203e20360741b604482015260640161040b565b6114e76001600160a01b038316333084611a23565b6040518181526001600160a01b0383169033907f4cf1ee5253a261e0dbca16e4332e8edef92787b48c1cbb3e905e1b2ebbebc6329060200160405180910390a3610f376001600055565b6115396118b6565b6001600160a01b0381166115815760405162461bcd60e51b815260206004820152600f60248201526e496e76616c6964206164647265737360881b604482015260640161040b565b6001600160a01b03811660009081526004602052604090205460ff16156115e05760405162461bcd60e51b8152602060048201526013602482015272151bdad95b88185b1c9958591e481859191959606a1b604482015260640161040b565b6003805460018082019092557fc2575a0e9e593c00f959f8c92f12db2869c3395a3b0502d05e2516446f71f85b0180546001600160a01b0319166001600160a01b038416908117909155600081815260046020526040808220805460ff1916909417909355915190917f16fff85ce7e2f5c7f2f1e7d636bca81f98a6057baa42c257fc888987a46b7cd091a250565b6116776118b6565b6001600160a01b0381166116dc5760405162461bcd60e51b815260206004820152602660248201527f4f776e61626c653a206e6577206f776e657220697320746865207a65726f206160448201526564647265737360d01b606482015260840161040b565b610f0681611910565b6116ed6118b6565b6002546001600160a01b0316156117345760405162461bcd60e51b815260206004820152600b60248201526a105b1c9958591e481cd95d60aa1b604482015260640161040b565b6001600160a01b03811661177c5760405162461bcd60e51b815260206004820152600f60248201526e496e76616c6964206164647265737360881b604482015260640161040b565b600280546001600160a01b0319166001600160a01b0383169081179091556040517f3ba24b3c4ab2560aa8c371227cd2ce1851c3c62c25b749c681fa8bc6402c3c0790600090a250565b6117ce6118b6565b6117d6611962565b60006117e1826103d3565b9050600081116118265760405162461bcd60e51b815260206004820152601060248201526f4e6f7468696e6720746f20636c61696d60801b604482015260640161040b565b6001600160a01b0382166000908152600860205260408120805483929061184e908490611f32565b9091555050600154611868906001600160a01b0316610f26565b816001600160a01b03167f7f36cb738e7e0427042dc19669b1186fd858a03b8e699e089a4306ab78a160cb826040516118a391815260200190565b60405180910390a250610f066001600055565b6001546001600160a01b03163314610a565760405162461bcd60e51b815260206004820181905260248201527f4f776e61626c653a2063616c6c6572206973206e6f7420746865206f776e6572604482015260640161040b565b600180546001600160a01b038381166001600160a01b0319831681179093556040519116919082907f8be0079c531659141344cd1fd0a4f28419497f9722a3daafe3b4186f6b6457e090600090a35050565b6002600054036119b45760405162461bcd60e51b815260206004820152601f60248201527f5265656e7472616e637947756172643a207265656e7472616e742063616c6c00604482015260640161040b565b6002600055565b6040516001600160a01b038316602482015260448101829052611a1e90849063a9059cbb60e01b906064015b60408051601f198184030181529190526020810180516001600160e01b03166001600160e01b031990931692909217909152611a61565b505050565b6040516001600160a01b0380851660248301528316604482015260648101829052611a5b9085906323b872dd60e01b906084016119e7565b50505050565b6000611ab6826040518060400160405280602081526020017f5361666545524332303a206c6f772d6c6576656c2063616c6c206661696c6564815250856001600160a01b0316611b369092919063ffffffff16565b9050805160001480611ad7575080806020019051810190611ad79190611fd6565b611a1e5760405162461bcd60e51b815260206004820152602a60248201527f5361666545524332303a204552433230206f7065726174696f6e20646964206e6044820152691bdd081cdd58d8d9595960b21b606482015260840161040b565b6060611b458484600085611b4d565b949350505050565b606082471015611bae5760405162461bcd60e51b815260206004820152602660248201527f416464726573733a20696e73756666696369656e742062616c616e636520666f6044820152651c8818d85b1b60d21b606482015260840161040b565b600080866001600160a01b03168587604051611bca919061201c565b60006040518083038185875af1925050503d8060008114611c07576040519150601f19603f3d011682016040523d82523d6000602084013e611c0c565b606091505b5091509150611c1d87838387611c28565b979650505050505050565b60608315611c97578251600003611c90576001600160a01b0385163b611c905760405162461bcd60e51b815260206004820152601d60248201527f416464726573733a2063616c6c20746f206e6f6e2d636f6e7472616374000000604482015260640161040b565b5081611b45565b611b458383815115611cac5781518083602001fd5b8060405162461bcd60e51b815260040161040b9190612038565b80356001600160a01b0381168114611cdd57600080fd5b919050565b60008060408385031215611cf557600080fd5b611cfe83611cc6565b9150611d0c60208401611cc6565b90509250929050565b600060208284031215611d2757600080fd5b5035919050565b600060208284031215611d4057600080fd5b611d4982611cc6565b9392505050565b600081518084526020808501945080840160005b83811015611d895781516001600160a01b031687529582019590820190600101611d64565b509495945050505050565b600081518084526020808501945080840160005b83811015611d8957815187529582019590820190600101611da8565b604081526000611dd76040830185611d50565b828103602084015261052b8185611d94565b602081526000611d496020830184611d50565b85815284602082015260a060408201526000611e1b60a0830186611d50565b8281036060840152611e2d8186611d94565b90508281036080840152611e418185611d94565b98975050505050505050565b60008060408385031215611e6057600080fd5b611e6983611cc6565b946020939093013593505050565b6001600160a01b038616815260a060208201819052600090611e9b90830187611d50565b8281036040840152611ead8187611d94565b90508281036060840152611ec18186611d94565b9150508260808301529695505050505050565b602080825260159082015274546f6b656e206e6f7420696e20747265617375727960581b604082015260600190565b600060208284031215611f1557600080fd5b5051919050565b634e487b7160e01b600052601160045260246000fd5b8082018082111561121457611214611f1c565b808202811582820484141761121457611214611f1c565b600082611f7957634e487b7160e01b600052601260045260246000fd5b500490565b8181038181111561121457611214611f1c565b634e487b7160e01b600052604160045260246000fd5b634e487b7160e01b600052603260045260246000fd5b600060018201611fcf57611fcf611f1c565b5060010190565b600060208284031215611fe857600080fd5b81518015158114611d4957600080fd5b60005b83811015612013578181015183820152602001611ffb565b50506000910152565b6000825161202e818460208701611ff8565b9190910192915050565b6020815260008251806020840152612057816040850160208701611ff8565b601f01601f1916919091016040019291505056fea264697066735822122047a6c38ed83c56dae0f1eec39c926e8eaedca0a7c3b732d08145b5200b805e2164736f6c63430008140033",
  "linkReferences": {},
  "deployedLinkReferences": {}
}